:100000000C940A010C941F010C941F010C941F0105
:100010000C941F010C941F010C941F010C941F01E0
:100020000C941F010C941F010C941F010C941F01D0
:100030000C941F010C941F010C941F010C941F01C0
:100040000C941F010C941F010C941F010C941F01B0
:100050000C941F010C941F010C941F010C941F01A0
:100060000C941F010C941F010C941F010C941F0190
:100070000C941F010C941F010C941F010C941F0180
:100080000C941F010C941F010C941F010C941F0170
:100090000C941F010C941F010C941F010C941F0160
:1000A0000C941F010C941F010C941F01BAD1E2ADF6
:1000B000AD4895DF615DA7B6E6F7B3CB0FDEB9C9F2
:1000C000AAC3B079BD13474C5C53DD9C3455978966
:1000D000988536DFBF362DE3DADA4BDAAFBD65B887
:1000E000EAFC91E7702A4A13D38EF93CA5D6A1F415
:1000F000D2D25335E49D6957B02CDE2905C1D78093
:10010000EB7A25E68B4288748E611B102FB58A1717
:10011000FCB839998835527B88356AD2324FF21152
:100120005FEEE821F5E3487E85725976F558A7BD64
:10013000E661444E2464A938E2002D2EF3FEBE6B26
:10014000A4EA991FB182E2D433BA9E023AB7C70833
:1001500066DD86D02C5AD97633BADE962C85039686
:100160008B106BB25292CD132B8A3338D593CA338E
:1001700014E0BB7BF992393CB6C6BF652F77DFF53B
:10018000679E05BAB7523F679CBD87AAEE92A6E963
:10019000B6E703FF22EE7130E5678ABBB1FAFCB027
:1001A0001F27EC66EBA85EF5102CB3A483FFE7E6EF
:1001B000DAD4A692FD0303F9C07F92779E1F478889
:1001C0004241FAECE9DF202C872C091A646B01D438
:1001D00060016001E9478A374D85D6FAE5B66D378B
:1001E000AF491681D78086320678B30FB30FB30FAD
:1001F0009BD377A177A1C63A6AE463326332633254
:1002000039584A684A68CF44F93C3FD84445444588
:10021000F93CA69211241FBECFEFDAE0DEBFCDBFBE
:1002200011E0A0E0B1E0E2E9F7E002C005900D9234
:10023000AE32B107D9F70E9480030C94C7030C9427
:1002400000008093670190936801E1E0F0E0019085
:100250000F92EE31E1F7EDB7FEB7E0935F01F09357
:100260006001E0E0E0936101E0936201E0E0F1E031
:10027000E0936301F0936401C0E0D1E0C0936501B5
:10028000D09366011FC0C0916501D0916601E091D5
:100290006301F09164012196C93081F73196E9300C
:1002A00039F7E0915F01F0916001EDBFFEBFEEE133
:1002B000F0E00F900292E130E1F7809161019091BE
:1002C00062010895A9911990CEE5D1E0CDBFDEBFBE
:1002D00001900F9201900F92C0916701D091680137
:1002E000CF93DF9301900F9201900F92C2E0D0E084
:1002F00001900992CC31E1F7C191C5B9C091670174
:10030000D0916801CE50D24038F0C191CFBFC19199
:10031000D191EF91FF910895C191CFBF0F900F90B0
:10032000A1E0B0E0C2E0D0E0E3E0F0E008950394A3
:10033000FF93EF93DF93DFB7DF93D5B1DF93E0E077
:10034000F0E0D191DF93ED31E1F7C0916101D091FF
:100350006201BF91CB0FDB1FCC0FDD1F10F0C75D1B
:10036000DA40BDB7BE35A9F7C0936101D0936201F1
:100370008ACF00010203E3E7F3E00895D0935E0122
:10038000DFB7E357F3404E0F5F0FD2CFF4DFC895CE
:10039000F5CF0000F0DFA491F1CF0000ECDFA591D4
:1003A000EDCF000080911500C3CF00008C91C0CF2D
:1003B0008D91BECF8E91BCCFA881BACFA991B8CF75
:1003C000AA91B6CFAD81B4CFA081B2CFA191B0CF69
:1003D000A291AECFA581ACCF80931500A9CF00002C
:1003E0008C93A6CF8D93A4CF8E93A2CFA883A0CFBA
:1003F000A9939ECFAA939CCFAD839ACFA08398CF89
:10040000A19396CFA29394CFA58392CFAF9390CF91
:100410001F928ECFAF918CCF1F908ACF000088CFD4
:10042000A29586CF129484CFA19582CF119480CFCC
:10043000AA957ECF1A947CCFA3957ACF139478CFC8
:10044000A09576CF109474CFA59572CF159470CFE8
:10045000A6956ECF16946CCFA7956ACF179468CFE8
:10046000CD0166CF010164CFA82F62CF132C60CFDE
:10047000A8175ECF13145CCFA8075ACF130458CF28
:10048000A80F56CF130C54CFA81F52CF131C50CF18
:10049000A81B4ECF13184CCFA80B4ACF130848CF38
:1004A000A82346CF132044CFA82742CF132440CF00
:1004B000A82B3ECF13283CCFA0E03ACFA1E038CF05
:1004C000AFE036CFA0E134CFAFE732CFA0E830CFF6
:1004D000A1E82ECFAFEF2CCFA0302ACFA13028CF6C
:1004E000AF3026CFA03124CFAF3722CFA03820CFD6
:1004F000A1381ECFAF3F1CCFA0501ACFA15018CFAC
:10050000AF5016CFA05114CFAF5712CFA05810CF75
:10051000A1580ECFAF5F0CCFA0400ACFA14008CFAB
:10052000AF4006CFA04104CFAF4702CFA04800CFD5
:10053000A148FECEAF4FFCCEA575FACEAA7AF8CE72
:10054000A565F6CEAA6AF4CE1196F2CE9096F0CEBC
:100550001197EECE9097ECCE7A2F709FE9CE0000E7
:100560007A2F7002E5CE00007A2F7003E1CE0000F2
:100570007A2F7803DDCE00007A2FF003D9CE000069
:100580007A2FF803D5CE00008894D2CE9894D0CE9E
:10059000A894CECEB894CCCEC894CACED894C8CEA7
:1005A000E894C6CEF894C4CE0894C2CE1894C0CEB7
:1005B0002894BECE3894BCCE4894BACE5894B8CEC7
:1005C0006894B6CE7894B4CEA0F9B2CEA7F9B0CEE6
:1005D00010F8AECEA0FBACCEA7FBAACE10FAA8CEE8
:1005E0002898A6CE2F98A4CE289AA2CE2F9AA0CE35
:1005F000A5B19ECE15B09CCEA5B99ACE15B898CE11
:100600002F99109495CE00002F99109491CE000050
:10061000289B10948DCE00002F9B109489CE000053
:1006200010FC109485CE000017FC109481CE0000C1
:1006300080FD10947DCE000010FE109479CE000055
:1006400017FE109475CE000080FF109471CE00004C
:100650008A1310946DCE00001310109469CE000020
:1006600078F566CE69F564CE5AF562CE4BF560CE6C
:100670003CF55ECE2DF55CCE1EF55ACE0FF558CE6C
:10068000F8F056CEE9F054CEDAF052CECBF050CEA0
:10069000BCF04ECEADF04CCE9EF04ACE8FF048CEA0
:1006A00047CE46CE23D044CEE4E6F3E009940000E2
:1006B000EAE6F3E00995000005D03ACE04D038CE42
:1006C000A09536CE08951895D0935E01DFB7E45615
:1006D000F3402ECED0935E01DFB7EA56F3404E0FC3
:1006E0005F0FFF91EF91EB55F34022CED0935E0167
:1006F000DFB74E0F5F0FFF91EF91E355F34018CE38
:10070000EF92FF920F931F93CF93DF93F89414B857
:1007100080E085B995B1981711F086E412C0815038
:10072000C1F710922D01C6ECD1E00CEA10E0F12CDB
:1007300096E4E92E83E0C036D80770F080E5F1102A
:10074000ECCF8093F10090E080E0DF91CF911F919A
:100750000F91FF90EF900895CE010E942101F801C2
:10076000259134918217930721F0E092F100FF2444
:10077000F394FE013396EE0FFF1F85919491892B20
:1007800021F022960E5F1F4FD5CF2496FBCFF89411
:02079000FFCF99
:1007920000010F10117F8081FF00010F10117F8077
:1007A20081FF00010F10117F8081FF00010F1011E6
:0E07B2007F8081FF00010F10117F8081FF7B8F
:00000001FF
