:100000000C9449030C9471030C9471030C947103C8
:100010000C9471030C9471030C9471030C94710390
:100020000C9471030C9471030C94B10E0C94200F7A
:100030000C9471030C9471030C9471030C94710370
:100040000C9471030C9471030C9471030C94710360
:100050000C9471030C9471030C9471030C94670E4F
:100060000C9471030C9471030C9471030C94710340
:100070000C9471030C9471030C9471030C94710330
:100080000C9471030C9471030C9471030C94710320
:100090000C9471030C9471030C9471030C94710310
:1000A0000C9471030C9471030C9471030000000014
:1000B000003E5B4F5B3E3E6B4F6B3E1C3E7C3E1CEE
:1000C000183C7E3C181C577D571C1C5E7F5E1C0034
:1000D000183C1800FFE7C3E7FF0018241800FFE7EB
:1000E000DBE7FF30483A060E2629792926407F05AE
:1000F0000507407F05253F5A3CE73C5A7F3E1C1CC4
:1001000008081C1C3E7F14227F22145F5F005F5F83
:1001100006097F017F006689956A6060606060946F
:10012000A2FFA29408047E040810207E2010080874
:100130002A1C08081C2A08081E101010100C1E0C7F
:100140001E0C30383E3830060E3E0E060000000011
:100150000000005F00000007000700147F147F14F8
:10016000242A7F2A1223130864623649562050003D
:1001700008070300001C2241000041221C002A1C29
:100180007F1C2A08083E0808008070300008080814
:100190000808000060600020100804023E51494534
:1001A0003E00427F400072494949462141494D3352
:1001B0001814127F1027454545393C4A49493141B9
:1001C000211109073649494936464949291E000087
:1001D00014000000403400000008142241141414DC
:1001E0001414004122140802015909063E415D59C8
:1001F0004E7C1211127C7F494949363E41414122D1
:100200007F4141413E7F494949417F090909013EFA
:10021000414151737F0808087F00417F4100204021
:10022000413F017F081422417F404040407F021C33
:10023000027F7F0408107F3E4141413E7F0909094A
:10024000063E4151215E7F09192946264949493216
:1002500003017F01033F4040403F1F2040201F3FDC
:100260004038403F63140814630304780403615961
:10027000494D43007F4141410204081020004141A3
:10028000417F04020102044040404040000307084F
:100290000020545478407F2844443838444444284B
:1002A000384444287F385454541800087E090218F2
:1002B000A4A49C787F0804047800447D400020407A
:1002C000403D007F1028440000417F40007C0478BE
:1002D00004787C080404783844444438FC18242406
:1002E0001818242418FC7C08040408485454542486
:1002F00004043F44243C4040207C1C2040201C3C03
:100300004030403C44281028444C9090907C4464F9
:10031000544C44000836410000007700000041368C
:10032000080002010204023C2623263C1EA1A16112
:10033000123A4040207A3854545559215555794144
:100340002154547841215554784020545579400C1B
:100350001E527212395555555939545454593955FC
:100360005454580000457C410002457D420001453F
:100370007C40F0292429F0F0282528F07C545545AC
:10038000002054547C547C0A097F4932494949323F
:100390003248484832324A4848303A4141217A3A54
:1003A00042402078009DA0A07D39444444393D401E
:1003B00040403D3C24FF2424487E4943662B2FFCCB
:1003C0002F2BFF0929F620C0887E09032054547979
:1003D000410000447D413048484A32384040227A4A
:1003E000007A0A0A727D0D19317D2629292F2826C7
:1003F0002929292630484D402038080808080808CF
:100400000808382F10C8ACBA2F102834FA00007B27
:10041000000008142A142222142A1408950022002D
:1004200095AA005500AAAA55AA55AA000000FF00E7
:10043000101010FF00141414FF001010FF00FF1024
:1004400010F010F0141414FC001414F700FF000056
:10045000FF00FF1414F404FC141417101F10101FD5
:10046000101F1414141F00101010F0000000001FC3
:10047000101010101F10101010F010000000FF10CE
:100480001010101010101010FF10000000FF1400CA
:1004900000FF00FF00001F10170000FC04F41414FC
:1004A0001710171414F404F40000FF00F7141414C8
:1004B00014141414F700F7141414171410101F1048
:1004C0001F141414F4141010F010F000001F101F6B
:1004D0000000001F14000000FC140000F010F010D9
:1004E00010FF10FF141414FF141010101F00000050
:1004F00000F010FFFFFFFFFFF0F0F0F0F0FFFFFF54
:100500000000000000FFFF0F0F0F0F0F38444438AA
:10051000447C2A2A3E147E02020606027E027E02E5
:1005200063554941633844443C04407E201E200604
:10053000027E020299A5E7A5991C2A492A1C4C7241
:1005400001724C304A4D4D303048784830BC625AC8
:10055000463D3E494949007E0101017E2A2A2A2A58
:100560002A44445F444440514A444040444A514034
:100570000000FF0103E080FF000008086B6B0836F5
:1005800012362436060F090F060000181800000066
:100590001010003040FF0101001F01011E00191D55
:1005A0001712003C3C3C3C0000000000080B00021D
:1005B00002020000090400000102020000052400FC
:1005C000100105240101010424020605240600018E
:1005D0000705810310004009040100020A00000021
:1005E00007050202400000070583024000000403E3
:1005F000090412010002EF0201404123368000018C
:100600000102030141726475696E6F204C4C430016
:1006100041726475626F7900D5F08D14A1C881CFE5
:10062000D9F1AF20006D6574612C706C6C637372CE
:100630002C006D6574612C666978747572655F76DF
:10064000657273696F6E2C006D6574612C665F63F3
:1006500070752C00415244454E535F54494D4552EC
:100660005F454447455F41434355524143592C310F
:1006700000454E440073657269616C20656D697454
:100680007465640074696D65722065646765000057
:10069000521111241FBECFEFDAE0DEBFCDBF11E053
:1006A000A0E0B1E0ECECF6E202C005900D92AA3EAB
:1006B000B107D9F726E0AAEEB1E001C01D92A0393A
:1006C000B207E1F713E0C9E4D3E004C02197FE01CB
:1006D0000E945E13C834D107C9F70E946F110C94B1
:1006E00064130C940000FC0180913B06882311F1F7
:1006F0003FB7F89482E08093E9002091F200822FC6
:1007000090E01816190614F481E090E0882339F07F
:10071000289844E640933A064091F1004083222312
:1007200039F02091F200211103C02BE62093E8005C
:100730003FBF08958FEF9FEF08952FB7F89483E0A0
:100740008093E9009091E800892F807295FF04C0A2
:100750009091F20080E4891B2FBF089580913206AA
:1007600081110DC082E080932E0684E080932F06D5
:10077000109231061092300681E0809332068EE2AC
:1007800096E00895FC010E94DA03319728F0685141
:100790007C4F8F4F9F4FF9CFAB01FC010E94DA03D2
:1007A000641775078E079F07C8F3089585E090E0EA
:1007B0000C94C203AAE2B6E02FB7F8947D918D9114
:1007C0009C9166B52FBFA89B05C06F3F18F47F5F53
:1007D0008F4F9F4F22E0660F771F881F991F2A9522
:1007E000D1F70895409115025091160220911302FD
:1007F0003091140242175307B4F49091E8009570B9
:10080000E1F39091E80092FD19C08093F10080918E
:1008100015029091160201968F739927892B19F46E
:100820008EEF8093E8008091150290911602019658
:10083000909316028093150281E0089580E0089558
:10084000EF92FF920F931F93CF93DF93F82E192F00
:10085000E62E042F81E0860F880F0E94F20383E0CA
:100860000E94F203CF2DD12FEC0EFD2EF11CCE15E0
:10087000DF05B9F007FF13C0FE0184910E94F20367
:10088000182F80E00E94F203812321968111EFCF7F
:10089000DF91CF911F910F91FF90EF900895888184
:1008A000EDCF81E0F5CFDF92EF92FF920F931F9390
:1008B000CF93DF93D82E8A01EB017B01E40EF51E66
:1008C000CE15DF0559F0D7FE12C0FE0184910E94BB
:1008D000F20321968111F4CF0FEF1FEFC801DF91D2
:1008E000CF911F910F91FF90EF90DF900895888135
:1008F000EECF0F931F93CF93DF931F92CDB7DEB749
:1009000082E0898342E450E06CEA75E080E80E946E
:1009100053040E94AE03DC0112960D911C91011547
:10092000110589F0D801ED91FC910280F381E02D51
:10093000BE016F5F7F4FC801099597FD04C0F801A4
:1009400000851185ECCF89810F90DF91CF911F91A8
:100950000F910895615030F02091F100FC01208347
:100960000196F8CF289884E680933A060895EF928E
:10097000FF920F931F93CF93DF938C017B01D0E005
:10098000C0E0F701EC0FFD1F6491662361F0D80110
:10099000ED91FC910190F081E02DC8010995892B22
:1009A00011F02196EECFCE01DF91CF911F910F91E3
:1009B000FF90EF900895AF92BF92CF92DF92EF92A7
:1009C000FF920F931F93CF93DF936C017B018B01F9
:1009D000040F151FEB015E01AE18BF08C017D10749
:1009E00059F06991D601ED91FC910190F081E02DD3
:1009F000C6010995892B79F7C501DF91CF911F9128
:100A00000F91FF90EF90DF90CF90BF90AF9008953F
:100A10008F929F92AF92BF92CF92DF92EF92FF920E
:100A20000F931F93CF93DF936C017B018A01809119
:100A30000B01882309F45AC080913B06882309F4EE
:100A400055C08091190280FF05C08091E00082604E
:100A50008093E000E801B12C8AEFA82E93E0892E64
:100A60002AE3922E209711F4BB20C9F10E949D0326
:100A7000811108C0AA94AA20C9F181E090E00E94E7
:100A8000C203F0CF8C171D0611F00CF08C2F9FB70E
:100A9000F8948092E9002091E80025FD02C09FBFF4
:100AA000E1CF282F30E0C21BD30BF701815020F09B
:100AB00041914093F100FACFE20EF31EBB2021F0EA
:100AC0009092E800B12CEBCF8091E80085FDE7CF54
:100AD0009092E800BB24B394209709F3F3CF5D987C
:100AE00084E680931802101611063CF081E090E035
:100AF000F6019383828310E000E0C801DF91CF917B
:100B00001F910F91FF90EF90DF90CF90BF90AF902B
:100B10009F908F900895CF93DF931F92CDB7DEB74C
:100B20006983DC01ED91FC910280F381E02D41E0CD
:100B300050E0BE016F5F7F4F09950F90DF91CF911D
:100B40000895682F8CE396E00C948B0583E08093E6
:100B5000E9008091F200882319F08AE38093E8008D
:100B600008950E949D0390E00895CF93DF931F9214
:100B7000CDB7DEB7FC018485958597FD08C02FEFC2
:100B80003FEF358724870F90DF91CF910895CE01F5
:100B900001960E947303019719F4898190E0F3CFC5
:100BA0008FEF9FEFF0CF0F931F93CF93DF931F92A1
:100BB000CDB7DEB78C01FC018485958597FF0BC00E
:100BC000CE0101960E947303019771F4898190E030
:100BD000F80195878487F801848595850F90DF91CA
:100BE000CF911F910F9108958FEF9FEFF1CFFC01EF
:100BF0008485958597FD0BC09FB7F89482E080931C
:100C0000E9008091F2009FBF90E0019608959FB7A0
:100C1000F89482E08093E9008091F2009FBF90E019
:100C200008956F927F928F929F92AF92BF92CF92D0
:100C3000DF92EF92FF920F931F93CF93DF9300D039
:100C40001F92CDB7DEB76D3089F0A0902206B0902C
:100C500023066A30F9F410922106109220069501BD
:100C6000285F3F4F309323062093220681E090E0D7
:100C70000F900F900F90DF91CF911F910F91FF90E8
:100C8000EF90DF90CF90BF90AF909F908F907F902C
:100C90006F900895009120061091210635E0639F22
:100CA000F0011124E455FF4FA801712C80E1682E5A
:100CB00098E0D92EDA0C75E060E0771621F0CF01CC
:100CC00001966491FC01C50140385105D0F480348F
:100CD0009105B8F4A62FA170CA2E9C0171E021FDE8
:100CE00074E020FD770F22FD7295287F629ED0016F
:100CF0001124A40FA05EBD4F0C90072AC0FE07264A
:100D00000C9266950196D812DFCF73944F5F5F4FB8
:100D100086E07812D0CF0A5F1F4F10932106009310
:100D20002006A4CF14BC15BC10926E008FEF85BBBB
:100D300010928000109281001092820010926F0039
:100D400086BB109290001092910010929200109227
:100D5000710088BB1092C0001092C1001092C200B6
:100D60001092C3001092C4001092720089BB13BC91
:100D700008959093EB018093EA016093EC01109247
:100D8000120210921102EDEEF1E01192119282E046
:100D9000E131F807D1F78AEE91E0089568E081E348
:100DA00091E00E94B9060396DC0120E020936F00D9
:100DB0002093800020938100209382002FEF2093C6
:100DC000360020E0209385002AEF2093840021E064
:100DD000209381000000000000000000409184008A
:100DE0000000000000000000000000000000000003
:100DF00000000000000000000000000000000000F3
:100E000050918500609184007091850080918400EC
:100E1000909185002091360030E04D933D935D9395
:100E20003D934D935D936D933D937D933D936D9372
:100E30007D938D939D932D933D9308950F931F93D1
:100E400068E08FE391E00E94B9060396DC0120E0A0
:100E500020936F00209380002093810020938200D4
:100E60002FEF2093360020E02093850020E320938D
:100E7000840021E0209381000000000000000000B9
:100E8000000000000000000022E020938500000028
:100E90000000000000004091850020E120938400C4
:100EA0005091840060918500000000000000000067
:100EB0000000000000000000709184008091850017
:100EC000909185000091840010913600209181005E
:100ED00030E04D933D935D936D937D938D939D9302
:100EE0003D930D933D931D933D932D933D933D93E2
:100EF0003D931F910F9108956CE08EE491E00E9464
:100F0000B9060396DC0130E030936E0030936F0039
:100F1000309344003093450030938000309381003B
:100F2000309382002FEF2093350026E12093470075
:100F300025E12093460021E02093450000000000B9
:100F40000000000040914600509135004D933D93C4
:100F50005D933D93309345002FEF2093350026E1BC
:100F60002093470024E12093460021E02093450090
:100F7000000000000000000000000000409146005A
:100F8000509135004D933D935D933D933093810097
:100F90002FEF2093360020E02093890026E1209354
:100FA000880020E02093850025E12093840021E043
:100FB00020938100000000000000000040918400A8
:100FC00050918500609136004D935D936D933D93F4
:100FD000309381002FEF2093360020E0209389008A
:100FE00026E12093880020E02093850024E12093CF
:100FF000840021E020938100000000000000000038
:1010000000000000409184005091850060913600FE
:101010004D935D936D933D934091470050918800AF
:1010200060914500709181004D933D935D933D9398
:101030006D933D937D933D9308956EE082E691E03C
:101040000E94B9060396DC0130E030936F003093C4
:101050008000309381003093820020E0209387004D
:1010600025E02093860020E02093890023E0209350
:1010700088002FEF2093360020E02093850024E0A5
:101080002093840021E1209381000000409184009E
:1010900050918500609136004D935D936D933D9323
:1010A0000000000000000000409184005091850085
:1010B000609136004D935D936D933D930000000069
:1010C00000000000000000000000000040918400CB
:1010D00050918500609136004D935D936D933D93E3
:1010E0000000000000000000000000000000000000
:1010F0004091840050918500609136004D935D933E
:101100006D933D930000000000000000000000000F
:1011100000000000409184005091850060913600ED
:101120004D935D936D933D9300000000000000001F
:1011300000000000000000004091840050918500F4
:10114000609136004D935D936D933D934091860081
:10115000509188004D933D935D933D9308956EE0CB
:1011600086E791E00E94B9060396DC0130E03093F7
:101170006F0030938000309381003093820020E034
:101180002093870029E02093860020E020938B00A5
:1011900027E020938A002FEF2093360020E0209351
:1011A000850026E02093840022E02093800029E13E
:1011B0002093810020E020938B0022E020938A007E
:1011C000000000004091840050918500609136003D
:1011D0004D935D936D933D9300000000000000006F
:1011E000000000004091840050918500609136001D
:1011F0004D935D936D933D9300000000000000004F
:101200000000000000000000000000004091840089
:1012100050918500609136004D935D936D933D93A1
:101220002FEF2093360000000000000000004091E6
:10123000840050918500609136004D935D936D93CD
:101240003D930000000000000000000000000000CE
:101250000000000000000000000040918400509158
:101260008500609136004D935D936D933D93409161
:101270008A005091860060918000709181004D93AA
:101280003D935D933D936D933D937D933D93089581
:101290000F936EE087E891E00E94B9060396DC01A7
:1012A00030E030936E0030937100309344003093FF
:1012B000450030939000309391003093920020913C
:1012C0002400206820932400209125002F7720936C
:1012D00025002FEF2093350020E42093440020E8E0
:1012E000209345004091230040785091250050788C
:1012F000609135007091450020E820934500809171
:1013000023008078909125009078009135004D93CE
:101310003D935D933D936D933D937D933D938D936D
:101320003D939D933D930D933D9320912700206421
:1013300020932700209128002F7B209328002FEF57
:101340002093380020E42093900020E8209392001E
:1013500040912600407450912800507460913800EC
:101360007091920020E82093920080912600807472
:10137000909128009074009138004D933D935D93B7
:101380003D936D933D937D933D938D933D939D93BD
:101390003D930D933D930F91089562E181E991E0B2
:1013A0000E94B906DC01139630E030936E00309352
:1013B00044003093450020912400206820932400AD
:1013C000209125002F772093250024E020934700CB
:1013D00021E0209346002FEF2093350020E4209356
:1013E000440021E0209345000000000040914600A9
:1013F000509123005078609135004D933D935D935B
:101400003D936D933D93000000000000000000003C
:1014100000004091460050912300507860913500C3
:101420004D933D935D933D936D933D9330E03093A9
:10143000710030939000309391003093920020918E
:101440002700206420932700209128002F7B2093E1
:10145000280020E02093990024E02093980020E0C9
:101460002093950021E0209394002FEF20933800E3
:1014700020E42093900021E02093910000000000E0
:101480004091940050919500609126006074709195
:1014900038004D935D936D933D937D933D93000094
:1014A000000000000000000000000000000040916B
:1014B00094005091950060912600607470913800FE
:1014C0004D935D936D933D937D933D9330E03093C9
:1014D00072003093C0003093C1003093C20030934B
:1014E000C3003093C4002091270020682093270078
:1014F000209128002F772093280020E02093BF0020
:101500002FE12093D10020E02093BF0024E020931E
:10151000CF0020E02093BF0021E02093BE002FEFFA
:101520002093390020E42093C00021E02093C100E3
:1015300000000000000000000000000000000000AB
:101540004091BE005091BF005770609126006078B6
:10155000709139004D935D936D933D937D933D93D1
:10156000000000000000000000000000000000007B
:1015700000000000000000004091BE005091BF003C
:101580005770609126006078709139004D935D939B
:101590006D933D937D933D9308956CE081EA91E0D6
:1015A0000E94B9060396DC0130E020916400277F99
:1015B00020936400209165002F7E20936500309376
:1015C0006F0030938000309381003093820030931D
:1015D0008500309384002FEF2093360021E0209384
:1015E000810000000000000000000000000000007A
:1015F00000000000000000000000000000000000EB
:101600000000409184005091850020916400286082
:10161000209364004D935D930000000000000000E3
:1016200000000000000000000000000000000000BA
:1016300000000000000000000000000000000000AA
:10164000000000000000000000000000000000009A
:10165000000000000000000000000000000000008A
:10166000000000000000000000000000000000007A
:1016700000000000000000004091840050918500AF
:101680006091360020916400277F209364004D9381
:101690005D936D933D93000000000000000000008A
:1016A000000000000000000000000000000000003A
:1016B000000000000000409184005091850060917E
:1016C00036004D935D936D933D933093720030934C
:1016D000C0003093C1003093C2003093C3003093F8
:1016E000C40020E02093BF002FEF2093D10020E022
:1016F0002093BF002093BE002FEF2093390021E0FC
:101700002093C10000000000000000000000000065
:1017100000000000000000000000000000000000C9
:1017200000000000000000000000000000000000B9
:10173000000000004091BE005091BF005770209102
:1017400065002061209365004D935D9300000000CB
:101750000000000000000000000000000000000089
:101760000000000000000000000000000000000079
:101770000000000000000000000000000000000069
:101780000000000000000000000000000000000059
:101790000000000000000000000000000000000049
:1017A0000000000000000000000000000000000039
:1017B0000000000000000000000000000000000029
:1017C0000000000000000000000000004091BE008A
:1017D0005091BF00577060913900209165002F7EB5
:1017E000209365004D935D936D933D930000000041
:1017F00000000000000000000000000000000000E9
:1018000000000000000000000000000000000000D8
:101810000000000000000000000000004091BE0039
:101820005091BF00577060913900709164008091B1
:1018300065004D935D936D933D937D933D938D93A3
:101840003D9308950F931F936CE082EB91E00E940B
:10185000B9060396DC0130E0309372003093C0008B
:101860003093C1003093C2003093C3003093C40062
:101870003093BF002FEF2093D10020E02093BF00D2
:101880002093BE002FEF2093390021E02093C10068
:101890000000000000000000000000000000000048
:1018A0000000000000000000000000000000000038
:1018B0004091BE005091BF00577021E02093BF00BF
:1018C00020E22093BE006091BE007091BF0077704F
:1018D0008091BE009091BF00977000000000000052
:1018E00000000000000000000000000000000000F8
:1018F00000000091BE001091BF00177020913900C8
:101900004D935D936D937D936D933D937D933D9347
:101910008D939D938D933D939D933D930D931D9337
:101920002D933D934091BE005091BF005770609140
:10193000C1004D933D935D933D936D933D931F91F6
:101940000F9108950F931F936AE085EC91E00E9438
:10195000B9060396DC0130E0309372003093C0008A
:101960003093C1003093C2003093C3003093C40061
:1019700021E02093BF002FEF2093D10020E020939F
:10198000BF002EEF2093BE002FEF2093390021E0FF
:101990002093C100000000004091BE000000000044
:1019A0000000000000000000000000000000000037
:1019B0000000000000000000000000005091BF0087
:1019C00057706091BE007091BF0077708091BE002B
:1019D0009091BF009770009139001091D100209133
:1019E000C1004D933D935D933D934D935D936D93F6
:1019F0003D937D933D936D937D938D939D930D9337
:101A00003D931D933D932D933D931F910F91089509
:101A10006FE083ED91E00E94B9060396DC0130E0AF
:101A2000309372003093C0003093C1003093C200F5
:101A30003093C3003093C40020E02093BF002FE018
:101A40002093D10020E02093BF0024E02093CF001A
:101A500020E02093BF002AE02093BE002FEF2093C8
:101A6000390022E82093C00020E82093C40021E040
:101A70002093C10020E02093BF002AE02093CF00F4
:101A800020E02093BF0023E12093D100000000005C
:101A90000000000000000000000000000000000046
:101AA0004091BE005091BF00577060913900709115
:101AB000CF008091D10020E02093C4004D935D932E
:101AC0006D933D937D933D938D933D930000000076
:101AD0000000000000000000000000000000000006
:101AE00000000000000000000000000000000000F6
:101AF000000000004091BE005091BF0057706091FF
:101B0000390021E42093C1004D935D936D933D9383
:101B100000000000000000000000000000000000C5
:101B200000000000000000004091BE005091BF0086
:101B30005770609139007091C1008091C4009091FC
:101B4000C0004D935D936D933D937D933D938D9335
:101B50003D939D933D934091CF005091D100609172
:101B6000BF0067707091BE004D933D935D933D93B0
:101B70006D933D937D933D930895089590E080E0AB
:101B80000895FC0101900020E9F73197AF01481B4F
:101B9000590BBC018CE396E00C9408058F929F9240
:101BA000AF92BF920F931F93CF93DF93CDB7DEB762
:101BB000A1970FB6F894DEBF0FBECDBF19A2423079
:101BC00008F44AE08E010F5D1F4F842E912CB12C3A
:101BD000A12CA50194010E943C13E62FB901CA0172
:101BE000EA30F4F4E05DD801EE938D01232B242B31
:101BF000252B79F790E080E0109719F0CD010E9435
:101C0000C10DA1960FB6F894DEBF0FBECDBFDF9118
:101C1000CF911F910F91BF90AF909F908F9008959B
:101C2000E95CE1CF0F931F93CF93DF938C01CFB784
:101C3000F89480916400877D8093640080916500B2
:101C4000877E809365000E949206F80109950E94A4
:101C50009206CFBFC091EC01C33108F0C2E1809180
:101C6000EA019091EB01009711F00E94C10D8CE206
:101C70000E94A1056C2F70E090E080E04AE00E9495
:101C8000CE0D0DEE11E0D0E08CE2CD1769F00E9490
:101C9000A105F801619171918F0190E080E04AE027
:101CA0000E94CE0DDF5FF0CF0E94A105609111026E
:101CB0007091120290E080E04AE00E94CE0D87EE23
:101CC00091E0DF91CF911F910F910C94C10D0F9274
:101CD0000FB68F939F93EF93FF93809125068D5FAF
:101CE0008D3708F08D5780932506E6E2F6E0808177
:101CF0008E4F808391819F4F918382818F4F82830A
:101D000083818F4F8383EAE2F6E080818F5F808357
:101D100081818F4F818382818F4F828383818F4F17
:101D200083838FB18F6066991C9B88278F3681F4DF
:101D300080912406981B963068F0E0E0F8E087E791
:101D40008083818388E180936000F0936000FFCFFF
:101D500090932406FF91EF919F918F910FBE0F906A
:101D600018951F920F920FB60F9211248F939F9385
:101D70008091E1009091E100937F9093E10083FFD7
:101D80000FC01092E90091E09093EB001092EC00EC
:101D900092E39093ED0010923B0698E09093F00050
:101DA00082FF22C093E09093E9009091F200992382
:101DB00019F09AE39093E80090911802992341F06A
:101DC00090911802915090931802911101C05D9A60
:101DD00090913A06992341F090913A069150909350
:101DE0003A06911101C0289A84FF18C08091E20040
:101DF0008E7E81608093E2008091E1008F7E8093EF
:101E0000E100809119028E7E8061809319029F917A
:101E10008F910F900FBE0F901F90189580FFF7CFF6
:101E20008091E2008E7E80618093E2008091E100EB
:101E30008E7E8093E100809119028E7E8160E5CFD5
:101E40001F920F920FB60F921124CF92DF92EF9252
:101E5000FF920F931F932F933F934F935F936F9333
:101E60007F938F939F93AF93BF93EF93FF93CF9302
:101E7000DF93CDB7DEB76C97DEBFCDBF1092E90020
:101E80008091E80083FF25C068E0CE0145960E945E
:101E9000AA0482EF8093E8008D8987FF39C0909172
:101EA000E80090FFFCCF982F907609F034C19E890E
:101EB0004F89588D2F89F88C911131C0803861F588
:101EC00080911A028093F1001092F1008EEF8093BE
:101ED000E8006C960FB6F894DEBF0FBECDBFDF9161
:101EE000CF91FF91EF91BF91AF919F918F917F9192
:101EF0006F915F914F913F912F911F910F91FF90A3
:101F0000EF90DF90CF900F900FBE0F901F9018951D
:101F10009EEF9093E800C7CF1092F100D5CF91309B
:101F200059F48111D3CF4130510581F680911A02C5
:101F30008D7F80931A02CACF933049F48111C6CFA6
:101F40004130510519F680911A028260F2CF953026
:101F500041F48091E80080FFFCCF20682093E300EB
:101F6000B5CF963009F0A9C00B8D1C8D22E01092E0
:101F7000E9001092160210921502F2122EC0109271
:101F80001402109213020E9479041F8299E099832F
:101F9000FA8291E09E8390EA98879AEF9987209140
:101FA000150230911602275F3F4F3C832B838D83B0
:101FB0001092E9001092160210921502109314026A
:101FC0000093130249E050E0BE016F5F7F4F80E055
:101FD0000E9453040E94790479CF10931402009355
:101FE00013020E94AE03DC0112960D911C910115A3
:101FF000110509F451C1D801ED91FC910480F581DE
:10200000E02DBE016B5E7F4FC8010995009709F076
:102010003EC1F80100851185EACFF3E0FF120EC042
:102020008F89882309F440C0823061F440E867E07A
:1020300080E196E00E942004811148CF81E28093E4
:10204000EB0047CF813029F440E86BE084E096E074
:10205000F1CF833099F70E94AE03DC011296ED9028
:10206000FC908E010F5F1F4F6801E114F10479F0BD
:10207000D701ED91FC910680F781E02DB801C701F1
:102080000995080F111DF701E084F184EECFD80106
:102090001C92F60101900020E9F73197BF016C19FD
:1020A0007D0940E0C601C6CF6EEE75E0FB014491AC
:1020B00050E080E80E94530409CF973009F4BECF66
:1020C000983021F481E08093F10000CF993009F03D
:1020D000FDCE837009F0B2CFEDE0F1E081E031E0B8
:1020E00096E32191222371F08093E9003093EB0075
:1020F000DF0111972C912093EC009093ED008F5FFE
:10210000873079F78EE78093EA001092EA008F8992
:1021100080933B06DBCE8B8D9C8D1092E900109254
:102120001602109215029093140280931302898D67
:10213000811192C08E899D89913A49F4813209F0CA
:102140007DCF47E050E064E071E080E0B3CF9132B2
:1021500009F074CF833269F48F89988DB0E0A0E0E4
:102160008093000190930101A0930201B0930301B9
:10217000ADCE803269F48091E80082FFFCCF67E049
:1021800084E091E00E94AA048BEF8093E8009ECE49
:10219000823209F09BCE8F8980930B01EEEFFFE72F
:1021A000859194918B3F9C4D51F1E0E0F8E0809156
:1021B000040190910501A0910601B0910701803BB7
:1021C0009440A105B105F1F480910B0180FD1AC086
:1021D000EE3F8AE0F80789F587E797E791838083E8
:1021E000809160008093170288E19BE00FB6F8941D
:1021F000A895809360000FBE9093600067CEEEEFCD
:10220000FAE0D5CF808191818737974709F05ECE7C
:10221000A89580916000886180936000809117028A
:1022200080936000EE3F2AE0F20789F08091FE0A79
:102230009091FF0A9183808349CE80819181873775
:10224000980751F29093FF0A8093FE0AC5CF10922F
:10225000FF0A1092FE0A3ACE0E94AE03DC011296EB
:102260000D911C910115110509F4E8CED801ED91ED
:10227000FC910190F081E02DBE016B5E7F4FC801A3
:102280000995811123CEF80100851185EBCF181631
:1022900019060CF41BCED2CEF1E0FF12BECE62EFD7
:1022A00075E004CFECE3F6E01382128288EE93E04F
:1022B000A0E0B0E084839583A683B78387E191E0B3
:1022C000918380838FEF9FEF95878487ECE8F6E01A
:1022D0001382128289E291E0918380830895789439
:1022E00083E084BD83E085BD81E080936E00E1E8FA
:1022F000F0E083E08083E0E881E08083E1E983E04F
:102300008083E0E981E08083E1EC87E08083E3EC97
:1023100081E08083E0EC82E08083E2EC81E08083F6
:10232000EAE787E080838068808310923B06109202
:102330001A02109219028091D70081608093D70011
:1023400080EA8093D80089B5806189BD89B58260B3
:1023500089BD09B400FEFDCF81E090E00E94C20378
:102360008091D8008F7C80618093D8008091E000BC
:10237000807F8093E0008091E1008E7E8093E10079
:102380008DE08093E200559A209A81EC80937C0046
:1023900081EF85B987EE84B982E38BB982EF8AB980
:1023A000769A6E9880EF81BB10BA80E58CBD81E093
:1023B0008DBD0E94D6035F9A0E94D6035C98E8E127
:1023C000F6E085918EBD00000DB407FEFDCFE5322D
:1023D000C1F75C9A81E88093640081E08093650096
:1023E0008FEF9FEF90934906809348068FB7F8943C
:1023F000C0902606D0902706E0902806F090290687
:102400008FBFC0910B018AE090E00E94C203C1110E
:1024100014C02FB7F8948091260690912706A091BA
:102420002806B09129062FBF8C199D09AE09BF0956
:1024300088389341A105B10520F362E370E080E0A4
:1024400090E0AB01FC010E94DA0341505109E1091F
:10245000F10928F068517C4F8F4F9F4FF6CFAB01A9
:10246000FC010E94DA03641775078E079F07C8F303
:1024700089B5826089BD8FB7F89440912606509146
:10248000270660912806709129068FBF09B400FCC9
:1024900013C02FB7F8948091260690912706A0913B
:1024A0002806B09129062FBF841B950BA60BB70BEE
:1024B0000A97A105B10550F389B580931B0264E525
:1024C00076E08CE396E00E94B70487EE91E00E94EC
:1024D000C10D68E476E08CE396E00E94B7044AE020
:1024E00060E074E284EF90E00E94CE0D87EE91E010
:1024F0000E94C10D62E376E08CE396E00E94B7048F
:102500004AE061E070E080E090E00E94CE0D87EE4E
:1025100091E00E94C10D65E276E08CE396E00E94B6
:10252000B70460911B0270E090E080E04AE00E94F6
:10253000CE0D87EE91E00E94C10D8EEC96E00E94D8
:10254000120E8EE197E00E94120E8CE797E00E9437
:10255000120E8DE198E00E94120E8FEA98E00E9420
:10256000120E88E499E00E94120E8DEC99E00E9410
:10257000120E8DEC9AE00E94120E82E29CE00E9404
:10258000120E82EA9CE00E94120E88E09DE00E94FA
:10259000120E61E776E08CE396E00E94B70487EEC6
:1025A00091E00E94C10DD1E08CE1C82E82E0D82ECE
:1025B00000E212E090E0E92E90E0F92E9924939445
:1025C0002AE0A22EB12CC0911E02CC2341F0109221
:1025D0001E02E114F104B9F30E940000F4CF8091CF
:1025E000260690911F02282F291B203130F42F300E
:1025F00081F3D3BF889513BEECCF90921E028093D7
:102600001F02F601808191810196808391839C2F26
:10261000F80191119FEF8FEF919391939193919383
:102620008150D0F7109223061092220610922106B4
:102630001092200664E876E08CE896E00E94B704E9
:102640001092210610922006B0922306A092220634
:1026500065E776E08CE896E00E94B704F80180E038
:1026600098E000800EBCC111012C019780FDFDCFC8
:102670000192B9F70DB4ADCFA1E21A2EAA1BBB1B74
:10268000FD010DC0AA1FBB1FEE1FFF1FA217B3073E
:10269000E407F50720F0A21BB30BE40BF50B661F54
:1026A000771F881F991F1A9469F760957095809518
:1026B00090959B01AC01BD01CF010895EE0FFF1F66
:0C26C0000590F491E02D0994F894FFCFF0
:1026CC00FFFFFFFF00E100000000000000C180815F
:1026DC00000000000000008B050805B105A605F7F9
:1026EC0005B505D305000000001106DB04BE0DBDC9
:1026FC000D74315F726561645F6C61746368007442
:10270C00315F77726974655F6C6174636800636FC5
:10271C006D706172655F626C6F636B5F74305F7458
:10272C003100746F705F626F74746F6D5F666C6193
:10273C0067735F743100646F75626C655F62756698
:10274C006665725F743100666F635F74305F7433FB
:10275C00006F635F70696E5F74305F74335F7434E5
:10276C00007072725F667265657A655F74315F7452
:10277C00340074345F74636E745F77726974655F70
:10278C0073796E630074345F746334685F6C617466
:10279C0063680074345F7073725F746C6F636B5F2B
:0A27AC00627566666572000D0A0092
:00000001FF
