:100000000C9448030C9470030C9470030C947003CC
:100010000C9470030C9470030C9470030C94700394
:100020000C9470030C9470030C941D070C948C07B3
:100030000C9470030C9470030C9470030C94700374
:100040000C9470030C9470030C9470030C94700364
:100050000C9470030C9470030C9470030C94BE0900
:100060000C9470030C9470030C9470030C94700344
:100070000C9470030C9470030C9470030C94700334
:100080000C9470030C9470030C9470030C94700324
:100090000C9470030C9470030C9470030C94700314
:1000A0000C9470030C9470030C9470030000000017
:1000B000003E5B4F5B3E3E6B4F6B3E1C3E7C3E1CEE
:1000C000183C7E3C181C577D571C1C5E7F5E1C0034
:1000D000183C1800FFE7C3E7FF0018241800FFE7EB
:1000E000DBE7FF30483A060E2629792926407F05AE
:1000F0000507407F05253F5A3CE73C5A7F3E1C1CC4
:1001000008081C1C3E7F14227F22145F5F005F5F83
:1001100006097F017F006689956A6060606060946F
:10012000A2FFA29408047E040810207E2010080874
:100130002A1C08081C2A08081E101010100C1E0C7F
:100140001E0C30383E3830060E3E0E060000000011
:100150000000005F00000007000700147F147F14F8
:10016000242A7F2A1223130864623649562050003D
:1001700008070300001C2241000041221C002A1C29
:100180007F1C2A08083E0808008070300008080814
:100190000808000060600020100804023E51494534
:1001A0003E00427F400072494949462141494D3352
:1001B0001814127F1027454545393C4A49493141B9
:1001C000211109073649494936464949291E000087
:1001D00014000000403400000008142241141414DC
:1001E0001414004122140802015909063E415D59C8
:1001F0004E7C1211127C7F494949363E41414122D1
:100200007F4141413E7F494949417F090909013EFA
:10021000414151737F0808087F00417F4100204021
:10022000413F017F081422417F404040407F021C33
:10023000027F7F0408107F3E4141413E7F0909094A
:10024000063E4151215E7F09192946264949493216
:1002500003017F01033F4040403F1F2040201F3FDC
:100260004038403F63140814630304780403615961
:10027000494D43007F4141410204081020004141A3
:10028000417F04020102044040404040000307084F
:100290000020545478407F2844443838444444284B
:1002A000384444287F385454541800087E090218F2
:1002B000A4A49C787F0804047800447D400020407A
:1002C000403D007F1028440000417F40007C0478BE
:1002D00004787C080404783844444438FC18242406
:1002E0001818242418FC7C08040408485454542486
:1002F00004043F44243C4040207C1C2040201C3C03
:100300004030403C44281028444C9090907C4464F9
:10031000544C44000836410000007700000041368C
:10032000080002010204023C2623263C1EA1A16112
:10033000123A4040207A3854545559215555794144
:100340002154547841215554784020545579400C1B
:100350001E527212395555555939545454593955FC
:100360005454580000457C410002457D420001453F
:100370007C40F0292429F0F0282528F07C545545AC
:10038000002054547C547C0A097F4932494949323F
:100390003248484832324A4848303A4141217A3A54
:1003A00042402078009DA0A07D39444444393D401E
:1003B00040403D3C24FF2424487E4943662B2FFCCB
:1003C0002F2BFF0929F620C0887E09032054547979
:1003D000410000447D413048484A32384040227A4A
:1003E000007A0A0A727D0D19317D2629292F2826C7
:1003F0002929292630484D402038080808080808CF
:100400000808382F10C8ACBA2F102834FA00007B27
:10041000000008142A142222142A1408950022002D
:1004200095AA005500AAAA55AA55AA000000FF00E7
:10043000101010FF00141414FF001010FF00FF1024
:1004400010F010F0141414FC001414F700FF000056
:10045000FF00FF1414F404FC141417101F10101FD5
:10046000101F1414141F00101010F0000000001FC3
:10047000101010101F10101010F010000000FF10CE
:100480001010101010101010FF10000000FF1400CA
:1004900000FF00FF00001F10170000FC04F41414FC
:1004A0001710171414F404F40000FF00F7141414C8
:1004B00014141414F700F7141414171410101F1048
:1004C0001F141414F4141010F010F000001F101F6B
:1004D0000000001F14000000FC140000F010F010D9
:1004E00010FF10FF141414FF141010101F00000050
:1004F00000F010FFFFFFFFFFF0F0F0F0F0FFFFFF54
:100500000000000000FFFF0F0F0F0F0F38444438AA
:10051000447C2A2A3E147E02020606027E027E02E5
:1005200063554941633844443C04407E201E200604
:10053000027E020299A5E7A5991C2A492A1C4C7241
:1005400001724C304A4D4D303048784830BC625AC8
:10055000463D3E494949007E0101017E2A2A2A2A58
:100560002A44445F444440514A444040444A514034
:100570000000FF0103E080FF000008086B6B0836F5
:1005800012362436060F090F060000181800000066
:100590001010003040FF0101001F01011E00191D55
:1005A0001712003C3C3C3C0000000000080B00021D
:1005B00002020000090400000102020000052400FC
:1005C000100105240101010424020605240600018E
:1005D0000705810310004009040100020A00000021
:1005E00007050202400000070583024000000403E3
:1005F000090412010002EF0201404123368000018C
:100600000102030141726475696E6F204C4C430016
:1006100041726475626F7900D5F08D14A1C881CFE5
:10062000D9F1AF2000454E44006D6574612C6774AC
:100630006363725F74736D5F70737273796E632C32
:10064000006D6574612C665F6370752C00415244C7
:10065000454E535F54494D45525F534841524544BE
:100660005F5052455343414C45522C3100736572E3
:1006700069616C20656D697474656400736861728A
:100680006564207072657363616C65720000080AAE
:1006900011241FBECFEFDAE0DEBFCDBF11E0A0E036
:1006A000B1E0E2E2F6E202C005900D92A839B1078E
:1006B000D9F726E0A8E9B1E001C01D92AD3DB2072F
:1006C000E1F713E0C8E4D3E004C02197FE010E94E3
:1006D0000913C734D107C9F70E94250A0C940F13D8
:1006E0000C940000FC0180918806882311F13FB72B
:1006F000F89482E08093E9002091F200822F90E04C
:100700001816190614F481E090E0882339F028982F
:1007100044E6409387064091F1004083222339F05C
:100720002091F200211103C02BE62093E8003FBF87
:1007300008958FEF9FEF08952FB7F89483E080938B
:10074000E9009091E800892F807295FF04C0909194
:10075000F20080E4891B2FBF089580917F068111EC
:100760000DC082E080937B0684E080937C0610922B
:100770007E0610927D0681E080937F068BE796E0EF
:100780000895AAE9B1E02FB7F8947D918D919C91DD
:1007900066B52FBFA89B05C06F3F18F47F5F8F4FD2
:1007A0009F4F22E0660F771F881F991F2A95D1F768
:1007B00008954091A0015091A10120919E01309196
:1007C0009F0142175307B4F49091E8009570E1F34C
:1007D0009091E80092FD19C08093F1008091A001F2
:1007E0009091A10101968F739927892B19F48EEFAF
:1007F0008093E8008091A0019091A10101969093CF
:10080000A1018093A00181E0089580E00895EF9216
:10081000FF920F931F93CF93DF93F82E192FE62E9D
:10082000042F81E0860F880F0E94D90383E00E9485
:10083000D903CF2DD12FEC0EFD2EF11CCE15DF05E7
:10084000B9F007FF13C0FE0184910E94D903182F4D
:1008500080E00E94D903812321968111EFCFDF919F
:10086000CF911F910F91FF90EF9008958881EDCF68
:1008700081E0F5CFDF92EF92FF920F931F93CF931A
:10088000DF93D82E8A01EB017B01E40EF51ECE1515
:10089000DF0559F0D7FE12C0FE0184910E94D903F2
:1008A00021968111F4CF0FEF1FEFC801DF91CF9197
:1008B0001F910F91FF90EF90DF9008958881EECF08
:1008C0000F931F93CF93DF931F92CDB7DEB782E0D4
:1008D000898342E450E06CEA75E080E80E943A04C3
:1008E0000E94AD03DC0112960D911C9101151105BA
:1008F00089F0D801ED91FC910280F381E02DBE01D9
:100900006F5F7F4FC801099597FD04C0F80100850E
:100910001185ECCF89810F90DF91CF911F910F91BD
:100920000895615030F02091F100FC012083019680
:10093000F8CF289884E6809387060895EF92FF9277
:100940000F931F93CF93DF938C017B01D0E0C0E026
:10095000F701EC0FFD1F6491662361F0D801ED9162
:10096000FC910190F081E02DC8010995892B11F0CF
:100970002196EECFCE01DF91CF911F910F91FF9085
:10098000EF900895AF92BF92CF92DF92EF92FF92D5
:100990000F931F93CF93DF936C017B018B01040FA7
:1009A000151FEB015E01AE18BF08C017D10759F043
:1009B0006991D601ED91FC910190F081E02DC60185
:1009C0000995892B79F7C501DF91CF911F910F917F
:1009D000FF90EF90DF90CF90BF90AF900895CF93AE
:1009E000DF931F92CDB7DEB76983DC01ED91FC91F7
:1009F0000280F381E02D41E050E0BE016F5F7F4F48
:100A000009950F90DF91CF91089583E08093E900DD
:100A10008091F200882319F08AE38093E80008951A
:100A20000E949C0390E00895CF93DF931F92CDB76F
:100A3000DEB7FC018485958597FD08C02FEF3FEF59
:100A4000358724870F90DF91CF910895CE010196CD
:100A50000E947203019719F4898190E0F3CF8FEF20
:100A60009FEFF0CF0F931F93CF93DF931F92CDB7DC
:100A7000DEB78C01FC018485958597FF0BC0CE0104
:100A800001960E947203019771F4898190E0F80148
:100A900095878487F801848595850F90DF91CF91A4
:100AA0001F910F9108958FEF9FEFF1CFFC01848587
:100AB000958597FD0BC09FB7F89482E08093E9007D
:100AC0008091F2009FBF90E0019608959FB7F8943F
:100AD00082E08093E9008091F2009FBF90E008954A
:100AE000FC010E94C103319728F068517C4F8F4F61
:100AF0009F4FF9CFAB01FC010E94C103641775073A
:100B00008E079F07C8F3089585E090E00C94700568
:100B10008F929F92AF92BF92CF92DF92EF92FF920D
:100B20000F931F93CF93DF936C017B018A01809118
:100B30000B01882309F45AC080918806882309F4A0
:100B400055C08091A40180FF05C08091E0008260C3
:100B50008093E000E801B12C8AEFA82E93E0892E63
:100B60002AE3922E209711F4BB20C9F10E949C0326
:100B7000811108C0AA94AA20C9F181E090E00E94E6
:100B80007005F0CF8C171D0611F00CF08C2F9FB75D
:100B9000F8948092E9002091E80025FD02C09FBFF3
:100BA000E1CF282F30E0C21BD30BF701815020F09A
:100BB00041914093F100FACFE20EF31EBB2021F0E9
:100BC0009092E800B12CEBCF8091E80085FDE7CF53
:100BD0009092E800BB24B394209709F3F3CF5D987B
:100BE00084E68093A301101611063CF081E090E0AA
:100BF000F6019383828310E000E0C801DF91CF917A
:100C00001F910F91FF90EF90DF90CF90BF90AF902A
:100C10009F908F9008956F927F928F929F92AF9244
:100C2000BF92CF92DF92EF92FF920F931F93CF93D9
:100C3000DF9300D01F92CDB7DEB76D3089F0A09062
:100C40007906B0907A066A30F9F41092780610921C
:100C500077069501285F3F4F30937A0620937906F7
:100C600081E090E00F900F900F90DF91CF911F9156
:100C70000F91FF90EF90DF90CF90BF90AF909F903B
:100C80008F907F906F90089500917706109178066D
:100C900035E0639FF0011124E455FF4FA801712C4A
:100CA00080E1682E98E0D92EDA0C75E060E07716C6
:100CB00021F0CF0101966491FC01C5014038510536
:100CC000D0F480349105B8F4A62FA170CA2E9C01EF
:100CD00071E021FD74E020FD770F22FD7295287FE1
:100CE000629ED0011124A40FA958BD4F0C90072A71
:100CF000C0FE07260C9266950196D812DFCF73943A
:100D00004F5F5F4F86E07812D0CF0A5F1F4F10937E
:100D1000780600937706A4CF13BC14BC15BC1092C0
:100D20006E008FEF85BB10928000109281001092B0
:100D3000820010926F0086BB10929000109291007A
:100D4000109292001092710088BB0895E0916E029B
:100D500021E02E0F20936E0229E1E29FF001112481
:100D6000EA55FE4F918380836283108E178A90E04C
:100D700080E0DC01AA0FBB1FAE0FBF1F14961C92B0
:100D80001E92139701968A30910599F7CF01089525
:100D9000089590E080E00895FC0101900020E9F7BB
:100DA0003197AF01481B590BBC0189E896E00C94C0
:100DB00088058F929F92AF92BF920F931F93CF930C
:100DC000DF93CDB7DEB7A1970FB6F894DEBF0FBEA5
:100DD000CDBF19A2423008F44AE08E010F5D1F4FCB
:100DE000842E912CB12CA12CA50194010E94E71214
:100DF000E62FB901CA01EA30F4F4E05DD801EE93C0
:100E00008D01232B242B252B79F790E080E0109780
:100E100019F0CD010E94CC06A1960FB6F894DEBF62
:100E20000FBECDBFDF91CF911F910F91BF90AF90BB
:100E30009F908F900895E95CE1CF1F920F920FB6BB
:100E40000F9211248F939F938091E1009091E10084
:100E5000937F9093E10083FF0FC01092E90091E02F
:100E60009093EB001092EC0092E39093ED001092BF
:100E7000880698E09093F00082FF22C093E0909360
:100E8000E9009091F200992319F09AE39093E80019
:100E90009091A301992341F09091A30191509093D7
:100EA000A301911101C05D9A90918706992341F0A9
:100EB00090918706915090938706911101C0289ACE
:100EC00084FF18C08091E2008E7E81608093E200F2
:100ED0008091E1008F7E8093E1008091A4018E7E5D
:100EE00080618093A4019F918F910F900FBE0F900E
:100EF0001F90189580FFF7CF8091E2008E7E806171
:100F00008093E2008091E1008E7E8093E1008091E9
:100F1000A4018E7E8160E5CF1F920F920FB60F92D3
:100F20001124CF92DF92EF92FF920F931F932F9392
:100F30003F934F935F936F937F938F939F93AF9361
:100F4000BF93EF93FF93CF93DF93CDB7DEB76C974B
:100F5000DEBFCDBF1092E9008091E80083FF25C07D
:100F600068E0CE0145960E94910482EF8093E800EC
:100F70008D8987FF39C09091E80090FFFCCF982FB2
:100F8000907609F034C19E894F89588D2F89F88C4D
:100F9000911131C0803861F58091A5018093F100F5
:100FA0001092F1008EEF8093E8006C960FB6F894E3
:100FB000DEBF0FBECDBFDF91CF91FF91EF91BF910B
:100FC000AF919F918F917F916F915F914F913F91E1
:100FD0002F911F910F91FF90EF90DF90CF900F9086
:100FE0000FBE0F901F9018959EEF9093E800C7CF0B
:100FF0001092F100D5CF913059F48111D3CF413007
:10100000510581F68091A5018D7F8093A501CACFFE
:10101000933049F48111C6CF4130510519F68091C2
:10102000A5018260F2CF953041F48091E80080FF05
:10103000FCCF20682093E300B5CF963009F0A9C01B
:101040000B8D1C8D22E01092E9001092A1011092EC
:10105000A001F2122EC010929F0110929E010E94D8
:1010600060041F8299E09983FA8291E09E8390EA5E
:1010700098879AEF99872091A0013091A101275F6D
:101080003F4F3C832B838D831092E9001092A10186
:101090001092A00110939F0100939E0149E050E03F
:1010A000BE016F5F7F4F80E00E943A040E9460049F
:1010B00079CF10939F0100939E010E94AD03DC0144
:1010C00012960D911C910115110509F451C1D80119
:1010D000ED91FC910480F581E02DBE016B5E7F4FA8
:1010E000C8010995009709F03EC1F80100851185F6
:1010F000EACFF3E0FF120EC08F89882309F440C0C5
:10110000823061F440E867E080E196E00E940704E5
:10111000811148CF81E28093EB0047CF813029F4E1
:1011200040E86BE084E096E0F1CF833099F70E94CD
:10113000AD03DC011296ED90FC908E010F5F1F4F06
:101140006801E114F10479F0D701ED91FC9106807A
:10115000F781E02DB801C7010995080F111DF701AE
:10116000E084F184EECFD8011C92F60101900020BA
:10117000E9F73197BF016C197D0940E0C601C6CF80
:101180006EEE75E0FB01449150E080E80E943A0465
:1011900009CF973009F4BECF983021F481E08093D5
:1011A000F10000CF993009F0FDCE837009F0B2CF85
:1011B000EDE0F1E081E031E096E32191222371F04E
:1011C0008093E9003093EB00DF0111972C9120937D
:1011D000EC009093ED008F5F873079F78EE7809376
:1011E000EA001092EA008F8980938806DBCE8B8D0F
:1011F0009C8D1092E9001092A1011092A001909391
:101200009F0180939E01898D811192C08E899D8955
:10121000913A49F4813209F07DCF47E050E064E033
:1012200071E080E0B3CF913209F074CF833269F47A
:101230008F89988DB0E0A0E0809300019093010128
:10124000A0930201B0930301ADCE803269F4809186
:10125000E80082FFFCCF67E084E091E00E94910407
:101260008BEF8093E8009ECE823209F09BCE8F896F
:1012700080930B01EEEFFFE7859194918B3F9C4D9E
:1012800051F1E0E0F8E08091040190910501A09116
:101290000601B0910701803B9440A105B105F1F42E
:1012A00080910B0180FD1AC0EE3F8AE0F80789F5B6
:1012B00087E797E791838083809160008093A20104
:1012C00088E19BE00FB6F894A895809360000FBE6C
:1012D0009093600067CEEEEFFAE0D5CF80819181E8
:1012E0008737974709F05ECEA895809160008861A6
:1012F000809360008091A20180936000EE3F2AE01D
:10130000F20789F08091FE0A9091FF0A9183808311
:1013100049CE808191818737980751F29093FF0AD7
:101320008093FE0AC5CF1092FF0A1092FE0A3ACEB1
:101330000E94AD03DC0112960D911C91011511055F
:1013400009F4E8CED801ED91FC910190F081E02DF7
:10135000BE016B5E7F4FC8010995811123CEF80154
:1013600000851185EBCF181619060CF41BCED2CED2
:10137000F1E0FF12BECE62EF75E004CF0F920FB620
:101380008F939F93EF93FF93809199018D5F8D379A
:1013900008F08D5780939901E3E7F2E080818E4F4A
:1013A000808391819F4F918382818F4F828383813C
:1013B0008F4F8383EAE9F1E080818F5F80838181B1
:1013C0008F4F818382818F4F828383818F4F83836D
:1013D0008FB18F6066991C9B88278F3681F480912E
:1013E0009801981B963068F0E0E0F8E087E780838A
:1013F000818388E180936000F0936000FFCF909339
:101400009801FF91EF919F918F910FBE0F901895CA
:10141000E9E8F6E01382128288EE93E0A0E0B0E003
:1014200084839583A683B78387E191E0918380834A
:101430008FEF9FEF95878487E9EDF6E013821282A4
:1014400089E291E0918380830895789483E084BD5C
:1014500083E085BD81E080936E00E1E8F0E083E009
:101460008083E0E881E08083E1E983E08083E0E954
:1014700081E08083E1EC87E08083E3EC81E080839E
:10148000E0EC82E08083E2EC81E08083EAE787E0C1
:10149000808380688083109288061092A501109244
:1014A000A4018091D70081608093D70080EA809367
:1014B000D80089B5806189BD89B5826089BD09B4CC
:1014C00000FEFDCF81E090E00E9470058091D80081
:1014D0008F7C80618093D8008091E000807F809332
:1014E000E0008091E1008E7E8093E1008DE08093AA
:1014F000E200559A209A81EC80937C0081EF85B9B7
:1015000087EE84B982E38BB982EF8AB9769A6E98B6
:1015100080EF81BB10BA80E58CBD81E08DBD0E945B
:1015200084055F9A0E9484055C98E8E1F6E0859165
:101530008EBD00000DB407FEFDCFE532C1F75C9A09
:1015400081E88093640081E0809365008FEF9FEFD6
:1015500090939606809395068FB7F894C090730287
:10156000D0907402E0907502F09076028FBFC09127
:101570000B018AE090E00E947005C11114C02FB7E2
:10158000F8948091730290917402A0917502B091C9
:1015900076022FBF8C199D09AE09BF098838934187
:1015A000A105B10520F362E370E080E090E0AB01BB
:1015B000FC010E94C10341505109E109F10928F0E1
:1015C00068517C4F8F4F9F4FF6CFAB01FC010E94BB
:1015D000C103641775078E079F07C8F3CFB7F89448
:1015E00080916400877D8093640080916500877F8F
:1015F000809365000E948C0666E081E391E00E9482
:10160000A606FC0120E02093430020936E00209367
:101610006F00209371002093440020934500209395
:1016200080002093810020938200209390002093DB
:101630009100209392002FEF2093350020933600E5
:101640002093380021E82093430020E020934600B7
:10165000209385002093840020939500209394008C
:1016600022E0209345002093810020939100000008
:10167000000000000000000000000000000000006A
:10168000000000000000000000000000000000005A
:10169000000000000000000000000000000000004A
:1016A000000000000000000000000000000000003A
:1016B000000000000000000000000000000000002A
:1016C000000000000000000000000000000000001A
:1016D000000000000000000000000000000000000A
:1016E00000000000000000000000000000000000FA
:1016F00000000000000000000000000000000000EA
:1017000000000000000000000000000000000000D9
:1017100000000000000000000000000000000000C9
:101720000000000000000000000000000000909198
:1017300046000091840010918500A0919400B09122
:10174000950020E02093430000000000000000000E
:101750000000000000000000000000000000000089
:101760000000000000000000000000000000000079
:101770000000000000000000000000000000000069
:101780000000000000000000000000000000000059
:101790000000000000000000000000000000000049
:1017A0000000000000000000000000000000000039
:1017B000000000000000000080914600609184005D
:1017C000709185004091940050919500292F30E050
:1017D0003483238316830583B087A78390E09287A1
:1017E0008187748763875687458768E087E491E03F
:1017F0000E94A606FC0120E02093430020936E0087
:1018000020936F00209371002093440020934500A3
:1018100020938000209381002093820020939000E9
:1018200020939100209392002FEF20933500209376
:1018300036002093380020E0209346002093850056
:1018400020938400209395002093940021E020931E
:10185000430023E02093450000000000000000004A
:101860000000000000000000000000000000000078
:101870000000000000000000000000000000000068
:101880000000000000000000000000000000000058
:101890000000000000000000000000000000000048
:1018A0000000000000000000000000000000000038
:1018B00000000000000000000000000020938100F4
:1018C0000000000000000000000000000000000018
:1018D000000000000000000030914600E09084000D
:1018E000F0908500209391000000000000000000AF
:1018F00000000000000000000000000000000000E8
:1019000000000000000000000000000000000000D7
:1019100000000000000000000000000000000000C7
:1019200000000000000000000000000000000000B7
:1019300000000000000000000000000000000000A7
:10194000000000000000000090914600009184001B
:1019500010918500A0919400B091950000000000C6
:101960000000000000000000000000000000000077
:101970000000000000000000000000000000000067
:101980000000000000000000000000000000000057
:101990000000000000000000000000000000000047
:1019A0000000000000000000000000000000000037
:1019B0000000000000000000000000000000000027
:1019C0000000000000000000000000000000000017
:1019D00000000000000000000000000080914600B0
:1019E0006091840070918500409194005091950021
:1019F000232F30E034832383F682E582292F30E0E1
:101A00003087278312870187B487A38790E0968762
:101A10008587708B6787528B418B69E08DE591E0FC
:101A20000E94A606FC0120E02093430020936E0054
:101A300020936F0020937100209344002093450071
:101A400020938000209381002093820020939000B7
:101A500020939100209392002FEF20933500209344
:101A600036002093380020E0209346002093850024
:101A700020938400209395002093940021E02093EC
:101A8000430023E0209345002093810020939100A0
:101A90000000000000000000000000000000000046
:101AA0000000000000000000000000000000000036
:101AB0000000000000000000000000000000000026
:101AC0000000000000000000000000000000000016
:101AD0000000000000000000000000000000000006
:101AE00000000000000000000000000000000000F6
:101AF00000000000000000000000000000000000E6
:101B000000000000000000000000000000000000D5
:101B100000000000000000000000000000000000C5
:101B200000000000000000000000000000000000B5
:101B300000000000000000000000000000000000A5
:101B40000000000000000000000000000000000095
:101B500030914600C0908400D0908500E0909400C1
:101B6000F090950021E02093430000000000000069
:101B70000000000000000000000000000000000065
:101B80000000000000000000000000000000000055
:101B90000000000000000000000000000000000045
:101BA000000000000000000000009091460000913D
:101BB000840010918500A0919400B09195000000E0
:101BC0000000000000000000000000000000000015
:101BD0000000000000000000000000000000000005
:101BE00000000000000000000000000000000000F5
:101BF00000000000000000000000000000000000E5
:101C000000000000000000000000000000008091C3
:101C1000460060918400709185004091940050913D
:101C20009500232F30E034832383D682C582F0864B
:101C3000E782292F30E03287218714870387B68710
:101C4000A58790E0908B8787728B618B548B438B39
:101C500069E083E791E00E94A606FC0120E0209362
:101C6000430020936E0020936F0020937100209317
:101C7000440020934500209380002093810020930E
:101C800082002093900020939100209392002FEFE8
:101C900020933500209336002093380021E82093CC
:101CA000430020E020934600209385002093840089
:101CB000209395002093940022E02093450023E098
:101CC0002093810024E02093910020E020934300A2
:101CD0000000000000000000000000000000000004
:101CE00000000000000000000000000000000000F4
:101CF00000000000000000000000000000000000E4
:101D000000000000000000000000000000000000D3
:101F2000000000000000000030914600C0908400D6
:101F3000D0908500E0909400F090950000000000A3
:101F40000000000000000000000000000000000091
:101F50000000000000000000000000000000000081
:101F60000000000000000000000000000000000071
:101F70000000000000000000000000000000000061
:101F80000000000000000000000000000000000051
:101F90000000000000000000000000000000000041
:101FA0000000000000000000000000000000000031
:101FB0000000000000000000000000000000000021
:101FC0000000000000000000000000000000000011
:101FD0000000000000000000000000000000000001
:101FE00000000000000000000000000000000000F1
:101FF00000000000000000000000000000000000E1
:1020000000000000000000000000000000000000D0
:1020100000000000000000000000000000000000C0
:1020200000000000000000000000000000000000B0
:102030000000000000000000000000009091460039
:102040000091840010918500A0919400B0919500BA
:102050000000000000000000000000000000000080
:102060000000000000000000000000000000000070
:102070000000000000000000000000000000000060
:102080000000000000000000000000000000000050
:102090000000000000000000000000000000000040
:1020A0000000000000000000000000000000000030
:1020B0000000000000000000000000000000000020
:1020C0000000000000000000000000000000000010
:1020D0000000000000000000000000000000000000
:1020E00000000000000000000000000000000000F0
:1020F00000000000000000000000000000000000E0
:1021000000000000000000000000000000000000CF
:1021100000000000000000000000000000000000BF
:1021200000000000000000000000000000000000AF
:10213000000000000000000000000000000000009F
:10214000000000000000000000000000000000008F
:1021500080914600609184007091850040919400C8
:1021600050919500232F30E034832383D682C5829B
:10217000F086E782292F30E0328721871487038792
:10218000B687A58790E0908B8787728B618B548B85
:10219000438B66E082E891E00E94A606FC0120E005
:1021A0002093430020936E0020936F0020937100D2
:1021B00020934400209345002093800020938100C9
:1021C000209382002093900020939100209392000E
:1021D0002FEF20933500209336002093380020E025
:1021E000209346002093850020938400209395003F
:1021F0002093940021E020934300000000000000A1
:1022000000000000000000000000000000000000CE
:1022100000000000000000000000000000000000BE
:1022200000000000000000000000000000000000AE
:10223000000000000000000000000000000000009E
:10224000000000000000000000000000000000008E
:10225000000000000000000000000000000023E07B
:10226000209381000000000000000000000000003A
:10227000000000000000000000000000000000005E
:1022800000000000009184001091850020E0209360
:1022900081000000000000000000000000000000BD
:1022A000000000000000000000000000000000002E
:1022B000000000000000000000000000000000001E
:1022C000000000000000000000000000000000000E
:1022D00000000000000000000000000000000000FE
:1022E000000000000000000023E0209391000000A7
:1022F00000000000000000000000000000000000DE
:102300000000000000000000000000000000A0919C
:102310009400B0919500209345000000000000005B
:1023200000000000000000000000000000000000AD
:10233000000000000000000000000000000000009D
:10234000000000000000000000000000000000008D
:10235000000000000000000000000000000000007D
:10236000000000000000000000000000000000006D
:10237000000000000000000000000000000000005D
:10238000000000000000000000000000000000004D
:1023900000000000000000000000909146006091E5
:1023A0008400709185004091940050919500809137
:1023B000430014830383B683A583292F30E030873D
:1023C0002783728761875487438790E09687858744
:1023D0000E948C06CFBF6DE476E089E896E00E940B
:1023E0009E0485E991E00E94CC0661E476E089E8EC
:1023F00096E00E949E044AE060E074E284EF90E080
:102400000E94D90685E991E00E94CC0669E276E057
:1024100089E896E00E949E044AE061E870E080E06E
:1024200090E00E94D90685E991E00E94CC06D12C6B
:1024300049E1B42E80916E02D81608F055C00D2DDA
:1024400010E0B09EF001B19EF00D1124EA55FE4F50
:1024500080819181009711F00E94CC066CE289E89E
:1024600096E00E94EF04B09EE001B19ED00D1124D1
:102470008E010A551E4F780182E0E80EF11CF8012A
:10248000628170E090E080E04AE00E94D906C12CB1
:10249000F70180816CE2C816A8F489E896E00E94F2
:1024A000EF04EC2DF0E0EE0FFF1FEC0FFD1FEA55DF
:1024B000FE4F6381748190E080E04AE00E94D9067B
:1024C000C394E6CF89E896E00E94EF04F80167899B
:1024D000708D90E080E04AE00E94D90685E991E0A5
:1024E0000E94CC06D394A6CF65E276E089E896E018
:1024F0000E949E0485E991E00E94CC06D1E08FE61F
:10250000C82E82E0D82E07E712E090E0E92E90E096
:10251000F92E992493942AE0A22EB12CC091710235
:10252000CC2341F010927102E114F104B9F30E943E
:102530000000F4CF8091730290917202F82FF91B82
:10254000F03130F4FF3081F3D3BF889513BEECCF68
:102550009092710280937202F601808191810196BE
:10256000808391839C2FF80191119FEF8FEF9193BE
:102570009193919391938150D0F710927A06109293
:10258000790610927806109277066CE776E089ED6E
:1025900096E00E949E041092780610927706B09200
:1025A0007A06A09279066DE676E089ED96E00E94C3
:1025B0009E04F80180E098E000800EBCC111012C5F
:1025C000019780FDFDCF0192B9F70DB4ADCFA1E227
:1025D0001A2EAA1BBB1BFD010DC0AA1FBB1FEE1F9D
:1025E000FF1FA217B307E407F50720F0A21BB30BE8
:1025F000E40BF50B661F771F881F991F1A9469F764
:1026000060957095809590959B01AC01BD01CF01BF
:102610000895EE0FFF1F0590F491E02D0994F894B2
:02262000FFCFEA
:10262200FFFFFFFF00E100000000000000C1808109
:1026320000000000000000EF0488051005050556A3
:102642000514053205000000000B06C204C906C8C5
:102652000674736D5F686F6C645F72656C6561733D
:10266200655F646976380073746167676572656473
:102672005F73746172745F6469763634007073726A
:1026820073796E635F7768696C655F72756E6E6988
:102692006E67006D697865645F746170735F7473EF
:1026A2006D007072657363616C65725F66726565F9
:0826B2005F72756E000D0A0055
:00000001FF
