:100000000C9414030C943C030C943C030C943C039C
:100010000C943C030C943C030C943C030C943C0364
:100020000C943C030C943C030C9465070C94D4078B
:100030000C943C030C943C030C943C030C943C0344
:100040000C943C030C943C030C943C030C943C0334
:100050000C943C030C943C030C943C030C94060A53
:100060000C943C030C943C030C943C030C943C0314
:100070000C943C030C943C030C943C030C943C0304
:100080000C943C030C943C030C943C030C943C03F4
:100090000C943C030C943C030C943C030C943C03E4
:1000A0000C943C030C943C030C943C0300000000B3
:1000B000003E5B4F5B3E3E6B4F6B3E1C3E7C3E1CEE
:1000C000183C7E3C181C577D571C1C5E7F5E1C0034
:1000D000183C1800FFE7C3E7FF0018241800FFE7EB
:1000E000DBE7FF30483A060E2629792926407F05AE
:1000F0000507407F05253F5A3CE73C5A7F3E1C1CC4
:1001000008081C1C3E7F14227F22145F5F005F5F83
:1001100006097F017F006689956A6060606060946F
:10012000A2FFA29408047E040810207E2010080874
:100130002A1C08081C2A08081E101010100C1E0C7F
:100140001E0C30383E3830060E3E0E060000000011
:100150000000005F00000007000700147F147F14F8
:10016000242A7F2A1223130864623649562050003D
:1001700008070300001C2241000041221C002A1C29
:100180007F1C2A08083E0808008070300008080814
:100190000808000060600020100804023E51494534
:1001A0003E00427F400072494949462141494D3352
:1001B0001814127F1027454545393C4A49493141B9
:1001C000211109073649494936464949291E000087
:1001D00014000000403400000008142241141414DC
:1001E0001414004122140802015909063E415D59C8
:1001F0004E7C1211127C7F494949363E41414122D1
:100200007F4141413E7F494949417F090909013EFA
:10021000414151737F0808087F00417F4100204021
:10022000413F017F081422417F404040407F021C33
:10023000027F7F0408107F3E4141413E7F0909094A
:10024000063E4151215E7F09192946264949493216
:1002500003017F01033F4040403F1F2040201F3FDC
:100260004038403F63140814630304780403615961
:10027000494D43007F4141410204081020004141A3
:10028000417F04020102044040404040000307084F
:100290000020545478407F2844443838444444284B
:1002A000384444287F385454541800087E090218F2
:1002B000A4A49C787F0804047800447D400020407A
:1002C000403D007F1028440000417F40007C0478BE
:1002D00004787C080404783844444438FC18242406
:1002E0001818242418FC7C08040408485454542486
:1002F00004043F44243C4040207C1C2040201C3C03
:100300004030403C44281028444C9090907C4464F9
:10031000544C44000836410000007700000041368C
:10032000080002010204023C2623263C1EA1A16112
:10033000123A4040207A3854545559215555794144
:100340002154547841215554784020545579400C1B
:100350001E527212395555555939545454593955FC
:100360005454580000457C410002457D420001453F
:100370007C40F0292429F0F0282528F07C545545AC
:10038000002054547C547C0A097F4932494949323F
:100390003248484832324A4848303A4141217A3A54
:1003A00042402078009DA0A07D39444444393D401E
:1003B00040403D3C24FF2424487E4943662B2FFCCB
:1003C0002F2BFF0929F620C0887E09032054547979
:1003D000410000447D413048484A32384040227A4A
:1003E000007A0A0A727D0D19317D2629292F2826C7
:1003F0002929292630484D402038080808080808CF
:100400000808382F10C8ACBA2F102834FA00007B27
:10041000000008142A142222142A1408950022002D
:1004200095AA005500AAAA55AA55AA000000FF00E7
:10043000101010FF00141414FF001010FF00FF1024
:1004400010F010F0141414FC001414F700FF000056
:10045000FF00FF1414F404FC141417101F10101FD5
:10046000101F1414141F00101010F0000000001FC3
:10047000101010101F10101010F010000000FF10CE
:100480001010101010101010FF10000000FF1400CA
:1004900000FF00FF00001F10170000FC04F41414FC
:1004A0001710171414F404F40000FF00F7141414C8
:1004B00014141414F700F7141414171410101F1048
:1004C0001F141414F4141010F010F000001F101F6B
:1004D0000000001F14000000FC140000F010F010D9
:1004E00010FF10FF141414FF141010101F00000050
:1004F00000F010FFFFFFFFFFF0F0F0F0F0FFFFFF54
:100500000000000000FFFF0F0F0F0F0F38444438AA
:10051000447C2A2A3E147E02020606027E027E02E5
:1005200063554941633844443C04407E201E200604
:10053000027E020299A5E7A5991C2A492A1C4C7241
:1005400001724C304A4D4D303048784830BC625AC8
:10055000463D3E494949007E0101017E2A2A2A2A58
:100560002A44445F444440514A444040444A514034
:100570000000FF0103E080FF000008086B6B0836F5
:1005800012362436060F090F060000181800000066
:100590001010003040FF0101001F01011E00191D55
:1005A0001712003C3C3C3C0000000000D5F08D14CC
:1005B000A1C881CFD9F1AF2000080B0002020200D0
:1005C00000090400000102020000052400100105DA
:1005D0002401010104240206052406000107058107
:1005E0000310004009040100020A00000007050290
:1005F00002400000070583024000000403090412C2
:10060000010002EF02014041233680000101020394
:100610000141726475696E6F204C4C4300417264F5
:1006200075626F790000500A11241FBECFEFDAE027
:10063000DEBFCDBF11E0A0E0B1E0E2E8FBE102C027
:1006400005900D92AE33B107D9F725E0AEE3B1E0E6
:1006500001C01D92AE3BB207E1F713E0C4E1D3E065
:1006600004C02197FE010E94B90DC331D107C9F71B
:100670000E946D0A0C94BF0D0C940000FC01809147
:100680006905882311F13FB7F89482E08093E9006F
:100690002091F200822F90E01816190614F481E0E0
:1006A00090E0882339F0289844E64093680540910B
:1006B000F1004083222339F02091F200211103C080
:1006C0002BE62093E8003FBF08958FEF9FEF08953A
:1006D0002FB7F89483E08093E9009091E800892F88
:1006E000807295FF04C09091F20080E4891B2FBFB7
:1006F00008958091600581110DC082E080935C05B2
:1007000084E080935D0510925F0510925E0581E0A4
:10071000809360058CE595E00895CF93DF931F9259
:10072000CDB7DEB76983DC01ED91FC910280F381E6
:10073000E02D41E050E0BE016F5F7F4F09950F90C3
:10074000DF91CF91089583E08093E9008091F200DA
:10075000882319F08AE38093E80008950E946803D3
:1007600090E00895CF93DF931F92CDB7DEB7FC01E1
:100770008485958597FD08C02FEF3FEF3587248747
:100780000F90DF91CF910895CE0101960E943E0314
:10079000019719F4898190E0F3CF8FEF9FEFF0CFAD
:1007A0000F931F93CF93DF931F92CDB7DEB78C01CA
:1007B000FC018485958597FF0BC0CE0101960E94B0
:1007C0003E03019771F4898190E0F8019587848751
:1007D000F801848595850F90DF91CF911F910F913E
:1007E00008958FEF9FEFF1CFFC018485958597FDEC
:1007F0000BC09FB7F89482E08093E9008091F200EB
:100800009FBF90E0019608959FB7F89482E080938F
:10081000E9008091F2009FBF90E008954091560555
:1008200050915705209154053091550542175307B3
:10083000B4F49091E8009570E1F39091E80092FD96
:1008400019C08093F100809156059091570501964B
:100850008F739927892B19F48EEF8093E80080918C
:10086000560590915705019690935705809356052C
:1008700081E0089580E00895EF92FF920F931F9317
:10088000CF93DF93F82E192FE62E042F81E0860FE9
:10089000880F0E940E0483E00E940E04CF2DD12FFA
:1008A000EC0EFD2EF11CCE15DF05B9F007FF13C0CD
:1008B000FE0184910E940E04182F80E00E940E0415
:1008C000812321968111EFCFDF91CF911F910F915D
:1008D000FF90EF9008958881EDCF81E0F5CFDF9212
:1008E000EF92FF920F931F93CF93DF93D82E8A013D
:1008F000EB017B01E40EF51ECE15DF0559F0D7FEA6
:1009000012C0FE0184910E940E0421968111F4CF41
:100910000FEF1FEFC801DF91CF911F910F91FF9053
:10092000EF90DF9008958881EECF0F931F93CF93C0
:10093000DF931F92CDB7DEB782E0898342E450E0B7
:1009400069EB75E080E80E946F040E947903DC0186
:1009500012960D911C910115110589F0D801ED91A8
:10096000FC910280F381E02DBE016F5F7F4FC801D3
:10097000099597FD04C0F80100851185ECCF8981A8
:100980000F90DF91CF911F910F910895615030F03A
:100990002091F100FC0120830196F8CF289884E68D
:1009A000809368050895AF92BF92CF92DF92EF9245
:1009B000FF920F931F93CF93DF936C017B018B0109
:1009C000040F151FEB015E01AE18BF08C017D10759
:1009D00059F06991D601ED91FC910190F081E02DE3
:1009E000C6010995892B79F7C501DF91CF911F9138
:1009F0000F91FF90EF90DF90CF90BF90AF90089550
:100A0000FC010E949B05319728F068517C4F8F4F65
:100A10009F4FF9CFAB01FC010E949B05641775073E
:100A20008E079F07C8F3089585E090E00C940005B9
:100A30008F929F92AF92BF92CF92DF92EF92FF92EE
:100A40000F931F93CF93DF936C017B018A018091F9
:100A50000B01882309F45AC080916905882309F4A1
:100A600055C080915B0580FF05C08091E0008260E9
:100A70008093E000E801B12C8AEFA82E93E0892E44
:100A80002AE3922E209711F4BB20C9F10E9468033B
:100A9000811108C0AA94AA20C9F181E090E00E94C7
:100AA0000005F0CF8C171D0611F00CF08C2F9FB7AE
:100AB000F8948092E9002091E80025FD02C09FBFD4
:100AC000E1CF282F30E0C21BD30BF701815020F07B
:100AD00041914093F100FACFE20EF31EBB2021F0CA
:100AE0009092E800B12CEBCF8091E80085FDE7CF34
:100AF0009092E800BB24B394209709F3F3CF5D985C
:100B000084E680935A05101611063CF081E090E0CF
:100B1000F6019383828310E000E0C801DF91CF915A
:100B20001F910F91FF90EF90DF90CF90BF90AF900B
:100B30009F908F900895A8E4B1E02FB7F8947D912D
:100B40008D919C9166B52FBFA89B05C06F3F18F48F
:100B50007F5F8F4F9F4F22E0660F771F881F991F7F
:100B60002A95D1F708956F927F928F929F92AF92BC
:100B7000BF92CF92DF92EF92FF920F931F93CF938A
:100B8000DF9300D01F92CDB7DEB76D3089F0A09013
:100B90003E01B0903F016A30F9F410924101109289
:100BA00040019501285F3F4F30933F0120933E0164
:100BB00081E090E00F900F900F90DF91CF911F9107
:100BC0000F91FF90EF90DF90CF90BF90AF909F90EC
:100BD0008F907F906F900895009140011091410196
:100BE00035E0639FF0011124E455FF4FA801712CFB
:100BF00080E1682E98E0D92EDA0C75E060E0771677
:100C000021F0CF0101966491FC01C50140385105E6
:100C1000D0F480349105B8F4A62FA170CA2E9C019F
:100C200071E021FD74E020FD770F22FD7295287F91
:100C3000629ED0011124A40FA45BBE4F0C90072A22
:100C4000C0FE07260C9266950196D812DFCF7394EA
:100C50004F5F5F4F86E07812D0CF0A5F1F4F10932F
:100C6000410100934001A4CF089590E080E00895F1
:100C7000FC0101900020E9F73197AF01481B590BA7
:100C8000BC018AEB95E00C94D3048F929F92AF92B3
:100C9000BF920F931F93CF93DF93CDB7DEB7A1978A
:100CA0000FB6F894DEBF0FBECDBF19A2423008F4D4
:100CB0004AE08E010F5D1F4F842E912CB12CA12C88
:100CC000A50194010E945B0BE62FB901CA01EA302D
:100CD000F4F4E05DD801EE938D01232B242B252B1A
:100CE00079F790E080E0109719F0CD010E94380666
:100CF000A1960FB6F894DEBF0FBECDBFDF91CF91A6
:100D00001F910F91BF90AF909F908F900895E95CD5
:100D1000E1CF4F925F926F927F928F929F92AF92AC
:100D2000BF92CF92DF92EF92FF920F931F93CF93D8
:100D30006B017C01742EAC019B010E94B40D8823D1
:100D400099F081E391E0CF911F910F91FF90EF9087
:100D5000DF90CF90BF90AF909F908F907F906F90DB
:100D60005F904F900C94380646015701E894B7F80D
:100D70002FEF3FEF4FE75FE7C501B4010E94B40DCD
:100D800081110DC02FEF3FEF4FE75FE7C501B401C1
:100D90000E94EA0B18161CF485E391E0D4CF2FEFE4
:100DA0003FEF4FE75FE4C701B6010E94420D1816FE
:100DB0001CF489E391E0C7CF2FEF3FEF4FE75FECE3
:100DC000C701B6010E94EA0B87FDF3CF20E030E0B7
:100DD000A901C701B6010E94EA0B10E000E087FFFD
:100DE0000AC06DE28AEB95E00E94B3058C01F7FA28
:100DF000F094F7F8F094C0E060E070E080E09FE3EA
:100E00007C1641F020E030E040E251E40E94EF0B1C
:100E1000CF5FF6CFA70196010E947E0B2B013C010C
:100E20000E94610C4B015C014AE00E9445067C0176
:100E3000E00EF11ECC23C1F1C501B4010E94900C5B
:100E40009B01AC01C301B2010E947D0B4B015C010F
:100E50006EE28AEB95E00E94B305E80EF91EC150E0
:100E600018F120E030E040E251E4C501B4010E94F5
:100E7000470D2B013C010E94610C4B01B12CA12CB0
:100E80004AE0C501B4010E944506E80EF91EC501FD
:100E9000B4010E94900C9B01AC01C301B2010E94FD
:100EA0007D0B4B015C01DBCFC701CF911F910F91EF
:100EB000FF90EF90DF90CF90BF90AF909F908F907A
:100EC0007F906F905F904F9008951F920F920FB692
:100ED0000F9211248F939F938091E1009091E100F4
:100EE000937F9093E10083FF0FC01092E90091E09F
:100EF0009093EB001092EC0092E39093ED0010922F
:100F0000690598E09093F00082FF22C093E09093EF
:100F1000E9009091F200992319F09AE39093E80088
:100F200090915A05992341F090915A0591509093D0
:100F30005A05911101C05D9A90916805992341F07D
:100F400090916805915090936805911101C0289A7D
:100F500084FF18C08091E2008E7E81608093E20061
:100F60008091E1008F7E8093E10080915B058E7E11
:100F7000806180935B059F918F910F900FBE0F90C2
:100F80001F90189580FFF7CF8091E2008E7E8061E0
:100F90008093E2008091E1008E7E8093E100809159
:100FA0005B058E7E8160E5CF1F920F920FB60F9288
:100FB0001124CF92DF92EF92FF920F931F932F9302
:100FC0003F934F935F936F937F938F939F93AF93D1
:100FD000BF93EF93FF93CF93DF93CDB7DEB76C97BB
:100FE000DEBFCDBF1092E9008091E80083FF25C0ED
:100FF00068E0CE0145960E94C60482EF8093E80027
:101000008D8987FF39C09091E80090FFFCCF982F21
:10101000907609F034C19E894F89588D2F89F88CBC
:10102000911131C0803861F5809159058093F100AC
:101030001092F1008EEF8093E8006C960FB6F89452
:10104000DEBF0FBECDBFDF91CF91FF91EF91BF917A
:10105000AF919F918F917F916F915F914F913F9150
:101060002F911F910F91FF90EF90DF90CF900F90F5
:101070000FBE0F901F9018959EEF9093E800C7CF7A
:101080001092F100D5CF913059F48111D3CF413076
:10109000510581F6809159058D7F80935905CACFFE
:1010A000933049F48111C6CF4130510519F6809132
:1010B00059058260F2CF953041F48091E80080FFBD
:1010C000FCCF20682093E300B5CF963009F0A9C08B
:1010D0000B8D1C8D22E01092E900109257051092A2
:1010E0005605F2122EC010925505109254050E941A
:1010F00095041F8299E09983FA8291E09E8390EA99
:1011000098879AEF99872091560530915705275F68
:101110003F4F3C832B838D831092E900109257053B
:1011200010925605109355050093540549E050E080
:10113000BE016F5F7F4F80E00E946F040E949504A4
:1011400079CF10935505009354050E947903DC0173
:1011500012960D911C910115110509F451C1D80188
:10116000ED91FC910480F581E02DBE016B5E7F4F17
:10117000C8010995009709F03EC1F8010085118565
:10118000EACFF3E0FF120EC08F89882309F440C034
:10119000823061F440E867E08DE196E00E943C0413
:1011A000811148CF81E28093EB0047CF813029F451
:1011B00040E86BE081E196E0F1CF833099F70E943F
:1011C0007903DC011296ED90FC908E010F5F1F4FAA
:1011D0006801E114F10479F0D701ED91FC910680EA
:1011E000F781E02DB801C7010995080F111DF7011E
:1011F000E084F184EECFD8011C92F601019000202A
:10120000E9F73197BF016C197D0940E0C601C6CFEF
:101210006BEF75E0FB01449150E080E80E946F04A1
:1012200009CF973009F4BECF983021F481E0809344
:10123000F10000CF993009F0FDCE837009F0B2CFF4
:10124000EDE0F1E081E031E096E32191222371F0BD
:101250008093E9003093EB00DF0111972C912093EC
:10126000EC009093ED008F5F873079F78EE78093E5
:10127000EA001092EA008F8980936905DBCE8B8D9E
:101280009C8D1092E900109257051092560590938C
:10129000550580935405898D811192C08E899D8951
:1012A000913A49F4813209F07DCF47E050E064E0A3
:1012B00071E080E0B3CF913209F074CF833269F4EA
:1012C0008F89988DB0E0A0E0809300019093010198
:1012D000A0930201B0930301ADCE803269F48091F6
:1012E000E80082FFFCCF67E084E091E00E94C60442
:1012F0008BEF8093E8009ECE823209F09BCE8F89DF
:1013000080930B01EEEFFFE7859194918B3F9C4D0D
:1013100051F1E0E0F8E08091040190910501A09185
:101320000601B0910701803B9440A105B105F1F49D
:1013300080910B0180FD1AC0EE3F8AE0F80789F525
:1013400087E797E7918380838091600080935805B9
:1013500088E19BE00FB6F894A895809360000FBEDB
:101360009093600067CEEEEFFAE0D5CF8081918157
:101370008737974709F05ECEA89580916000886115
:10138000809360008091580580936000EE3F2AE0D2
:10139000F20789F08091FE0A9091FF0A9183808381
:1013A00049CE808191818737980751F29093FF0A47
:1013B0008093FE0AC5CF1092FF0A1092FE0A3ACE21
:1013C0000E947903DC0112960D911C910115110503
:1013D00009F4E8CED801ED91FC910190F081E02D67
:1013E000BE016B5E7F4FC8010995811123CEF801C4
:1013F00000851185EBCF181619060CF41BCED2CE42
:10140000F1E0FF12BECE6FEF75E004CF0F920FB682
:101410008F939F93EF93FF93809143018D5F8D375F
:1014200008F08D5780934301E4E4F1E080818E4F12
:10143000808391819F4F918382818F4F82838381AB
:101440008F4F8383E8E4F1E080818F5F8083818127
:101450008F4F818382818F4F828383818F4F8383DC
:101460008FB18F6066991C9B88278F3681F480919D
:101470004201981B963068F0E0E0F8E087E780834F
:10148000818388E180936000F0936000FFCF9093A8
:101490004201FF91EF919F918F910FBE0F90189590
:1014A000EAE6F5E01382128288EE93E0A0E0B0E075
:1014B00084839583A683B78387E191E091838083BA
:1014C0008FEF9FEF95878487EAEBF5E01382128216
:1014D00089E291E0918380830895789483E084BDCC
:1014E00083E085BD81E080936E00E1E8F0E083E079
:1014F0008083E0E881E08083E1E983E08083E0E9C4
:1015000081E08083E1EC87E08083E3EC81E080830D
:10151000E0EC82E08083E2EC81E08083EAE787E030
:10152000808380688083109269051092590510921B
:101530005B058091D70081608093D70080EA80931B
:10154000D80089B5806189BD89B5826089BD09B43B
:1015500000FEFDCF81E090E00E9400058091D80060
:101560008F7C80618093D8008091E000807F8093A1
:10157000E0008091E1008E7E8093E1008DE0809319
:10158000E200559A209A81EC80937C0081EF85B926
:1015900087EE84B982E38BB982EF8AB9769A6E9826
:1015A00080EF81BB10BA80E58CBD81E08DBD0E94CB
:1015B00014055F9A0E9414055C98ECEAF5E08591A9
:1015C0008EBD00000DB407FEFDCFE93BC1F75C9A6C
:1015D00081E88093640081E08093650080E090E082
:1015E000A0E8BFE38093500590935105A093520566
:1015F000B09353056091500570915105809152054B
:101600009091530520E030E040E252E40E94470D03
:1016100060934C0570934D0580934E0590934F0554
:1016200060914C0570914D0580914E0590914F054C
:1016300020E030E040E252E40E94EA0B811139C020
:1016400080E58093F1006091500570915105809183
:1016500052059091530542E00E9489066AE08AEBA8
:1016600095E00E94B30560914C0570914D05809105
:101670004E0590914F0542E00E948906ECE4F1E0AE
:1016800081E0A0E0B8E000800EBC8111012C119730
:10169000A0FDFDCF0192B9F70DB4C1E000E010E06C
:1016A000C3BF889513BE01151105D1F30E94000038
:1016B000F7CF86E4C6CFA1E21A2EAA1BBB1BFD0101
:1016C0000DC0AA1FBB1FEE1FFF1FA217B307E40721
:1016D000F50720F0A21BB30BE40BF50B661F771F79
:1016E000881F991F1A9469F7609570958095909559
:1016F0009B01AC01BD01CF0108955058BB27AA271B
:101700000E94950B0C94080D0E94FA0C38F00E9470
:10171000010D20F039F49F3F19F426F40C94F70CD6
:101720000EF4E095E7FB0C94F10CE92F0E94190DE3
:1017300058F3BA17620773078407950720F079F406
:10174000A6F50C943B0D0EF4E0950B2EBA2FA02DB0
:101750000B01B90190010C01CA01A0011124FF275E
:10176000591B99F0593F50F4503E68F11A16F04059
:10177000A22F232F342F4427585FF3CF4695379558
:101780002795A795F0405395C9F77EF41F16BA0B1D
:10179000620B730B840BBAF09150A1F0FF0FBB1FCB
:1017A000661F771F881FC2F70EC0BA0F621F731F14
:1017B000841F48F4879577956795B795F7959E3F71
:1017C00008F0B0CF9395880F08F09927EE0F979502
:1017D000879508950E94CD0C08F481E008950E9439
:1017E000030C0C94080D0E94010D58F00E94FA0C95
:1017F00040F029F45F3F29F00C94F10C51110C9446
:101800003C0D0C94F70C0E94190D68F39923B1F369
:10181000552391F3951B550BBB27AA276217730716
:10182000840738F09F5F5F4F220F331F441FAA1FAA
:10183000A9F335D00E2E3AF0E0E832D09150504066
:10184000E695001CCAF72BD0FE2F29D0660F771F14
:10185000881FBB1F261737074807AB07B0E809F0FA
:10186000BB0B802DBF01FF2793585F4F3AF09E3F7F
:10187000510578F00C94F10C0C943C0D5F3FE4F3AF
:10188000983ED4F3869577956795B795F7959F5FC2
:10189000C9F7880F911D9695879597F90895E1E00E
:1018A000660F771F881FBB1F621773078407BA076D
:1018B00020F0621B730B840BBA0BEE1F88F7E095C8
:1018C00008950E94210D88F09F5798F0B92F99270D
:1018D000B751B0F0E1F0660F771F881F991F1AF01B
:1018E000BA95C9F714C0B13091F00E943B0DB1E038
:1018F00008950C943B0D672F782F8827B85F39F037
:10190000B93FCCF3869577956795B395D9F73EF4B3
:1019100090958095709561957F4F8F4F9F4F08955B
:10192000E89409C097FB3EF4909580957095619579
:101930007F4F8F4F9F4F9923A9F0F92F96E9BB272F
:101940009395F695879577956795B795F111F8CFAB
:10195000FAF4BB0F11F460FF1BC06F5F7F4F8F4F16
:101960009F4F16C0882311F096E911C0772321F00C
:101970009EE8872F762F05C0662371F096E8862FA4
:1019800070E060E02AF09A95660F771F881FDAF7FB
:10199000880F9695879597F90895990F0008550F28
:1019A000AA0BE0E8FEEF16161706E807F907C0F0E5
:1019B00012161306E407F50798F0621B730B840BED
:1019C000950B39F40A2661F0232B242B252B21F4C7
:1019D00008950A2609F4A140A6958FEF811D811D67
:1019E000089597F99F6780E870E060E008959FEFA1
:1019F00080EC089500240A941616170618060906A6
:101A0000089500240A941216130614060506089574
:101A1000092E0394000C11F4882352F0BB0F40F4FC
:101A2000BF2B11F460FF04C06F5F7F4F8F4F9F4F3C
:101A3000089557FD9058440F551F59F05F3F71F0BE
:101A40004795880F97FB991F61F09F3F79F0879525
:101A50000895121613061406551FF2CF4695F1DFAE
:101A600008C0161617061806991FF1CF869571053E
:101A7000610508940895E894BB2766277727CB0172
:101A800097F908950E94CD0C08F48FEF08950E94F5
:101A90005A0D0C94080D0E94FA0C38F00E94010DAA
:101AA00020F0952311F00C94F10C0C94F70C1124F8
:101AB0000C943C0D0E94190D70F3959FC1F3950F86
:101AC00050E0551F629FF001729FBB27F00DB11DC2
:101AD000639FAA27F00DB11DAA1F649F6627B00D52
:101AE000A11D661F829F2227B00DA11D621F739F3B
:101AF000B00DA11D621F839FA00D611D221F749F49
:101B00003327A00D611D231F849F600D211D822F8F
:101B1000762F6A2F11249F5750409AF0F1F08823B6
:101B20004AF0EE0FFF1FBB1F661F771F881F9150E3
:101B30005040A9F79E3F510580F00C94F10C0C9495
:101B40003C0D5F3FE4F3983ED4F386957795679517
:101B5000B795F795E7959F5FC1F7FE2B880F911D0D
:101B60009695879597F908950E94CD0C880B990B4F
:101B70000895EE0FFF1F0590F491E02D0994F8945D
:021B8000FFCF95
:101B8200FFFFFFFF00E100000000000000C18081B4
:101B9200000000000000008D031805AE03A303F44B
:101BA20003B203D00300000000B305D304350634AA
:0E1BB200066E616E00696E66006F766600005A
:00000001FF
