:100000007CC50000A2C50000A0C500009EC5000080
:100010009CC500009AC5000098C5000096C5000068
:1000200094C5000092C500000C94EC090C945B0A86
:100030008CC500008AC5000088C5000086C5000088
:1000400084C5000082C5000080C500007EC5000098
:100050007CC500007AC5000078C500000C947D0CBA
:1000600074C5000072C5000070C500006EC50000B8
:100070006CC500006AC5000068C5000066C50000C8
:1000800064C5000062C5000060C500005EC50000D8
:100090005CC500005AC5000058C5000056C50000E8
:1000A00054C5000052C5000050C50000000000000B
:1000B000F4DD12ECE412E8F015E8F813ECFC13FCA4
:1000C0001021FF0F1804111D011018081223071624
:1000D00020081819031816FF181DFC181AF8141711
:1000E000FE130AF90B1DF7101CF50C23FC0C151060
:1000F000FB200B002007001D0CFD1608F0140CF06F
:100100001F0CF41C0CF8210FF819F8E414F7E81C84
:10011000F7EC20F3EC1DFCE61FFCEA1CF8EE0BF0FC
:10012000EB1BF0F01BFC001FFC0422FC081C04016C
:100130001B04FE1C04FC1C04F81F00F81DFCF81630
:1001400004F11D00F11DFCF022FCEC1C03041C0357
:10015000082107081D0B081D0E0818EFF31CEFF708
:1001600021F1F921F5F91DF8F91DF40023F8001D1E
:1001700000000200FC07FCFC03F8FC03F4FC03F0A5
:10018000FC09F0F807ECF809ECF402ECF002ECECF6
:1001900002ECE806F0E803F4E808F4E402F4E00610
:1001A000F8E003FCE00300E00700E40200E80200DE
:1001B000EC0904EC0308EC030CEC070CF00910F05C
:1001C0000710F40914F40714F80214FC0810FC06D4
:1001D0001000080C00060C040808040304040DF8C1
:1001E0000403F40406F40808F00806F00C02F0100A
:1001F00002F01409F41407F41809F81807F81C0998
:10020000FC1C03001C03041C03081C030C1C080C2E
:1002100018020C14020C10020C0C07080C03040C3E
:1002200003000C0900080200040280808040CB40DB
:1002300000140000004014400014000000080AC030
:100240008040C080C04080C0408040C0A840C0A85E
:10025000C040A8C040A8400004071D0007031D01BE
:1002600002061D0106051D0105041A0104001A02FB
:1002700003071A0207061A04050655040607555A0D
:100280000A00E00AE020000402C08000C0940000E0
:1002900094C00080C00001020E0002030E400A005C
:1002A000000A0000000402C08000C09400409400D6
:1002B0004080000001020C0002030C000A40000A0A
:1002C00000000004020080400094400094C00080C0
:1002D000C00001020A0002030A20232000230000BC
:1002E000000C0CE08020E080E02080E0208020E016
:1002F000C620E0C6E020C6E020C620F680E0F69EDC
:10030000E00A9EE00A80E0000407190007031901D3
:10031000020619010605190105041501040015025C
:1003200003071502070615080A093F080B0A3F04D0
:100330000506530406075340323000321000000C0B
:100340000CC08040C080E04080E0408040C0E4407D
:10035000C0E4E040E4E040E440F680E0F69EE00ADD
:100360009EE00A80E00004071E0007031E0102064B
:100370001E0106051E0105041B0104001B020307E4
:100380001B0207061B080A0930080B0A3004050681
:1003900053040607530B05FE8000FEA40002A400D0
:1003A000028000F49800E0A800F4B800F3A400F381
:1003B000AC0010AC0010A40000010207000203070B
:1003C0000405060F0708090F07090A0F061C060097
:1003D0001C0000000703FE8000FEA40002A400022F
:1003E0008000F0A40000BC0010A40000010207007F
:1003F0000203070405060F4000490020000014080E
:1004000004C08040C0C0C040C0C0408040FA9414C6
:10041000FAACEC06ACEC06941400010203000203F3
:10042000030405063B0406073B0402C08040E0804D
:10043000E04080C04080400001030701020307083C
:1004400004C08040C080C04080C0408040EC800636
:10045000EC80FA1480FA14800600010207000203FF
:10046000070405063F0406073F0804C08040C0801B
:10047000C04080C0408040FA8014FA80EC0680ECD6
:1004800006801400010207000203070405063F046A
:1004900006073F0804C08040C080C04080C0408044
:1004A00040FA8014FA80EC0680EC06801400010209
:1004B00007000203070405062F0406072F4000402B
:1004C00000000000000301C080004080C0008040A8
:1004D000000102070808C08040C080C04080C040C2
:1004E0008040C01640C016C04016C04016400004F0
:1004F000071A0007031A0102061A0106051A010568
:10050000041D0104001D0203071D0207061D080843
:10051000C08040C080C04080C0408040C0A840C073
:10052000A8C040A8C040A8400004071D0007031D44
:100530000102061D0106051D0105041A0104001A29
:100540000203071A0207061A0808E08020E080E08C
:100550002080E0208020E0C620E0C6E020C6E02029
:10056000C620000407190007031901020619010635
:1005700005190105041501040015020307150207FA
:1005800006150808C08040C080E04080E040804000
:10059000C0E440C0E4E040E4E040E4400004071E62
:1005A0000007031E0102061E0106051E0105041BAD
:1005B0000104001B0203071B0207061B00030609B8
:1005C0000C0F1215181B1E2225272A2D3033363901
:1005D0003C3E414446494B4E505355575A5C5E6031
:1005E000626466686A6B6D6E707173747576787923
:1005F0007A7A7B7C7D7D7E7E7E7F7F7F7F0000247C
:100600000348066A098C0CAB0FC812E215F9180BE7
:100610001C1A1F2322282526281F2B112EFB30DF12
:1006200033BA368C39563C173FCE417A441C47B416
:10063000493F4CBF4E33519B53F5554258825AB3F4
:100640005CD75EEB60F162E864CF66A6686D6A23F2
:100650006CC96D5E6FE2705472B573047541766B50
:1006600077847889797C7A5C7B297CE37C897D1D21
:100670007E9C7E097F617FA67FD87FF57FFE7FFF0E
:10068000FFFFFFFF7F5555FF3F3333AA2A9224FF18
:100690001F711C991945175515B11349121111FFF6
:1006A0000F0F0F380E790DCC0C300CA20B210BAABA
:1006B0000A3D0AD8097B092409D30888084208FFA3
:1006C00007C107870750071C07EB06BC06900666A4
:1006D000063E061806F405D105B0059005720555CD
:1006E0000539051E050505EC04D404BD04A70492D4
:1006F000047D04690456044404320421041004FFF8
:1007000003F003E003D203C303B503A8039B038EE6
:10071000038103750369035E03530348033D0333F9
:100720000329031F0315030C030303FA02F102E874
:1007300002E002D802D002C802C002B902B102AA85
:1007400002A3029C0295028F02880282027C02763A
:100750000270026A0264025E02590253024E0249AA
:100760000243023E023902340230022B02260222E8
:10077000021D021902140210020C0208020402FFF8
:1007800001FC01F801F401F001EC01E901E501E1EE
:1007900001DE01DA01D701D401D001CD01CA01C7C0
:1007A00001C301C001BD01BA01B701B401B201AF7B
:1007B00001AC01A901A601A401A1019E019C01991E
:1007C000019701940192018F018D018A01880186B0
:1007D00001830181017F017D017A01780176017435
:1007E00001720170016E016C016A016801660164A9
:1007F00001620160015E015C015A01580157015517
:10080000015301510150014E014C014A0149014778
:100810000146014401420141013F013E013C013BCF
:100820000139013801360135013301320130012F20
:10083000012E012C012B012901280127012501246A
:10084000012301210120011F011E011C011B011AAE
:1008500001190118011601150114011301120111EA
:10086000010F010E010D010C010B010A0109010824
:100870000107010601050104010301020101010054
:1008800001000000000000001100440011004400BD
:1008900055005500550055225588552255AA552218
:1008A00055AA55AA55AA55BB55EE55BB55FF55BB84
:1008B00055FF55FF55FF55FF77FFDDFF77FFFFFF22
:1008C00077FFFFFFFF0000000103070F1F3F7FFFBF
:1008D000FFFEFCF8F0E0C080D5F08D14A1C881CFF8
:1008E000D9F1AF2000B000C50400000000C504002D
:1008F00001BD049304000000009304070000006998
:10090000040001BD043F040001BD042904000000EF
:100910000029040700000029040300000029040442
:10092000000000FF030001F703FF030701F703FFC7
:10093000030301F703FF030401F703D4030001CC11
:1009400003D4030701CC0395030001CC03950307EF
:1009500001CC0395030101CC0395030501CC033FB2
:1009600003000137033F03070137033F0303013748
:10097000033F0304013703E1020001D902E102074A
:1009800001D902E1020301D902E1020401D902C343
:10099000020001BB02A50200019D02870203017F44
:1009A00002870204017F02870200017F028702079B
:1009B000017F023D0200013502D40400012D020036
:1009C0000000000000000000000000000000000027
:1009D0000000000000000000000000000000000017
:1009E00000000000000000820582058205820548A3
:1009F000054805480548050000000000000000000B
:100A00000000000E05D4041014F6020FF602F10ADD
:100A100002F10A020FF60A0FF60AF10A0AF10A0AAF
:100A20000FF60A07F60AF70A0AF70A0A07F8120584
:100A3000F812FD0812FD0812050001051900050451
:100A40001903060219030706190004071F0007030C
:100A50001F0102061F0106051F0405063B040607C9
:100A60003B08090D51080D0C510A0B0F510A0F0ECE
:100A700051080C0F5E080F0B5E090A0E52090E0D8D
:100A8000520C0D0E5B0C0E0F5B080B0002020200F5
:100A90000009040000010202000005240010010505
:100AA0002401010104240206052406000107058132
:100AB0000310004009040100020A000000070502BB
:100AC00002400000070583024000000403090412ED
:100AD000010002EF020140412336800001010203C0
:100AE0000141726475696E6F204C4C430041726421
:100AF00075626F7900000000591A11241FBECFEFF4
:100B0000DAE0DEBFCDBF11E0A0E0B1E0E2EBF0E45F
:100B100002C005900D92A632B107D9F72AE0A6E2ED
:100B2000B1E001C01D92A231B207E1F715E0CDE7B7
:100B3000D5E004C02197FE010E945120CC37D10797
:100B4000C9F70E946E1A0C9457205ACAFC01809172
:100B5000110A882311F13FB7F89422E02093E900AD
:100B60005091F200852F90E01816190614F481E0D8
:100B700090E0882339F0289844E64093100A609169
:100B8000F1006083552339F07091F200711103C0B8
:100B9000ABE6A093E8003FBF08958FEF9FEF089565
:100BA0002FB7F89483E08093E9009091E800892FB3
:100BB000807295FF04C03091F20080E4831B2FBF48
:100BC00008958091080A81110DC022E02093040A43
:100BD00034E03093050A1092070A1092060A41E0A9
:100BE0004093080A84E09AE00895CF93DF931F9220
:100BF000CDB7DEB76983DC01ED91FC910280F38112
:100C0000E02D41E050E0BE016F5F7F4F09950F90EE
:100C1000DF91CF91089583E08093E9002091F20065
:100C2000222319F03AE33093E8000895B9DF90E009
:100C30000895CF93DF931F92CDB7DEB7FC01848573
:100C4000958597FD08C02FEF3FEF358724870F90DC
:100C5000DF91CF910895CE01019678DF019719F4C5
:100C6000898190E0F4CF8FEF9FEFF1CF0F931F9327
:100C7000CF93DF931F92CDB7DEB78C01FC01848543
:100C8000958597FF0AC0CE01019660DF019771F448
:100C9000898190E0F80195878487F801848595859E
:100CA0000F90DF91CF911F910F9108958FEF9FEFDC
:100CB000F1CFFC018485958597FD0BC03FB7F89473
:100CC00042E04093E9008091F2003FBF90E001963E
:100CD00008959FB7F89422E02093E9008091F200F4
:100CE0009FBF90E008954091AE095091AF092091C7
:100CF000AC093091AD0942175307B4F49091E80064
:100D00009570E1F33091E80032FD19C08093F10055
:100D10008091AE099091AF0901968F739927892B25
:100D200019F45EEF5093E800A091AE09B091AF09BD
:100D30001196B093AF09A093AE0981E0089580E0C9
:100D40000895EF92FF920F931F93CF93DF93F82EA6
:100D5000192FE62E042F81E0860F880FC4DF83E071
:100D6000C2DFCF2DD12FEC0EFD2EF11CCE15DF05ED
:100D7000A9F007FF11C0FE018491B5DF182F80E0B4
:100D8000B2DF812321968111F1CFDF91CF911F91A5
:100D90000F91FF90EF9008958881EFCF81E0F5CF1C
:100DA000DF92EF92FF920F931F93CF93DF93D82E92
:100DB0008A01EB017B01E40EF51ECE15DF0551F033
:100DC000D7FE11C0FE0184918EDF21968111F5CFEF
:100DD0000FEF1FEFC801DF91CF911F910F91FF908F
:100DE000EF90DF9008958881EFCF0F931F93CF93FB
:100DF000DF931F92CDB7DEB782E0898342E450E0F3
:100E000069E87AE080E8CCDFDCDEFC010281138156
:100E10000115110589F0D801ED91FC910280F38153
:100E2000E02DBE016F5F7F4FC801099597FD04C09B
:100E3000F80100851185ECCF89810F90DF91CF916A
:100E40001F910F910895615030F02091F100FC0145
:100E500020830196F8CF289884E68093100A08959D
:100E6000FC0194D0319728F068517C4F8F4F9F4FF1
:100E7000F9CFAB01FC018AD0641775078E079F0775
:100E8000D0F3089585E090E0EBCF8F929F92AF92E0
:100E9000BF92CF92DF92EF92FF920F931F93CF9367
:100EA000DF936C017B018A0180910B01882309F497
:100EB00058C08090110A882009F453C09090B3095B
:100EC00090FE05C02091E00022602093E000E80140
:100ED000B12C8AEFA82E93E0892E2AE3922E209738
:100EE00011F4BB20B9F15CDE811107C0AA94AA20DD
:100EF000C1F181E090E0B4DFF2CF8C171D0611F054
:100F00000CF08C2F9FB7F8948092E9003091E800A4
:100F100035FD02C09FBFE3CF282F30E0C21BD30BAB
:100F2000F701815020F051915093F100FACFE20E79
:100F3000F31EBB2021F09092E800B12CEBCF409142
:100F4000E80045FDE7CF9092E800BB24B3942097DA
:100F500009F3F3CF5D9864E66093B20910161106A9
:100F60003CF001E010E0E6011B830A8310E000E0A2
:100F7000C801DF91CF911F910F91FF90EF90DF900B
:100F8000CF90BF90AF909F908F900895A8EAB9E05E
:100F90002FB7F8947D918D919C9166B52FBFA89B3A
:100FA00005C06F3F18F47F5F8F4F9F4F22E0660FA1
:100FB000771F881F991F2A95D1F708952F923F9286
:100FC0004F925F927F928F929F92AF92BF92CF92F9
:100FD000DF92EF92FF920F931F93CF93DF93CDB7E2
:100FE000DEB7CE50CDBFFC012F83388749875A87A3
:100FF0006B877C874F80588409851A852B853C85B3
:101000003E872D874081B201F403C001CE0390409A
:10101000810D1124911D6C0151819503C001D803EC
:101020009040810D1124911D6281B603D001EA0325
:10103000B040A10D1124B11D7D0173819201B70350
:10104000D001FA03B040A10D1124B11D64819603B3
:10105000A001E8035040410D1124511D1A01658182
:101060002D853E85B603A001EA035040410D1124B1
:10107000511D5A0166819201B603A001EA03504056
:10108000410D1124511D4A01778197039001F80306
:101090003040210D1124311D10854D855E85D10311
:1010A000F0019C03F040E10D1124F11D8C0D9D1DFC
:1010B000E80EF91EFA82E982A1014A0F5B1F4A0D70
:1010C0005B1D5C834B83820E931EE80DF91DFE832E
:1010D000ED832E2D3A815C816E2F7E8180E090E041
:1010E000C25FCDBFDF91CF911F910F91FF90EF9025
:1010F000DF90CF90BF90AF909F908F907F905F9048
:101100004F903F902F900895E82FEF7386FF02C015
:10111000E195E05CF0E0E454FA4FE49187FDE1955D
:101120008E2F08959C013603C001269F810D112446
:10113000911D0895BF92CF92DF92EF92FF920F938D
:101140001F93CF93DF936C017B01B22EFC010081D2
:101150001181461B570B57FF02C04D5F5F4F5595DE
:10116000479555954795EA01C01BD10B6B2DC801DA
:10117000D9DFE80EF91E6B2DCE01D4DF800F911F51
:10118000D6018D939C93C701DF91CF911F910F9151
:10119000FF90EF90DF90CF90BF900895EF92FF9275
:1011A0000F931F93CF93DF93EC01E62E142F842F20
:1011B000ABDF082F80E4810FA7DF182F8E2DA4DF6F
:1011C000F82E80E48E0DA0DF88834F2D84039001DC
:1011D000112439839403900111243A831B821C83C8
:1011E000902F91959D83F194FE82582F8503900155
:1011F00011243F839503C00111249887DF91CF917B
:101200001F910F91FF90EF9008956F927F928F92B0
:101210009F92AF92BF92CF92DF92EF92FF920F9385
:101220001F93CF93DF93CDB7DEB7C551CDBF182F36
:10123000062F8090910990909209E0909309F09088
:101240009409A0909509B090960960E4809171048A
:101250009091720467DF880E991E60E48091730498
:10126000909174045FDFE80EF91E24EDE21A26E087
:10127000F20A60E4809175049091760453DFA80E21
:10128000B91E6090970970909809809153019091D0
:10129000540160E4D301A81BB90BCD0143DF6C01FD
:1012A000C60CD71C111103C0011101C0630145EF29
:1012B0006D2D6195CE01019671DF1B861A861D8604
:1012C0001C8660E020E03B8540E05D8576E0CE0155
:1012D000019674DE288B398B4A8B5B8B6C8B7D8BF4
:1012E00048895989480D591D2A893B89E20EF31E08
:1012F000EC89FD89AE0EBF1E111130C001112EC048
:10130000A7E5B1E03AE0FD0111923A95E9F7509373
:101310004E0140934D01F0925001E0924F01B09286
:101320005201A0925101D0925401C092530188EB16
:101330009BE09093560180935501CB5ECDBFDF912A
:10134000CF911F910F91FF90EF90DF90CF90BF90C2
:10135000AF909F908F907F906F90089560914D0116
:1013600070914E01212F87E591E0E4DE90934E01CC
:1013700080934D0160914F0170915001212FA70181
:1013800089E591E0D7DE9093500180934F01609101
:10139000510170915201212FA5018BE591E0CADE28
:1013A00090935201809351016091530170915401C7
:1013B000202FA6018DE591E0BDDE9093540180932E
:1013C00053016091550170915601202F48EB5BE06D
:1013D0008FE591E0AFDEADCF1F920F920FB60F9267
:1013E00011248F939F938091E1009091E100937F6E
:1013F0009093E10083FF0FC01092E90091E0909379
:10140000EB001092EC0092E39093ED001092110A21
:1014100098E09093F00082FF22C093E09093E9005F
:101420009091F200992319F09AE39093E80090913B
:10143000B209992341F09091B20991509093B20969
:10144000911101C05D9A9091100A992341F09091F9
:10145000100A91509093100A911101C0289A84FFAC
:1014600018C09091E2009E7E91609093E20080917E
:10147000E1008F7E8093E1008091B3098E7E8061D0
:101480008093B3099F918F910F900FBE0F901F9083
:10149000189580FFF7CF8091E2008E7E8061809367
:1014A000E2009091E1009E7E9093E1008091B3096B
:1014B0008E7E8160E5CF1F920F920FB60F9211249E
:1014C000CF92DF92EF92FF920F931F932F933F9350
:1014D0004F935F936F937F938F939F93AF93BF933C
:1014E000EF93FF93CF93DF93CDB7DEB7CC51CDBF52
:1014F0001092E9008091E80083FF24C068E0CE01EB
:101500004596A1DC02EF0093E8001D8917FF35C066
:10151000C090E800C0FEFCCF212F207609F027C143
:101520003E894F89588D6F89F88C31112DC0103844
:1015300041F5F090B109F092F1001092F100FEEF48
:10154000F093E800C45ECDBFDF91CF91FF91EF91A2
:10155000BF91AF919F918F917F916F915F914F91CB
:101560003F912F911F910F91FF90EF90DF90CF90BF
:101570000F900FBE0F901F9018959EEF9093E8006C
:10158000CBCF1092F100D9CF313059F41111D7CF10
:1015900041305105A1F68091B1098D7F8093B10949
:1015A000CECF333049F41111CACF4130510539F64D
:1015B0008091B1098260F2CF353041F4D090E800DB
:1015C000D0FEFCCF60686093E300B9CF363009F0FD
:1015D000A0C00B8D1C8D92E01092E9001092AF0913
:1015E0001092AE09F9122BC01092AD091092AC09FD
:1015F000FCDB1F8259E05983FA8271E07E83B0EAF6
:10160000B8872AEF29874091AE095091AF09475F0B
:101610005F4F5C834B838D831092E9001092AF097A
:101620001092AE091093AD090093AC0949E050E067
:10163000BE016F5F7F4F80E0B3DBD7DB80CF1093BD
:10164000AD090093AC09BDDAFC01C280D380C1149E
:10165000D10409F44CC1D601ED91FC910480F581CF
:10166000E02DBE016B5E7F4FC6010995009709F022
:1016700039C1F601C084D184EACF33E0F3120DC042
:101680004F89442309F43DC0423059F440E867E0F3
:101690008DEE9AE056DB811152CF61E26093EB0050
:1016A00051CF413029F440E86BE081EE9AE0F2CF6F
:1016B000433099F786DAFC01E280F3808E010F5FF8
:1016C0001F4F6801E114F10479F0D701ED91FC910D
:1016D0000680F781E02DB801C7010995080F111D9B
:1016E000F701E084F184EECFD8011C92F60101905D
:1016F0000020E9F73197BF016C197D0940E0C60170
:10170000C9CF6BEC7AE0FB01449150E080E848DB04
:1017100016CF373009F4C1CF383021F4F1E0F0931F
:10172000F1000DCF393009F00ACF137009F0B5CFB1
:10173000EDE0F1E081E051E076E3C190CC2071F082
:101740008093E9005093EB00DF011197BC91B093B7
:10175000EC007093ED008F5F873079F72EE72093D0
:10176000EA001092EA00EF88E092110AE8CEEB8CD2
:10177000FC8C1092E9001092AF091092AE09F09221
:10178000AD09E092AC09D98CD11093C03E894D8946
:10179000413A49F4313209F080CF47E050E064E04B
:1017A00071E080E0B4CF413209F077CF333269F491
:1017B0008F89988DB0E0A0E08093000190930101A3
:1017C000A0930201B0930301BACE303261F4D090FD
:1017D000E800D2FEFCCF67E084E091E034DB0BEF61
:1017E0000093E800ACCE323209F0A9CEFF88F09227
:1017F0000B01EEEFFFE7659174916B3F7C4D51F16A
:10180000E0E0F8E08091040190910501A0910601CB
:10181000B0910701803B9440A105B105F1F45091CE
:101820000B0150FD1AC0EE3F8AE0F80791F5A7E7DB
:10183000B7E7B183A083F0916000F093B00918E19D
:101840009BE00FB6F894A895109360000FBE90939C
:10185000600075CEEEEFFAE0D5CFC080D180A7E76B
:10186000CA16DA0609F06BCEA8957091600078610F
:1018700070936000B091B009B0936000EE3F2AE031
:10188000F20791F02091FE0A3091FF0A3183208304
:1018900056CEE080F180B7E7EB16FB0641F2F092FE
:1018A000FF0AE092FE0AC3CF1092FF0A1092FE0ACE
:1018B00046CE87D9FC01028113810115110509F477
:1018C000ECCED801ED91FC910190F081E02DBE01AC
:1018D0006B5E7F4FC8010995811131CEF8010085FB
:1018E0001185EBCF181619060CF429CED6CE11E0CF
:1018F000F112C3CE6FEC7AE006CF0F920FB68F9342
:101900009F93EF93FF938091A3098D5F8D3708F02C
:101910008D578093A309E4EAF9E080818E4F80839C
:1019200091819F4F918382818F4F828383818F4FDB
:101930008383E8EAF9E080818F5F808381818F4F24
:10194000818382818F4F828383818F4F83838FB185
:101950008F6066991C9B88278F3681F48091A2093D
:10196000981B963068F0E0E0F8E087E78083818399
:1019700088E180936000F0936000FFCF9093A2090C
:10198000FF91EF919F918F910FBE0F901895282F87
:101990009FB19095907F669B98601C9B946092236A
:1019A00081E0921380E00895BC01E92FFF27EE0F3C
:1019B000FF1FE158F94F25913591882391F0482F69
:1019C0004195349FC001249F810D1124911DA59143
:1019D000B591B69F9001A69F210D1124311D280FAE
:1019E000391F379F902DA12D269F812D279F800D78
:1019F000911D1124A11D369F800D911D1124A11D43
:101A000080959095A095AE5F939FA001A29F400DF9
:101A1000511DA39F500D829FE12D929FE00D411D0E
:101A20001124511D389FE00D411D1124511DCA0183
:101A3000723008F027C0979F302D412D869F212DB1
:101A4000879F200D311D1124411D969F200D311DB2
:101A50001124411D2095309540954E5F399FB0016E
:101A6000489F600D711D499F700D289F512D389F13
:101A7000500D611D1124711D929F500D611D112487
:101A8000711DCB010895CF92DF92EF92FF920F93D9
:101A90001F93CF93DF93E901481B590B09F426C02C
:101AA0009B01281B390BD801AC1BBD0B0E944520A4
:101AB0006B017C01552321F1CA0176DFB701A60134
:101AC0008C01619FC0017003800D911D7103900D09
:101AD000509F212D609F200D811D1124911D519F2C
:101AE000200D811D1124911DC80FD91FCE01DF913A
:101AF000CF911F910F91FF90EF90DF90CF900895BD
:101B0000FA01FF27EE0FFF1FE158F94F259134919D
:101B1000D39EC001E29E800D911DE39E900DF29E2A
:101B2000900DC29E412DC39E400D811D1124911D1B
:101B3000D29E400D811D1124911DD6CF482FE82F34
:101B4000EF7386FF03C080E48E1BE82FF0E0EE0FFA
:101B5000FF1FE350FA4F8591949147FF03C0919581
:101B600081959109089520E0AC01D703C0014E038F
:101B7000821F312DDE03920B300D811D921FFC035D
:101B8000920B300D811D921F112408959C01B60304
:101B9000C001EA039040810D1124911D0895AC010C
:101BA0005702C001469F212D5603330B200D811D86
:101BB000931F7403330B200D811D931F112408956F
:101BC0009C013603C001729F800D911D3702900D5C
:101BD000269F810D1124911D08959C013603C0019B
:101BE0007203800D911D3702900D269F810D1124E7
:101BF000911D0895EF92FF920F931F93CF93DF9360
:101C0000182F092F892F9ADFEC0181E0800F96DFD2
:101C10007C01112351F0612F6195CE0183DAEC0133
:101C2000612FC7017FDAC80FD91FCE01DF91CF9195
:101C30001F910F91FF90EF9008959C01369FC00176
:101C4000279F800D911D379F900D269F810D112498
:101C5000911D08955F926F927F928F929F92AF92A3
:101C6000BF92CF92DF92EF92FF920F931F93CF9389
:101C7000DF93CDB7DEB7CC50CDBF4F835887698790
:101C80007A878B879C87CF80D884E984FA840B85F8
:101C90001C859701F7FE04C0222733272E193F0920
:101CA000C601D7FE04C0882799278C199D09821781
:101CB00093070CF4C901380117FF04C06624772488
:101CC000601A710A861597050CF4C3018F3F9105C0
:101CD000B1F0ACF0D7FE03C02FEFC21AD20AD594F0
:101CE000C794F7FE03C03FEFE31AF30AF594E794B5
:101CF00017FF02C00F5F1F4F15950795CACFB6019A
:101D0000C6016BDF4C01B701C70167DF880E991E62
:101D1000B801C80162DF880E991E38E0532EA12C4D
:101D2000BB24B39450E8652E77247394B501C501A4
:101D300084DFBC01C40181DF96958795B50153010D
:101D4000A81AB90AC50179DF5C015A945110EECF87
:101D5000BC01C60135DFD82E792EB501C70130DFB1
:101D6000F82E992EB501C8012BDF2D2D372D4F2DC3
:101D7000592DBC0180E090E0C45FCDBFDF91CF91D1
:101D80001F910F91FF90EF90DF90CF90BF90AF9099
:101D90009F908F907F906F905F9008952F923F92C9
:101DA0004F925F926F927F928F929F92AF92BF926B
:101DB000CF92DF92EF92FF920F931F93CF93DF9317
:101DC000CDB7DEB7CE51CDBF4F83588769877A87AD
:101DD0008B879C874F80588469847A840B851C8507
:101DE00020917304309174043E8B2D8B8091750487
:101DF00090917604988B8F87B201809171049091B5
:101E00007204EBDE7C01B3018D899E89E6DEE80E6B
:101E1000F91EB8018F859889E0DE8E0D9F1D97FF12
:101E200031C1811520EF92070CF041C1B8E0B093A9
:101E3000C100E3E0E093BF00F5E8F093D10021E0BA
:101E40002093BF0082EC8093CF0032E83093C00033
:101E5000A4E0A093270120907104309072043A8E80
:101E6000298E8090690490906A049A8A898A809168
:101E70006B0490916C049C8B8B8BA0906D04B09044
:101E80006E04B88EAF8AB801A8DE1C01B3018F8939
:101E9000988DA3DE281A390AB2018F89988D9DDEAC
:101EA0006C01B80189899A8998DEC81AD90AB301E8
:101EB00089899A8992DE7C01B2018B899C898DDEA9
:101EC000898C9A8C821893082D883E882C183D089E
:101ED000E81AF90A4F8558894E195F097A01B2014B
:101EE000C4017BDE5C01B301C10177DEA80EB91E1F
:101EF000B801C70172DEA80EB91EB201C5016DDEC0
:101F00006401C81AD90AB301C50167DEB101681BB3
:101F1000790B7E876D87B801C5015FDE4C2DDA82B3
:101F2000C9826D85AD85BE85BC83AB83F701E81B97
:101F3000F90BCF01FE83ED835A817C819E818ADE7D
:101F400029833A834B835C836D837E8329813A8125
:101F50003C8F2B8F8B819C819E8F8D8FCD80DE80DF
:101F6000DE86CD866B8D7C8DC40137DE4C016D8D98
:101F70007E8DC10132DE880E991E6D857E85C7017A
:101F80002CDE880E991E9194819491086CE088272C
:101F900099278A199B09C6D81C012A183B0860E4B6
:101FA000C401C0D86C01B201C10117DE4C01B301FC
:101FB000C10113DE5C01B801C1010FDE7C016B8D34
:101FC0007C8DC6010ADE880E991E6D8D7E8DC60140
:101FD00004DEA80EB91E6D857E85C601FEDDE80E05
:101FE000F91E498D5A8D480D591D50937204409326
:101FF00071046D897E896A0D7B1D709374046093F2
:102000007304AF85B889AE0DBF1DB0937604A0935D
:102010007504B801C501E1DD1C01B301C701DDDDB7
:10202000281A390AB201C701D8DD6C01B801C40110
:10203000D4DDC81AD90AB301C401CFDD3C01B20115
:10204000C501CBDD220C331C49885A88240C351C71
:1020500030926A0420926904CC0CDD1C0B891C8927
:10206000C00ED11ED0926C04C0926B04681A790A1B
:10207000660C771CEF89F88D6E0E7F1E70926E04D1
:1020800060926D04C25ECDBFDF91CF911F910F9121
:10209000FF90EF90DF90CF90BF90AF909F908F9088
:1020A0007F906F905F904F903F902F900895811593
:1020B000984F0CF0D0CE38E03093C10043E040930D
:1020C000BF0055E85093D10061E06093BF0072EC0F
:1020D0007093CF0092E89093C000A2E0BACE2F9206
:1020E0003F924F925F926F927F928F929F92AF92A8
:1020F000BF92CF92DF92EF92FF920F931F93CF93F5
:10210000DF93CDB7DEB7C051CDBFFC016B87009127
:102110004D0110914E0180819181081B190BC090D7
:102120004F01D090500122803380C218D3086091B3
:102130005101709152014480558064197509FB85E5
:10214000FF2309F4F0C0AD2D60913C0161027001E4
:10215000609140016702E00CF11C60914201610254
:102160004001609144016A02800C911C609146011B
:102170006702800C911C609148016102C00160916E
:102180004A016A02800D911D60914C016702800D29
:10219000911D11241701F0908F05FE865090900537
:1021A0005F865A86EFECF4E01081428154816091A1
:1021B000290170912A017102300116030008610C97
:1021C000701C60912D0170912E017502600C711CC4
:1021D00056030008610C701C60912F017091300152
:1021E0007102500116030008A10CB01C609131016E
:1021F000709132017402A00CB11C46030008A10CBE
:10220000B01C60913301709134017502A00CB11CB7
:1022100056030008A10CB01C609135017091360185
:102220007102D00116030008A10DB01D60913701A5
:10223000709138017402A00DB11D46030008A10D74
:10224000B01D6091390170913A017502A00DB11D68
:1022500056030008A10DB01D112462187308A818B8
:10226000B908BC016A1B7B0B61927192A192B19279
:10227000619371933A8531503A87311195CF7B85BF
:10228000711124C31D823D807E84371408F01EC363
:1022900094E0399EA0011124DA01A958BB4FBA83FA
:1022A000A983FD015C904180F280FB822FEC34E039
:1022B00016E0BB27F901519EE00DF11DE581E130EB
:1022C0000CF4B160F901419EE00DF11DE581E130B2
:1022D0000CF4B260F901F19EE00DF11DE581E130F1
:1022E0000CF4B4601124BB23D1F0B73009F0C2C0A4
:1022F000FE85F150FE878D8181508D8304E0F09F33
:10230000D0011124A958BB4F4D905D906D907C90E9
:10231000A981BA814D925D926D927C9213972D8125
:102320002F5F2D83B0CF20913B0130913C011302F0
:102330004001029F812D1203990B800D811C991E73
:102340003003990B800D811C991E112440913F018F
:102350005091400175023001649FA12D7403BB0BA5
:10236000A00D611C7B1E5603BB0BA00D611C7B1EC8
:1023700011241401260C371C209141013091420197
:1023800013025001029FA12D1203BB0BA00DA11C33
:10239000BB1E3003BB0BA00DA11CBB1E1124209142
:1023A000430130914401A6015302F001429FA12D47
:1023B0005203BB0BA00DE11DFB1F3403BB0BA00D93
:1023C000E11DFB1F1124409145015091460175020A
:1023D000D001649FF12C7403EE08F00CA11DBE1D0A
:1023E0005603EE08F00CA11DBE1D112445018E0EF2
:1023F0009F1E8A0E9B1E4091470150914801150275
:10240000C001049FF12C1403EE08F00C811D9E1DE9
:102410005003EE08F00C811D9E1D1124009149010E
:1024200010914A01A60151026001409FF12C500316
:10243000EE08F00CC11CDE1C1403EE08F00CC11CED
:10244000DE1C112420914B0130914C0173022001BC
:10245000629FF12C7203EE08F00C411C5E1C3603E7
:10246000EE08F00C411C5E1C11248C0D9D1D840D8A
:10247000951D91CEFFEFFB0FFB2309F406C12F85BD
:102480002F3158F07E8571507E879D8191509D83BC
:10249000B4E07B9FD001112435CF16E0519EA001FE
:1024A0001124BA0161537B4F6B019B80919EA00167
:1024B0001124FA01E153FB4F5F01419EB001112449
:1024C000CB0181539B4F7C01B0FD6BC0FC010281AD
:1024D00013811C830B8384809580F60122803380D6
:1024E0006480758000811181DC012D913C91A301F4
:1024F00060E071E0C401C7DA9987888781012B8188
:102500003C81A30160E071E0C401BDDA9F838E834A
:10251000F501228133813C832B8384809580F601F1
:10252000C280D3802480358000811181D5012D9116
:102530003C91A10160E071E0C401A5DA7C01860153
:102540002B813C81A10160E071E0C4019CDA3F85F0
:102550003F5FBF8416E0B19EF0011124E153FB4FB1
:1025600048855985518340836E817F81738362835F
:10257000A0E0B1E0B583A483319FF0011124E153C1
:10258000FB4FF182E08293838283B583A483E98148
:10259000FA8150821F8511833283512F5E5F5F87DE
:1025A000BECE208131812280338064807580B1FD70
:1025B00035C0FC0182809380A480B58000811181A8
:1025C000A50160E071E0C3015EDA99878887840124
:1025D0009101A50160E071E0C30155DA9F838E830C
:1025E000F60122803380A480B580F7016280738079
:1025F0008480958000811181D6012D913C91A401A8
:1026000060E071E0C5013FDA7C0183019101A40122
:1026100060E071E0C50137DA542C99CFF6014280B1
:10262000538084809580A081B18189019D01A3019F
:1026300060E071E0C40127DA9987888781019201FF
:10264000A30160E071E0C4011EDA9F838E83F7016D
:1026500022803380C480D580F501A280B38064805D
:10266000758000811181D7012D913C91A30160E01B
:1026700071E0C60108DA7C0185019101A30160E0E7
:1026800071E0C60100DA5B8062CF8F858F3118F46C
:102690000E85063158F0FE85F150FE878D81815000
:1026A0008D8304E0F09FD00111242CCE16E0519EC2
:1026B000A00111249A0121533B4F69019B80919EF7
:1026C000A0011124BA0161537B4F5B01419EB0010F
:1026D0001124FB01E153FB4F7F01B0FF7DC0F901E5
:1026E000028113811F830E8384809580F701E2802D
:1026F000F3806480758000811181D9012D913C9116
:10270000A30160E071E0C401BED999878887870181
:102710002E813F81A30160E071E0C401B4D99F83A1
:102720008E83F601228133813D872C8784809580BA
:10273000F50122803380A480B58000811181D6010B
:102740002D913C91A50160E071E0C4019CD97C0110
:1027500081012C853D85A50160E071E0C40193D91C
:102760003F853F5FBF8416E0B19EF0011124E15325
:10277000FB4F48855985518340836E817F817383E8
:102780006283A0E0B1E0B583A483319FF0011124FE
:10279000E153FB4FF182E08293838283B583A4836C
:1027A000E981FA81D380FF84F08241825B8052828A
:1027B0005E8574E0579FF0011124E958FB4F308388
:1027C0003F8431827B807282D3829E859F5F9E8709
:1027D000BF85BE5FBF87A3CDF501208131812280F7
:1027E000338084809580B1FF38C0F70162807380A8
:1027F000A480B5808081918189019C01A40160E061
:1028000071E0C50140D99987888781019301A401AE
:1028100060E071E0C50137D99F838E83F701228084
:102820003380A480B580F601C280D38084809580F7
:1028300000811181D7012D913C91A40160E071E0EC
:10284000C50121D97C0186019101A40160E071E0FC
:10285000C50119D94B805B8283CFF60162807380FA
:102860007C826B82C480D58000811181A60160E0EA
:1028700071E0C40108D9998788870B811C81910177
:10288000A60160E071E0C401FED89F838E83F5014C
:1028900022803380C480D580F70162807380848079
:1028A000958000811181D5012D913C91A40160E0BA
:1028B00071E0C601E8D87C0183019101A40160E0C8
:1028C00071E0C601E0D84B82452C4ACF312CAFECE9
:1028D000AA2EA4E0BA2EB0E86B2E712CDF843D1432
:1028E00009F43AC0F50100811181C280D38084814E
:1028F00095818130F1E09F070CF421C055D8BC01CF
:1029000017034001069F412D1603550B400D811CF6
:10291000951E709F400D811C1124911C8401A601FD
:1029200057037001469FE12D5603FF0BE00DE11C9C
:10293000FF1E749FE00DE11C1124F11C670113952B
:10294000A3014C195D09D5010D931D934D935D9322
:1029500012965D013394C2CF712CF6E05F2EFE8497
:102960007F1408F071C034E0739E90011124B90106
:1029700069587B4F1B01DB019D90BD901D91ED912E
:10298000E4FF60C0959CD0011124A153BB4F8D90F2
:102990009D90ED90FD90159DC001112481539B4F9A
:1029A000B59CD0011124A153BB4F2D913C9111979F
:1029B00028193909FC01028113810E191F093102FE
:1029C000B001209FA00130037040500D611D112403
:1029D000711D12037040500D611D1124711DFD0108
:1029E000228133812E193F09DC010D911C910819B8
:1029F00019093102D001209FC0013003B040900D71
:102A0000A11D1124B11D1203B040900DA11D112470
:102A1000B11D481759076A077B07A4F45E8551501A
:102A20005E877A9474E0579FF0011124E958FB4FB8
:102A3000C080D180E280F380D101CD92DD92ED9211
:102A4000FC92139773948BCF9E8590938F05BB85D3
:102A5000B111D7C027E734E041E0FE854F1708F0F9
:102A6000D0C02C5F3F4FF901419031906190A1900F
:102A7000642F862F90E08150904C880F991F880F0B
:102A8000991FDC01A958BB4F85589B4FFD01D3808E
:102A9000AD1460F014E0619FF0011124E958FB4F80
:102AA000408231826282A3824F5FD7CFED90FD904A
:102AB0000D911C91DC01ED92FD920D931C931397E7
:102AC0006150B9F6E7CF41012F2C3C2C4A2DEB2D5C
:102AD000530104C1762C7094A720FB806F206A28D4
:102AE0006C92A058BF4FF72FF91BF0512CF0FC92BD
:102AF000A058BF4FF850DCF75C90F52499809F20D8
:102B000095249C927CC181019401A3016F857889F1
:102B1000C5010E94430D8983D92E2F85388937FD41
:102B20008BC1B7FE6FC1820194014F85588970E057
:102B300060E0C5010E94430D7C0109811D2D9401B7
:102B40004F85588970E060E0C5010E94430D8B837A
:102B500098874701B12CA12C4F855889411562E017
:102B600056070CF452C18201940160E072E0C50185
:102B70000E94430D8E839C8709811D2D2B813885F2
:102B80004F85588960E072E0C5010E94430D60E006
:102B900072E0CD807C010B8118852E813C85A401DB
:102BA000C50177D38F8498888114A2E09A0634F502
:102BB000C1016114B2E07B06BCF081019201A30166
:102BC00060E072E08F8598890E94430D282E392E8F
:102BD00029813D2DA30160E072E08F8598890E94D4
:102BE000430D612C22E0722ECD807C0109811D2DC8
:102BF0009101A201B3018F8598894BD3BA85BF5F3C
:102C0000BA8770908F055A84571408F02CC134E0AD
:102C1000539EA00111248A0109581B4FF801F2802C
:102C200086E08F9D9001112421533B4FF9012280B2
:102C30003380F801918056E0599DD0011124A153B1
:102C4000BB4FFD0182809380F801B08076E07B9DD0
:102C5000B001112461537B4FFB0142805380C92C8A
:102C6000C520C320C7FCCACFA201481559050CF0E6
:102C7000A401421553050CF0A1014F3F510511F07D
:102C80000CF0BCCFF90160807180AD90BC90DB018D
:102C9000ED90FC90F88AEF86AE14BF040CF0BCC037
:102CA0006E147F04ECF4382D892D4201432E582EEA
:102CB0002A2D5B2D57012F87588B6F857889F82C2B
:102CC000C92C661677060CF4FECE420121012F2C8A
:102CD0003C2C4A2DEB2D5B01788A6F86642E7E2E6C
:102CE00077FC8CCFA114F2E0BF060CF087CFF8017F
:102CF00013811F701F5F1D830B85011106C0D30157
:102D0000AA19BB091D970CF0FECE6401C414D504AA
:102D10000CF06201C214D3040CF06101B40164151B
:102D200075050CF4B201621573050CF4B101EB8466
:102D3000E11006C0CB018C199D090D970CF0E3CE74
:102D4000B594A794B594A79490E080E09C012A15CF
:102D50003B050CF495014F85588955954795559538
:102D60004795588B4F874FE750E0AF85B8894A1792
:102D70005B070CF0AD01D594C794D594C7948C151E
:102D80009D050CF4C6017595679575956795EFE3FC
:102D9000F0E0E617F7070CF0FB014E2E982F987F16
:102DA0007E2F787F421753070CF428CFE82FE77067
:102DB000E053F8E06490E42DE770E853F8E0F49015
:102DC000F982E0E19E9FD0011124AF56BA4FA20FC5
:102DD000B11D122FFD801370FF0CFF0CF10EFF27A9
:102DE000EF2DEF57F74FF490FB82AC90971372CE14
:102DF000B9806B20EB81EA256E22A624AC922F5F6E
:102E00003F4FD0CF8B829886A7CE89819D2D4E8251
:102E10005C866F857889BDCE6A147B040CF44DCF37
:102E2000982DB92D4201492E5B2EFA2DDB2CAF8453
:102E3000B888FF87D88A54CF9201A30170E060E080
:102E40008F8598890E94430D2C0129813D2DA30176
:102E500070E060E08F8598890E94430D8983D92EA8
:102E6000188A1F86A5CEC05FCDBFDF91CF911F917D
:102E70000F91FF90EF90DF90CF90BF90AF909F9019
:102E80008F907F906F905F904F903F902F9008951C
:102E900080919100883129F42091C000211101C056
:102EA00018B80895CF93DF93FC0185918093900526
:102EB000459140938F05CFECD4E0959125913591C4
:102EC00060FD919561FD319562FF04C0092E932F3D
:102ED000302D319598832A833C8326968A9569F70D
:102EE00024E0429FA0011124BF0187E794E0DF9115
:102EF000CF910C941C202F923F924F925F926F9231
:102F00007F928F929F92AF92BF92CF92DF92EF9279
:102F1000FF920F931F93CF93DF93CDB7DEB7C652C7
:102F2000CDBFDC01FC012381F6E02F9F800111243D
:102F3000F801E651F74F44914D8FF801E751F74FF3
:102F40009491442309F490C10551174FF80125903D
:102F500034903C8E2B8E8C9110E281022001112442
:102F60005F8E4E8EFD01318140E13402300111242B
:102F700079A268A2528160E25602400111249BA20C
:102F80008AA21A8E792F71707CA3B92FB270BDA35B
:102F900094709EA348E050E06B8D7C8DCE010A9624
:102FA0000E941C203CA0332039F05D8451945D8642
:102FB000788880E88719888BADA0AA2031F0B8887E
:102FC000CF84C194CF86B194B88ADEA0DD2041F0D1
:102FD000A889ED84FF84FD86E194EF86A05CA88B30
:102FE000FD858E8D9F8D8F0F911DF7FD9A958C011C
:102FF00024E0000F111F2A95E1F7C0909109D090AD
:103000009209C01AD10A2E8588A199A1820F911D1B
:1030100027FD9A951C0134E0220C331C3A95E1F708
:103020000091930910919409021913099F854AA0F0
:103030005BA0490E511C97FD5A9444E0440C551C6A
:103040004A95E1F7E0909509F0909609E418F508A3
:1030500068894989611102C04423D1F1CE010196EA
:103060000E94CE086981C6010E94C60D3C016C8198
:10307000C8010E94C60D680E791E6F81C7010E94AB
:10308000C60D680E791E6A81C6010E94C60D4C01EC
:103090006D81C8010E94C60D880E991E6885C70102
:1030A0000E94C60D880E991E6B81C6010E94C60D36
:1030B0005C016E81C8010E94C60DA80EB91E69850B
:1030C000C7010E94C60D7501E80EF91E8401630157
:1030D000EA8530E1E39FA00111246B8570E1679FD1
:1030E00030011124BC85A0E1BA9F200111242227C0
:1030F0003327241B350B398F288FDA01AC0DBD1D0A
:10310000C216D3064CF0812C912C54014C155D0550
:103110003CF4D601A41BB50B9D01B7D74B015C0154
:103120002224332426183708D301A00FB11F02151B
:10313000130534F0601671064CF4D801A619B709CE
:103140009D01A3D7860E971EA81EB91EEE27FF2746
:10315000E419F509D201AE0DBF1DEE16FF0634F0DD
:103160004E145F044CF4D701A419B5099D018DD705
:10317000860E971EA81EB91E80917004811110C082
:1031800017FD0EC021E782162BE59206A104B104BB
:1031900008F05FC091E090937004398930939A09E8
:1031A000811480E49806A104B10408F052C04C15C3
:1031B0005D050CF0A601288D398D241735070CF418
:1031C0009A01601671060CF03801261437040CF4CD
:1031D00013014E145F040CF02701E415F5050CF4FF
:1031E000F201C21AD30A4C2DDB8ACA8A02191309CA
:1031F000602F1D8B0C8BC7018E1B9F0B9F8B8E8BA3
:103200005B897D899F890E942A0E2A8B3B8B4C8B80
:103210005D8B6E8B7F8B1889111103C059895523E3
:1032200081F02A893B894C895D896E897F89CE012D
:1032300001960E94DE072A8B3B8B4C8B5D8B6E8B3D
:103240007F8B4A895B896C897D898E899F890E94E1
:10325000CE0EFA8DFF5FFA8FAB8DBC8D1896BC8FAA
:10326000AB8F3D8C3F1296CECA5DCDBFDF91CF9123
:103270001F910F91FF90EF90DF90CF90BF90AF9094
:103280009F908F907F906F905F904F903F902F9086
:1032900008952F923F924F925F926F927F928F92FA
:1032A0009F92AF92BF92CF92DF92EF92FF920F93D5
:1032B0001F93CF93DF93EC0195958795959587950F
:1032C000982FDB01B595A795B595A795DA2E8A17A6
:1032D00008F0C9C0041715071CF0E216F30634F411
:1032E000DA01A8018D01D90197017D01241B350B5D
:1032F000E01AF10A81E037FD8250A1E0F7FCA2500C
:103300009A2E882E6C1B7D0BE42FE370802F837028
:1033100037FF07C031952195310941505109E19599
:10332000E370F7FE07C0F194E194F1080150110930
:1033300081958370C370C2500C2E000CDD0BE450DD
:10334000FF0BE69FD001E79FB00DF69FB00D112453
:10335000C29FF001C39FF00DD29FF00D1124AE1B50
:10336000BF0BB595A795B595A795E82FE450FF0B32
:103370005F01A69EF001A79EF00DB69EF00D1124F0
:10338000CE9D5001CF9DB00CDE9DB00C1124EF01FD
:10339000CA19DB09D595C795D595C7955595479514
:1033A0005595479515950795159507955D01DA0192
:1033B000B7FC08C0082C07FE0024A80DB01DA61AF3
:1033C000B70ADCF7D7FD08C0092C07FE0024090D59
:1033D000101DC61BD70BDCF7AD010A171B070CF439
:1033E00042C017FD37C0A034B1050CF033C0602EC9
:1033F0000034110514F08FE3682EB7FDA0E0EA2F2A
:10340000E770E053F8E03490E62DE770E853F8E019
:103410005490FA2FF87F4F2E862D887F682EE0E19A
:10342000FE9FD0011124AF56BA4FA90FB11D892FAD
:103430007C2C8370770C770C780EFF27E72DEF57E5
:10344000F74F7490FC91461021C053207F267520C1
:103450007F267C92D501A20FB31FCE0DDF1D9F5F8B
:103460009D1508F4A3CFDF91CF911F910F91FF908D
:10347000EF90DF90CF90BF90AF909F908F907F9014
:103480006F905F904F903F902F900895232C209441
:10349000F22137203F2A3C92A058BF4FE62DE41975
:1034A000E0512CF07C92A058BF4FE850DCF7FC9123
:1034B000CDCFE4EBF9E01382128288EE93E0A0E036
:1034C000B0E084839583A683B78327E131E031831D
:1034D00020834FEF5FEF558744870895CDB7DEB760
:1034E000C852CDBF789483E084BD83E085BD81E080
:1034F00080936E00E1E8F0E083E08083E0E881E023
:103500008083E1E983E08083E0E981E08083E1EC8E
:1035100087E08083E3EC81E08083E0EC82E08083DD
:10352000E2EC81E08083EAE787E080838068808343
:103530001092110A1092B1091092B3090091D700AC
:1035400001600093D70010EA1093D80029B52061DC
:1035500029BD39B5326039BD09B400FEFDCF81E027
:1035600090E00E9430074091D8004F7C406140932A
:10357000D8005091E000507F5093E0006091E1004E
:103580006E7E6093E1007DE07093E200559A209A90
:1035900091EC90937C00A1EFA5B9B7EEB4B9E2E34A
:1035A000EBB9F2EFFAB9769A6E9880EF81BB10BA58
:1035B00000E50CBD11E01DBD0E9442075F9A0E940C
:1035C00042075C98E8EDF8E025902EBC00000DB4B1
:1035D00007FEFDCFE53EC1F75C9A21E82093640029
:1035E00031E03093650082E090E02FD5882309F424
:1035F00048C03E9A3F9A43E4409390001092C10025
:103600001092C30058E1509391001092C00018B876
:1036100060E078E170939209609391097093960944
:1036200060939509A0E8B0E0B0939409A093930942
:1036300080E090EC909398098093970960E080E097
:103640000E94050910929909E5EEF8E065917491E0
:103650003B01ABE7B1E000E0F30195916F019038D9
:1036600099F09C93FD011182F60135902F01FD0127
:103670003282F20155903F01FD01538215960F5F92
:10368000EBCF3E983F98B7CFF6011591103891F0E7
:103690001C9375904F01FD017182F40195905F01BB
:1036A000FD019282F501B5906F01FD01B38215967F
:1036B0000F5FEACF073918F081E090E0F8D400936B
:1036C0007A01F0906201D0906301E0906401B0E073
:1036D0004591403829F0D590E590BF5FF42EF8CFA2
:1036E000F0926201D0926301E0926401B93020F758
:1036F000B0936101412C80E2582E612C90EE792E1E
:10370000212CF12CEE24E3947091600073FF07C02C
:10371000F89417E71093000810930108FFCFF09179
:1037200026012091A8092F1B273208F4E6C0F95D75
:10373000F0932601509128015111EBC060912701AF
:10374000662341F0615060932701611103C010921C
:10375000C0009EDB00919E0910919F092091A00955
:103760003091A1090F5F1F4F2F4F3F4F00939E09CC
:1037700010939F092093A0093093A109A0919D095E
:10378000AF5FA0939D09A0FDCEC040919B095091D1
:103790009C094A30510508F4C6C003E0440F551F88
:1037A0000A95E1F7E9E0F3E4E41BF50BF0939900E7
:1037B000E09398001AE110939100C0905301D090CB
:1037C00054018090550190905601C4010E94FA0D59
:1037D0005C01C401905C0E94FA0D8C01C6010E943C
:1037E000FA0D4C01C601905C0E94FA0D6C01909399
:1037F0003C0180933B0110923E0110923D0190925A
:10380000400180923F01B401C5010E94B30D909325
:103810004201809341011093440100934301B6019A
:10382000C5010E94B30D9195819591099093460130
:1038300080934501B401C8010E94B30D9195819513
:1038400091099093480180934701B0924A01A09258
:103850004901B601C8010E94B30D90934C018093B9
:103860004B0172E1EBE3F1E0A9E2B1E001900D92CE
:103870007A95E1F7A9E2B1E02D913C91119714E01E
:10388000359527951A95E1F72D933D9321E0AB33BC
:10389000B20791F730907A0180914D0190914E01DD
:1038A0009395A92EA59480914F0190915001805835
:1038B000974FB92F80915101909152019395992E74
:1038C0009594E1E6F1E0B12C35963B1409F430C053
:1038D000D5888A2D8D19382F37FD319556894B2F74
:1038E000451B47FD41959789692D691B67FD6195CA
:1038F000340F360F318FB394E7CF31E033BF889563
:1039000013BEA0E0B0E0AB2B09F4FECE0E94000095
:10391000FBCE515050932801511110CF88E1809374
:103920009100B6DA0BCF98E190939100B1DA45CFD0
:1039300021E631E091E015E09B15E8F505E0F9019D
:103940007F96DE015F9601900D920A95E1F7F901ED
:1039500083A0892F482F50E0DA0111971A9F600148
:103960001B9FD00C1124F601EF59FE4FF68DF81570
:1039700088F4149FD001159FB00D1124A558BE4F97
:10398000F601E558FE4F75E001900D927A95E1F74A
:10399000815001F78BA2189FD0011124A558BE4F6A
:1039A000FE017F96312E01900D923A94E1F79F5FD0
:1039B0002B5F3F4FC1CFB1E6CB2EB1E0DB2E812C88
:1039C0000BE311E0B81409F466C0F601B28D648D02
:1039D000F8012A2D2B1B5585A503312D5181A503F7
:1039E000412D292D261B5189A503310D5581A50394
:1039F000410D112447FF02C041954A9552E0530FF3
:103A0000533388F5232F27FD21952B5F241758F179
:103A1000BB0F1F8EB8A3F601938D19A29AA3660F50
:103A20001BA26CA33324339438310CF4312CF601EF
:103A3000758D383134F1E72FF0E0EE0FFF1FE154C0
:103A4000F64FA591B491CD01AB2B91F410928F0557
:103A500010929005B0919005BB2329F0632DCE0103
:103A60004F960E946F10839455E0C50ED11CAACFCB
:103A7000F6E07F9FF0011124E751F74F649112DACD
:103A8000E9CF86E0789FF0011124E951F74F859145
:103A900095916591F4CF88E00E94C70C982E84E040
:103AA0000E94C70C882311F0689491F880E20E946C
:103AB000C70C882311F0689492F880E40E94C70C28
:103AC000882311F0689493F88091710490917204A6
:103AD000A0907304B0907404C0907504D0907604E4
:103AE000BC010E94CF0D8C01B501C5010E94CF0D14
:103AF000080F191FB601C6010E94CF0D080F191F2C
:103B000010939C0900939B0991FEE7C01EEF1DA333
:103B1000F4E08F2E492D4C704EA3392D347038A708
:103B2000592D5370952E20917304309174042054B4
:103B30003109A0917104B0917204C2018A179B07E8
:103B40000CF0CD01A301481759070CF4AC015093B8
:103B5000720440937104F201E217F3070CF0F901CB
:103B600093012E173F070CF49F01309374042093A8
:103B70007304A0907504B09076046201CA14DB044B
:103B80000CF06501C3018C159D050CF4C6019093E2
:103B900076048093750440585F4F0091910910910D
:103BA0009209050F111D57FD1A9510939209009364
:103BB000910920583F4F6091930970919409630FC8
:103BC000711D37FD7A95709394096093930980581D
:103BD0009F4FC0909509D0909609C90ED11C97FDB2
:103BE000DA94D0929609C09295096038710574F400
:103BF0001A8219826F2DFB82EC821E821D8240E0A8
:103C00005A817E2D80E09E810E94CE0E0115F0E942
:103C10001F070CF065C04F2DFF82E8861A861986B3
:103C20001C861B865E2D60E07A8580E09C850E9464
:103C3000CE0EC11450E9D5060CF065C01C8A1B8A53
:103C40001E8A1D8AFF8AE88E40E05C8960E07E89DA
:103C500080E09E2D0E94CE0E10926F041092700490
:103C600010929A09B0907A01BFA2E1E6AE2EE1E08F
:103C7000BE2E312CFFA1F31509F459C0F501828D38
:103C800090E0982F8827990FAC01405454400417B6
:103C90001507F4F0815C9B4F80179107CCF0848D61
:103CA00090E0982F8827990F9C0120543440C21629
:103CB000D30674F0815C9B4F8C159D054CF0B58D3F
:103CC000BA3018F431E030936F04C5014A9613D925
:103CD000339425E0A20EB11CCDCF64E06DA318CFC4
:103CE000013020E712070CF4A4CF422D2D869FEF60
:103CF0009E87188A1F861A8A198A5FEF60E0788982
:103D000080E09A8994CF61E0C61660E7D6060CF48D
:103D1000A3CF1A8E198E1C8E1B8E2D8E7FEF7E8F59
:103D200040E05A8D60E07C8D80E09FEF93CFD09093
:103D3000700410916F041D2910936F0401E0A0918D
:103D40009309B0919409A939B1050CF000E00D294F
:103D5000009370045EA1552309F437C05C3009F468
:103D600034C0C0909B09D0909C0960E9C61661E000
:103D7000D60698F4EFEFFFEFDF9EC001CE9E312D07
:103D8000DE9E300D811D1124911DFC9D300D811D85
:103D90001124911D8837910510F088E790E068A5FF
:103DA000662319F091958195910972E0971203C0ED
:103DB000919581959109A0909709B09098098A0DE5
:103DC0009B1D90939809809397090023C1F1992036
:103DD000B1F193E0991699F1B09098098B2D0E945A
:103DE0008408082F80E48B0D0E948408E82F082E99
:103DF000000CFF0B202F002E000C330B111106C0FE
:103E0000CF0195958795890115950795409169048E
:103E100050916A04FDA18F02401951091124509359
:103E20006A0440936904A0916D04B0916E04F0029D
:103E3000A019B1091124B0936E04A0936D042091D0
:103E4000690430916A04032E000C440B60EF70E0AB
:103E500080E012D1A82FCB0180589F4FAF4F892F00
:103E60009A2FAA2790936A048093690420916B0487
:103E700030916C04032E000C440B60EF70E080E086
:103E8000FBD0A82FCB0180589F4FAF4F892F9A2F7F
:103E9000AA2790936C0480936B0420916D04309159
:103EA0006E04032E000C440B60EF70E080E0E4D061
:103EB000A82FCB0180589F4FAF4F892F9A2FAA2749
:103EC00090936E0480936D048A9481102CCE60E4EC
:103ED00080E40E94050920919A0980909909122F87
:103EE000181938E1930390011124830E80929909E7
:103EF00090909809E7E0FAE0359030929005B591FE
:103F00008F01B0938F05892D0E948408C82E80E40C
:103F1000890D0E948408D82E882D0E948408B82E0E
:103F200080E4880D0E94840890E026E0322E5091B3
:103F30009005951708F04DC0692F70E0F801859045
:103F4000359145918F01282FB203F00111243B2DAB
:103F5000C303D0011124AF2EAB1AC203A001112458
:103F60004A2DC303F00111249F2E950E582D2D2D9F
:103F7000D203A0011124392D2C2DB203D00111241C
:103F8000369EF001379EF00D1124E153FB4F652F53
:103F9000550F770B6B1B7109B7FD739571836083A8
:103FA000AA2DAA0CBB0BB383A283782DF203A00128
:103FB0001124492D3D2DC303B0011124872E770F05
:103FC0009908850E911C57FD9A94958284829F5F73
:103FD000AECF80918F05F4E08F9FA0011124B8012E
:103FE00087E794E029D0C0909109D0909209D8A297
:103FF000CF8E0091930910919409005818401AA38C
:1040000009A3A0909509B0909609BCA2ABA260E06C
:10401000CE014F960E946F10E1E9F5E071E080E07B
:1040200098E000800EBC7111012C019780FDFDCF3E
:104030000192B9F70DB465CCFB01DC0102C005901B
:104040000D9241505040D8F70895F999FECF92BD96
:1040500081BDF89A992780B50895A29FB001B39FBA
:10406000C001A39F700D811D1124911DB29F700D81
:10407000811D1124911D0895DB01582FEEDF529F01
:10408000800DA49F800D11240895E7DF332312F4DF
:104090008A1B9B0B01C0E1DFB7FF0895821B930BC6
:1040A0000895EE0FFF1F0590F491E02D0994F89408
:0240B000FFCF40
:1040B200FFFFFFFF00E100000000000000C180815F
:1040C20000000000000000F505450716060B065922
:0640D20006190636060087
:00000001FF
