:1074000080E189BD82E189BD09B400FEFDCF089508
:10741000AA2069F08091E9008F931092E9008FD43F
:1074200083FF01C00ED58F9187708093E900089586
:107430008EEF0090E10008220092E1000895F20131
:10744000F999FECFF2BDE1BD0895F9DFF89A80B554
:1074500008C0F5DF1FBA80BD0FB6F894FA9AF99A02
:107460000FBE31962F010895E0E0F0E085919491F0
:107470000196089584EE8BB98BEA34D0109289007E
:107480008AEF8093880082E080936F0083E080938E
:107490008100E7E5F7E785913AD0E336E1F781E04F
:1074A0008093D7008AE482BF1092D8001092E20045
:1074B0001092DA001092E10080E808D019BCAA24EA
:1074C0001092E00052D489E043D481E98093D8003F
:1074D0000895A3E6B1E090E81AD08D939A95E1F76C
:1074E000089586E008D010C083E005D08F2F0FD01C
:1074F0008E2F0DD080E05F9A5A9809C005D085E0A4
:10750000FADF05D080FDFDCF5A9A5F9808958EBDB1
:107510008DB587FFFDCF8EB508958FE08221E9F705
:10752000F3DFE3E6F6E090EB5C98892FF0DF80E193
:10753000EEDF5C9A8191EBDF83E68E278F77D1F7C0
:107540009395983B89F70895E3E6F1E094FC36C003
:1075500096FC4DC090FE089596849920D1F3F8943E
:10756000C089D78520E030E080E090E4AFEFBFEF46
:10757000119689199040E0F72D01BD4F8D0127FD2F
:1075800013C0E0E0F8E011928EE7819392E4E117F6
:1075900091939AE508F092E4E334C9F7819310825D
:1075A000BFDFFE012196A0DF94DFF901ECD4205863
:1075B0003F4F040D151D9A9411F711C28301282D18
:1075C00060906C0170906B0143D019F48823C1F76F
:1075D0000895380188243CD0C9F580916A0182174A
:1075E00009F4830160906E0170906D01F4CF80E426
:1075F000982E60906E0170906D012AD059F4882306
:10760000B1F708959FEF95FC03C092FE089591E0B5
:1076100097FB890E662477248301222719D0B1F4C1
:107620008823A1F380916A0136F0881650F48217FE
:1076300030F0213003C0881520F4281710F483019E
:10764000282F60906E0170906D01E8CF3801822E76
:10765000F3014ADF3EDFC3E6D1E0E0E5F7E709905A
:107660008591081621F4E735D1F7088080104CCFBA
:10767000C9E031DFCA95E9F7D0E194FC55C096FC2A
:1076800037C092FE1AC0C3E6D2E0E3E6F6E098E027
:1076900088E78E0F00840192E817E1F7884F099080
:1076A0000192E817E1F7C858DF4F9A9589F735DF5F
:1076B000C85FD340C33E49F749C0C3E6D6E0EBE517
:1076C000FAE098E08E2F885702900086E817E1F7DD
:1076D00038960A900292E817E1F73897C857D040D9
:1076E0009A9581F71ADFC850DC4FC33E41F72EC090
:1076F000A3EEB6E0E3E6F6E09AE0C6E00D90808106
:107700008025807F802582958193A336B90709F46F
:10771000B2E0E336F90709F4F2E0E336FC0771F76B
:10772000FCDEDA9529F712C0A3EEB9E0E3E6FAE051
:1077300092E00E90829180258F70802582958083C3
:10774000E336F907B1F7E9DEDA9571F7882708958E
:1077500041524455424F59D5F08D14A1C881CFD91B
:10776000F1AF000000FFFFCFCFFFFFFFFFCFCFFF44
:10777000FF0000FE067E7E06FE46565616FE0656A4
:10778000461EFE3F61E9E3FFE3EBE3FFE3EBE3FFCC
:04779000E16B3F006A
:10779400120110010200000841233600010000001C
:1077A400000109023E0002010080320904000001C8
:1077B4000202010005240010010424020405240629
:1077C4000001070582030800FF09040100020A0002
:1077D40000000705040210000107058302100001E0
:1078000011241FBE04B714BE88E18093600010925B
:1078100060008EEF9AE09EBF8DBF222433242101A9
:107820003101410180E88AC00F928F939F931F928C
:107830000FB60F9211244F936F938091DA0080FF5F
:1078400037C023C00F920FB68F939F93EF93FF9390
:1078500088278093850080938400E0E5F1E09281A1
:10786000907261F490818917980B908309F45D9A66
:1078700091818917980B918309F4289A239411F424
:107880008315381EFF91EF9154C08091D80080FF7E
:107890000FC08091DA008E7F8093DA008091D9004A
:1078A00080FF04C0ADDD81E0A82E02C019BCAA246F
:1078B0008091E10080FF0BC045D280FF08C045D217
:1078C0008091D800806202DE19BC85E0A82E8091EC
:1078D000E10084FF1AC036D284FF17C091DD809189
:1078E000D8008F7DF3DD8FEEA4DD2CD28F7E8160FA
:1078F0002FD280915301882331F48091E30087FDDA
:1079000002C081E001C084E0A82E8091E10083FFE5
:107910000CC018D283FF09C087EF8BDD82E0A82E50
:107920001092530185DD11D220D26F914F910F90AB
:107930001F909F918F910FBE0F90189580936100BB
:1079400010926100B1E0B5BF82E085BF87E084B9E5
:1079500081E785B917B8469A10BA80EC81BB84EAF2
:107960008BB984EF8AB980E58CBDBDBDA0E0E4E9A8
:10797000F7E705900D92A035E1F71D92BB30E9F7CE
:1079800000FD1E9B02C070DD51F574DD789460DE51
:1079900071F0ABE9B7E0E3E6F7E790E105900D920F
:1079A0009A95E1F7A059BF4FE339B9F7BADD54D042
:1079B0002FDD80915201807871F483B180958077BA
:1079C000369B84607F997E9B8160982E1BDE8110A0
:1079D000BBDD90FC02C0332052F746DD41F3F89442
:1079E00089EB80DD81E08093E00010926F001092BF
:1079F0008100109285001092840081E085BF15BE41
:107A0000289A289A289A5D9A289A0C94000095D171
:107A100007C048D102C0AA2039F091D182FFFBCF24
:107A200085FFF7CF8091F1000895082E83E086D17D
:107A300085FD07C07BD102C0AA2069F080D180FFFC
:107A4000FBCF0092F10080915201807221F45D9889
:107A500084E680935001089570D182FF25C1809102
:107A60005201807221F4289884E680935101CFDF7F
:107A7000182F853431F422248EE7382EE0DC8DE097
:107A8000FCC0843511F4C3DFFACF8C34C1F38035E8
:107A9000B1F3843711F480E0F0C0813429F4B7DF0A
:107AA000582EB5DF482EEBCF833539F4E0E5F7E704
:107AB0008591BBDFE735E1F7E1C0863521F482E34C
:107AC000B4DF81E3DAC0863781F481E37F9B8E5F88
:107AD0007E9B8F5FAADF81E41C9B885F369B8C5F57
:107AE0001D9B8E5F1E9B8F5FC8C08837A9F48FDFF8
:107AF00080935201289A84FD28985D9A83FD5D98B1
:107B0000289A81FD2898289A82FD2898289A80FD35
:107B1000289887FD8824B3CF8A3649F48FE9EBDCB7
:107B2000C3E0F5DC82DFCA95E1F7EEDCA7C083375E
:107B300031F487E87ADF85E978DF8EE19EC082360E
:107B400031F489E572DF80E070DF80E896C082342E
:107B500019F0873609F07DC0332459DFD82F57DF5D
:107B6000C82F55DF082F8354843008F085C00634B1
:107B700011F4440C551CF20110926F001736B9F441
:107B8000033489F483E0B1DCC2DC8EB51EBC4DDF6A
:107B90000DB42197D1F7B8DC08C0063411F48591F3
:107BA00001C053DC42DF2197C2F72F014AC00334E2
:107BB000A9F4E11104C095DC88ED97DC9FDC91DC31
:107BC00082E093DC24DF0DB48EBDCA95D9F73196DF
:107BD0009FDC94DCDA9569F72F0131C00634F1F4AB
:107BE0009F01F437D8F4E2D119C011DF063461F4F3
:107BF000C0FB46F0F43728F4182E81E087BFE895E3
:107C000011243296082E0AC0043439F4DF01B3700F
:107C1000AD59B94F8D93319601C01BDC21972AF7DE
:107C2000043431F42F01F370FE2B49F47ADC07C0E1
:107C3000063429F42F01F901F43708F4B5D18DE0A9
:107C4000F4DE063411F45694479482E080936F007A
:107C500015C08237E1E049F08634E0E031F08E343F
:107C6000E3E019F0813531F4E2E0F0E089E087BF2C
:107C7000849103C08B3111F08FE3D7DE83E0D5DB35
:107C800055D095FF03C009C0AA2071F058D080FFDD
:107C9000FBCF4CD002C0AA2039F051D080FFFBCFDF
:107CA00084E0C3DB8BE743C00895E4E5F1E067E0DF
:107CB00090915B0180915C01913231F0913AE1F554
:107CC0008132D1F55ED181C0823271F48191805BC5
:107CD0008191844089F580915D0180FD2DC0F894EB
:107CE00081E08093E0008CCD803231F54AD1AA202A
:107CF000E9F08530D9F023D083FD18C082FFF7CF9B
:107D000004C090DE8193615031F09091F300809136
:107D1000F200892BB1F7C6DF611549F704C0AA202C
:107D200029F0853019F00BD080FFF9CF8EE79091C4
:107D3000E80089238093E800089584E076DB809151
:107D4000E80008958091E2000895FCDF8E7F806155
:107D50008093E200089582E061EC09D083E061E85D
:107D600002D084E060E842E103C080E060E042E0ED
:107D70005CDB81E007D01092ED006093EC00409353
:107D8000ED0008959091EB00892B8093EB0008950E
:107D900060E0923029F0913029F4E0E062E102C025
:107DA000E2E16EE3F1E0089580915B0188234CF4F9
:107DB00002C0AA20C1F3C3DF82FFFBCF73CFAA208A
:107DC00091F3BDDF80FFFBCFB1CF409161015091B6
:107DD00062014617510520F0462F611509F4A6DF10
:107DE00050E022C0AA2061F1853051F1A8DF83FD67
:107DF00059CFA5DF82FD21C080FF16C03091F3006E
:107E00002091F20006C081918093F10041502F5FD4
:107E10003F4F411519F028303105A8F350E02830C4
:107E2000310509F451E082DF4115E1F65523D1F621
:107E300004C0AA2029F0853019F081DF82FFF9CF34
:107E400031CFEBE5F1E0EEDD8193E336E1F72DDFB5
:107E500076DF83FF91C080915B0190915C0191304E
:107E600009F170F09330F1F0953009F444C0963088
:107E700009F456C0983009F460C0993059F767C0CA
:107E8000823841F780915F01CFDA2091EB001092A8
:107E9000E90077D02295269521702093F100109269
:107EA000F10052C0882311F08230A1F68F71823028
:107EB00089F680915D018823D1F420915F012770BC
:107EC00049F22093E9008091EB0080FF10C09330CD
:107ED00011F480E20BC080E155DF81E0880F2A9524
:107EE000E9F78093EA001092EA0088E04BDF1092F5
:107EF000E90047D02AC0882391F410915D011068F1
:107F00000FB7F8943ED050DF1ADF80FFFDCF1093FB
:107F1000E300103883E009F482E0A82E0FBF2CC0E4
:107F20008058823048F580915D0190915E0130DF8C
:107F3000603011F126D049DF1FC08038E9F421D02C
:107F4000809153018093F100F1DE2EDF15C088236C
:107F500099F490915D01923078F49093530111D08F
:107F600023DF80915301882321F48091E30091E085
:107F700087FD94E0A92EEFDEE2DE83FF089580E224
:107F800001DF87EFD4CEA3E6B1E0F437B8F40ED02A
:107F900090E40D901D9081E087BFE89532969A9508
:107FA000C1F71124E058F04085E001C083E001D022
:0E7FB00081E187BFE89507B600FCFDCF08957C
:067FFA003231C6CFFBDCB2
:040000030000740085
:00000001FF
