:100000000C9400010C941D010C941D010C941D0115
:100010000C941D010C941D010C941D010C941D01E8
:100020000C941D010C941D010C941D010C941D01D8
:100030000C941D010C941D010C941D010C941D01C8
:100040000C941D010C941D010C941D010C941D01B8
:100050000C941D010C941D010C941D010C94C30300
:100060000C941D010C941D010C941D010C941D0198
:100070000C941D010C941D010C941D010C941D0188
:100080000C941D010C941D010C941D010C941D0178
:100090000C941D010C941D010C941D010C941D0168
:1000A0000C941D010C941D010C941D010000000016
:1000B0000000000000000000000000000000000040
:1000C0000000000000000000000000000000000030
:1000D0000000000000000000000000000000000020
:1000E0000000000000000000000000000000000010
:1000F0000000000000000000000000000000000000
:10010000A7037E03C502BA02870282028002D5F0ED
:100110008D14A1C881CFD9F1AF20000000000000EC
:1001200000000000000000000000000000000000CF
:1001300000000000000000000000000000000000BF
:1001400000000000000000000000000000000000AF
:10015000000000000000000000000000000000009F
:10016000000000000000000000000000000000008F
:10017000000000000000000000000000000000007F
:10018000000000000000000000000000000000006F
:10019000000000000000000000000000000000005F
:1001A000000000000000000000000000000000004F
:1001B000000000000000000000000000000000003F
:1001C000000000000000000000000000000000002F
:1001D000000000000000000000000000000000001F
:1001E000000000000000000000000000000000000F
:1001F00000000000000000000000000000000000FF
:1002000011241FBECFEFDAE0DEBFCDBF16E0A5E6BA
:10021000B6E0E2EDF9E102C005900D92A636B10715
:10022000D9F72AE0A6E6B6E001C01D92AE37B207C4
:10023000E1F70E94000C0C94E70C0C940000000005
:1002400000000000000000000000000000000000AE
:10025000000000000000000000000000000000009E
:10026000000000000000000000000000000000008E
:10027000000000000000000000000000000000007E
:10028000000000000000000000000000000000006E
:10029000000000000000000000000000000000005E
:1002A000000000000000000000000000000000004E
:1002B000000000000000000000000000000000003E
:1002C000000000000000000000000000000000002E
:1002D000000000000000000000000000000000001E
:1002E000000000000000000000000000000000000E
:1002F00000000000000000000000000000000000FE
:1003000000000000000000000000000000000000ED
:1003100000000000000000000000000000000000DD
:1003200000000000000000000000000000000000CD
:1003300000000000000000000000000000000000BD
:1003400000000000000000000000000000000000AD
:10035000000000000000000000000000000000009D
:10036000000000000000000000000000000000008D
:10037000000000000000000000000000000000007D
:10038000000000000000000000000000000000006D
:10039000000000000000000000000000000000005D
:1003A000000000000000000000000000000000004D
:1003B000000000000000000000000000000000003D
:1003C000000000000000000000000000000000002D
:1003D000000000000000000000000000000000001D
:1003E000000000000000000000000000000000000D
:1003F00000000000000000000000000000000000FD
:10040000E5E0F0E00E941502319728F068517C4F3A
:100410008F4F9F4FF9CFAB01FC010E94150264176B
:1004200075078E079F07C8F30895A8E7BAE02FB7AE
:10043000F8947D918D919C9166B52FBFA89B05C0C6
:100440006F3F18F47F5F8F4F9F4F22E0660F771F3B
:10045000881F991F2A95D1F708950DB407FEFDCF87
:100460008EB5599A08950E943802982F0C942D0247
:100470000DB407FEFDCF8EB51EBC08950E94380254
:10048000982F0C94380259980E945B02862F0E9484
:100490005B02852F0E945B02842F0C945B02462F27
:1004A00050917C0A570F60917D0A681F83E00E947B
:1004B00043021EBC08958EBD00008EB50DB407FE2C
:1004C000FCCF0895CF93DF93C0E6D6E0E881AFEF8D
:1004D000AE0FB0E0A050BF4F9C91E250E883F0E037
:1004E000E050FF4F8081DF91CF910895A0E6B6E004
:1004F000EC91E150EC93F0E0E050FF4F80810895E3
:100500009895089581E083BF889513BE08958091E2
:10051000700A882371F01092700A80E0E091600602
:1005200091E09E0F90936006F0E0E050FF4F8083D3
:1005300008952091740A9091710A322F391B932FDC
:1005400030916506931740F49F5F931738F791E059
:1005500093BF889513BEE2CF81E08093700A209309
:10056000710AEEE6FAE080819181019680839183A1
:1005700081E0D4CF0E947602682F70E088EE93E08D
:100580000E94BF0C609365060895EF92FF921F933F
:10059000CF93DF930E947602C82F0E947602D82F55
:1005A0000E947602182F0E9462027C010E94620261
:1005B000803891050CF09CC0412F50E09C01240F25
:1005C000351F121613060CF093C02D2F30E0B70123
:1005D000620F731F161617060CF08AC0112309F458
:1005E00087C0DD2309F484C06E2D60340CF080C018
:1005F000782F480F511D87FD5A95141615060CF0DB
:1006000077C02E0D311DE7FC3A95121613060CF03B
:100610006FC0C0FDCFEF482F2E2D67FF02C0DE0D4B
:1006200020E077FF02C0180F40E090E8941B1917F4
:1006300008F4912F80E4821BD81708F48D2F820FC5
:1006400031E021FD34E020FD330F22FD329531955C
:1006500071E081FD74E080FD770F82FD72957195E8
:10066000632F6095572F5095815026952695269596
:10067000869586958695EEE6F6E0A0E82A9FE00D41
:10068000F11D1124E40FF11D821B611101C08F5F68
:10069000511101C08F5F40E8491B232F2C23352FB8
:1006A0003C23882319F4762B32231CC0662349F09F
:1006B000A92F00800622022A0192AA95D1F7E40F01
:1006C000F11D8A9569F0A92FA0FF02C0A39501C072
:1006D000C193C193A250E1F7E40FF11D8A9599F7F8
:1006E000552331F000800722032A01929A95D1F711
:1006F000DF91CF911F91FF90EF9008951F93CF93BB
:10070000DF930E947602182F0E946202EC010E9481
:10071000620280389105B8F4C034D105A0F490E1AC
:1007200041E0C1FD44E0C0FD440FC2FD4295C87FD9
:100730009C9FD0011124A80FA259B94F0C90042AF4
:1007400010FF04260C92DF91CF911F9108950E9413
:100750002D025E98EEE6F6E081E0A0E0B8E00080D1
:100760000EBC8111012C1197A0FDFDCF0192B9F7AC
:100770000DB45E9A60916106709162068091630685
:100780000E944F0208950F920FB68F939F93EF939D
:10079000FF938091730A8D5F8D3708F08D5780939A
:1007A000730AE4E7FAE080818E4F808391819F4F46
:1007B000918382818F4F828383818F4F8383E8E788
:1007C000FAE080818F5F808381818F4F8183828176
:1007D0008F4F828383818F4F83838FB18F60669920
:1007E0001C9B88278F3681F48091720A981B963063
:1007F00068F0E0E0F8E087E78083818388E1809318
:100800006000F0936000FFCF9093720AFF91EF9128
:100810009F918F910FBE0F9018950000000000006F
:1008200000000000000000000000000000000000C8
:1008300000000000000000000000000000000000B8
:1008400000000000000000000000000000000000A8
:100850000000000000000000000000000000000098
:100860000000000000000000000000000000000088
:100870000000000000000000000000000000000078
:100880000000000000000000000000000000000068
:100890000000000000000000000000000000000058
:1008A0000000000000000000000000000000000048
:1008B0000000000000000000000000000000000038
:1008C0000000000000000000000000000000000028
:1008D0000000000000000000000000000000000018
:1008E0000000000000000000000000000000000008
:1008F00000000000000000000000000000000000F8
:1009000000000000000000000000000000000000E7
:1009100000000000000000000000000000000000D7
:1009200000000000000000000000000000000000C7
:1009300000000000000000000000000000000000B7
:1009400000000000000000000000000000000000A7
:100950000000000000000000000000000000000097
:100960000000000000000000000000000000000087
:100970000000000000000000000000000000000077
:100980000000000000000000000000000000000067
:100990000000000000000000000000000000000057
:1009A0000000000000000000000000000000000047
:1009B0000000000000000000000000000000000037
:1009C0000000000000000000000000000000000027
:1009D0000000000000000000000000000000000017
:1009E0000000000000000000000000000000000007
:1009F00000000000000000000000000000000000F7
:100A0000C895C89500000EB42EBC640C721C821CE4
:100A1000039CF001F50D09940000000000000000A7
:100A200000000000000000000000000000000000C6
:100A300000000000000000000000000000000000B6
:100A4000C895C89500000EB42EBC640C721C821CA4
:100A500009920E942C0B0EB42EBC640C721C821CDA
:100A6000039CF001F50D0994000000000000000057
:100A70000000000000000000000000000000000076
:100A80000A9021960FEF07FE00E009930EB42EBCEA
:100A9000640C721C821C039CF001F50D099400008B
:100AA0000000000000000000000000000000000046
:100AB0000000000000000000000000000000000036
:100AC000C895C89500000EB42EBC640C721C821C24
:100AD000DE01A0190C900992C895C89500000EB4CB
:100AE0002EBC640C721C821C039CF001F50D099451
:100AF00000000000000000000000000000000000F6
:100B0000C895C89500000EB42EBC640C721C821CE3
:100B10000A91DE01A0190D9009920A95E1F70E9451
:100B20002F0B0EB42EBC640C721C821C039CF001B3
:100B3000F50D099400000000000000000000000016
:100B4000C895C89500000EB42EBC640C721C821CA3
:100B50000A91DE01A0190C93C895C89500000EB447
:100B60002EBC640C721C821C039CF001F50D0994D0
:100B70000000000000000000000000000000000075
:100B8000C895C89500000EB42EBC640C721C821C63
:100B90000A91DE01A0190A900E920A95E1F70E94CF
:100BA0002F0B0EB42EBC640C721C821C039CF00133
:100BB000F50D099400000000000000000000000096
:100BC0000E94FF0AD801BE5F0C9109930E942C0B72
:100BD0000EB42EBC640C721C821C039CF001F50D3B
:100BE0000994000000000000000000000000000068
:100BF00000000000000000000000000000000000F5
:100C00000E94FF0AD801BE5F0A910D9009920A95D1
:100C1000E1F70E942F0B0EB42EBC640C721C821CD8
:100C2000039CF001F50D0994000000000000000095
:100C300000000000000000000000000000000000B4
:100C40000E94FF0AD801BE5F0A910C930E942C0BF0
:100C50000EB42EBC640C721C821C039CF001F50DBA
:100C600009940000000000000000000000000000E7
:100C70000000000000000000000000000000000074
:100C80000E94FF0AD801BE5F0A91A00FB21D0A9010
:100C90000E920A95E1F70E942F0B0EB42EBC640C45
:100CA000721C821C039CF001F50D099400000000E9
:100CB0000000000000000000000000000000000034
:100CC000CA95C895C8950EB42EBC640C721C821CC3
:100CD000039CF001F50D09940000000000000000E5
:100CE0000000000000000000000000000000000004
:100CF00000000000000000000000000000000000F4
:100D0000AA90EA90EA0CE9920EB42EBC640C721C14
:100D1000821C039CF001F50D099400000000000006
:100D200000000000000000000000000000000000C3
:100D300000000000000000000000000000000000B3
:100D4000BA90AA90FA90EA90EA0CFB1CE992F99208
:100D50000EB42EBC640C721C821C039CF001F50DB9
:100D600009940000000000000000000000000000E6
:100D70000000000000000000000000000000000073
:100D8000CA90BA90AA900A91FA90EA90EA0CFB1CD9
:100D90000C1DE992F99209930EB42EBC640C721CDE
:100DA000821C039CF001F50D099400000000000076
:100DB0000000000000000000000000000000000033
:100DC000DA90CA90BA90AA901A910A91FA90EA9091
:100DD000EA0CFB1C0C1D1D1DE992F9920993199355
:100DE0000EB42EBC640C721C821C039CF001F50D29
:100DF0000994000000000000000000000000000056
:100E0000AA90EA90EA18E9920EB42EBC640C721C07
:100E1000821C039CF001F50D099400000000000005
:100E200000000000000000000000000000000000C2
:100E300000000000000000000000000000000000B2
:100E4000BA90AA90FA90EA90EA18FB08E992F9920F
:100E50000EB42EBC640C721C821C039CF001F50DB8
:100E600009940000000000000000000000000000E5
:100E70000000000000000000000000000000000072
:100E8000CA90BA90AA900A91FA90EA90EA18FB08E0
:100E90000C09E992F99209930EB42EBC640C721CF1
:100EA000821C039CF001F50D099400000000000075
:100EB0000000000000000000000000000000000032
:100EC000DA90CA90BA90AA901A910A91FA90EA9090
:100ED000EA18FB080C091D09E992F9920993199384
:100EE0000EB42EBC640C721C821C039CF001F50D28
:100EF0000994000000000000000000000000000055
:100F00000A9000E0021001E009930EB42EBC640CBC
:100F1000721C821C039CF001F50D09940000000076
:100F200000000000000000000000000000000000C1
:100F300000000000000000000000000000000000B1
:100F40000A901A90012800E0021001E009930EB403
:100F50002EBC640C721C821C039CF001F50D0994DC
:100F60000000000000000000000000000000000081
:100F70000000000000000000000000000000000071
:100F80000A901A9001281A90012800E0021001E04E
:100F900009930EB42EBC640C721C821C039CF001DD
:100FA000F50D0994000000000000000000000000A2
:100FB0000000000000000000000000000000000031
:100FC0000A901A9001281A9001281A90012800E02E
:100FD000021001E009930EB42EBC640C721C821C3A
:100FE000039CF001F50D09940000000000000000D2
:100FF00000000000000000000000000000000000F1
:10100000AA90EA9021E0EA1408F020E029930EB4B7
:101010002EBC640C721C821C039CF001F50D09941B
:1010200000000000000000000000000000000000C0
:1010300000000000000000000000000000000000B0
:10104000AA90BA90EA90FA9021E0EA14FB0408F022
:1010500020E029930EB42EBC640C721C821C039CED
:10106000F001F50D099400000000000000000000F0
:101070000000000000000000000000000000000070
:10108000AA90BA90CA90EA90FA900A9121E0EA14E4
:10109000FB040C0508F020E029930EB42EBC640C70
:1010A000721C821C039CF001F50D099400000000E5
:1010B0000000000000000000000000000000000030
:1010C000AA90BA90CA90DA90EA90FA900A911A918E
:1010D00021E0EA14FB040C051D0508F020E029932B
:1010E0000EB42EBC640C721C821C039CF001F50D26
:1010F0000994000000000000000000000000000053
:10110000AA90EA9021E0EA140CF020E029930EB4B2
:101110002EBC640C721C821C039CF001F50D09941A
:1011200000000000000000000000000000000000BF
:1011300000000000000000000000000000000000AF
:10114000AA90BA90EA90FA9021E0EA14FB040CF01D
:1011500020E029930EB42EBC640C721C821C039CEC
:10116000F001F50D099400000000000000000000EF
:10117000000000000000000000000000000000006F
:10118000AA90BA90CA90EA90FA900A9121E0EA14E3
:10119000FB040C050CF020E029930EB42EBC640C6B
:1011A000721C821C039CF001F50D099400000000E4
:1011B000000000000000000000000000000000002F
:1011C000AA90BA90CA90DA90EA90FA900A911A918D
:1011D00021E0EA14FB040C051D050CF020E0299326
:1011E0000EB42EBC640C721C821C039CF001F50D25
:1011F0000994000000000000000000000000000052
:10120000AA90EA9021E0AE1408F420E029930EB4ED
:101210002EBC640C721C821C039CF001F50D099419
:1012200000000000000000000000000000000000BE
:1012300000000000000000000000000000000000AE
:10124000AA90BA90EA90FA9021E0AE14BF0408F494
:1012500020E029930EB42EBC640C721C821C039CEB
:10126000F001F50D099400000000000000000000EE
:10127000000000000000000000000000000000006E
:10128000AA90BA90CA90EA90FA900A9121E0AE141E
:10129000BF04C00608F420E029930EB42EBC640CF1
:1012A000721C821C039CF001F50D099400000000E3
:1012B000000000000000000000000000000000002E
:1012C000AA90BA90CA90DA90EA90FA900A911A918C
:1012D00021E0AE14BF04C006D10608F420E0299333
:1012E0000EB42EBC640C721C821C039CF001F50D24
:1012F0000994000000000000000000000000000051
:10130000AA90EA9021E0AE140CF420E029930EB4E8
:101310002EBC640C721C821C039CF001F50D099418
:1013200000000000000000000000000000000000BD
:1013300000000000000000000000000000000000AD
:10134000AA90BA90EA90FA9021E0AE14BF040CF48F
:1013500020E029930EB42EBC640C721C821C039CEA
:10136000F001F50D099400000000000000000000ED
:10137000000000000000000000000000000000006D
:10138000AA90BA90CA90EA90FA900A9121E0AE141D
:10139000BF04C0060CF420E029930EB42EBC640CEC
:1013A000721C821C039CF001F50D099400000000E2
:1013B000000000000000000000000000000000002D
:1013C000AA90BA90CA90DA90EA90FA900A911A918B
:1013D00021E0AE14BF04C006D1060CF420E029932E
:1013E0000EB42EBC640C721C821C039CF001F50D23
:1013F0000994000000000000000000000000000050
:101400000A9001E0021000E009930EB42EBC640CB7
:10141000721C821C039CF001F50D09940000000071
:1014200000000000000000000000000000000000BC
:1014300000000000000000000000000000000000AC
:101440000E94F00A0A90021431F43801822E0E94A0
:10145000300B0C94490B2EBC0E942D0BFACF0000D0
:10146000000000000000000000000000000000007C
:10147000000000000000000000000000000000006C
:101480000E94F00A0A90021431F03801822E0E9464
:10149000300B0C94490B2EBC0E942D0BFACF000090
:1014A000000000000000000000000000000000003C
:1014B000000000000000000000000000000000002C
:1014C0000E94F00A3801822E0E94300B0EB42EBC0E
:1014D000640C721C821C039CF001F50D0994000041
:1014E00000000000000000000000000000000000FC
:1014F00000000000000000000000000000000000EC
:10150000A0916406B6E00E94F10A6D927D928D92E0
:10151000A09364063801822E0E94300B0EB42EBCBC
:10152000640C721C821C039CF001F50D09940000F0
:1015300000000000000000000000000000000000AB
:10154000A0916406B6E08E907E906E90A0936406A3
:101550000E94300B0EB42EBC640C721C821C039CC7
:10156000F001F50D099400000000000000000000EB
:10157000000000000000000000000000000000006B
:10158000C895C89500000EB42EBC640C721C821C59
:10159000E02DF1E00E942C0B0EB42EBC640C721CEA
:1015A000821CF00D0590F491E02D0E940B0B099523
:1015B0000E94150B0C94490B000000000000000075
:1015C000C8950EB52EBC13E0610E721C821C0E94E1
:1015D0002B0B1EB52EBC0E94270B2EB52EBC0895DA
:1015E000C8950EB52EBC13E0610E721C821C0E94C1
:1015F0002B0B1EB52EBC0E94270B2EB50895C89547
:101600000EB52EBC12E0610E721C821C0E942B0BC8
:101610001EB52EBC0895609261067092620680929B
:101620006306C093600611240895222400E2302E40
:1016300001E0402E05E0502E609061067090620639
:1016400080906306C0916006D1E00895000000001C
:1016500000000000000000000000000000000895ED
:10166000599A00917C0A10917D0A070D181D59980E
:1016700023E02EBD0E94260B1EBD0E94260B0EBD30
:101680000E94260B6EBC0E94260B2EBC0E942A0BC9
:1016900008950EB42EBC640C721C821C039CF001D5
:1016A000F50D09940000000000000000000000009B
:1016B000000000000000000000000000000000002A
:1016C000000000000000000000000000000000001A
:1016D000000000000000000000000000000000000A
:1016E00000000000000000000000000000000000FA
:1016F00000000000000000000000000000000000EA
:1017000000000000000000000000000000000000D9
:1017100000000000000000000000000000000000C9
:1017200000000000000000000000000000000000B9
:1017300000000000000000000000000000000000A9
:101740000000000000000000000000000000000099
:101750000000000000000000000000000000000089
:101760000000000000000000000000000000000079
:101770000000000000000000000000000000000069
:101780000000000000000000000000000000000059
:101790000000000000000000000000000000000049
:1017A0000000000000000000000000000000000039
:1017B0000000000000000000000000000000000029
:1017C0000000000000000000000000000000000019
:1017D0000000000000000000000000000000000009
:1017E00000000000000000000000000000000000F9
:1017F00000000000000000000000000000000000E9
:1018000091E09093E0001092E2001092E10080E2FB
:101810008093D8001092D7008091650080688093F3
:101820006500789483E084BD83E085BD90936E006D
:10183000E1E8F0E083E08083E0E881E08083E1E9B3
:1018400083E08083E0E981E08083E1EC87E08083CE
:10185000E3EC81E08083E0EC82E08083E2EC81E0F5
:101860008083EAE787E080838068808381EC8093CF
:101870007C0081EF85B987EE84B982E38BB982EF72
:101880008AB9769A6E9880EF81BB10BA80E58CBDDC
:101890009DBD0E9400025F9A0E9400025C98EEE0EB
:1018A000F1E085918EBD00000DB407FEFDCFEB3158
:1018B000C1F75C9A81E88093640081E080936500C1
:1018C0005E9AE4E1F0E090E080E025913591559159
:1018D00045912851354909F4CA0180937C0A9093B7
:1018E0007D0A59988BEA0E945B02599A80917C0A82
:1018F00090917D0A892B99F46EEF7FEF8FEF0E9414
:101900004F02ECE7FAE022E030E02150304021F0D5
:101910000E9438028193F9CF0E942D028083C0E19A
:1019200000E011E085E6A82E85E0B82E94E0C92EEF
:10193000D12CE12CC0936506F801C50111920197E5
:10194000E9F760E070E080E00E944F020E943E02F2
:10195000DC010E943302CC018C3B9A40A04CBB4A74
:1019600009F0FFCFC0926106D0926206E092630652
:101970000E94150B0E94300B0E94490BDBCF97FB96
:10198000072E16F4009407D077FD09D00E94D30CDF
:1019900007FC05D03EF4909581959F4F0895709572
:1019A00061957F4F0895AA1BBB1B51E107C0AA1F79
:1019B000BB1FA617B70710F0A61BB70B881F991FF0
:1019C0005A95A9F780959095BC01CD010895F8949A
:0219D000FFCF47
:1019D2000000000000000000000000000000000005
:1019E20000000000000000000000000000000000F5
:1019F20000000000000000000000000000000000E5
:101A020000000000000000000000000000000000D4
:061F320000000000001099
:00000001FF
