:100000000C9456000C9468000C9468000C946800E2
:100010000C9468000C9468000C9468000C946800C0
:100020000C9468000C9468000C9468000C946800B0
:100030000C9468000C9468000C9468000C946800A0
:100040000C9468000C9468000C9468000C94680090
:100050000C9468000C9468000C9468000C94680080
:100060000C9468000C9468000C9468000C94680070
:100070000C9468000C9468000C9468000C94680060
:100080000C9468000C9468000C9468000C94680050
:100090000C9468000C9468000C9468000C94680040
:1000A0000C9468000C9468000C94680011241FBE26
:1000B000CFEFDAE0DEBFCDBF21E0A0E0B1E001C0CC
:1000C0001D92A230B207E1F70E948C000C949900B7
:1000D0000C940000EF92FF920F931F93CF93DF9346
:1000E000EC018C01F12CE12C0230110548F0C80123
:1000F00001970E946A0002501109E80EF91EF4CF20
:10010000CE01817099278E0D9F1DDF91CF911F9198
:100110000F91FF90EF900895989584E190E00E94F0
:100120006A009093010180930001989590E080E02F
:060130000895F894FFCFD2
:00000001FF
