:100000000C9456000C9468000C9468000C946800E2
:100010000C9468000C9468000C9468000C946800C0
:100020000C9468000C9468000C9468000C946800B0
:100030000C9468000C9468000C9468000C946800A0
:100040000C9468000C9468000C9468000C94680090
:100050000C9468000C9468000C9468000C94680080
:100060000C9468000C9468000C9468000C94680070
:100070000C9468000C9468000C9468000C94680060
:100080000C9468000C9468000C9468000C94680050
:100090000C9468000C9468000C9468000C94680040
:1000A0000C9468000C9468000C94680011241FBE26
:1000B000CFEFDAE0DEBFCDBF21E0A0E0B1E001C0CC
:1000C0001D92A230B207E1F70E948C000C949800B8
:1000D0000C940000EF92FF920F931F93CF93DF9346
:1000E000082F182FF12CE12C123070F40170C02F62
:1000F00080E0D82FCE018E0D9F1DDF91CF911F91F3
:100100000F91FF90EF9008958FEF810F0E946A008A
:100110001250E80EF91EE8CF989584E10E946A001B
:100120009093010180930001989590E080E00895FC
:04013000F894FFCF71
:00000001FF
