:100000000C9438030C9460030C9460030C9460030C
:100010000C9460030C9460030C9460030C946003D4
:100020000C9460030C9460030C9412070C948107E9
:100030000C9460030C9460030C9460030C946003B4
:100040000C9460030C9460030C9460030C946003A4
:100050000C9460030C9460030C9460030C94B3093B
:100060000C9460030C9460030C9460030C94600384
:100070000C9460030C9460030C9460030C94600374
:100080000C9460030C9460030C9460030C94600364
:100090000C9460030C9460030C9460030C94600354
:1000A0000C9460030C9460030C9460030000000047
:1000B000003E5B4F5B3E3E6B4F6B3E1C3E7C3E1CEE
:1000C000183C7E3C181C577D571C1C5E7F5E1C0034
:1000D000183C1800FFE7C3E7FF0018241800FFE7EB
:1000E000DBE7FF30483A060E2629792926407F05AE
:1000F0000507407F05253F5A3CE73C5A7F3E1C1CC4
:1001000008081C1C3E7F14227F22145F5F005F5F83
:1001100006097F017F006689956A6060606060946F
:10012000A2FFA29408047E040810207E2010080874
:100130002A1C08081C2A08081E101010100C1E0C7F
:100140001E0C30383E3830060E3E0E060000000011
:100150000000005F00000007000700147F147F14F8
:10016000242A7F2A1223130864623649562050003D
:1001700008070300001C2241000041221C002A1C29
:100180007F1C2A08083E0808008070300008080814
:100190000808000060600020100804023E51494534
:1001A0003E00427F400072494949462141494D3352
:1001B0001814127F1027454545393C4A49493141B9
:1001C000211109073649494936464949291E000087
:1001D00014000000403400000008142241141414DC
:1001E0001414004122140802015909063E415D59C8
:1001F0004E7C1211127C7F494949363E41414122D1
:100200007F4141413E7F494949417F090909013EFA
:10021000414151737F0808087F00417F4100204021
:10022000413F017F081422417F404040407F021C33
:10023000027F7F0408107F3E4141413E7F0909094A
:10024000063E4151215E7F09192946264949493216
:1002500003017F01033F4040403F1F2040201F3FDC
:100260004038403F63140814630304780403615961
:10027000494D43007F4141410204081020004141A3
:10028000417F04020102044040404040000307084F
:100290000020545478407F2844443838444444284B
:1002A000384444287F385454541800087E090218F2
:1002B000A4A49C787F0804047800447D400020407A
:1002C000403D007F1028440000417F40007C0478BE
:1002D00004787C080404783844444438FC18242406
:1002E0001818242418FC7C08040408485454542486
:1002F00004043F44243C4040207C1C2040201C3C03
:100300004030403C44281028444C9090907C4464F9
:10031000544C44000836410000007700000041368C
:10032000080002010204023C2623263C1EA1A16112
:10033000123A4040207A3854545559215555794144
:100340002154547841215554784020545579400C1B
:100350001E527212395555555939545454593955FC
:100360005454580000457C410002457D420001453F
:100370007C40F0292429F0F0282528F07C545545AC
:10038000002054547C547C0A097F4932494949323F
:100390003248484832324A4848303A4141217A3A54
:1003A00042402078009DA0A07D39444444393D401E
:1003B00040403D3C24FF2424487E4943662B2FFCCB
:1003C0002F2BFF0929F620C0887E09032054547979
:1003D000410000447D413048484A32384040227A4A
:1003E000007A0A0A727D0D19317D2629292F2826C7
:1003F0002929292630484D402038080808080808CF
:100400000808382F10C8ACBA2F102834FA00007B27
:10041000000008142A142222142A1408950022002D
:1004200095AA005500AAAA55AA55AA000000FF00E7
:10043000101010FF00141414FF001010FF00FF1024
:1004400010F010F0141414FC001414F700FF000056
:10045000FF00FF1414F404FC141417101F10101FD5
:10046000101F1414141F00101010F0000000001FC3
:10047000101010101F10101010F010000000FF10CE
:100480001010101010101010FF10000000FF1400CA
:1004900000FF00FF00001F10170000FC04F41414FC
:1004A0001710171414F404F40000FF00F7141414C8
:1004B00014141414F700F7141414171410101F1048
:1004C0001F141414F4141010F010F000001F101F6B
:1004D0000000001F14000000FC140000F010F010D9
:1004E00010FF10FF141414FF141010101F00000050
:1004F00000F010FFFFFFFFFFF0F0F0F0F0FFFFFF54
:100500000000000000FFFF0F0F0F0F0F38444438AA
:10051000447C2A2A3E147E02020606027E027E02E5
:1005200063554941633844443C04407E201E200604
:10053000027E020299A5E7A5991C2A492A1C4C7241
:1005400001724C304A4D4D303048784830BC625AC8
:10055000463D3E494949007E0101017E2A2A2A2A58
:100560002A44445F444440514A444040444A514034
:100570000000FF0103E080FF000008086B6B0836F5
:1005800012362436060F090F060000181800000066
:100590001010003040FF0101001F01011E00191D55
:1005A0001712003C3C3C3C0000000000080B00021D
:1005B00002020000090400000102020000052400FC
:1005C000100105240101010424020605240600018E
:1005D0000705810310004009040100020A00000021
:1005E00007050202400000070583024000000403E3
:1005F000090412010002EF0201404123368000018C
:100600000102030141726475696E6F204C4C430016
:1006100041726475626F7900D5F08D14A1C881CFE5
:10062000D9F1AF2000454E44006D6574612C706CAB
:100630006C6672712C006D6574612C706C6C6373E8
:10064000722C006D6574612C665F6370752C0041BF
:100650005244454E535F54494D45525F4359434CB4
:10066000455F41434355524143592C310000FD0938
:1006700011241FBECFEFDAE0DEBFCDBF11E0A0E056
:10068000B1E0EEEFF3E202C005900D92A83DB10794
:10069000D9F727E0A8EDB1E001C01D92AF39B2074C
:1006A000E1F713E0C8E3D3E004C02197FE010E9404
:1006B000F711C733D107C9F70E94120A0C94FD1134
:1006C0000C940000FC0180914E07882311F13FB784
:1006D000F89482E08093E9002091F200822F90E06C
:1006E0001816190614F481E090E0882339F0289850
:1006F00044E640934D074091F1004083222339F0B6
:100700002091F200211103C02BE62093E8003FBFA7
:1007100008958FEF9FEF08952FB7F89483E08093AB
:10072000E9009091E800892F807295FF04C09091B4
:10073000F20080E4891B2FBF089580914507811145
:100740000DC082E08093410784E0809342071092BD
:1007500044071092430781E08093450781E497E0C6
:100760000895AEEDB5E02FB7F8947D918D919C91F1
:1007700066B52FBFA89B05C06F3F18F47F5F8F4FF2
:100780009F4F22E0660F771F881F991F2A95D1F788
:1007900008954091E4055091E5052091E2053091DE
:1007A000E30542175307B4F49091E8009570E1F324
:1007B0009091E80092FD19C08093F1008091E405CA
:1007C0009091E50501968F739927892B19F48EEF87
:1007D0008093E8008091E4059091E505019690935F
:1007E000E5058093E40581E0089580E00895EF92A7
:1007F000FF920F931F93CF93DF93F82E192FE62EBE
:10080000042F81E0860F880F0E94C90383E00E94B5
:10081000C903CF2DD12FEC0EFD2EF11CCE15DF0517
:10082000B9F007FF13C0FE0184910E94C903182F7D
:1008300080E00E94C903812321968111EFCFDF91CF
:10084000CF911F910F91FF90EF9008958881EDCF88
:1008500081E0F5CFDF92EF92FF920F931F93CF933A
:10086000DF93D82E8A01EB017B01E40EF51ECE1535
:10087000DF0559F0D7FE12C0FE0184910E94C90322
:1008800021968111F4CF0FEF1FEFC801DF91CF91B7
:100890001F910F91FF90EF90DF9008958881EECF28
:1008A0000F931F93CF93DF931F92CDB7DEB782E0F4
:1008B000898342E450E06CEA75E080E80E942A04F3
:1008C0000E949D03DC0112960D911C9101151105EA
:1008D00089F0D801ED91FC910280F381E02DBE01F9
:1008E0006F5F7F4FC801099597FD04C0F80100852F
:1008F0001185ECCF89810F90DF91CF911F910F91DE
:100900000895615030F02091F100FC0120830196A0
:10091000F8CF289884E680934D070895AF92BF9250
:10092000CF92DF92EF92FF920F931F93CF93DF93BB
:100930006C017B018B01040F151FEB015E01AE18EA
:10094000BF08C017D10759F06991D601ED91FC910C
:100950000190F081E02DC6010995892B79F7C50139
:10096000DF91CF911F910F91FF90EF90DF90CF908B
:10097000BF90AF900895CF93DF931F92CDB7DEB7AE
:100980006983DC01ED91FC910280F381E02D41E06F
:1009900050E0BE016F5F7F4F09950F90DF91CF91BF
:1009A00008950F931F93CF93DF938C01D0E0C0E0A5
:1009B000F801EC0FFD1F6491662341F08FE497E08E
:1009C0000E94BB04892B11F02196F2CFCE01DF915A
:1009D000CF911F910F91089583E08093E90080915A
:1009E000F200882319F08AE38093E80008950E94BA
:1009F0008C0390E00895CF93DF931F92CDB7DEB7BD
:100A0000FC018485958597FD08C02FEF3FEF358762
:100A100024870F90DF91CF910895CE0101960E9417
:100A20006203019719F4898190E0F3CF8FEF9FEF74
:100A3000F0CF0F931F93CF93DF931F92CDB7DEB705
:100A40008C01FC018485958597FF0BC0CE01019632
:100A50000E946203019771F4898190E0F801958703
:100A60008487F801848595850F90DF91CF911F9140
:100A70000F9108958FEF9FEFF1CFFC01848595854D
:100A800097FD0BC09FB7F89482E08093E9008091B6
:100A9000F2009FBF90E0019608959FB7F89482E01E
:100AA0008093E9008091F2009FBF90E00895FC01DF
:100AB0000E94B103319728F068517C4F8F4F9F4FB0
:100AC000F9CFAB01FC010E94B103641775078E07D3
:100AD0009F07C8F3089585E090E00C9457058F9226
:100AE0009F92AF92BF92CF92DF92EF92FF920F93BD
:100AF0001F93CF93DF936C017B018A0180910B01DF
:100B0000882309F45AC080914E07882309F455C000
:100B10008091E80580FF05C08091E00082608093AD
:100B2000E000E801B12C8AEFA82E93E0892E2AE399
:100B3000922E209711F4BB20C9F10E948C038111E1
:100B400008C0AA94AA20C9F181E090E00E9457054C
:100B5000F0CF8C171D0611F00CF08C2F9FB7F89476
:100B60008092E9002091E80025FD02C09FBFE1CFFF
:100B7000282F30E0C21BD30BF701815020F04191A8
:100B80004093F100FACFE20EF31EBB2021F09092C9
:100B9000E800B12CEBCF8091E80085FDE7CF909283
:100BA000E800BB24B394209709F3F3CF5D9884E663
:100BB0008093E705101611063CF081E090E0F60105
:100BC0009383828310E000E0C801DF91CF911F91F1
:100BD0000F91FF90EF90DF90CF90BF90AF909F90DC
:100BE0008F9008956F927F928F929F92AF92BF9253
:100BF000CF92DF92EF92FF920F931F93CF93DF93E9
:100C000000D01F92CDB7DEB76D3089F0A090D80527
:100C1000B090D9056A30F9F41092DB051092DA052C
:100C20009501285F3F4F3093D9052093D80581E087
:100C300090E00F900F900F90DF91CF911F910F9147
:100C4000FF90EF90DF90CF90BF90AF909F908F90EC
:100C50007F906F9008950091DA051091DB0535E0E3
:100C6000639FF0011124E455FF4FA801712C80E12E
:100C7000682E98E0D92EDA0C75E060E0771621F046
:100C8000CF0101966491FC01C50140385105D0F4B3
:100C900080349105B8F4A62FA170CA2E9C0171E092
:100CA00021FD74E020FD770F22FD7295287F629E62
:100CB000D0011124A40FA852BE4F0C90072AC0FEE9
:100CC00007260C9266950196D812DFCF73944F5F7A
:100CD0005F4F86E07812D0CF0A5F1F4F1093DB057D
:100CE0000093DA05A4CF14BC15BC10926E008FEFF0
:100CF00085BB1092800010928100109282001092A9
:100D00006F0086BB1092900010929100109292009A
:100D10001092710088BB1092C0001092C100109216
:100D2000C2001092C3001092C4001092720089BBDE
:100D3000089520913E0731E0320F30933E0735E1B0
:100D4000329FF0011124E251FA4F9183808388E0B1
:100D50008283148A138A1482138216821582108663
:100D60001782128611861486138616861586108AB7
:100D70001786128A118ACF010895089590E080E0C5
:100D80000895FC0101900020E9F73197AF01481B5D
:100D9000590BBC018FE497E00C946F058F929F92E2
:100DA000AF92BF920F931F93CF93DF93CDB7DEB770
:100DB000A1970FB6F894DEBF0FBECDBF19A2423087
:100DC00008F44AE08E010F5D1F4F842E912CB12C48
:100DD000A12CA50194010E94D511E62FB901CA01E9
:100DE000EA30F4F4E05DD801EE938D01232B242B3F
:100DF000252B79F790E080E0109719F0CD010E9443
:100E0000C106A1960FB6F894DEBF0FBECDBFDF912D
:100E1000CF911F910F91BF90AF909F908F900895A9
:100E2000E95CE1CF1F920F920FB60F9211248F93BE
:100E30009F938091E1009091E100937F9093E10076
:100E400083FF0FC01092E90091E09093EB001092A5
:100E5000EC0092E39093ED0010924E0798E090938F
:100E6000F00082FF22C093E09093E9009091F2009D
:100E7000992319F09AE39093E8009091E70599235C
:100E800041F09091E70591509093E705911101C0D1
:100E90005D9A90914D07992341F090914D079150A3
:100EA00090934D07911101C0289A84FF18C080913A
:100EB000E2008E7E81608093E2008091E1008F7E6F
:100EC0008093E1008091E8058E7E80618093E80543
:100ED0009F918F910F900FBE0F901F90189580FFDC
:100EE000F7CF8091E2008E7E80618093E200809156
:100EF000E1008E7E8093E1008091E8058E7E816026
:100F0000E5CF1F920F920FB60F921124CF92DF926E
:100F1000EF92FF920F931F932F933F934F935F9303
:100F20006F937F938F939F93AF93BF93EF93FF93B1
:100F3000CF93DF93CDB7DEB76C97DEBFCDBF1092F6
:100F4000E9008091E80083FF25C068E0CE01459666
:100F50000E94810482EF8093E8008D8987FF39C069
:100F60009091E80090FFFCCF982F907609F034C163
:100F70009E894F89588D2F89F88C911131C0803806
:100F800061F58091E9058093F1001092F1008EEFF8
:100F90008093E8006C960FB6F894DEBF0FBECDBF0D
:100FA000DF91CF91FF91EF91BF91AF919F918F9181
:100FB0007F916F915F914F913F912F911F910F9171
:100FC000FF90EF90DF90CF900F900FBE0F901F908B
:100FD00018959EEF9093E800C7CF1092F100D5CFFF
:100FE000913059F48111D3CF4130510581F6809170
:100FF000E9058D7F8093E905CACF933049F48111CB
:10100000C6CF4130510519F68091E9058260F2CFD3
:10101000953041F48091E80080FFFCCF2068209358
:10102000E300B5CF963009F0A9C00B8D1C8D22E0EE
:101030001092E9001092E5051092E405F2122EC01C
:101040001092E3051092E2050E9450041F8299E07D
:101050009983FA8291E09E8390EA98879AEF998724
:101060002091E4053091E505275F3F4F3C832B83BA
:101070008D831092E9001092E5051092E40510931B
:10108000E3050093E20549E050E0BE016F5F7F4F4A
:1010900080E00E942A040E94500479CF1093E30557
:1010A0000093E2050E949D03DC0112960D911C91B4
:1010B0000115110509F451C1D801ED91FC9104808D
:1010C000F581E02DBE016B5E7F4FC8010995009749
:1010D00009F03EC1F80100851185EACFF3E0FF1267
:1010E0000EC08F89882309F440C0823061F440E843
:1010F00067E080E196E00E94F703811148CF81E22A
:101100008093EB0047CF813029F440E86BE084E026
:1011100096E0F1CF833099F70E949D03DC0112968F
:10112000ED90FC908E010F5F1F4F6801E114F104F8
:1011300079F0D701ED91FC910680F781E02DB8019F
:10114000C7010995080F111DF701E084F184EECF66
:10115000D8011C92F60101900020E9F73197BF01F8
:101160006C197D0940E0C601C6CF6EEE75E0FB014B
:10117000449150E080E80E942A0409CF973009F496
:10118000BECF983021F481E08093F10000CF9930F8
:1011900009F0FDCE837009F0B2CFEDE0F1E081E01F
:1011A00031E096E32191222371F08093E90030939E
:1011B000EB00DF0111972C912093EC009093ED0050
:1011C0008F5F873079F78EE78093EA001092EA000C
:1011D0008F8980934E07DBCE8B8D9C8D1092E9001A
:1011E0001092E5051092E4059093E3058093E205E3
:1011F000898D811192C08E899D89913A49F48132FD
:1012000009F07DCF47E050E064E071E080E0B3CFCB
:10121000913209F074CF833269F48F89988DB0E0F0
:10122000A0E08093000190930101A0930201B0938C
:101230000301ADCE803269F48091E80082FFFCCFDB
:1012400067E084E091E00E9481048BEF8093E800E6
:101250009ECE823209F09BCE8F8980930B01EEEFF8
:10126000FFE7859194918B3F9C4D51F1E0E0F8E0D0
:101270008091040190910501A0910601B0910701B0
:10128000803B9440A105B105F1F480910B0180FDF4
:101290001AC0EE3F8AE0F80789F587E797E7918360
:1012A0008083809160008093E60588E19BE00FB623
:1012B000F894A895809360000FBE9093600067CE6D
:1012C000EEEFFAE0D5CF808191818737974709F01B
:1012D0005ECEA895809160008861809360008091C7
:1012E000E60580936000EE3F2AE0F20789F08091E6
:1012F000FE0A9091FF0A9183808349CE808191817B
:101300008737980751F29093FF0A8093FE0AC5CF62
:101310001092FF0A1092FE0A3ACE0E949D03DC0151
:1013200012960D911C910115110509F4E8CED80112
:10133000ED91FC910190F081E02DBE016B5E7F4F3D
:10134000C8010995811123CEF80100851185EBCFE5
:10135000181619060CF41BCED2CEF1E0FF12BECE49
:1013600062EF75E004CF0F920FB68F939F93EF93C8
:10137000FF938091DD058D5F8D3708F08D57809349
:10138000DD05EAEEF5E080818E4F808391819F4FED
:10139000918382818F4F828383818F4F8383EEED90
:1013A000F5E080818F5F808381818F4F818382818F
:1013B0008F4F828383818F4F83838FB18F60669934
:1013C0001C9B88278F3681F48091DC05981B963012
:1013D00068F0E0E0F8E087E78083818388E180932C
:1013E0006000F0936000FFCF9093DC05FF91EF91D8
:1013F0009F918F910FBE0F901895EFE4F7E0138245
:10140000128288EE93E0A0E0B0E084839583A68307
:10141000B78387E191E0918380838FEF9FEF95877A
:1014200084870895789483E084BD83E085BD81E05E
:1014300080936E00E1E8F0E083E08083E0E881E003
:101440008083E1E983E08083E0E981E08083E1EC6F
:1014500087E08083E3EC81E08083E0EC82E08083BE
:10146000E2EC81E08083EAE787E080838068808324
:1014700010924E071092E9051092E8058091D7006E
:1014800081608093D70080EA8093D80089B580611D
:1014900089BD89B5826089BD09B400FEFDCF81E0B8
:1014A00090E00E9457058091D8008F7C80618093E6
:1014B000D8008091E000807F8093E0008091E1007F
:1014C0008E7E8093E1008DE08093E200559A209A11
:1014D00081EC80937C0081EF85B987EE84B982E34B
:1014E0008BB982EF8AB9769A6E9880EF81BB10BA79
:1014F00080E58CBD81E08DBD0E946B055F9A0E94E6
:101500006B055C98E8E1F6E085918EBD00000DB4B6
:1015100007FEFDCFE532C1F75C9A81E88093640055
:1015200081E0809365008FEF9FEF90935C0780933D
:101530005B078FB7F894C090EA05D090EB05E09078
:10154000EC05F090ED058FBFC0910B018AE090E0B3
:101550000E945705C11114C02FB7F8948091EA0575
:101560009091EB05A091EC05B091ED052FBF8C1982
:101570009D09AE09BF0988389341A105B10520F343
:1015800062E370E080E090E0AB01FC010E94B103F7
:1015900041505109E109F10928F068517C4F8F4F02
:1015A0009F4FF6CFAB01FC010E94B1036417750792
:1015B0008E079F07C8F389B5826089BD8FB7F894FD
:1015C0004091EA055091EB056091EC057091ED05B5
:1015D0008FBF09B400FC13C02FB7F8948091EA05BF
:1015E0009091EB05A091EC05B091ED052FBF841B08
:1015F000950BA60BB70B0A97A105B10550F389B55A
:101600008093400782B780933F07CFB7F8948091CB
:101610006400877D8093640080916500877E80935D
:1016200065000E94730685E291E00E949906FC0124
:1016300020E020936E0020934400209345002FEF7C
:101640002093350025E22093470023E120934800B2
:1016500020E02093460021E0209345000000000098
:10166000000000000000000000000000000000007A
:10167000000000000000000000000000000000006A
:10168000000000000000000000000000000000005A
:10169000000000000000000000000000000000004A
:1016A000000000000000000000000000000000003A
:1016B000000000000000000000000000C090460094
:1016C000E090460000914600A09146002AEF20934A
:1016D000460060914600409146003091460090914E
:1016E000460080913500D12CD482C382F12CF68241
:1016F000E58210E010870783B0E0B287A18770E031
:101700007487638750E056874587232F30E0308BFE
:101710002787292F30E0328B218B90E0948B838BAD
:101720008FE291E00E949906FC0120E020936E0078
:1017300020934400209345002FEF2093350021E1B2
:10174000209347002DE0209348002CE02093460092
:1017500022E02093440021E0209345000000000097
:10176000000000000000000000000000C0904600E3
:10177000E090460000914600A0914600609146002E
:10178000409146003091460090914600809135008E
:10179000D12CD482C382F12CF682E58210E010872E
:1017A0000783B0E0B287A18770E07487638750E059
:1017B00056874587232F30E0308B2787292F30E04D
:1017C000328B218B90E0948B838B8AE391E00E9493
:1017D0009906FC0120E020936E00209344002093A2
:1017E00045002FEF2093350029E02093470024E0A7
:1017F0002093480027E02093460021E020934400F6
:1018000029E02093450000000000C0904600E090D1
:10181000460000914600A09146006091460040912C
:101820004600309146009091460080913500D12CC1
:10183000D482C382F12CF682E58210E01087078300
:10184000B0E0B287A18770E07487638750E0568765
:101850004587232F30E0308B2787292F30E0328BCC
:10186000218B90E0948B838B88E491E00E94990611
:10187000FC0120E020936E0020934400209345005B
:101880002FEF2093350021E02093430020E02093A8
:10189000460022E020934500000000000000000008
:1018A0000000000000000000000000000000000038
:1018B0000000000000000000000000000000000028
:1018C0000000000000000000000000000000000018
:1018D0000000000000000000000000000000000008
:1018E00000000000000000000000000000000000F8
:1018F00000000000000000000000000000000000E8
:1019000000000000000000000000000000000000D7
:101910000000000000000000C0904600E09046007B
:1019200000914600A0914600000000000000000069
:1019300000000000000000000000000000000000A7
:101940000000000000000000609146004091460049
:10195000309146009091460080913500D12CD48280
:10196000C382F12CF682E58210E010870783B0E095
:10197000B287A18770E07487638750E056874587F8
:10198000232F30E0308B2787292F30E0328B218BBB
:1019900090E0948B838B87E591E00E949906FC018F
:1019A00020E020936F0020938000209381002093FB
:1019B00082002FEF2093360020E0209385002093B3
:1019C000840021E02093810000000000000000005E
:1019D0000000000000000000000000000000000007
:1019E00000000000000000000000000000000000F7
:1019F00000000000000000000000000000000000E7
:101A000000000000000000000000000000000000D6
:101A100000000000000000000000000000000000C6
:101A2000000000000000000080908400909085007D
:101A3000A0908400B0908500C0908400D090850074
:101A4000E0908400F090850021E02093850024EF51
:101A5000209384000091840010918500A09184005F
:101A6000B091850060918400709185004091840060
:101A7000509185008091360094828382B682A5823F
:101A8000D086C782F286E18614870387B687A5874A
:101A9000708B6787528B418B90E0948B838B81E6B0
:101AA00091E00E949906FC0120E020936F002093B2
:101AB000800020938100209382002FEF2093360036
:101AC00020E0209389002FE12093880020E02093DC
:101AD0008B0023E120938A0020E020938D0027E1F2
:101AE00020938C0020E0209385002AE1209384003D
:101AF00029E0209381000000000000000000809099
:101B0000840090908500A0908400B0908500C090E3
:101B10008400D0908500E0908400F09085000091D2
:101B2000840010918500A0918400B091850060919F
:101B300084007091850040918400509185008091CF
:101B4000360094828382B682A582D086C782F286CE
:101B5000E18614870387B687A587708B6787528BCA
:101B6000418B90E0948B838B8DE691E00E949906E7
:101B7000FC0120E020936F002093800020938100DF
:101B8000209382002FEF2093360020E020938700DF
:101B90002FE02093860020E02093890027E0209307
:101BA000880020E0209385002CE02093840021E130
:101BB00020938100000000008090840090908500B8
:101BC000A0908400B0908500C0908400D0908500E3
:101BD000E0908400F09085000091840010918500D1
:101BE000A0918400B091850060918400709185007F
:101BF00040918400509185008091360094828382C8
:101C0000B682A582D086C782F286E18614870387D2
:101C1000B687A587708B6787528B418B90E0948B3A
:101C2000838B8AE791E00E949906FC0120E02093D3
:101C30006F002093800020938100209382002FEF7B
:101C40002093360020E02093870025E12093860032
:101C500020E0209389002BE02093880020E020934F
:101C6000850022E12093840022E02093800029E176
:101C700020938100000000008090840090908500F7
:101C8000A0908400B0908500C0908400D090850022
:101C9000E0908400F0908500009184001091850010
:101CA000A0918400B09185006091840070918500BE
:101CB0004091840050918500809136009482838207
:101CC000B682A582D086C782F286E1861487038712
:101CD000B687A587708B6787528B418B90E0948B7A
:101CE000838B86E891E00E949906FC0120E0209316
:101CF00071002093900020939100209392002FEF89
:101D00002093380020E0209395002093940021E058
:101D1000209391000000000000000000000000007F
:101D200000000000000000000000000000000000B3
:101D300000000000000000000000000000000000A3
:101D40000000000000000000000000000000000093
:101D50000000000000000000000000000000000083
:101D60000000000000000000000000000000000073
:101D7000000000008090940090909500A090940046
:101D8000B0909500C0909400D0909500E0909400A1
:101D9000F090950021E02093950024EF209394008B
:101DA0000091940010919500A0919400B09195003D
:101DB000609194007091950040919400509195002D
:101DC0008091380094828382B682A582D086C782B1
:101DD000F286E18614870387B687A587708B6787AD
:101DE000528B418B90E0948B838B80E991E00E9431
:101DF0009906FC0120E0209371002093900020932D
:101E00009100209392002FEF20933800209127001B
:101E1000206420932700209128002F7B2093280006
:101E200020E02093990021E12093980020E0209366
:101E300095002EE02093940020E42093900029E068
:101E40002093910000000000C0909400D090950075
:101E500060912800E0909400F09095004091280057
:101E6000009194001091950030912800A091940069
:101E7000B09195009091280080913800D482C3825F
:101E800070E076836583F086E78250E05287418771
:101E900014870387232F30E036872587B08BA787E9
:101EA000292F30E0328B218B8F7090E0948B838BC5
:101EB00081EA91E00E949906FC0120E020937200E3
:101EC0002093C0002093C1002093C2002093C30040
:101ED0002093C4002FEF2093390020E42093C10009
:101EE0002FEF2093D10020E02093BF002093BE006D
:101EF00021E82093C1000000000000000000000065
:101F000000000000000000000000000000000000D1
:101F100000000000000000000000000000000000C1
:101F200000000000000000000000000000000000B1
:101F300000000000000000000000000000000000A1
:101F40000000000000000000000000000000000091
:101F5000000000000000C090BE00E090BE000091B4
:101F6000BE00A091BE002AEF2093BE006091BE008B
:101F70004091BE003091BE009091BE00809139002A
:101F8000D12CD482C382F12CF682E58210E0108736
:101F90000783B0E0B287A18770E07487638750E061
:101FA00056874587232F30E0308B2787292F30E055
:101FB000328B218B90E0948B838B8BEA91E00E9493
:101FC0009906FC0120E0209372002093C00020932A
:101FD000C1002093C2002093C3002093C4002FEFC0
:101FE0002093390029E02093CF002DE02093D000EA
:101FF0002FE12093D10021E12093D20020E0209313
:10200000BF002AE12093BE0021E82093C100000018
:102010000000C090BE00E090BE000091BE00A09104
:10202000BE006091BE004091BE003091BE00909114
:10203000BE0080913900D12CD482C382F12CF6826B
:10204000E58210E010870783B0E0B287A18770E0D7
:102050007487638750E056874587232F30E0308BA5
:102060002787292F30E0328B218B90E0948B838B54
:1020700088EB91E00E949906FC0120E02093720019
:102080002093C0002093C1002093C2002093C3007E
:102090002093C4002FEF2093390027E02093CF0036
:1020A0002FE02093D10020E02093BF002CE020936C
:1020B000BE0021E02093C30021E82093C10000006E
:1020C0000000C090BE00E090BE000091BE00A09154
:1020D000BE006091BE004091BE003091BE00909164
:1020E000BE0080913900D12CD482C382F12CF682BB
:1020F000E58210E010870783B0E0B287A18770E027
:102100007487638750E056874587232F30E0308BF4
:102110002787292F30E0328B218B90E0948B838BA3
:1021200086EC91E00E949906FC0120E02093720069
:102130002093C0002093C1002093C2002093C300CD
:102140002093C4002FEF209339002FEF2093D1006C
:1021500020E02093BF002093BE0024E82093C1001C
:10216000000000000000000000000000000000006F
:10217000000000000000000000000000000000005F
:10218000000000000000000000000000000000004F
:10219000000000000000000000000000000000003F
:1021A000000000000000000000000000000000002F
:1021B000000000000000000000000000000000001F
:1021C000000000000000000000000000000000000F
:1021D00000000000000000000000000000000000FF
:1021E000C090BE00E090BE000091BE00A091BE0075
:1021F00000000000000000000000000000000000DF
:1022000000000000000000000000000000000000CE
:102210006091BE004091BE003091BE009091BE0022
:1022200080913900D12CD482C382F12CF682E582D0
:1022300010E010870783B0E0B287A18770E0748751
:10224000638750E056874587232F30E0308B278700
:10225000292F30E0328B218B90E0948B838B0E946E
:102260007306CFBF8FE496E00E94D10485ED91E024
:102270000E94C10683E496E00E94D1044AE060E037
:1022800074E284EF90E00E94CE0685ED91E00E941A
:10229000C10686E396E00E94D1046091400770E099
:1022A00090E080E04AE00E94CE0685ED91E00E9439
:1022B000C10689E296E00E94D10460913F0770E078
:1022C00090E080E04AE00E94CE0685ED91E00E9419
:1022D000C106D12C95E1B92E80913E07D81608F0A1
:1022E00055C00D2D10E0B09EF001B19EF00D1124EF
:1022F000E251FA4F80819181009711F00E94C1064E
:102300006CE28FE497E00E94BB04B09EE001B19EB6
:10231000D00D11248E0102511A4F780182E0E80E8F
:10232000F11CF801628170E090E080E04AE00E94D8
:10233000CE06C12CF70180816CE2C816A8F48FE4A8
:1023400097E00E94BB04EC2DF0E0EE0FFF1FEC0FB6
:10235000FD1FE251FA4F6381748190E080E04AE012
:102360000E94CE06C394E6CF8FE497E00E94BB04A0
:10237000F8016389748990E080E04AE00E94CE060B
:1023800085ED91E00E94C106D394A6CF85E296E048
:102390000E94D10485ED91E00E94C106C0E0D0E02A
:1023A0002097F1F30E940000FBCFA1E21A2EAA1B96
:1023B000BB1BFD010DC0AA1FBB1FEE1FFF1FA217F5
:1023C000B307E407F50720F0A21BB30BE40BF50BF2
:1023D000661F771F881F991F1A9469F7609570957B
:1023E000809590959B01AC01BD01CF010895EE0F42
:0E23F000FF1F0590F491E02D0994F894FFCFA3
:1023FE00FFFFFFFF00E100000000000000C1808130
:10240E0000000000000000BB046F05F704EC043D63
:10241E0005FB04190574305F6E6F726D616C00748C
:10242E00305F6374635F746F700074305F706861E7
:10243E0073655F6F6372610074305F6E6F726D6192
:10244E006C5F646976380074315F6E6F726D616CAB
:10245E000074315F6374635F6F6372610074315F28
:10246E0070686173655F6963720074315F66617372
:10247E00745F6963720074335F6E6F726D616C00AE
:10248E0074335F6374635F746F67676C655F633625
:10249E000074345F6E6F726D616C0074345F6661D0
:1024AE0073745F6F6372630074345F706861736519
:1024BE005F6F6372630074345F6E6F726D616C5F19
:0824CE0064697638000D0A0074
:00000001FF
