:100000000C940E040C9436040C9436040C943604B0
:100010000C9436040C9436040C9436040C94360478
:100020000C9436040C9436040C9403190C94721935
:100030000C9436040C9436040C9436040C94360458
:100040000C9436040C9436040C9436040C94360448
:100050000C9436040C9436040C9436040C94A41BB3
:100060000C9436040C9436040C9436040C94360428
:100070000C9436040C9436040C9436040C94360418
:100080000C9436040C9436040C9436040C94360408
:100090000C9436040C9436040C9436040C943604F8
:1000A0000C9436040C9436040C943604D5F08D145C
:1000B000A1C881CFD9F1AF20000208080810102094
:1000C0002040408040FFFFFFFFFFFFFFFFFF3FCFCB
:1000D000F7FBFBFDFDFF3FCFF7FBFBFDFDFDFCFB51
:1000E000FBF7CF0FBFFFFFFFFFFFFFFFFFFF3FCF7C
:1000F000F7FBFBFDFDFF3FCFF7FBFBFDFDFDFCFB31
:10010000FBF7CF0FBFFFFFFFFFFFFFFFFFFF3FCF5B
:10011000F7FBFBFDFDFF3FCFF7FBFBFDFDFDFCFB10
:10012000FBF7CF0FBFFFFFFFFFFFFFFFFFFF3FCF3B
:10013000F7FBFBFDFDFF3FCFF7FBFBFDFDFDFCFBF0
:10014000FBF7CF0FBFFFFFFFFFFFFFFFFFFF3FCF1B
:10015000F7FBFBFDFDFF3FCFF7FBFBFDFDFDFCFBD0
:10016000FBF7CF0FBFFFFFFFFFFFFFFFFFFF3FCFFB
:10017000F7FBFBFDFDFF3FCFF7FBFBFDFDFDFCFBB0
:10018000FBF7CF0FBFFFFFFFFFFFFFFFFFFF3FCFDB
:10019000F7FBFBFDFDFF3FCFF7FBFBFDFDFDFCFB90
:1001A000FBF7CF0FBFFFFFFFFFFFFFFFFFFF3FCFBB
:1001B000F7FBFBFDFDFF3FCFF7FBFBFDFDFDFCFB70
:1001C000FBF7CF0FBFFFFFFFFFFFFFFFFFFF3FCF9B
:1001D000F7FBFBFDFDFF3FCFF7FBFBFDFDFDFCFB50
:1001E000FBF7CF0FBFFFFFFFFFFFFFFFFFFF3FCF7B
:1001F000F7FBFBFDFDFF3FCFF7FBFBFDFDFDFCFB30
:10020000FBF7CF0FBFFFFFFFFFFFFFFFFFFF3FCF5A
:10021000F7FBFBFDFDFF3FCFF7FBFBFDFDFDFCFB0F
:10022000FBF7CF0FBFFFFFFFFFFFFFFFFFFF3FCF3A
:10023000F7FBFBFDFDFF3FCFF7FBFBFDFDFDFCFBEF
:10024000FBF7CF0FBFFFFFFFFFFFFFFFFFFF3FCF1A
:10025000F7FBFBFDFDFF3FCFF7FBFBFDFDFDFCFBCF
:10026000FBF7CF0FBFFFFFFFFFFFFFFFFFFF3FCFFA
:10027000F7FBFBFDFDFF3FCFF7FBFBFDFDFDFCFBAF
:10028000FBF7CF0FBFFFFFFFFFFFFFFFFFFF3FCFDA
:10029000F7FBFBFDFDFF3FCFF7FBFBFDFDFDFCFB8F
:1002A000FBF7CF0FBFFFFFFFFFFFFFFFFFFF3FCFBA
:1002B000F7FBFBFDFDFF3FCFF7FBFBFDFDFDFCFB6F
:1002C000FBF7CF0FBFFFFFFFFFFFFFFFFFFF3FCF9A
:1002D000F7FBFBFDFDFF3FCFF7FBFBFDFDFDFCFB4F
:1002E000FBF7CF0FBFFFFFFFFFFFFFFFFFFF3FCF7A
:1002F000F7FBFBFDFDFF3FCFF7FBFBFDFDFDFCFB2F
:10030000FBF7CF0FBFFFFFFFFFFFFFFFFFFF3FCF59
:10031000F7FBFBFDFDFF3FCFF7FBFBFDFDFDFCFB0E
:10032000FBF7CF0FBFFFFFFFFFFFFFFFFFFF3FCF39
:10033000F7FBFBFDFDFF3FCFF7FBFBFDFDFDFCFBEE
:10034000FBF7CF0FBFFFFFFFFFFFFFFFFFFF3FCF19
:10035000F7FBFBFDFDFF3FCFF7FBFBFDFDFDFCFBCE
:10036000FBF7CF0FBFFFFFFFFFFFFFFFFFFF3FCFF9
:10037000F7FBFBFDFDFF3FCFF7FBFBFDFDFDFCFBAE
:10038000FBF7CF0FBFFFFFFFFFFFFFFFFFFF3FCFD9
:10039000F7FBFBFDFDFF3FCFF7FBFBFDFDFDFCFB8E
:1003A000FBF7CF0FBFFFFFFFFFFFFFFFFFFF3FCFB9
:1003B000F7FBFBFDFDFF3FCFF7FBFBFDFDFDFCFB6E
:1003C000FBF7CF0FBFFFFFFFFFFFFFFFFFFF3FCF99
:1003D000F7FBFBFDFDFF3FCFF7FBFBFDFDFDFCFB4E
:1003E000FBF7CF0FBFFFFFFFFFFFFFFFFFFF3FCF79
:1003F000F7FBFBFDFDFF3FCFF7FBFBFDFDFDFCFB2E
:10040000FBF7CF0FBFFFFFFFFFFFFFFFFFFF3FCF58
:10041000F7FBFBFDFDFF3FCFF7FBFBFDFDFDFCFB0D
:10042000FBF7CF0FBFFFFFFFFFFFFFFFFFFF3FCF38
:10043000F7FBFBFDFDFF3FCFF7FBFBFDFDFDFCFBED
:10044000FBF7CF0FBFFFFFFFFFFFFFFFFFFF3FCF18
:10045000F7FBFBFDFDFF3FCFF7FBFBFDFDFDFCFBCD
:10046000FBF7CF0FBFFFFFFFFFFFFFFFFFFF3FCFF8
:10047000F7FBFBFDFDFF3FCFF7FBFBFDFDFDFCFBAD
:10048000FBF7CF0FBFFFFFFFFFFFFFFFFFFF3FCFD8
:10049000F7FBFBFDFDFF3FCFF7FBFBFDFDFDFCFB8D
:1004A000FBF7CF0FBFFFFFFFFFFFFFFFFFFF3FCFB8
:1004B000F7FBFBFDFDFF3FCFF7FBFBFDFDFDFCFB6D
:1004C000FBF7CF0FBF0A0A00202D207C000A7C20FA
:1004D000537072697465734142433A3A647261774A
:1004E0004261736963465820284D4F44455F504C24
:1004F00055534D41534B29207C000A7C2053707288
:10050000697465734142433A3A6472617753697A18
:100510006564465820284D4F44455F504C55534D17
:1005200041534B29207C000A7C205370726974650A
:10053000734142433A3A64726177465820284D4FDE
:1005400044455F504C55534D41534B29207C000A84
:100550007C2053707269746573553A3A647261779E
:10056000506C75734D61736B4658207C000A7C207B
:1005700046583A3A647261774269746D6170202816
:1005800064626D4D61736B656429207C000A7C2078
:1005900053707269746573553A3A64726177506C3E
:1005A00075734D61736B207C000A7C2053707269F7
:1005B000746573423A3A64726177506C75734D6139
:1005C000736B207C000A7C20537072697465733AE7
:1005D0003A64726177506C75734D61736B207C0067
:1005E0000A7C203C746420636F6C7370616E3D32D2
:1005F0003E2A4D61736B65642A3C2F74643E207CF7
:1006000000202D207C000A7C205370726974657371
:100610004142433A3A647261774261736963465872
:1006200020284D4F44455F4F564552575249544537
:1006300029207C000A7C20537072697465734142E2
:10064000433A3A6472617753697A65644658202860
:100650004D4F44455F4F5645525752495445292006
:100660007C000A7C20537072697465734142433A7E
:100670003A64726177465820284D4F44455F4F5683
:100680004552575249544529207C000A7C2053701A
:100690007269746573553A3A647261774F76657220
:1006A00077726974654658207C000A7C2046583A67
:1006B0003A647261774269746D6170202864626D7A
:1006C0004F766572777269746529207C000A7C20F8
:1006D00053707269746573553A3A647261774F76F4
:1006E00065727772697465207C000A7C2053707291
:1006F00069746573423A3A647261774F76657277CE
:1007000072697465207C000A7C205370726974657C
:10071000733A3A647261774F76657277726974657D
:10072000207C000A7C203C746420636F6C737061D1
:100730006E3D323E2A556E6D61736B65642A3C2FA7
:1007400074643E207C000A7C2D2D2D7C3A2D3A7C51
:100750003A2D3A7C3A2D3A7C3A2D3A7C002C2030C6
:1007600029206630207C000A0A7C204D6574686F61
:1007700064207C2028302C203029206630207C20EA
:1007800028302C203029206631207C2028302C2055
:100790003429206630207C2028000A0A23232320C5
:1007A00044696D656E73696F6E733A2000080B00C3
:1007B00002020200000904000001020200000524F8
:1007C000001001052401010104240206052406008D
:1007D000010705810310004009040100020A00001E
:1007E00000070502024000000705830240000004E4
:1007F00003090412010002EF020140412336800088
:10080000010102030141726475696E6F204C4C4313
:100810000041726475626F790000861C11241FBE4E
:10082000CFEFDAE0DEBFCDBF11E0A0E0B1E0E2EE55
:10083000FCE302C005900D92A833B107D9F725E07B
:10084000A8E3B1E001C01D92A83BB207E1F714E0B4
:10085000CEE0D4E004C02197FE010E94691ECD3095
:10086000D107C9F70E94EE1B0C946F1E0C94000078
:10087000FC0180915D05882311F13FB7F89482E077
:100880008093E9002091F200822F90E0181619065B
:1008900014F481E090E0882339F0289844E64093EE
:1008A0005C054091F1004083222339F02091F20051
:1008B000211103C02BE62093E8003FBF08958FEF7E
:1008C0009FEF08952FB7F89483E08093E90090910B
:1008D000E800892F807295FF04C09091F20080E4B7
:1008E000891B2FBF08958091540581110DC082E0AE
:1008F0008093500584E08093510510925305109227
:10090000520581E08093540580E595E0089540917B
:100910004201509143012091400130914101421721
:100920005307B4F49091E8009570E1F39091E800DA
:1009300092FD19C08093F100809142019091430192
:1009400001968F739927892B19F48EEF8093E80015
:1009500080914201909143010196909343018093CD
:10096000420181E0089580E00895EF92FF920F9395
:100970001F93CF93DF93F82E192FE62E042F81E0DB
:10098000860F880F0E94870483E00E948704CF2D82
:10099000D12FEC0EFD2EF11CCE15DF05B9F007FFAF
:1009A00013C0FE0184910E948704182F80E00E94EA
:1009B0008704812321968111EFCFDF91CF911F9181
:1009C0000F91FF90EF9008958881EDCF81E0F5CFF2
:1009D000DF92EF92FF920F931F93CF93DF93D82E66
:1009E0008A01EB017B01E40EF51ECE15DF0559F0FF
:1009F000D7FE12C0FE0184910E94870421968111C6
:100A0000F4CF0FEF1FEFC801DF91CF911F910F912E
:100A1000FF90EF90DF9008958881EECF0F931F93A2
:100A2000CF93DF931F92CDB7DEB782E0898342E494
:100A300050E06DEA77E080E80E94E8040E947304C9
:100A4000DC0112960D911C910115110589F0D80158
:100A5000ED91FC910280F381E02DBE016F5F7F4F2D
:100A6000C801099597FD04C0F80100851185ECCFF8
:100A700089810F90DF91CF911F910F91089561505F
:100A800030F02091F100FC0120830196F8CF2898E6
:100A900084E680935C050895CF93DF931F92CDB7D2
:100AA000DEB76983DC01ED91FC910280F381E02DDA
:100AB00041E050E0BE016F5F7F4F09950F90DF91DD
:100AC000CF9108950F931F93CF93DF938C01D0E0C4
:100AD000C0E0F801EC0FFD1F6491662341F08EE544
:100AE00095E00E944C05892B11F02196F2CFCE01A2
:100AF000DF91CF911F910F91089583E08093E900DA
:100B00008091F200882319F08AE38093E800089529
:100B10000E94620490E00895CF93DF931F92CDB7B7
:100B2000DEB7FC018485958597FD08C02FEF3FEF68
:100B3000358724870F90DF91CF910895CE010196DC
:100B40000E943804019719F4898190E0F3CF8FEF68
:100B50009FEFF0CF0F931F93CF93DF931F92CDB7EB
:100B6000DEB78C01FC018485958597FF0BC0CE0113
:100B700001960E943804019771F4898190E0F80190
:100B800095878487F801848595850F90DF91CF91B3
:100B90001F910F9108958FEF9FEFF1CFFC01848596
:100BA000958597FD0BC09FB7F89482E08093E9008C
:100BB0008091F2009FBF90E0019608959FB7F8944E
:100BC00082E08093E9008091F2009FBF90E0089559
:100BD0000DB407FEFDCF8EB5599A08950E94F30516
:100BE000982F0C94E8050DB407FEFDCF8EB51EBC02
:100BF00008950E94F305982F0C94F30559980E94CC
:100C00001407862F0E941407852F0E941407842F33
:100C10000C941407462F50913E01570F60913F01ED
:100C2000681F83E00E94FE051EBC08954F925F92EC
:100C30006F927F928F92AF92BF92CF92DF92EF929C
:100C4000FF920F931F93CF93DF93EC016B01390158
:100C5000842E842FB9010E940A060E94F905182FDC
:100C6000A82EB92E0E94EE052C0195012C0F3D1FD8
:100C7000121613060CF0C8C0C038D1050CF0C4C061
:100C80008C0D9D1D181619060CF0BEC0D7FF0AC0AA
:100C9000EE27FF27EC1BFD0B1E1B203831054CF007
:100CA00010E807C02138310514F010E81C1BF0E0F3
:100CB000E0E08134910514F4F42C03C080E4F82EB4
:100CC000FC18A201495F5F4F569547955695479589
:100CD00056954795049F9001059F300D112440E0E3
:100CE000B5010B2C000C880B0E945F1EA82FCB01B6
:100CF0008E0F9F1FA11DF7FDAA95EE2029F0880FEA
:100D0000991FAA1FAA0CBB1C24E0620E711C811C37
:100D1000680E791E8A1E41E0C1FC44E0C0FC440F0D
:100D2000C2FC4295EC0FFD1FE05BFE4F2F2D30E023
:100D3000599883E08EBD80913E0190913F01870DCF
:100D4000981D0DB407FEFDCF9EBD0DB407FEFDCF6F
:100D50008EBD0DB407FEFDCF6EBC6A0C7B1C811CE2
:100D60000DB407FEFDCF1EBCEE0C373014F4089412
:100D700040FD8894E79452E021FD58E022FD529511
:100D800020FF56955A9511F028300CF05FEF912F07
:100D90000EB41EBCE3FC0526852FE0FC802DE2FC92
:100DA0000024049EB001E4FA36F4C895C8951124D5
:100DB0000EB41EBCE0FC082E049E303034F080815E
:100DC000E1FE6827602168276083E058FF4FE7FE57
:100DD00006C08081E1FE7827712178277083112475
:100DE000E5FCE158E5FEEF57F1099A9589F6812F68
:100DF000E5FE81958058E80FF11D285033950DB41C
:100E0000599A12160CF494CFDF91CF911F910F9144
:100E1000FF90EF90DF90CF90BF90AF908F907F903A
:100E20006F905F904F9008958EBD00008EB50DB409
:100E300007FEFCCF0895FC010E94B607319728F009
:100E400068517C4F8F4F9F4FF9CFAB01FC010E943F
:100E5000B607641775078E079F07C8F3089585E0E6
:100E600090E00C941B078F929F92AF92BF92CF920B
:100E7000DF92EF92FF920F931F93CF93DF936C015A
:100E80007B018A0180910B01882309F45AC080916B
:100E90005D05882309F455C08091460180FF05C097
:100EA0008091E00082608093E000E801B12C8AEF3D
:100EB000A82E93E0892E2AE3922E209711F4BB20CE
:100EC000C9F10E946204811108C0AA94AA20C9F144
:100ED00081E090E00E941B07F0CF8C171D0611F0F7
:100EE0000CF08C2F9FB7F8948092E9002091E800D5
:100EF00025FD02C09FBFE1CF282F30E0C21BD30BDE
:100F0000F701815020F041914093F100FACFE20EB9
:100F1000F31EBB2021F09092E800B12CEBCF809122
:100F2000E80085FDE7CF9092E800BB24B3942097BA
:100F300009F3F3CF5D9884E68093450110161106FE
:100F40003CF081E090E0F6019383828310E000E0C2
:100F5000C801DF91CF911F910F91FF90EF90DF902B
:100F6000CF90BF90AF909F908F900895AAE3B1E08B
:100F70002FB7F8947D918D919C9166B52FBFA89B5A
:100F800005C06F3F18F47F5F8F4F9F4F22E0660FC1
:100F9000771F881F991F2A95D1F708952F923F92A6
:100FA0004F925F926F927F928F929F92AF92BF9279
:100FB000CF92DF92EF92FF920F931F93CF93DF9325
:100FC00000D000D000D0CDB7DEB7DC01A00FB11D3E
:100FD0001A161B060CF0CFC0803891050CF0CBC060
:100FE000FB01EE0DF11DEF2B09F4C5C041155105B4
:100FF00009F4C1C0262EEE27FF27E81BF90B97FD49
:1010000002C0F0E0E0E010E8D12ED81AA038B10517
:101010000CF4D02EDE1AB1E0AE2DA77009F4B0E0CA
:10102000E694E694E6943B2E3E0CB8E0B31510F43B
:10103000A8E03A2E8E0F9F1F73E0972EA1E0C910F3
:1010400001C0A2E0A9830D19B9810B9F002D1124C5
:10105000AB2EB12CAE9ED001AF9EB00DBE9EB00D9A
:1010600011247A01EA0EFB1E2115310509F49A01BB
:10107000F5013197AE0FBF1F2A0F3B1F66246A94FC
:10108000712C062E02C0660C771C0A94E2F760945D
:101090007094402F50E0DA01E981DE9EA00DB11D71
:1010A0001124BC83AB83512C531409F464C0AC01EC
:1010B000405B5E4F5E834D8310E000E0412C4D1499
:1010C00009F44FC0F701E00FF11FA491B0E0AD01AA
:1010D000062E02C0440F551F0A94E2F75A83498333
:1010E00052E0F301C51649F0ABEFCA122CC0E981FA
:1010F000FA81E095F0951A82198257FC09C0AD81FA
:10110000BE819C909E22B9819B2AAD81BE819C921A
:10111000222079F0B6E0B51564F08D809E8040E81D
:10112000840E911CD401EC91EF23BA81EB2BD401F6
:10113000EC9343940A0D1B1D4D815E814F5F5F4F01
:101140005E834D83BCCFF901E00FF11FE491F0E025
:10115000062E02C0EE0FFF1F0A94E2F7E095F0950D
:10116000CCCF5394AB81BC81EA0EFB1E2A0F3B1FF0
:1011700080589F4F99CF26960FB6F894DEBF0FBECA
:10118000CDBFDF91CF911F910F91FF90EF90DF9036
:10119000CF90BF90AF909F908F907F906F905F9017
:1011A0004F903F902F900895CF92EF920F9341155B
:1011B000510529F1FA0104913196E4904E5F5F4F99
:1011C0002223B9F0A1E0B0E02E2D277011F4B0E099
:1011D000A0E0EE2DE695E695E695EA0FFB2FF11DD2
:1011E0000E9F90010F9F300D1124220F331F420FCD
:1011F000531F23E0C22E30E020E00E94CE070F9163
:10120000EF90CF900895CF92EF920F934115510533
:1012100019F1FA0104913196E4904E5F5F4F222359
:10122000A9F0E1E0F0E03E2D377011F4F0E0E0E0ED
:101230002E2D2695269526952E0F3F2F311D029F88
:10124000F001039FF00D11244E0F5F1F22E0C22E0C
:1012500030E020E00E94CE070F91EF90CF900895EC
:101260006F927F928F929F92AF92BF92CF92DF92B6
:10127000EF92FF920F931F93CF93DF93D9012C2D01
:10128000C02FD0E06E01C80ED91E1C141D040CF036
:101290007DC1803891050CF079C1FB01EE0DF11D87
:1012A000EF2B09F473C14115510509F46FC1162FD5
:1012B000EE27FF27E81BF90B97FD02C0F0E0E0E006
:1012C00030E8C316D10414F000E8081B0E1BDD241F
:1012D000D3943E2D377009F4D12CE694E694E6942D
:1012E0003D2D3E0D393008F038E08E0F9F1F4E0F18
:1012F0005F1F233009F4FEC008F057C1213009F404
:10130000AFC0223009F042C1AFEFB0E0062E02C0FC
:10131000AA0FBB1F0A94E2F7A095B0959B2E20E080
:10132000321709F433C1FC01E05BFE4F7F01D12C81
:10133000C12CC01650F5FA01EC0DFD1DE491F0E052
:101340003F01062E02C0660C771C0A94E2F727FDC7
:1013500005C0F701B080BA22B628B082112371F01F
:10136000273064F45701F0E8AF0EB11CF50180801E
:10137000E82DE9218E2E8728F5018082FFEFCF1A14
:10138000DF0AEFEFEE1AFE0AD4CF2F5F4C0F5D1F7E
:1013900080589F4FC5CF2F5F4C0F5D1F80589F4FC8
:1013A000231709F4F3C0DC01A05BBE4FF12CE12C44
:1013B000E01688F7FA01EE0DFF1DE491F0E05F0101
:1013C000062E02C0AA0CBB1C0A94E2F727FD03C03C
:1013D000DC90DA28DC92112351F0273044F46D01BF
:1013E000F0E8CF0ED11CF601A080BA28B082FFEF42
:1013F000EF1AFF0A1196DCCF2F5F4C0F5D1F80584C
:101400009F4F231709F4C2C0DC01A05BBE4FF12C33
:10141000E12CE01688F7FA01EE0DFF1DE491F0E0F3
:101420005F01062E02C0AA0CBB1C0A94E2F727FD3E
:1014300005C0DC90CA2CC094DC20DC92112359F04A
:1014400027304CF46D01E0E8CE0ED11CB094F601CB
:10145000A080BA20B082FFEFEF1AFF0A1196D9CF11
:10146000AE0FBF1F20E0231709F490C0FC01E05B22
:10147000FE4F7F01D12CC12CC016A0F5FD01EC0D53
:10148000FD1DA490B12C062E02C0AA0CBB1C0A9410
:10149000E2F7A094B094FA01EC0DFD1D8490912C1C
:1014A000062E02C0880C991C0A94E2F727FD08C09A
:1014B000F7017080E72DEA217E2E7828F7017082EF
:1014C000112349F027303CF4F701E058FF4FA0808A
:1014D000BA20B928B082FFEFCF1ADF0AEFEFEE1A79
:1014E000FE0ACACF2F5F4C0F5D1FAC0FBD1F805887
:1014F0009F4FB9CFE02EF12CE40FF51F805B9E4F7C
:1015000040E850E04E195F09CE19DF09CC0FDD1F0E
:10151000A1E0B0E06D01062E01C0CC0C0A94EAF700
:10152000132F70E0702EDC019E01E62ECF93DF9327
:10153000ED01EF96EF9622968590A590EE2059F05A
:101540008C9C4001AC9C500177302CF4F880B09416
:10155000FB20F928F99277233AF0FC90A094FA2026
:10156000F828FD920C94B50A11960A9529F71A9558
:1015700051F0072D73951124E20FF11DA40FB11D39
:10158000C40FD11DD9CFDF91CF911124DF91CF911D
:101590001F910F91FF90EF90DF90CF90BF90AF9091
:1015A0009F908F907F906F9008952A3F21F02B3F5E
:1015B00069F720E026CF20E0F3CECF92EF920F9391
:1015C0004115510529F1FA0104913196E4904E5FDD
:1015D0005F4F2223B9F0A1E0B0E02E2D277011F467
:1015E000B0E0A0E0EE2DE695E695E695EA0FFB2F3C
:1015F000F11D0E9F90010F9F300D1124220F331FFC
:10160000420F531F23E0C22E30E020E00E94300939
:101610000F91EF90CF900895CF92EF920F934115D5
:10162000510519F1FA0104913196E4904E5F5F4F34
:101630002223A9F0E1E0F0E03E2D377011F4F0E054
:10164000E0E02E2D2695269526952E0F3F2F311D55
:10165000029FF001039FF00D11244E0F5F1F22E047
:10166000C22E30E020E00E9430090F91EF90CF9021
:1016700008958093F100082E000C990B08954F9265
:101680005F926F927F928F929F92AF92BF92CF9212
:10169000DF92EF92FF920F931F93CF93DF93370167
:1016A000802E803891050CF0C6C0A42FB0E0FD015B
:1016B000E80FF91F1E161F060CF0BDC0022F10E028
:1016C000F801E60FF71FEF2B09F4B5C0C114D104E0
:1016D000A1F0269526952695A0FC220F249FF001C7
:1016E000ED9D700C811CFC9D700C811CFD9D800C7F
:1016F000EC9D600C711C1124811C102F0027280107
:10170000442A5B2AD52DA0E5B1E0E82FCC24942C07
:10171000D695D695D695F1E061FDF4E060FDFF0F1A
:1017200062FDF29544274095542FA2FC05C01FEF9F
:101730001F9FA00140955095759567957595679584
:1017400075956795062F0F3F4CF40095D01BA0FCB4
:10175000000F049D600C711C8C1C0FEF97FF0BC0D9
:10176000980EA0FE02C0880F991F681A790A8C088B
:1017700097FD8394EE2710E801030E0EA00DB11D16
:101780001E1B911608F0912E17E0101B1D1714F464
:10179000D12FC39410E81919242D3327A1FC02C0BE
:1017A0002919330BA0FE02C0220F331F1124F12E82
:1017B000B02EDF2EA11050C0F3018D2F01158CF437
:1017C000A058BF4F992D65916D9D1C91152311292E
:1017D0001D939A95C1F711248A95A919B109E20FB1
:1017E000F31F8823E9F0CF93DF93ED01C058DF4F5B
:1017F000992D65916D9D1C91142310291D931881BD
:101800001523112919939A95A1F71124AF0DB11D34
:10181000CF0DD11DE20FF31F8A9551F7DF91CF91C4
:10182000CC2041F065916D9D1C91142310291D93CE
:101830009A94C1F71124DF91CF911F910F91FF90DE
:10184000EF90DF90CF90BF90AF909F908F907F9060
:101850006F905F904F90089501E0A01250C0F30187
:101860008D2FB114B4F4A058BF4F992D45916591B7
:101870004D9DA0016D9DB0011C9170951723152BF6
:101880001D939A9599F711248A95A919B109E20F28
:10189000F11D882319F1CF93DF93ED01C058DF4F7D
:1018A000992D459165914D9DA0016D9DB0011C91B3
:1018B00060951623142B1D93188170951723152BF3
:1018C00019939A9571F71124AF0DB11DCF0DD11D4C
:1018D000E20FF11D8A9521F7DF91CF91CC2069F0BD
:1018E000459165914D9DA0016D9DB0011C91609544
:1018F0001623142B1D939A9499F711249CCF63E01F
:1019000000903E01700C00903F01801C18C0599857
:101910006EBD620E731E811CEE24491409F0E3941F
:101920000CD08EBC07D07EBC05D06EBC03D01EBCD4
:1019300003D00895C8950000C895C8950895621A07
:10194000730A8108E4DFB1141CF0DD2371F564C073
:10195000A058BF4F792DA0FC0CC08EB51EBC8D9D2C
:101960001C91152311291D93C89500C07A95A9F7DC
:1019700011C08EB51EBC8D9DC001DEDF4EB51EBCF4
:101980004D9DA0011C9150951523192B1D93C895B1
:101990007A9579F71124A919B109DA9509F45CC08F
:1019A000EE2019F00DB4599AB2DFFD01E058FF4F57
:1019B000792DA0FC0EC08EB51EBC8D9D1C911423EC
:1019C00010291D9310811523112911937A9599F7E8
:1019D00016C08EB51EBC8D9DC0011C915081AEDF1E
:1019E00000C04EB51EBC4D9D00941021182B1D93B8
:1019F00010945121592B519300007A9551F71124DD
:101A0000AF0DB11DDA9561F6CC2031F1EE2021F059
:101A10000DB4599A7CDFC895A0FC0CC08EB51EBCD5
:101A20008D9D1C91142310291D93C89500C09A9474
:101A3000A9F712C08EB51EBC8D9DC0017DDFDEB53D
:101A40001EBCDD9DD02D1C91D0951D23182B1D9300
:101A5000C8959A9479F7C8951124599A0DB4EBCE8C
:101A60007F928F929F92AF92CF92DF92EF92FF92EE
:101A70000F931F93CF93DF93EC014B016901E42E89
:101A8000842FB9010E940A060E94F305782E0E9455
:101A9000E8054E2D96012E5F3F4F4F4F93E0A92E44
:101AA00068017901042F282F472DB401CE010E942F
:101AB0003F0BDF91CF911F910F91FF90EF90DF903F
:101AC000CF90AF909F908F907F9008957F928F924C
:101AD0009F92AF92CF92DF92EF92FF920F931F935C
:101AE000CF93DF93EC014B016901E42E842FB90100
:101AF0000E940A060E94F305782E0E94E8054E2DEA
:101B000096012E5F3F4F4F4F92E0A92E6801790159
:101B1000042F282F472DB401CE010E943F0BDF91E7
:101B2000CF911F910F91FF90EF90DF90CF90AF90EA
:101B30009F908F907F900895AF92CF92DF92EF9217
:101B4000FF920F936901FA01459125917F01FF0FE3
:101B5000000BAA24A3940E943F0B0F91FF90EF90DB
:101B6000DF90CF90AF900895AF92CF92DF92EF9237
:101B7000FF920F936901FA01459125917F01FF0FB3
:101B8000000BA12C0E943F0B0F91FF90EF90DF9074
:101B9000CF90AF900895803891057CF46034710542
:101BA00064F4DC01A40FB11D1A161B0634F4DB012A
:101BB000A20FB11D1A161B060CF008952F923F922A
:101BC0004F925F926F927F928F929F92BF92EF920D
:101BD000FF920F931F93382E2224842E322F369596
:101BE00036953695599853E05EBDFB01F595E7951E
:101BF000F595E795F595E7951E2F1F3F4CF4109549
:101C0000311BC0FC110F149FE00CF11C021D1FEFD3
:101C100000903E01F00C00903F01001D97FF0BC0AB
:101C2000880EC0FE02C0880F991FE81AF90A02093F
:101C300097FD039533240EBDA0E5B1E050E81503F0
:101C4000030CA00DB11D5319851608F0852EE7E091
:101C5000E11BE31714F43E2F2394FEBCE0E8E819DF
:101C60004E2E51E061FD54E060FD550F62FD52952E
:101C7000552EEFEFE59D300160947094EEBC112479
:101C80006FB724D01EBCBB24481509F0B39422C002
:101C90005998E3E0EEBD1124E40EF11C011DC0FCD7
:101CA000E40EC0FCF11CC0FC011DBB24481509F06A
:101CB000B394C8950EBD08D0FEBC06D0EEBC05D0CE
:101CC0001EBC00C000C00895000000C00000C89500
:101CD000C8950895C1FCF4C0C2FCA6C011151CF043
:101CE000332391F57CC0A058BF4F582DC0FC0DC0C8
:101CF000F8941EBC8EB56FBF859D9C90972091284F
:101D00009D9200C05A95A1F714C0F8941EBC8EB5E0
:101D10006FBF859DC001DCDFF8941EBC6EB46FBF41
:101D2000659C30019C9070949720992A9D925A95B9
:101D300061F71124A819B1093A9509F410C1BB2023
:101D400019F00DB4599AA4DFFD01E058FF4F582D4A
:101D5000C0FC1FC0569518F453959C900CC08EB5CE
:101D60001EBC859D9C90962090289D9290809720E7
:101D7000912891929C908EB51EBC859D96209028AE
:101D80009D92908097209128919200005A9539F762
:101D900016C0F8941EBC8EB56FBF859DC0019C9087
:101DA000708097DF6EB41EBC659C00949020982ACA
:101DB0009D9210947120792A71925A9551F71124AD
:101DC000A40DB11D3A9509F0BACF222009F4C7C07D
:101DD000BB2029F00DB4599A5BDF00C0C895C0FC48
:101DE0000DC0F8941EBC8EB56FBF859D9C9096204B
:101DF00090289D9200C08A94A1F7B1C0F8941EBCAF
:101E00008EB56FBF859DC00163DFF8941EBC3EB5E3
:101E10006FBF359D302D9C9030959322982A9D92CE
:101E20008A9461F700009BC011151CF03323E1F484
:101E30003BC0A058BF4F582DF8941EBC8EB56FBF45
:101E4000859D9C9091289D92C8955A95A9F711243B
:101E5000A819B1093A9509F482C0BB2029F00DB444
:101E6000599A16DF00C000C0FD01E058FF4F582D01
:101E70008EB51EBC859D9C9090289D929080912847
:101E8000919200005A95A1F71124A40DB11D3A9525
:101E900021F7222009F463C0BB2031F00DB4599A18
:101EA000F7DE00C000C0C895F8941EBC8EB56FBFA9
:101EB000859D9C9090289D92C8958A94A9F74FC0C3
:101EC00011151CF03323F1F43DC0A058BF4F582D1D
:101ED000F8941EBC8EB56FBF859D009410949C90A5
:101EE00091209D9200005A9599F71124A819B109E3
:101EF0003A9509F434C0BB2029F00DB4599AC8DED4
:101F000000C000C0FD01E058FF4F582D8EB51EBC2B
:101F1000859D009410949C9090209D92908091209B
:101F200091925A9599F71124A40DB11D3A9519F77C
:101F3000222009F414C0BB2021F00DB4599AA8DE68
:101F400000C000C0F8941EBC8EB56FBF859D009484
:101F500010949C9090209D9200008A9499F71124EF
:101F6000599A0DB41F910F91FF90EF90BF909F90E1
:101F70008F907F906F905F904F903F902F9008953B
:101F80000895EF92FF920F93022E06940694069402
:101F9000C0FC000C049EF001EA9DE00CF11CFA9DCF
:101FA000F00C011DEB9DF00C011DFB9D000D11249B
:101FB0000E94CB0D0F91FF90EF900895AF92BF92CA
:101FC000CF92EF925998E3E0EEBDFF920F93570145
:101FD000C02E7901042FE2E0EE0EF11C011D0090ED
:101FE0003E01300D00903F01401D4EBD14D03EBD5E
:101FF00012D02EBD11D01EBC0FD04EB51EBC0CD0C1
:102000002EB5599A0E94C10F0F91FF90EF90CF907B
:10201000BF90AF9008950000C89500C0C89500001B
:10202000089508958F929F92AF92BF920F931F933E
:10203000CF93DF93CDB7DEB7A1970FB6F894DEBF8D
:102040000FBECDBF19A2423008F44AE08E010F5DE9
:102050001F4F842E912CB12CA12CA50194010E941C
:102060002E1EE62FB901CA01EA3044F5E05DD80121
:10207000EE938D01232B242B252B79F790E080E024
:10208000109769F0FD0101900020E9F73197AF0149
:102090004A1B5B0BBD018EE595E00E943307A196BC
:1020A0000FB6F894DEBF0FBECDBFDF91CF911F9169
:1020B0000F91BF90AF909F908F900895E95CD7CF1C
:1020C000CF92DF92EF92FF92CF93DF936C01092EB4
:1020D000000CEE08FF0897FF19C06DE28EE595E051
:1020E0000E944C05EC0166277727CB016C197D090E
:1020F0008E099F094AE00E9412108C0F9D1FDF91EC
:10210000CF91FF90EF90DF90CF9008954AE0C70104
:10211000B601DF91CF91FF90EF90DF90CF900C94BC
:1021200012102F923F924F925F926F927F928F92F6
:102130009F92AF92BF92CF92DF92EF92FF920F9356
:102140001F93CF93DF93CDB7DEB7CA5BD1090FB62C
:10215000F894DEBF0FBECDBF81EC80937C0081EF91
:1021600085B987EE84B982E38BB982EF8AB9769A12
:102170006E9880EF81BB10BA80E58CBD81E08DBD8B
:102180000E942F075F9A0E942F075C98ECEAF0E00C
:1021900085918EBD00000DB407FEFDCFE93BC1F770
:1021A0005C9A81E88093640081E0809365005E9A88
:1021B000E4E1F0E08CEF9FEF259135915591459149
:1021C0002851354909F4CA0180933E0190933F019B
:1021D00059988BEA0E941407599A8FEF9FEF9093BA
:1021E0006B0580936A0570E060E089E39BE00E94E4
:1021F0009B1C86E0E2E1F1E0DE01A258BF4F0190B6
:102200000D928A95E1F786E0E8E1F1E0DE01AC5756
:10221000BF4F01900D928A95E1F79E0122583F4FE2
:10222000C556DF4F39832883CB59D040CE018C5718
:102230009F4FC756DF4F99838883C959D040FE010D
:10224000EF58FF4FC157DF4FF983E883CF58D04095
:102250002A513109CD56DF4F39832883C359D040E5
:102260008D97CB56DF4F99838883C559D040E15471
:10227000F109C156DF4FF983E883CF59D0402A5185
:102280003109C956DF4F39832883C759D0404A974F
:10229000CD55DF4F99838883C35AD0403F97CB55A4
:1022A000DF4FF983E883C55AD04028533109C95517
:1022B000DF4F39832883C75AD040CA97CF55DF4FA5
:1022C00099838883C15AD040E7E0F0E0C356DF4FDE
:1022D000F983E883CD59D040412C512C612C80E802
:1022E00090E0A0E0C457DF4F88839983AA83CC583D
:1022F000D040CF56DF4F19821882C159D040C15704
:10230000DF4F9881CF58D040CD54DF4F9883C35BC7
:10231000D040C057DF4FA881C059D040CC54DF4FC8
:10232000A883C45BD040C556DF4FD880CB59D0407E
:10233000C456DF4F7880CC59D040C756DF4FE88174
:10234000C959D040C657DF4FE883CA58D040C65657
:10235000DF4FF881CA59D040C557DF4FF883CB58BB
:10236000D040C157DF4F28813981CF58D040295FF5
:102370003F4FC555DF4F39832883CB5AD040CD56C8
:10238000DF4F3881C359D040CB54DF4F3883C55B12
:10239000D040CC56DF4F8881C459D040CA54DF4F5B
:1023A0008883C65BD040CD56DF4FE881F981C359A1
:1023B000D0403796C355DF4FF983E883CD5AD040DC
:1023C000CB56DF4FF881C559D040C954DF4FF88351
:1023D000C75BD040CA56DF4F2881C659D040C85489
:1023E000DF4F2883C85BD040CB56DF4F888199816F
:1023F000C559D0400796C155DF4F99838883CF5A7E
:10240000D040C956DF4F9881C759D040C754DF4FDD
:102410009883C95BD040C856DF4FA881C859D040C7
:10242000C654DF4FA883CA5BD040C956DF4FE8814E
:10243000F981C759D0403796CF54DF4FF983E883ED
:10244000C15BD040C556DF4FE881F981CB59D04000
:10245000A190C556DF4FF983E883CB59D040B12C0A
:102460001501359427943194219431088AE997E035
:102470000E946205C5010E94601068E78EE595E044
:102480000E944C05C756DF4FE881F981C959D040F9
:102490008191C756DF4FF983E883C959D04090E056
:1024A0000E94601087E697E00E946205C1010E94C9
:1024B00060108DE597E00E94620586E497E00E9437
:1024C000620583E297E00E94620587E097E00E9440
:1024D00062051FB7F8949895CF56DF4F8881998190
:1024E000C159D040880F991F9C0127543F4F490183
:1024F00020E0A40170E060E090E080E00E940C0B1E
:1025000098951FBF1FB7F894989521E0A40170E03B
:1025100060E090E080E00E940C0B98951FBF1FB711
:10252000F894989520E0A40164E070E090E080E0E9
:102530000E940C0B98951FBF1FB7F894989520E048
:10254000A40170E060E0C1010E940C0B98951FBFD0
:102550008AEE96E00E9462051FB7F894989520E0F5
:10256000A40170E060E090E080E00E94030998958B
:102570001FBF1FB7F894989521E0A40170E060E0B8
:1025800090E080E00E94030998951FBF1FB7F89460
:10259000989520E0A40164E070E090E080E00E9463
:1025A000030998951FBF1FB7F894989520E0A401E0
:1025B00070E060E0C1010E94030998951FBF8DEC97
:1025C00096E00E9462051FB7F894989530E020E0ED
:1025D000A40170E060E090E080E00E94B40D989566
:1025E0001FBF1FB7F894989521E030E0A40170E078
:1025F00060E090E080E00E94B40D98951FBF1FB787
:10260000F894989530E020E0A40164E070E090E058
:1026100080E00E94B40D98951FBF1FB7F89498955D
:1026200030E020E0A40170E060E0C1010E94B40D40
:1026300098951FBF8AEA96E00E9462051FB7F8943A
:102640009895E12C00E0C457DF4F288139814A81F9
:10265000CC58D04070E060E090E080E00E94160628
:1026600098951FBF1FB7F894989501E0C457DF4FA6
:10267000288139814A81CC58D04070E060E090E0F8
:1026800080E00E94160698951FBF1FB7F894989592
:1026900000E0C457DF4F288139814A81CC58D040AF
:1026A00064E070E090E080E00E94160698951FBFFD
:1026B0001FB7F8949895C457DF4F288139814A8114
:1026C000CC58D04070E060E0C1010E941606989599
:1026D0001FBF8BE896E00E946205BFB6F8949895FC
:1026E00010E000E0462D920170E060E090E080E0B4
:1026F0000E94660D9895BFBEBFB6F894989501E00C
:1027000010E0462D920170E060E090E080E00E94D1
:10271000660D9895BFBEBFB6F894989510E000E09E
:10272000462D920164E070E090E080E00E94660D2A
:102730009895BFBEBFB6F8949895462D920170E06B
:1027400060E0C1010E94660D9895BFBE82E696E0EA
:102750000E9462051FB7F8949895F12CE12C462D44
:10276000920170E060E090E080E00E94DE0F9895BA
:102770001FBF1FB7F8949895EE24E394F12C462DD3
:10278000920170E060E090E080E00E94DE0F98959A
:102790001FBF1FB7F8949895F12CE12C462D92019C
:1027A00064E070E090E080E00E94DE0F98951FBF2B
:1027B0001FB7F8949895462D920170E060E0C10132
:1027C0000E94DE0F98951FBF84E396E00E94620589
:1027D00086E0ED2DF72DCD54DF4FA881C35BD040AF
:1027E000CC54DF4FB881C45BD04001900D928A95E4
:1027F000E1F786E0C657DF4FE881CA58D040C55799
:10280000DF4FF881CB58D040C555DF4FA881B98143
:10281000CB5AD04001900D928A95E1F71FB7F894FA
:102820009895C157DF4FE881F981CF58D040B12C3E
:10283000A12CC12C02E0E02EF12C00E02781CF0179
:102840000196C157DF4F99838883CF58D04040818C
:1028500070E060E090E080E00E94C10F98951FBF9B
:1028600086E0ED2DF72DCB54DF4FA881C55BD0401E
:10287000CA54DF4FB881C65BD04001900D928A9553
:10288000E1F786E0C657DF4FE881CA58D040C55708
:10289000DF4FF881CB58D040C355DF4FA881B981B5
:1028A000CD5AD04001900D928A95E1F71FB7F89468
:1028B0009895CD56DF4FE881F981C359D040AA24BD
:1028C000A394B12C2781CF010196CD56DF4F998378
:1028D0008883C359D040408170E060E090E080E0A0
:1028E0000E94C10F98951FBF86E0ED2DF72DC954AA
:1028F000DF4FA881C75BD040C854DF4FB881C85BA9
:10290000D04001900D928A95E1F786E0C657DF4FDF
:10291000E881CA58D040C557DF4FF881CB58D04026
:10292000C155DF4FA881B981CF5AD04001900D9297
:102930008A95E1F71FB7F8949895CB56DF4FE88159
:10294000F981C559D040B12CA12C2781CF01019626
:10295000CB56DF4F99838883C559D040408164E0CE
:1029600070E090E080E00E94C10F98951FBF86E064
:10297000ED2DF72DDE01D09601900D928A95E1F7AD
:1029800086E0C657DF4FE881CA58D040C557DF4FB1
:10299000F881CB58D040DE01D79601900D928A95F0
:1029A000E1F71FB7F8949895C156DF4FE881F98198
:1029B000CF59D0402781CF010196C156DF4F99836F
:1029C0008883CF59D040408170E060E0C1010E940F
:1029D000C10F98951FBF86E096E00E94620586E0D1
:1029E000ED2DF72DC754DF4FA881C95BD040C654E9
:1029F000DF4FB881CA5BD04001900D928A95E1F714
:102A000086E0C657DF4FE881CA58D040C557DF4F30
:102A1000F881CB58D040CF54DF4FA881B981C15B3A
:102A2000D04001900D928A95E1F71FB7F8949895E0
:102A3000C956DF4FE881F981C759D0402781CF01BE
:102A40000196C956DF4F99838883C759D04040818A
:102A500070E060E090E080E00E94CB0D98951FBF91
:102A600081E096E00E94620586E0ED2DF72DDE0103
:102A7000DD9601900D928A95E1F786E0C657DF4F0B
:102A8000E881CA58D040C557DF4FF881CB58D040B5
:102A9000DE01AC5BBF4F01900D928A95E1F71FB745
:102AA000F8949895CD55DF4FE881F981C35AD0400D
:102AB0002781CF010196CD55DF4F99838883C35A73
:102AC000D040408164E070E090E080E00E94CB0D57
:102AD00098951FBF86E0ED2DF72DDE0191960190B0
:102AE0000D928A95E1F786E0C657DF4FE881CA5814
:102AF000D040C557DF4FF881CB58D040DE019896C3
:102B000001900D928A95E1F71FB7F8949895CB55EF
:102B1000DF4FE881F981C55AD0402781CF01019666
:102B2000CB55DF4F99838883C55AD040408170E0F0
:102B300060E0C1010E94CB0D98951FBF80EE95E02B
:102B40000E94620585EC95E00E9462051FB7F8942B
:102B5000989520E0A40170E060E090E080E00E94A1
:102B6000DD0A98951FBF1FB7F894989521E0A4013E
:102B700070E060E090E080E00E94DD0A98951FBF61
:102B80001FB7F894989520E0A40164E070E090E00D
:102B900080E00E94DD0A98951FBF1FB7F8949895B2
:102BA00020E0A40170E060E0C1010E94DD0A989578
:102BB0001FBF89EA95E00E9462051FB7F8949895B7
:102BC00020E0A40170E060E090E080E00E94D40882
:102BD00098951FBF1FB7F894989521E0A40170E065
:102BE00060E090E080E00E94D40898951FBF1FB776
:102BF000F894989520E0A40164E070E090E080E013
:102C00000E94D40898951FBF1FB7F894989520E0AC
:102C1000A40170E060E0C1010E94D40898951FBF34
:102C20008DE895E00E9462051FB7F894989530E012
:102C300020E0A40170E060E090E080E00E949C0D44
:102C400098951FBF1FB7F894989521E030E0A40134
:102C500070E060E090E080E00E949C0D98951FBFBE
:102C60001FB7F894989530E020E0A40164E070E08C
:102C700090E080E00E949C0D98951FBF1FB7F894CC
:102C8000989530E020E0A40170E060E0C1010E946E
:102C90009C0D98951FBF8DE695E00E9462051FB7B9
:102CA000F894989560E1E62E00E0C457DF4F288144
:102CB00039814A81CC58D04070E060E090E080E0FB
:102CC0000E94160698951FBF1FB7F894989501E0CB
:102CD000C457DF4F288139814A81CC58D04070E0F9
:102CE00060E090E080E00E94160698951FBF1FB735
:102CF000F894989500E0C457DF4F288139814A81C4
:102D0000CC58D04064E070E090E080E00E9416066D
:102D100098951FBF1FB7F8949895C457DF4F288127
:102D200039814A81CC58D04070E060E0C1010E94F6
:102D3000160698951FBF8FE495E00E946205BFB606
:102D4000F894989510E000E0462D920170E060E064
:102D500090E080E00E94300D9895BFBEBFB6F89419
:102D6000989501E010E0462D920170E060E090E05F
:102D700080E00E94300D9895BFBEBFB6F89498953C
:102D800010E000E0462D920164E070E090E080E009
:102D90000E94300D9895BFBEBFB6F8949895462D09
:102DA000920170E060E0C1010E94300D9895BFBEB5
:102DB00087E295E00E9462051FB7F8949895F12C80
:102DC000E12C01E0462D920170E060E090E080E0AF
:102DD0000E94DE0F98951FBF1FB7F8949895EE24B8
:102DE000E394F12C462D920170E060E090E080E0E9
:102DF0000E94DE0F98951FBF1FB7F8949895F12C8D
:102E0000E12C462D920164E070E090E080E00E94A9
:102E1000DE0F98951FBF1FB7F8949895462D920125
:102E200070E060E0C1010E94DE0F98951FBF8AEF3D
:102E300094E00E94620586E0ED2DF72DDE015F969D
:102E400001900D928A95E1F786E0C657DF4FE88141
:102E5000CA58D040C557DF4FF881CB58D040DE016B
:102E6000969601900D928A95E1F71FB7F894989580
:102E7000EFE18E2E912C8C0E9D1EC356DF4FE88104
:102E8000F981CD59D0408E0E9F1E2FE130E02C0FDE
:102E90003D1FCF56DF4F88819981C159D040280FFF
:102EA000391FC755DF4F39832883C95AD040B12C09
:102EB000A12CCC24C39402E0E02EF12C00E0F4011C
:102EC0002081C755DF4FE881F981C95AD040408140
:102ED00070E060E090E080E00E94C10F98951FBF15
:102EE00086E0ED2DF72DDE015F9601900D928A951B
:102EF000E1F786E0C657DF4FE881CA58D040C55792
:102F0000DF4FF881CB58D040DE01969601900D92AC
:102F10008A95E1F71FB7F8949895AA24A394B12C49
:102F2000F4012081C755DF4FE881F981C95AD040AB
:102F3000408170E060E090E080E00E94C10F9895D1
:102F40001FBF86E0ED2DF72DDE015F9601900D92FB
:102F50008A95E1F786E0C657DF4FE881CA58D0402E
:102F6000C557DF4FF881CB58D040DE0196960190CF
:102F70000D928A95E1F71FB7F8949895B12CA12C82
:102F8000F4012081C755DF4FE881F981C95AD0404B
:102F9000408164E070E090E080E00E94C10F98956D
:102FA0001FBF86E0ED2DF72DDE01529601900D92A8
:102FB0008A95E1F786E0C657DF4FE881CA58D040CE
:102FC000C557DF4FF881CB58D040DE0159960190AC
:102FD0000D928A95E1F71FB7F8949895C955DF4F80
:102FE000E881F981C75AD0402781CF010196C955A0
:102FF000DF4F99838883C75AD040408170E060E0FA
:10300000C1010E94C10F98951FBF8DEC94E00E94F2
:10301000620586E0ED2DF72DDE01509601900D92B0
:103020008A95E1F786E0C657DF4FE881CA58D0405D
:10303000C557DF4FF881CB58D040DE01579601903D
:103040000D928A95E1F71FB7F8949895B0E1AB2EF1
:10305000B12CAC0EBD1EC356DF4FE881F981CD59AE
:10306000D040AE0EBF1E80E1882E912C8C0E9D1E8E
:10307000CF56DF4F28813981C159D040820E931E2F
:10308000F5012081F401408170E060E090E080E093
:103090000E94CB0D98951FBF88EC94E00E946205BA
:1030A00086E0ED2DF72DDE01509601900D928A9568
:1030B000E1F786E0C657DF4FE881CA58D040C557D0
:1030C000DF4FF881CB58D040DE01579601900D922A
:1030D0008A95E1F71FB7F8949895F5012081F401DE
:1030E000408164E070E090E080E00E94CB0D989514
:1030F0001FBF86E0ED2DF72DDE01139601900D9296
:103100008A95E1F786E0C657DF4FE881CA58D0407C
:10311000C557DF4FF881CB58D040DE011A96019099
:103120000D928A95E1F71FB7F8949895CF55DF4F28
:10313000E881F981C15AD0402781CF010196CF554E
:10314000DF4F99838883C15AD040408170E060E0AE
:10315000C1010E94CB0D98951FBFCF56DF4FE8816C
:10316000F981C159D0403196CF56DF4FF983E883BA
:10317000C159D040C457DF4F88819981AA81CC586A
:10318000D0400496A11DC457DF4F88839983AA833A
:10319000CC58D04092E0490E511C611CC356DF4F01
:1031A000E881F981CD59D0403196C356DF4FF9837C
:1031B000E883CD59D040CF56DF4F28813981C1599E
:1031C000D0402630310511F00C94221285EC94E0A9
:1031D000C654DF4F0FB6F894DEBF0FBECDBFDF91F0
:1031E000CF911F910F91FF90EF90DF90CF90BF9004
:1031F000AF909F908F907F906F905F904F903F9097
:103200002F900C9462051F920F920FB60F9211240B
:103210008F939F938091E1009091E100937F909331
:10322000E10083FF0FC01092E90091E09093EB0062
:103230001092EC0092E39093ED0010925D0598E0FF
:103240009093F00082FF22C093E09093E900909168
:10325000F200992319F09AE39093E80090914501C8
:10326000992341F09091450191509093450191111E
:1032700001C05D9A90915C05992341F090915C05A5
:10328000915090935C05911101C0289A84FF18C059
:103290008091E2008E7E81608093E2008091E10067
:1032A0008F7E8093E100809146018E7E80618093C5
:1032B00046019F918F910F900FBE0F901F90189510
:1032C00080FFF7CF8091E2008E7E80618093E200E4
:1032D0008091E1008E7E8093E100809146018E7E98
:1032E0008160E5CF1F920F920FB60F921124CF92FB
:1032F000DF92EF92FF920F931F932F933F934F9381
:103300005F936F937F938F939F93AF93BF93EF934D
:10331000FF93CF93DF93CDB7DEB76C97DEBFCDBF02
:103320001092E9008091E80083FF25C068E0CE019B
:1033300045960E943F0582EF8093E8008D8987FFC4
:1033400039C09091E80090FFFCCF982F907609F05B
:1033500034C19E894F89588D2F89F88C911131C0C5
:10336000803861F5809147018093F1001092F1005F
:103370008EEF8093E8006C960FB6F894DEBF0FBE18
:10338000CDBFDF91CF91FF91EF91BF91AF919F9111
:103390008F917F916F915F914F913F912F911F91ED
:1033A0000F91FF90EF90DF90CF900F900FBE0F9096
:1033B0001F9018959EEF9093E800C7CF1092F100F0
:1033C000D5CF913059F48111D3CF4130510581F6D9
:1033D000809147018D7F80934701CACF933049F494
:1033E0008111C6CF4130510519F6809147018260A5
:1033F000F2CF953041F48091E80080FFFCCF206847
:103400002093E300B5CF963009F0A9C00B8D1C8D39
:1034100022E01092E9001092430110924201F21250
:103420002EC010924101109240010E940E051F8291
:1034300099E09983FA8291E09E8390EA98879AEFC7
:1034400099872091420130914301275F3F4F3C8390
:103450002B838D831092E900109243011092420158
:10346000109341010093400149E050E0BE016F5FBD
:103470007F4F80E00E94E8040E940E0579CF1093F0
:103480004101009340010E947304DC0112960D91EA
:103490001C910115110509F451C1D801ED91FC9160
:1034A0000480F581E02DBE016B5E7F4FC801099558
:1034B000009709F03EC1F80100851185EACFF3E0DD
:1034C000FF120EC08F89882309F440C0823061F456
:1034D00040E867E081E198E00E94B504811148CF9F
:1034E00081E28093EB0047CF813029F440E86BE024
:1034F00085E098E0F1CF833099F70E947304DC01F6
:103500001296ED90FC908E010F5F1F4F6801E11441
:10351000F10479F0D701ED91FC910680F781E02D5F
:10352000B801C7010995080F111DF701E084F18466
:10353000EECFD8011C92F60101900020E9F73197F7
:10354000BF016C197D0940E0C601C6CF6FEE77E080
:10355000FB01449150E080E80E94E80409CF9730D5
:1035600009F4BECF983021F481E08093F10000CFC0
:10357000993009F0FDCE837009F0B2CFE1E3F1E0BC
:1035800081E031E096E32191222371F08093E900FC
:103590003093EB00DF0111972C912093EC00909376
:1035A000ED008F5F873079F78EE78093EA00109205
:1035B000EA008F8980935D05DBCE8B8D9C8D109208
:1035C000E9001092430110924201909341018093CF
:1035D0004001898D811192C08E899D89913A49F46B
:1035E000813209F07DCF47E050E064E071E080E097
:1035F000B3CF913209F074CF833269F48F89988DFB
:10360000B0E0A0E08093000190930101A09302013B
:10361000B0930301ADCE803269F48091E80082FF5F
:10362000FCCF67E084E091E00E943F058BEF809340
:10363000E8009ECE823209F09BCE8F8980930B01E9
:10364000EEEFFFE7859194918B3F9C4D51F1E0E0C7
:10365000F8E08091040190910501A0910601B091DC
:103660000701803B9440A105B105F1F480910B0165
:1036700080FD1AC0EE3F8AE0F80789F587E797E7F3
:1036800091838083809160008093440188E19BE076
:103690000FB6F894A895809360000FBE90936000D9
:1036A00067CEEEEFFAE0D5CF8081918187379747DB
:1036B00009F05ECEA89580916000886180936000DB
:1036C0008091440180936000EE3F2AE0F20789F088
:1036D0008091FE0A9091FF0A9183808349CE808178
:1036E00091818737980751F29093FF0A8093FE0AE1
:1036F000C5CF1092FF0A1092FE0A3ACE0E947304C0
:10370000DC0112960D911C910115110509F4E8CE0A
:10371000D801ED91FC910190F081E02DBE016B5E2E
:103720007F4FC8010995811123CEF80100851185CD
:10373000EBCF181619060CF41BCED2CEF1E0FF1217
:10374000BECE63EF77E004CF0F920FB68F939F93B7
:10375000EF93FF93809139018D5F8D3708F08D577E
:1037600080933901ECE4F1E080818E4F8083918178
:103770009F4F918382818F4F828383818F4F838379
:10378000EAE3F1E080818F5F808381818F4F8183C5
:1037900082818F4F828383818F4F83838FB18F602C
:1037A00066991C9B88278F3681F480913801981B7D
:1037B000963068F0E0E0F8E087E78083818388E175
:1037C00080936000F0936000FFCF90933801FF91E9
:1037D000EF919F918F910FBE0F901895789483E091
:1037E00084BD83E085BD81E080936E00E1E8F0E078
:1037F00083E08083E0E881E08083E1E983E0808307
:10380000E0E981E08083E1EC87E08083E3EC81E024
:103810008083E0EC82E08083E2EC81E08083EAE771
:1038200087E080838068808310925D051092470155
:10383000109246018091D70081608093D70080EA82
:103840008093D80089B5806189BD89B5826089BDC2
:1038500009B400FEFDCF81E090E00E941B0780913B
:10386000D8008F7C80618093D8008091E000807FB9
:103870008093E0008091E1008E7E8093E1008DE0F6
:103880008093E200559A209A0E949110C1E088E44A
:10389000E82E81E0F82E90E5C92E91E0D92E00E0C7
:1038A00010E0D1E080914A01882341F010924A0152
:1038B00001151105B9F30E940000F4CF80914C016D
:1038C00090914B01282F291B203130F42F3081F3A8
:1038D000C3BF889513BEECCFD0934A0180934B01B0
:1038E000F701808191810196808391835E98F60132
:1038F00080E098E000800EBCC111012C019780FD92
:10390000FDCF0192B9F70DB45E9AD2CFEEE5F5E0A6
:103910001382128288EE93E0A0E0B0E08483958366
:10392000A683B78382E291E0918380838FEF9FEF3C
:103930009587848708950F931F93CF93DF93009704
:1039400059F46115710541F4F0E0E0E0CF01DF9139
:10395000CF911F910F9108958B01EC016EE070E003
:1039600081E090E00E94E61CFC01892B69F380E86D
:1039700083830115110571F01387028781E8838322
:103980008091AE059091AF05892B21F4F093AF059E
:10399000E093AE052097D1F2D187C0878381826002
:1039A00083838091B0059091B105892B79F6F093CE
:1039B000B105E093B0058091B2059091B305892BD4
:1039C00029F6F093B305E093B205C0CF0F931F9390
:1039D000CF93DF93869F8001879F100D969F100DD8
:1039E0001124C8010E94021DEC01009729F0A801D2
:1039F00070E060E00E94271ECE01DF91CF911F9101
:103A00000F9108950F931F93CF93DF938230910509
:103A100010F482E090E0E091B605F091B70530E057
:103A200020E0B0E0A0E0309799F42115310509F4C9
:103A30004AC0281B390B24303105D8F58A819B8177
:103A40006115710589F1FB0193838283FE0111C029
:103A5000408151810281138148175907E0F04817CE
:103A6000590799F4109761F012960C9312971396D8
:103A70001C933296CF01DF91CF911F910F91089542
:103A80000093B6051093B705F4CF2115310551F019
:103A90004217530738F0A901DB019A01BD01DF018C
:103AA000F801C1CFEF01F9CF9093B7058093B60528
:103AB000CDCFFE01E20FF31F819391932250310984
:103AC00039832883D7CF2091B4053091B505232BB6
:103AD00041F420910E0130910F013093B5052093F0
:103AE000B40520910C0130910D012115310541F4EF
:103AF0002DB73EB74091100150911101241B350B99
:103B0000E091B405F091B505E217F307A0F42E1B80
:103B10003F0B2817390778F0AC014E5F5F4F241731
:103B2000350748F04E0F5F1F5093B5054093B4051D
:103B3000819391939FCFF0E0E0E09CCFCF93DF9310
:103B40000097E9F0FC01329713821282A091B6052A
:103B5000B091B705ED0130E020E01097A1F420818D
:103B60003181820F931F2091B4053091B50528173C
:103B7000390709F061C0F093B505E093B405DF9112
:103B8000CF910895EA01CE17DF07E8F54A815B81FE
:103B90009E0141155105B1F7E901FB83EA83499183
:103BA0005991C40FD51FEC17FD0761F480819181F5
:103BB0000296840F951FE9019983888382819381FE
:103BC0009B838A83F0E0E0E012968D919C9113979D
:103BD0000097B9F52D913C911197CD010296820F76
:103BE000931F2091B4053091B5052817390739F690
:103BF000309751F51092B7051092B605B093B50500
:103C0000A093B405BCCFD383C28340815181840F7C
:103C1000951FC817D90761F44E5F5F4F888199815E
:103C2000480F591F518340838A819B8193838283EC
:103C30002115310509F0B0CFF093B705E093B60533
:103C40009ECFFD01DC01C0CF13821282D7CFDC01F1
:103C500001C06D9341505040E0F70895A1E21A2E43
:103C6000AA1BBB1BFD010DC0AA1FBB1FEE1FFF1F20
:103C7000A217B307E407F50720F0A21BB30BE40B70
:103C8000F50B661F771F881F991F1A9469F76095B7
:103C90007095809590959B01AC01BD01CF01089571
:103CA000A29FB001B39FC001A39F700D811D11247D
:103CB000911DB29F700D811D1124911D0895DB018E
:103CC000582F0E94501E529F800DA49F800D1124DA
:103CD0000895EE0FFF1F0590F491E02D0994F894DC
:023CE000FFCF14
:103CE200FFFFFFFF00E10000000000000000B80538
:103CF2008000020810204080080810204040000088
:103D020000004C05330788057D05CE058C05AA0504
:083D120000C1808100000000E7
:00000001FF
