:100000000C94C7010C94EF010C94EF010C94EF01D8
:100010000C94EF010C94EF010C94EF010C94EF01A0
:100020000C94EF010C94EF010C94BF0D0C942E0E68
:100030000C94EF010C94EF010C94EF010C94EF0180
:100040000C94EF010C94EF010C94EF010C94EF0170
:100050000C94EF010C94EF010C94EF010C946010E0
:100060000C94EF010C94EF010C94EF010C94EF0150
:100070000C94EF010C94EF010C94EF010C94EF0140
:100080000C94EF010C94EF010C94EF010C94EF0130
:100090000C94EF010C94EF010C94EF010C94EF0120
:1000A0000C94EF010C94EF010C94EF01080B00028B
:1000B0000202000009040000010202000005240001
:1000C0001001052401010104240206052406000193
:1000D0000705810310004009040100020A00000026
:1000E00007050202400000070583024000000403E8
:1000F000090412010002EF02014041233680000191
:100100000102030141726475696E6F204C4C43001B
:1001100041726475626F7900D5F08D14A1C881CFEA
:10012000D9F1AF20000A537072697465734142437C
:100130003A3A6472617720284D4F44455F504C55E0
:10014000534D41534B29000A5370726974657341D2
:1001500042433A3A6472617753697A656420284D64
:100160004F44455F504C55534D41534B29000A5362
:100170007072697465734142433A3A6472617742BE
:100180006173696320284D4F44455F504C55534D72
:1001900041534B29000A53707269746573553A3A9A
:1001A00064726177506C75734D61736B4658000AC9
:1001B00046583A3A647261774269746D61702028DA
:1001C00064626D4D61736B656429000A53707269D6
:1001D000746573553A3A64726177506C75734D610A
:1001E000736B000A53707269746573423A3A6472B1
:1001F0006177506C75734D61736B000A537072694F
:100200007465733A3A64726177506C75734D6173BB
:100210006B000A537072697465734142433A3A64E1
:1002200072617720284D4F44455F4F5645525752D3
:1002300049544529000A53707269746573414243F9
:100240003A3A6472617753697A656420284D4F4465
:10025000455F4F564552575249544529000A53703D
:1002600072697465734142433A3A647261774261DC
:1002700073696320284D4F44455F4F56455257528E
:1002800049544529000A53707269746573553A3AA6
:10029000647261774F76657277726974654658004B
:1002A0000A46583A3A647261774269746D61702007
:1002B0002864626D4F766572777269746529000AE9
:1002C00053707269746573553A3A647261774F7608
:1002D00065727772697465000A5370726974657328
:1002E000423A3A647261774F7665727772697465E3
:1002F000000A537072697465733A3A647261774F99
:100300007665727772697465001010FFFFFFFFFF5A
:10031000FFFFFFFF3FCFF7FBFBFDFDFF3FCFF7FBED
:10032000FBFDFDFDFCFBFBF7CF0FBFFFFFFFFFFF5A
:10033000FFFFFFFF3FCFF7FBFBFDFDFF3FCFF7FBCD
:10034000FBFDFDFDFCFBFBF7CF0FBFFFFFFFFFFF3A
:10035000FFFFFFFF3FCFF7FBFBFDFDFF3FCFF7FBAD
:10036000FBFDFDFDFCFBFBF7CF0FBFFFFFFFFFFF1A
:10037000FFFFFFFF3FCFF7FBFBFDFDFF3FCFF7FB8D
:10038000FBFDFDFDFCFBFBF7CF0FBF003A15112471
:100390001FBECFEFDAE0DEBFCDBF11E0A0E0B1E0DD
:1003A000E6E0FEE202C005900D92AE32B107D9F749
:1003B00025E0AEE2B1E001C01D92AE3AB207E1F72E
:1003C00011E0C7ECD1E004C02197FE010E94FB16AA
:1003D000C63CD107C9F70E94AA100C9401170C94CF
:1003E0000000FC0180915101882311F13FB7F8947E
:1003F00082E08093E9002091F200822F90E01816AD
:10040000190614F481E090E0882339F0289844E636
:10041000409350014091F1004083222339F0209114
:10042000F200211103C02BE62093E8003FBF08959E
:100430008FEF9FEF08952FB7F89483E08093E90042
:100440009091E800892F807295FF04C09091F2008E
:1004500080E4891B2FBF08958091480181110DC050
:1004600082E08093440184E080934501109247012B
:100470001092460181E08093480184E491E0089560
:100480008093F100082E000C990B089540913601DD
:1004900050913701209134013091350142175307B3
:1004A000B4F49091E8009570E1F39091E80092FD2A
:1004B00019C08093F1008091360190913701019627
:1004C0008F739927892B19F48EEF8093E800809120
:1004D0003601909137010196909337018093360150
:1004E00081E0089580E00895EF92FF920F931F93AB
:1004F000CF93DF93F82E192FE62E042F81E0860F7D
:10050000880F0E94460283E00E944602CF2DD12F21
:10051000EC0EFD2EF11CCE15DF05B9F007FF13C060
:10052000FE0184910E944602182F80E00E9446023C
:10053000812321968111EFCFDF91CF911F910F91F0
:10054000FF90EF9008958881EDCF81E0F5CFDF92A5
:10055000EF92FF920F931F93CF93DF93D82E8A01D0
:10056000EB017B01E40EF51ECE15DF0559F0D7FE39
:1005700012C0FE0184910E94460221968111F4CF9F
:100580000FEF1FEFC801DF91CF911F910F91FF90E7
:10059000EF90DF9008958881EECF0F931F93CF9354
:1005A000DF931F92CDB7DEB782E0898342E450E04B
:1005B0006CEA70E080E80E94A7020E942C02DC0135
:1005C00012960D911C910115110589F0D801ED913C
:1005D000FC910280F381E02DBE016F5F7F4FC80167
:1005E000099597FD04C0F80100851185ECCF89813C
:1005F0000F90DF91CF911F910F910895615030F0CE
:100600002091F100FC0120830196F8CF289884E620
:10061000809350010895CF93DF931F92CDB7DEB73B
:100620006983DC01ED91FC910280F381E02D41E0D2
:1006300050E0BE016F5F7F4F09950F90DF91CF9122
:10064000089583E08093E9008091F200882319F0F7
:100650008AE38093E80008950E941B0290E00895C9
:10066000CF93DF931F92CDB7DEB7FC0184859585CC
:1006700097FD08C02FEF3FEF358724870F90DF915C
:10068000CF910895CE0101960E94F101019719F4CE
:10069000898190E0F3CF8FEF9FEFF0CF0F931F93FF
:1006A000CF93DF931F92CDB7DEB78C01FC01848519
:1006B000958597FF0BC0CE0101960E94F10101972D
:1006C00071F4898190E0F80195878487F801848529
:1006D00095850F90DF91CF911F910F9108958FEF26
:1006E0009FEFF1CFFC018485958597FD0BC09FB7E7
:1006F000F89482E08093E9008091F2009FBF90E03F
:10070000019608959FB7F89482E08093E900809164
:10071000F2009FBF90E008950DB407FEFDCF8EB5A7
:10072000599A08950E949703982F0C948C030DB446
:1007300007FEFDCF8EB51EBC08950E949703982F2B
:100740000C94970359980E94AC04862F0E94AC0425
:10075000852F0E94AC04842F0C94AC04462F50913A
:10076000A201570F6091A301681F83E00E94A203BA
:100770001EBC08956F927F928F929F92AF92BF920C
:10078000CF92DF92EF92FF920F931F93CF93DF935D
:100790004C013B01E42EF22E60E870E080E00E9404
:1007A000AE030E949D03C82F082F192F0E949203A9
:1007B0005C01C801880D991D181619060CF0BDC002
:1007C0009501260D371D121613060CF0B6C08114C4
:1007D000910451F0EE27FF27E819F909CE1B803864
:1007E00091053CF0C0E805C0F0E0E0E081389105FB
:1007F000CCF7D0E4D619213431050CF4DA2DC5013B
:100800000796969587959695879596958795E89EF0
:100810009001E99E300D112440E0B801012E000C3A
:10082000880B0E94F1166B01E82ECE0EDF1EE11C34
:10083000F7FDEA94FF2029F0CC0CDD1CEE1C000F24
:10084000111F84E8C80ED11CE11C31E061FC34E0CA
:1008500060FC330F62FC3295E80DF91DEC55FE4F3C
:1008600020E0599883E08EBD8091A2019091A30170
:100870008D0D9E1D0DB407FEFDCF9EBD0DB407FE70
:10088000FDCF8EBD0DB407FEFDCFCEBCC00ED11E78
:10089000E11C0DB407FEFDCF1EBCFF0C273014F485
:1008A000089430FD8894F79462E0D1FD68E0D2FDB1
:1008B0006295D0FF66956A9511F0D8300CF06FEF15
:1008C0009C2F0EB41EBCF3FC0626862FF0FC802D58
:1008D000F2FC0024039EA001F4FA36F4C895C895F2
:1008E00011240EB41EBCF0FC082E039E203034F000
:1008F0008081F1FE4827402148274083E058FF4F80
:10090000F7FE06C08081F1FE5827512158275083F9
:100910001124F5FCE158F5FEEF57F1099A9589F697
:100920008C2FF5FE81958058E80FF11DD850239546
:100930000DB4599A1D160CF494CFDF91CF911F91ED
:100940000F91FF90EF90DF90CF90BF90AF909F906E
:100950008F907F906F9008958EBD00008EB50DB47E
:1009600007FEFCCF0895FC010E947205319728F024
:1009700068517C4F8F4F9F4FF9CFAB01FC010E9414
:100980007205641775078E079F07C8F3089585E001
:1009900090E00C94B3048F929F92AF92BF92CF924B
:1009A000DF92EF92FF920F931F93CF93DF936C012F
:1009B0007B018A0180910B01882309F45AC0809140
:1009C0005101882309F455C080913A0180FF05C088
:1009D0008091E00082608093E000E801B12C8AEF12
:1009E000A82E93E0892E2AE3922E209711F4BB20A3
:1009F000C9F10E941B02811108C0AA94AA20C9F162
:100A000081E090E00E94B304F0CF8C171D0611F036
:100A10000CF08C2F9FB7F8948092E9002091E800A9
:100A200025FD02C09FBFE1CF282F30E0C21BD30BB2
:100A3000F701815020F041914093F100FACFE20E8E
:100A4000F31EBB2021F09092E800B12CEBCF8091F7
:100A5000E80085FDE7CF9092E800BB24B39420978F
:100A600009F3F3CF5D9884E68093390110161106DF
:100A70003CF081E090E0F6019383828310E000E097
:100A8000C801DF91CF911F910F91FF90EF90DF9000
:100A9000CF90BF90AF909F908F9008950F931F932A
:100AA000CF93DF938C01D0E0C0E0F801EC0FFD1F85
:100AB0006491662341F082E591E00E940B03892B4B
:100AC00011F02196F2CF42E050E06BE271E082E556
:100AD00091E00E94CB048C0F9D1FDF91CF911F915D
:100AE0000F910895A0E3B1E02FB7F8947D918D9117
:100AF0009C9166B52FBFA89B05C06F3F18F47F5F20
:100B00008F4F9F4F22E0660F771F881F991F2A95EE
:100B1000D1F708952F923F924F925F926F927F92FA
:100B20008F929F92AF92BF92CF92DF92EF92FF92FD
:100B30000F931F93CF93DF9300D000D000D0CDB799
:100B4000DEB7DC01A00FB11D1A161B060CF0CBC0DE
:100B5000FB01EE0DF11DEF2B09F4C5C04115510548
:100B600009F4C1C0262EEE27FF27E81BF90B0097DA
:100B700011F4F0E0E0E010E8D12ED81AA038B10569
:100B80000CF4D02EDE1AB1E0AE2DA77009F4B0E05F
:100B9000E694E694E6943B2E3E0CB8E0B31510F4D0
:100BA000A8E03A2E8E0F9F1F73E0972EA1E0C91088
:100BB00001C0A2E0A9830D19B9810B9F002D11245A
:100BC000AB2EB12CAE9ED001AF9EB00DBE9EB00D2F
:100BD00011247A01EA0EFB1E2115310509F49A0150
:100BE000F5013197AE0FBF1F2A0F3B1F66246A9491
:100BF000712C062E02C0660C771C0A94E2F76094F2
:100C00007094402F50E0DA01E981DE9EA00DB11D05
:100C10001124BC83AB83512C531409F464C0AC0180
:100C20004C555E4F5E834D8310E000E0412C4D1427
:100C300009F44FC0F701E00FF11FA491B0E0AD013E
:100C4000062E02C0440F551F0A94E2F75A834983C7
:100C500052E0F301C51649F0ABEFCA122CC0E9818E
:100C6000FA81E095F0951A82198257FC09C0AD818E
:100C7000BE819C909E22B9819B2AAD81BE819C92AF
:100C8000222079F0B6E0B51564F08D809E8040E8B2
:100C9000840E911CD401EC91EF23BA81EB2BD4018B
:100CA000EC9343940A0D1B1D4D815E814F5F5F4F96
:100CB0005E834D83BCCFF901E00FF11FE491F0E0BA
:100CC000062E02C0EE0FFF1F0A94E2F7E095F095A2
:100CD000CCCF5394AB81BC81EA0EFB1E2A0F3B1F85
:100CE00080589F4F99CF26960FB6F894DEBF0FBE5F
:100CF000CDBFDF91CF911F910F91FF90EF90DF90CB
:100D0000CF90BF90AF909F908F907F906F905F90AB
:100D10004F903F902F900895CF92EF920F93E9E07C
:100D2000F3E00491EAE0F3E0E490442309F141E0C8
:100D300050E03E2D377011F450E040E02E2D269506
:100D400026952695240F352F311D029FA001039F64
:100D5000500D1124440F551F455F5C4F23E0C22EF8
:100D600030E020E00E948A050F91EF90CF90089527
:100D70004BE053E0F3CFCF92EF920F93E9E0F3E033
:100D80000491EAE0F3E0E4904423F9F041E050E01C
:100D90003E2D377011F450E040E02E2D269526951B
:100DA0002695240F352F311D029FA001039F500D62
:100DB0001124455F5C4F22E0C22E30E020E00E940B
:100DC0008A050F91EF90CF9008954BE053E0F3CF59
:100DD0006F927F928F929F92AF92BF92CF92DF924B
:100DE000EF92FF920F931F93CF93DF93D9012C2D96
:100DF000C02FD0E06E01C80ED91E1C141D040CF0CB
:100E000079C1FB01EE0DF11DEF2B09F473C1411502
:100E1000510509F46FC1162FEE27FF27E81BF90BC8
:100E2000009711F4F0E0E0E030E8C316D10414F0CC
:100E300000E8081B0E1BDD24D3943E2D377009F407
:100E4000D12CE694E694E6943D2D3E0D393008F021
:100E500038E08E0F9F1F4E0F5F1F233009F4FEC036
:100E600008F057C1213009F4AFC0223009F042C167
:100E7000AFEFB0E0062E02C0AA0FBB1F0A94E2F744
:100E8000A095B0959B2E20E0321709F433C1FC01E8
:100E9000EC55FE4F7F01D12CC12CC01650F5FA0144
:100EA000EC0DFD1DE491F0E03F01062E02C0660C42
:100EB000771C0A94E2F727FD05C0F701B080BA223B
:100EC000B628B082112371F0273064F45701F0E89E
:100ED000AF0EB11CF5018080E82DE9218E2E872808
:100EE000F5018082FFEFCF1ADF0AEFEFEE1AFE0A5C
:100EF000D4CF2F5F4C0F5D1F80589F4FC5CF2F5F02
:100F00004C0F5D1F80589F4F231709F4F3C0DC017D
:100F1000AC55BE4FF12CE12CE01688F7FA01EE0D2E
:100F2000FF1DE491F0E05F01062E02C0AA0CBB1C7D
:100F30000A94E2F727FD03C0DC90DA28DC92112343
:100F400051F0273044F46D01F0E8CF0ED11CF601CA
:100F5000A080BA28B082FFEFEF1AFF0A1196DCCF0B
:100F60002F5F4C0F5D1F80589F4F231709F4C2C09D
:100F7000DC01AC55BE4FF12CE12CE01688F7FA01EC
:100F8000EE0DFF1DE491F0E05F01062E02C0AA0CF9
:100F9000BB1C0A94E2F727FD05C0DC90CA2CC09464
:100FA000DC20DC92112359F027304CF46D01E0E88D
:100FB000CE0ED11CB094F601A080BA20B082FFEF13
:100FC000EF1AFF0A1196D9CFAE0FBF1F20E02317EB
:100FD00009F490C0FC01EC55FE4F7F01D12CC12CCF
:100FE000C016A0F5FD01EC0DFD1DA490B12C062E40
:100FF00002C0AA0CBB1C0A94E2F7A094B094FA01B8
:10100000EC0DFD1D8490912C062E02C0880C991CBD
:101010000A94E2F727FD08C0F7017080E72DEA2166
:101020007E2E7828F7017082112349F027303CF496
:10103000F701E058FF4FA080BA20B928B082FFEF37
:10104000CF1ADF0AEFEFEE1AFE0ACACF2F5F4C0F5E
:101050005D1FAC0FBD1F80589F4FB9CFE02EF12C04
:10106000E40FF51F8C559E4F40E850E04E195F0984
:10107000CE19DF09CC0FDD1FA1E0B0E06D01062E17
:1010800001C0CC0C0A94EAF7132F70E0702EDC013B
:101090009E01E62ECF93DF93ED01EF96EF96229619
:1010A0008590A590EE2059F08C9C4001AC9C50019D
:1010B00077302CF4F880B094FB20F928F99277234C
:1010C0003AF0FC90A094FA20F828FD920C9469085C
:1010D00011960A9529F71A9551F0072D7395112449
:1010E000E20FF11DA40FB11DC40FD11DD9CFDF91A7
:1010F000CF911124DF91CF911F910F91FF90EF902D
:10110000DF90CF90BF90AF909F908F907F906F9027
:1011100008952A3F21F02B3F69F720E026CF20E0F9
:10112000F3CECF92EF920F93E9E0F3E00491EAE07F
:10113000F3E0E490442309F141E050E03E2D3770A4
:1011400011F450E040E02E2D269526952695240F8B
:10115000352F311D029FA001039F500D1124440F14
:10116000551F455F5C4F23E0C22E30E020E00E9417
:10117000E8060F91EF90CF9008954BE053E0F3CF46
:10118000CF92EF920F93E9E0F3E00491EAE0F3E00D
:10119000E4904423F9F041E050E03E2D377011F423
:1011A00050E040E02E2D269526952695240F352FCC
:1011B000311D029FA001039F500D1124455F5C4F1C
:1011C00022E0C22E30E020E00E94E8060F91EF906E
:1011D000CF9008954BE053E0F3CF4F925F926F9220
:1011E0007F928F929F92AF92BF92CF92DF92EF92B7
:1011F000FF920F931F93CF93DF933701802EA42F7D
:10120000B0E0FD01E80FF91F1E161F060CF0BDC06F
:10121000022F10E0F801E60FF71FEF2B09F4B5C01D
:10122000C114D104A1F0269526952695A0FC220F85
:10123000249FF001ED9D700C811CFC9D700C811CA5
:10124000FD9D800CEC9D600C711C1124811C102FE5
:1012500000272801442A5B2AD52DA4EAB1E0E82F13
:10126000CC24942CD695D695D695F1E061FDF4E08A
:1012700060FDFF0F62FDF29544274095542FA2FCBC
:1012800005C01FEF1F9FA00140955095759567956C
:101290007595679575956795062F0F3F4CF40095EA
:1012A000D01BA0FC000F049D600C711C8C1C0FEF68
:1012B00097FF0BC0980EA0FE02C0880F991F681AF6
:1012C000790A8C0897FD8394EE2710E801030E0E2F
:1012D000A00DB11D1E1B911608F0912E17E0101BDA
:1012E0001D1714F4D12FC39410E81919242D332796
:1012F000A1FC02C02919330BA0FE02C0220F331F2C
:101300001124F12EB02EDF2EA11050C0F3018D2F2D
:1013100001158CF4A058BF4F992D65916D9D1C91BE
:10132000152311291D939A95C1F711248A95A9199E
:10133000B109E20FF31F8823E9F0CF93DF93ED01AA
:10134000C058DF4F992D65916D9D1C911423102974
:101350001D9318811523112919939A95A1F711242A
:10136000AF0DB11DCF0DD11DE20FF31F8A9551F7BF
:10137000DF91CF91CC2041F065916D9D1C9114239C
:1013800010291D939A94C1F71124DF91CF911F91D9
:101390000F91FF90EF90DF90CF90BF90AF909F9014
:1013A0008F907F906F905F904F90089501E0A01212
:1013B00050C0F3018D2FB114B4F4A058BF4F992D34
:1013C000459165914D9DA0016D9DB0011C91709559
:1013D0001723152B1D939A9599F711248A95A9190E
:1013E000B109E20FF11D882319F1CF93DF93ED01CD
:1013F000C058DF4F992D459165914D9DA0016D9D80
:10140000B0011C9160951623142B1D9318817095C3
:101410001723152B19939A9571F71124AF0DB11D50
:10142000CF0DD11DE20FF11D8A9521F7DF91CF91EC
:10143000CC2069F0459165914D9DA0016D9DB00155
:101440001C9160951623142B1D939A9499F71124DF
:101450009CCF63E00090A201700C0090A301801C5F
:1014600018C059986EBD620E731E811CEE2449147B
:1014700009F0E3940CD08EBC07D07EBC05D06EBCC6
:1014800003D01EBC03D00895C8950000C895C89528
:101490000895621A730A8108E4DFB1141CF0DD2399
:1014A00071F564C0A058BF4F792DA0FC0CC08EB55B
:1014B0001EBC8D9D1C91152311291D93C89500C03C
:1014C0007A95A9F711C08EB51EBC8D9DC001DEDFD7
:1014D0004EB51EBC4D9DA0011C9150951523192B96
:1014E0001D93C8957A9579F71124A919B109DA9550
:1014F00009F45CC0EE2019F00DB4599AB2DFFD0179
:10150000E058FF4F792DA0FC0EC08EB51EBC8D9DFE
:101510001C91142310291D93108115231129119357
:101520007A9599F716C08EB51EBC8D9DC0011C9191
:101530005081AEDF00C04EB51EBC4D9D0094102101
:10154000182B1D9310945121592B519300007A951B
:1015500051F71124AF0DB11DDA9561F6CC2031F1B0
:10156000EE2021F00DB4599A7CDFC895A0FC0CC088
:101570008EB51EBC8D9D1C91142310291D93C895FA
:1015800000C09A94A9F712C08EB51EBC8D9DC001F3
:101590007DDFDEB51EBCDD9DD02D1C91D0951D23B9
:1015A000182B1D93C8959A9479F7C8951124599AC8
:1015B0000DB4EBCEAF92CF92DF92EF92FF920F93EA
:1015C000E9E0F3E0359125917F01FF0F000BA12C9D
:1015D0006A01432F0E94ED080F91FF90EF90DF907A
:1015E000CF90AF900895AF92CF92DF92EF92FF929B
:1015F0000F93E9E0F3E0359125917F01FF0F000B98
:10160000AA24A3946A01432F0E94ED080F91FF9032
:10161000EF90DF90CF90AF9008958F929F92AF920E
:10162000CF92DF92EF92FF920F931F93CF93DF93AE
:10163000EC014B016A0160E070E080E00E94AE03C3
:101640000E949703182F0E948C0392E0A92E02E0BB
:10165000E02EF12C00E0282F412FB401CE010E9492
:10166000ED08DF91CF911F910F91FF90EF90DF90E8
:10167000CF90AF909F908F9008958F929F92AF924E
:10168000CF92DF92EF92FF920F931F93CF93DF934E
:10169000EC014B016A0160E070E080E00E94AE0363
:1016A0000E949703182F0E948C0393E0A92E02E05A
:1016B000E02EF12C00E0282F412FB401CE010E9432
:1016C000ED08DF91CF911F910F91FF90EF90DF9088
:1016D000CF90AF909F908F900895803891057CF4C3
:1016E0006034710564F4DC01A40FB11D1A161B06E9
:1016F00034F4DB01A20FB11D1A161B060CF008957D
:101700002F923F924F925F926F927F928F929F9211
:10171000BF92EF92FF920F931F93382E2224842EB4
:10172000322F369536953695599853E05EBDFB01BC
:10173000F595E795F595E795F595E7951E2F1F3FEC
:101740004CF41095311BC0FC110F149FE00CF11CE0
:10175000021D1FEF0090A201F00C0090A301001DDC
:1017600097FF0BC0880EC0FE02C0880F991FE81AB1
:10177000F90A020997FD039533240EBDA4EAB1E0EE
:1017800050E81503030CA00DB11D5319851608F080
:10179000852EE7E0E11BE31714F43E2F2394FEBCF3
:1017A000E0E8E8194E2E51E061FD54E060FD550F70
:1017B00062FD5295552EEFEFE59D300160947094D7
:1017C000EEBC11246FB724D01EBCBB24481509F011
:1017D000B39422C05998E3E0EEBD1124E40EF11C4D
:1017E000011DC0FCE40EC0FCF11CC0FC011DBB24AB
:1017F000481509F0B394C8950EBD08D0FEBC06D0BC
:10180000EEBC05D01EBC00C000C00895000000C0A2
:101810000000C895C8950895C1FCF4C0C2FCA6C0DC
:1018200011151CF0332391F57CC0A058BF4F582DE3
:10183000C0FC0DC0F8941EBC8EB56FBF859D9C90FA
:10184000972091289D9200C05A95A1F714C0F89452
:101850001EBC8EB56FBF859DC001DCDFF8941EBC39
:101860006EB46FBF659C30019C9070949720992A4C
:101870009D925A9561F71124A819B1093A9509F476
:1018800010C1BB2019F00DB4599AA4DFFD01E05836
:10189000FF4F582DC0FC1FC0569518F453959C90CF
:1018A0000CC08EB51EBC859D9C90962090289D9264
:1018B00090809720912891929C908EB51EBC859D1A
:1018C000962090289D9290809720912891920000D8
:1018D0005A9539F716C0F8941EBC8EB56FBF859D1A
:1018E000C0019C90708097DF6EB41EBC659C009414
:1018F0009020982A9D9210947120792A71925A957D
:1019000051F71124A40DB11D3A9509F0BACF222048
:1019100009F4C7C0BB2029F00DB4599A5BDF00C0A1
:10192000C895C0FC0DC0F8941EBC8EB56FBF859DD8
:101930009C90962090289D9200C08A94A1F7B1C0F7
:10194000F8941EBC8EB56FBF859DC00163DFF8940F
:101950001EBC3EB56FBF359D302D9C9030959322B7
:10196000982A9D928A9461F700009BC011151CF083
:101970003323E1F43BC0A058BF4F582DF8941EBC50
:101980008EB56FBF859D9C9091289D92C8955A9564
:10199000A9F71124A819B1093A9509F482C0BB200E
:1019A00029F00DB4599A16DF00C000C0FD01E058BF
:1019B000FF4F582D8EB51EBC859D9C9090289D9202
:1019C00090809128919200005A95A1F71124A40DBE
:1019D000B11D3A9521F7222009F463C0BB2031F0F4
:1019E0000DB4599AF7DE00C000C0C895F8941EBC2B
:1019F0008EB56FBF859D9C9090289D92C8958A94C6
:101A0000A9F74FC011151CF03323F1F43DC0A058C5
:101A1000BF4F582DF8941EBC8EB56FBF859D0094A6
:101A200010949C9091209D9200005A9599F7112452
:101A3000A819B1093A9509F434C0BB2029F00DB4B6
:101A4000599AC8DE00C000C0FD01E058FF4F582D74
:101A50008EB51EBC859D009410949C9090209D9204
:101A60009080912091925A9599F71124A40DB11D5F
:101A70003A9519F7222009F414C0BB2021F00DB4C7
:101A8000599AA8DE00C000C0F8941EBC8EB56FBF86
:101A9000859D009410949C9090209D9200008A94C3
:101AA00099F71124599A0DB41F910F91FF90EF905F
:101AB000BF909F908F907F906F905F904F903F90DE
:101AC0002F90089508954F925F926F928F929F92F8
:101AD000022E069406940694049E40018A9C2001DE
:101AE0009A9C500C611C8F9C500C611C9F9C600C3C
:101AF0001124E40CF51C061DC0FE03C0E40CF51C0B
:101B0000061D9F908F906F905F904F900C946D0B7F
:101B10000895AF92BF92CF92EF92FF920F93599890
:101B2000E3E0EEBD5701C02E7901042FEE0EF11C4B
:101B3000011D0090A201300D0090A301401DE2E0C4
:101B400000C000C04EBD14D03EBD12D02EBD11D07D
:101B50001EBC0FD04EB51EBC0CD02EB5599A0E949B
:101B6000630D0F91FF90EF90CF90BF90AF900895CD
:101B70000000C89500C0C8950000089508951F9200
:101B80000F920FB60F9211248F939F938091E100D3
:101B90009091E100937F9093E10083FF0FC010923A
:101BA000E90091E09093EB001092EC0092E39093A7
:101BB000ED001092510198E09093F00082FF22C056
:101BC00093E09093E9009091F200992319F09AE341
:101BD0009093E80090913901992341F09091390157
:101BE000915090933901911101C05D9A90915001EB
:101BF000992341F09091500191509093500191118F
:101C000001C0289A84FF18C08091E2008E7E816016
:101C10008093E2008091E1008F7E8093E1008091CB
:101C20003A018E7E806180933A019F918F910F904F
:101C30000FBE0F901F90189580FFF7CF8091E200A4
:101C40008E7E80618093E2008091E1008E7E8093A1
:101C5000E10080913A018E7E8160E5CF1F920F9264
:101C60000FB60F921124CF92DF92EF92FF920F9353
:101C70001F932F933F934F935F936F937F938F9314
:101C80009F93AF93BF93EF93FF93CF93DF93CDB722
:101C9000DEB76C97DEBFCDBF1092E9008091E800FF
:101CA00083FF25C068E0CE0145960E94FE0282EFC8
:101CB0008093E8008D8987FF39C09091E80090FFFC
:101CC000FCCF982F907609F034C19E894F89588DAA
:101CD0002F89F88C911131C0803861F580913B01DA
:101CE0008093F1001092F1008EEF8093E8006C96E3
:101CF0000FB6F894DEBF0FBECDBFDF91CF91FF913D
:101D0000EF91BF91AF919F918F917F916F915F9173
:101D10004F913F912F911F910F91FF90EF90DF9086
:101D2000CF900F900FBE0F901F9018959EEF90933D
:101D3000E800C7CF1092F100D5CF913059F481114E
:101D4000D3CF4130510581F680913B018D7F809347
:101D50003B01CACF933049F48111C6CF41305105C0
:101D600019F680913B018260F2CF953041F4809169
:101D7000E80080FFFCCF20682093E300B5CF9630C9
:101D800009F0A9C00B8D1C8D22E01092E900109281
:101D9000370110923601F2122EC0109235011092C6
:101DA00034010E94CD021F8299E09983FA8291E06A
:101DB0009E8390EA98879AEF998720913601309117
:101DC0003701275F3F4F3C832B838D831092E900BF
:101DD00010923701109236011093350100933401AF
:101DE00049E050E0BE016F5F7F4F80E00E94A70294
:101DF0000E94CD0279CF10933501009334010E94E7
:101E00002C02DC0112960D911C910115110509F4AB
:101E100051C1D801ED91FC910480F581E02DBE0106
:101E20006B5E7F4FC8010995009709F03EC1F8012C
:101E300000851185EACFF3E0FF120EC08F89882359
:101E400009F440C0823061F440E867E080E191E04D
:101E50000E947402811148CF81E28093EB0047CF4A
:101E6000813029F440E86BE084E091E0F1CF8330E9
:101E700099F70E942C02DC011296ED90FC908E01E5
:101E80000F5F1F4F6801E114F10479F0D701ED9164
:101E9000FC910680F781E02DB801C7010995080F74
:101EA000111DF701E084F184EECFD8011C92F601F8
:101EB00001900020E9F73197BF016C197D0940E0DE
:101EC000C601C6CF6EEE70E0FB01449150E080E8A1
:101ED0000E94A70209CF973009F4BECF983021F4B1
:101EE00081E08093F10000CF993009F0FDCE83703E
:101EF00009F0B2CFE5E2F1E081E031E096E3219133
:101F0000222371F08093E9003093EB00DF011197F9
:101F10002C912093EC009093ED008F5F873079F740
:101F20008EE78093EA001092EA008F898093510136
:101F3000DBCE8B8D9C8D1092E900109237011092B0
:101F400036019093350180933401898D811192C0BF
:101F50008E899D89913A49F4813209F07DCF47E01D
:101F600050E064E071E080E0B3CF913209F074CFCB
:101F7000833269F48F89988DB0E0A0E080930001EE
:101F800090930101A0930201B0930301ADCE803282
:101F900069F48091E80082FFFCCF67E084E091E083
:101FA0000E94FE028BEF8093E8009ECE823209F001
:101FB0009BCE8F8980930B01EEEFFFE78591949183
:101FC0008B3F9C4D51F1E0E0F8E08091040190914D
:101FD0000501A0910601B0910701803B9440A10545
:101FE000B105F1F480910B0180FD1AC0EE3F8AE04B
:101FF000F80789F587E797E79183808380916000F0
:102000008093380188E19BE00FB6F894A8958093FF
:1020100060000FBE9093600067CEEEEFFAE0D5CF80
:10202000808191818737974709F05ECEA89580918E
:102030006000886180936000809138018093600027
:10204000EE3F2AE0F20789F08091FE0A9091FF0AA4
:102050009183808349CE808191818737980751F29F
:102060009093FF0A8093FE0AC5CF1092FF0A109248
:10207000FE0A3ACE0E942C02DC0112960D911C91B0
:102080000115110509F4E8CED801ED91FC910190FC
:10209000F081E02DBE016B5E7F4FC8010995811173
:1020A00023CEF80100851185EBCF181619060CF424
:1020B0001BCED2CEF1E0FF12BECE62EF70E004CFB5
:1020C0000F920FB68F939F93EF93FF9380912F0101
:1020D0008D5F8D3708F08D5780932F01E0E4F1E09C
:1020E00080818E4F808391819F4F918382818F4F1A
:1020F000828383818F4F8383E0E3F1E080818F5F70
:10210000808381818F4F818382818F4F82838381FE
:102110008F4F83838FB18F6066991C9B88278F3682
:1021200081F480912E01981B963068F0E0E0F8E091
:1021300087E78083818388E180936000F09360006B
:10214000FFCF90932E01FF91EF919F918F910FBE42
:102150000F901895789483E084BD83E085BD81E07D
:1021600080936E00E1E8F0E083E08083E0E881E0C6
:102170008083E1E983E08083E0E981E08083E1EC32
:1021800087E08083E3EC81E08083E0EC82E0808381
:10219000E2EC81E08083EAE787E0808380688083E7
:1021A0001092510110923B0110923A018091D70098
:1021B00081608093D70080EA8093D80089B58061E0
:1021C00089BD89B5826089BD09B400FEFDCF81E07B
:1021D00090E00E94B3048091D8008F7C806180934E
:1021E000D8008091E000807F8093E0008091E10042
:1021F0008E7E8093E1008DE08093E200559A209AD4
:1022000081EC80937C0081EF85B987EE84B982E30D
:102210008BB982EF8AB9769A6E9880EF81BB10BA3B
:1022200080E58CBD81E08DBD0E94C7045F9A0E944D
:10223000C7045C98E8E1F1E085918EBD00000DB423
:1022400007FEFDCFE532C1F75C9A81E88093640018
:1022500081E0809365005E9AE4E1F0E08CEF9FEF0F
:1022600025913591559145912851354909F4CA0177
:102270008093A2019093A30159988BEA0E94AC0429
:10228000599A8FEF9FEF90935F0180935E0170E00A
:1022900060E080E492E00E944F1581EF92E00E949E
:1022A0004E05CFB7F894989540E070E060E090E07C
:1022B00080E00E94C0089895CFBFCFB7F89498955A
:1022C00041E070E060E090E080E00E94C0089895F6
:1022D000CFBFCFB7F894989540E064E070E090E00D
:1022E00080E00E94C0089895CFBFCFB7F89498952A
:1022F00040E070E060E088EF9FEF0E94C008989592
:10230000CFBF88ED92E00E944E05CFB7F894989524
:1023100040E070E060E090E080E00E94BB069895AD
:10232000CFBFCFB7F894989541E070E060E090E0BF
:1023300080E00E94BB069895CFBFCFB7F8949895E0
:1023400040E064E070E090E080E00E94BB06989579
:10235000CFBFCFB7F894989540E070E060E088EF89
:102360009FEF0E94BB069895CFBF8FEB92E00E9433
:102370004E05CFB7F894989550E040E070E060E0EB
:1023800090E080E00E94DA0A9895CFBFCFB7F8942A
:10239000989541E050E070E060E090E080E00E94BD
:1023A000DA0A9895CFBFCFB7F894989550E040E0FF
:1023B00064E070E090E080E00E94DA0A9895CFBF78
:1023C000CFB7F894989550E040E070E060E088EF77
:1023D0009FEF0E94DA0A9895CFBF80EA92E00E94B0
:1023E0004E05CFB7F894989520E040E070E060E0AB
:1023F00090E080E00E94BA039895CFBFCFB7F894E1
:10240000989520E041E070E060E090E080E00E947C
:10241000BA039895CFBFCFB7F894989520E040E0E5
:1024200064E070E090E080E00E94BA039895CFBF2E
:10243000CFB7F894989520E040E070E060E088EF36
:102440009FEF0E94BA039895CFBF85E892E00E9463
:102450004E05CFB7F894989550E040E070E060E00A
:1024600090E080E00E940D0B9895CFBFCFB7F89415
:10247000989541E050E070E060E090E080E00E94DC
:102480000D0B9895CFBFCFB7F894989550E040E0EA
:1024900064E070E090E080E00E940D0B9895CFBF63
:1024A000CFB7F894989550E040E070E060E088EF96
:1024B0009FEF0E940D0B9895CFBF8DE592E00E9493
:1024C0004E05CFB7F8949895C12C02E0E02EF12C80
:1024D00000E020E140E170E060E090E080E00E94F8
:1024E0006D0B9895CFBFCFB7F894989520E140E158
:1024F00064E070E090E080E00E946D0B9895CFBFA3
:10250000CFB7F894989520E140E170E060E088EF63
:102510009FEF0E946D0B9895CFBF85E392E00E94DC
:102520004E05CFB7F8949895B12CA12C20E140E14D
:1025300070E060E090E080E00E94630D9895CFBF6E
:10254000CFB7F8949895AA24A394B12C20E140E148
:1025500070E060E090E080E00E94630D9895CFBF4E
:10256000CFB7F8949895B12CA12C20E140E164E01C
:1025700070E090E080E00E94630D9895CFBFCFB7E8
:10258000F894989520E140E170E060E088EF9FEFDB
:102590000E94630D9895CFBF82E192E00E944E05A4
:1025A000CFB7F8949895F12CE12C00E020E030E0D2
:1025B00040E070E060E090E080E00E94890D989536
:1025C000CFBFCFB7F8949895EE24E394F12C20E098
:1025D00030E040E070E060E090E080E00E94890D33
:1025E0009895CFBFCFB7F8949895F12CE12C20E0C7
:1025F00030E040E064E070E090E080E00E94890D0F
:102600009895CFBFCFB7F894989520E030E040E0A0
:1026100070E060E088EF9FEF0E94890D9895CFBF32
:102620008BEF91E00E944E05CFB7F894989540E06B
:1026300070E060E090E080E00E9491089895CFBF44
:10264000CFB7F894989541E070E060E090E080E0CA
:102650000E9491089895CFBFCFB7F894989540E025
:1026600064E070E090E080E00E9491089895CFBF10
:10267000CFB7F894989540E070E060E088EF9FEF66
:102680000E9491089895CFBF83EE91E00E944E057D
:10269000CFB7F894989540E070E060E090E080E07B
:1026A0000E948C069895CFBFCFB7F894989541E0DB
:1026B00070E060E090E080E00E948C069895CFBFCB
:1026C000CFB7F894989540E064E070E090E080E047
:1026D0000E948C069895CFBFCFB7F894989540E0AC
:1026E00070E060E088EF9FEF0E948C069895CFBF66
:1026F0008BEC91E00E944E05CFB7F894989550E08E
:1027000040E070E060E090E080E00E94F30A98957D
:10271000CFBFCFB7F894989541E050E070E060E00B
:1027200090E080E00E94F30A9895CFBFCFB7F8946D
:10273000989550E040E064E070E090E080E00E9416
:10274000F30A9895CFBFCFB7F894989550E040E042
:1027500070E060E088EF9FEF0E94F30A9895CFBF8A
:102760008FEA91E00E944E05CFB7F894989520E14A
:1027700040E070E060E090E080E00E94BA0398954D
:10278000CFBFCFB7F894989520E141E070E060E0CA
:1027900090E080E00E94BA039895CFBFCFB7F8943D
:1027A000989520E140E064E070E090E080E00E94D5
:1027B000BA039895CFBFCFB7F894989520E140E041
:1027C00070E060E088EF9FEF0E94BA039895CFBF5A
:1027D00085E991E00E944E05CFB7F894989550E0B6
:1027E00040E070E060E090E080E00E943D0B989552
:1027F000CFBFCFB7F894989541E050E070E060E02B
:1028000090E080E00E943D0B9895CFBFCFB7F89441
:10281000989550E040E064E070E090E080E00E9435
:102820003D0B9895CFBFCFB7F894989550E040E016
:1028300070E060E088EF9FEF0E943D0B9895CFBF5E
:102840008EE691E00E944E05CFB7F8949895CC247F
:10285000C39402E0E02EF12C00E020E140E170E0C2
:1028600060E090E080E00E946D0B9895CFBFCFB7FD
:10287000F894989520E140E164E070E090E080E019
:102880000E946D0B9895CFBFCFB7F894989520E133
:1028900040E170E060E088EF9FEF0E946D0B98953B
:1028A000CFBF87E491E00E944E05CFB7F89498958A
:1028B00020E140E170E060E090E080E00E94630D84
:1028C0009895CFBFCFB7F8949895AA24A394B12C2C
:1028D00020E140E170E060E090E080E00E94630D64
:1028E0009895CFBFCFB7F8949895B12CA12C20E143
:1028F00040E164E070E090E080E00E94630D989514
:10290000CFBFCFB7F894989520E140E170E060E048
:1029100088EF9FEF0E94630D9895CFBF85E291E00D
:102920000E944E05CFB7F8949895F12CE12C01E068
:1029300020E030E040E070E060E090E080E00E9465
:10294000890D9895CFBFCFB7F8949895EE24E3946E
:10295000F12C20E030E040E070E060E090E080E0CA
:102960000E94890D9895CFBFCFB7F8949895F12C18
:10297000E12C20E030E040E064E070E090E080E0B6
:102980000E94890D9895CFBFCFB7F894989520E015
:1029900030E040E070E060E088EF9FEF0E94890D3A
:1029A0009895CFBFC1E07CE3672E71E0772EE4EA13
:1029B0004E2EE1E05E2EF0E08F2EF0E09F2ED1E073
:1029C00080913E01882341F010923E0181149104D0
:1029D000B9F30E940000F4CF8091400190913F0133
:1029E000282F291B203130F42F3081F3C3BF889565
:1029F00013BEECCFD0933E0180933F01F301808161
:102A00009181019680839183F12CE12C00E020E0FC
:102A100030E040E070E060E090E080E00E94890DEE
:102A200001E020E030E040E064E070E080E290E02F
:102A30000E94890DB12CA12CCC24C39402E0E02E7D
:102A4000F12C00E020E140E162E070E080E490E001
:102A50000E94630D5E98F20180E098E000800EBC59
:102A6000C111012C019780FDFDCF0192B9F70DB482
:102A70005E9AACCFE2E5F1E01382128288EE93E039
:102A8000A0E0B0E084839583A683B78386E191E0DC
:102A9000918380838FEF9FEF9587848708950F93AD
:102AA0001F93CF93DF93009759F46115710541F49B
:102AB000F0E0E0E0CF01DF91CF911F910F910895F9
:102AC0008B01EC016EE070E081E090E00E949A15CD
:102AD000FC01892B69F380E883830115110571F0EE
:102AE0001387028781E883838091A4059091A505CF
:102AF000892B21F4F093A505E093A4052097D1F24A
:102B0000D187C0878381826083838091A60590915D
:102B1000A705892B79F6F093A705E093A605809188
:102B2000A8059091A905892B29F6F093A905E093B2
:102B3000A805C0CF0F931F93CF93DF93869F80018B
:102B4000879F100D969F100D1124C8010E94B61585
:102B5000EC01009729F0A80170E060E00E94DB160C
:102B6000CE01DF91CF911F910F9108950F931F9385
:102B7000CF93DF938230910510F482E090E0E091F2
:102B8000AC05F091AD0530E020E0B0E0A0E030977A
:102B900099F42115310509F44AC0281B390B24305A
:102BA0003105D8F58A819B816115710589F1FB0199
:102BB00093838283FE0111C0408151810281138180
:102BC00048175907E0F04817590799F4109761F032
:102BD00012960C93129713961C933296CF01DF91A5
:102BE000CF911F910F9108950093AC051093AD05FF
:102BF000F4CF2115310551F04217530738F0A901E0
:102C0000DB019A01BD01DF01F801C1CFEF01F9CF6E
:102C10009093AD058093AC05CDCFFE01E20FF31F7D
:102C2000819391932250310939832883D7CF209102
:102C3000AA053091AB05232B41F420910E01309170
:102C40000F013093AB052093AA0520910C01309120
:102C50000D012115310541F42DB73EB7409110010A
:102C600050911101241B350BE091AA05F091AB05A1
:102C7000E217F307A0F42E1B3F0B2817390778F053
:102C8000AC014E5F5F4F2417350748F04E0F5F1FB2
:102C90005093AB054093AA05819391939FCFF0E0A9
:102CA000E0E09CCFCF93DF930097E9F0FC013297EF
:102CB00013821282A091AC05B091AD05ED0130E018
:102CC00020E01097A1F420813181820F931F209181
:102CD000AA053091AB052817390709F061C0F093B8
:102CE000AB05E093AA05DF91CF910895EA01CE17D5
:102CF000DF07E8F54A815B819E0141155105B1F777
:102D0000E901FB83EA8349915991C40FD51FEC1760
:102D1000FD0761F4808191810296840F951FE9017E
:102D200099838883828193819B838A83F0E0E0E0AA
:102D300012968D919C9113970097B9F52D913C9126
:102D40001197CD010296820F931F2091AA05309111
:102D5000AB052817390739F6309751F51092AD05B4
:102D60001092AC05B093AB05A093AA05BCCFD3835A
:102D7000C28340815181840F951FC817D90761F420
:102D80004E5F5F4F88819981480F591F518340835F
:102D90008A819B81938382832115310509F0B0CF0D
:102DA000F093AD05E093AC059ECFFD01DC01C0CFF3
:102DB00013821282D7CFDC0101C06D934150504085
:102DC000E0F70895A29FB001B39FC001A39F700DCB
:102DD000811D1124911DB29F700D811D1124911D23
:102DE0000895DB01582F0E94E216529F800DA49F88
:102DF000800D11240895EE0FFF1F0590F491E02D32
:062E00000994F894FFCFD5
:102E0600FFFFFFFF00E10000000000000000AE052C
:102E16008000000000000B03CB042C032103720387
:0E2E260030034E0300C180810000000D0A0041
:00000001FF
