:100000000C9410040C9438040C9438040C943804A8
:100010000C9438040C9438040C9438040C94380470
:100020000C9438040C9438040C9485240C94F42417
:100030000C9438040C9438040C9438040C94380450
:100040000C9438040C9438040C9438040C94380440
:100050000C9438040C9438040C9438040C9426271F
:100060000C9438040C9438040C9438040C94380420
:100070000C9438040C9438040C9438040C94380410
:100080000C9438040C9438040C9438040C94380400
:100090000C9438040C9438040C9438040C943804F0
:1000A0000C9438040C9438040C943804207C002000
:1000B00000D5F08D14A1C881CFD9F1AF20000A0A74
:1000C00000202D207C000A7C2053707269746573B7
:1000D0004142433A3A6472617742617369634658B8
:1000E00020284D4F44455F504C55534D41534B29AB
:1000F000207C000A7C20537072697465734142430E
:100100003A3A6472617753697A6564465820284D9B
:100110004F44455F504C55534D41534B29207C0073
:100120000A7C20537072697465734142433A3A64A1
:10013000726177465820284D4F44455F504C5553C7
:100140004D41534B29207C000A7C20537072697406
:100150006573553A3A64726177506C75734D61738B
:100160006B4658207C000A7C2046583A3A647261FB
:10017000774269746D6170202864626D4D61736BA4
:10018000656429207C000A7C205370726974657351
:10019000553A3A64726177506C75734D61736B2098
:1001A0007C000A7C2053707269746573423A3A6429
:1001B000726177506C75734D61736B207C000A7CA3
:1001C00020537072697465733A3A64726177506C47
:1001D00075734D61736B207C000A7C203C74642035
:1001E000636F6C7370616E3D323E2A4D61736B6557
:1001F000642A3C2F74643E207C00202D207C000A61
:100200007C20537072697465734142433A3A647258
:1002100061774261736963465820284D4F44455FBA
:100220004F564552575249544529207C000A7C209C
:10023000537072697465734142433A3A64726177EC
:1002400053697A6564465820284D4F44455F4F56A0
:100250004552575249544529207C000A7C2053704E
:1002600072697465734142433A3A647261774658E1
:1002700020284D4F44455F4F5645525752495445EB
:1002800029207C000A7C2053707269746573553A8A
:100290003A647261774F7665727772697465465811
:1002A000207C000A7C2046583A3A647261774269A1
:1002B000746D6170202864626D4F76657277726923
:1002C000746529207C000A7C205370726974657300
:1002D000553A3A647261774F7665727772697465E0
:1002E000207C000A7C2053707269746573423A3A2C
:1002F000647261774F7665727772697465207C00ED
:100300000A7C20537072697465733A3A647261773B
:100310004F7665727772697465207C000A7C203C98
:10032000746420636F6C7370616E3D323E2A556E4B
:100330006D61736B65642A3C2F74643E207C000AF7
:100340007C2D2D2D7C3A2D3A7C3A2D3A7C3A2D3A53
:100350007C3A2D3A7C002C203029206630207C000D
:100360000A0A7C204D6574686F64207C2028302C3C
:10037000203029206630207C2028302C2030292075
:100380006631207C2028302C203429206630207CC7
:100390002028000A0A2323232044696D656E7369AF
:1003A0006F6E733A200002080808101020204040A9
:1003B0008040FFFFFFFFFFFFFFFFFF3FCFF7FBFB8B
:1003C000FDFDFF3FCFF7FBFBFDFDFDFCFBFBF7CF8A
:1003D0000FBFFFFFFFFFFFFFFFFFFF3FCFF7FBFB5D
:1003E000FDFDFF3FCFF7FBFBFDFDFDFCFBFBF7CF6A
:1003F0000FBFFFFFFFFFFFFFFFFFFF3FCFF7FBFB3D
:10040000FDFDFF3FCFF7FBFBFDFDFDFCFBFBF7CF49
:100410000FBFFFFFFFFFFFFFFFFFFF3FCFF7FBFB1C
:10042000FDFDFF3FCFF7FBFBFDFDFDFCFBFBF7CF29
:100430000FBFFFFFFFFFFFFFFFFFFF3FCFF7FBFBFC
:10044000FDFDFF3FCFF7FBFBFDFDFDFCFBFBF7CF09
:100450000FBFFFFFFFFFFFFFFFFFFF3FCFF7FBFBDC
:10046000FDFDFF3FCFF7FBFBFDFDFDFCFBFBF7CFE9
:100470000FBFFFFFFFFFFFFFFFFFFF3FCFF7FBFBBC
:10048000FDFDFF3FCFF7FBFBFDFDFDFCFBFBF7CFC9
:100490000FBFFFFFFFFFFFFFFFFFFF3FCFF7FBFB9C
:1004A000FDFDFF3FCFF7FBFBFDFDFDFCFBFBF7CFA9
:1004B0000FBFFFFFFFFFFFFFFFFFFF3FCFF7FBFB7C
:1004C000FDFDFF3FCFF7FBFBFDFDFDFCFBFBF7CF89
:1004D0000FBFFFFFFFFFFFFFFFFFFF3FCFF7FBFB5C
:1004E000FDFDFF3FCFF7FBFBFDFDFDFCFBFBF7CF69
:1004F0000FBFFFFFFFFFFFFFFFFFFF3FCFF7FBFB3C
:10050000FDFDFF3FCFF7FBFBFDFDFDFCFBFBF7CF48
:100510000FBFFFFFFFFFFFFFFFFFFF3FCFF7FBFB1B
:10052000FDFDFF3FCFF7FBFBFDFDFDFCFBFBF7CF28
:100530000FBFFFFFFFFFFFFFFFFFFF3FCFF7FBFBFB
:10054000FDFDFF3FCFF7FBFBFDFDFDFCFBFBF7CF08
:100550000FBFFFFFFFFFFFFFFFFFFF3FCFF7FBFBDB
:10056000FDFDFF3FCFF7FBFBFDFDFDFCFBFBF7CFE8
:100570000FBFFFFFFFFFFFFFFFFFFF3FCFF7FBFBBB
:10058000FDFDFF3FCFF7FBFBFDFDFDFCFBFBF7CFC8
:100590000FBFFFFFFFFFFFFFFFFFFF3FCFF7FBFB9B
:1005A000FDFDFF3FCFF7FBFBFDFDFDFCFBFBF7CFA8
:1005B0000FBFFFFFFFFFFFFFFFFFFF3FCFF7FBFB7B
:1005C000FDFDFF3FCFF7FBFBFDFDFDFCFBFBF7CF88
:1005D0000FBFFFFFFFFFFFFFFFFFFF3FCFF7FBFB5B
:1005E000FDFDFF3FCFF7FBFBFDFDFDFCFBFBF7CF68
:1005F0000FBFFFFFFFFFFFFFFFFFFF3FCFF7FBFB3B
:10060000FDFDFF3FCFF7FBFBFDFDFDFCFBFBF7CF47
:100610000FBFFFFFFFFFFFFFFFFFFF3FCFF7FBFB1A
:10062000FDFDFF3FCFF7FBFBFDFDFDFCFBFBF7CF27
:100630000FBFFFFFFFFFFFFFFFFFFF3FCFF7FBFBFA
:10064000FDFDFF3FCFF7FBFBFDFDFDFCFBFBF7CF07
:100650000FBFFFFFFFFFFFFFFFFFFF3FCFF7FBFBDA
:10066000FDFDFF3FCFF7FBFBFDFDFDFCFBFBF7CFE7
:100670000FBFFFFFFFFFFFFFFFFFFF3FCFF7FBFBBA
:10068000FDFDFF3FCFF7FBFBFDFDFDFCFBFBF7CFC7
:100690000FBFFFFFFFFFFFFFFFFFFF3FCFF7FBFB9A
:1006A000FDFDFF3FCFF7FBFBFDFDFDFCFBFBF7CFA7
:1006B0000FBFFFFFFFFFFFFFFFFFFF3FCFF7FBFB7A
:1006C000FDFDFF3FCFF7FBFBFDFDFDFCFBFBF7CF87
:1006D0000FBFFFFFFFFFFFFFFFFFFF3FCFF7FBFB5A
:1006E000FDFDFF3FCFF7FBFBFDFDFDFCFBFBF7CF67
:1006F0000FBFFFFFFFFFFFFFFFFFFF3FCFF7FBFB3A
:10070000FDFDFF3FCFF7FBFBFDFDFDFCFBFBF7CF46
:100710000FBFFFFFFFFFFFFFFFFFFF3FCFF7FBFB19
:10072000FDFDFF3FCFF7FBFBFDFDFDFCFBFBF7CF26
:100730000FBFFFFFFFFFFFFFFFFFFF3FCFF7FBFBF9
:10074000FDFDFF3FCFF7FBFBFDFDFDFCFBFBF7CF06
:100750000FBFFFFFFFFFFFFFFFFFFF3FCFF7FBFBD9
:10076000FDFDFF3FCFF7FBFBFDFDFDFCFBFBF7CFE6
:100770000FBFFFFFFFFFFFFFFFFFFF3FCFF7FBFBB9
:10078000FDFDFF3FCFF7FBFBFDFDFDFCFBFBF7CFC6
:100790000FBFFFFFFFFFFFFFFFFFFF3FCFF7FBFB99
:1007A000FDFDFF3FCFF7FBFBFDFDFDFCFBFBF7CFA6
:1007B0000FBF080B00020202000009040000010242
:1007C0000200000524001001052401010104240297
:1007D00006052406000107058103100040090401F5
:1007E00000020A000000070502024000000705831E
:1007F000024000000403090412010002EF0201405C
:100800004123368000010102030141726475696E63
:100810006F204C4C430041726475626F7900082868
:1008200011241FBECFEFDAE0DEBFCDBF11E0A0E0A4
:10083000B1E0E6EEF3E502C005900D92A833B107F2
:10084000D9F725E0A8E3B1E001C01D92A83BB207AB
:10085000E1F714E0C0E1D4E004C02197FE010E945A
:10086000EB29CF30D107C9F70E9470270C94F129EA
:100870000C940000FC0180915D05882311F13FB7C5
:10088000F89482E08093E9002091F200822F90E0BA
:100890001816190614F481E090E0882339F028989E
:1008A00044E640935C054091F1004083222339F0F7
:1008B0002091F200211103C02BE62093E8003FBFF6
:1008C00008958FEF9FEF08952FB7F89483E08093FA
:1008D000E9009091E800892F807295FF04C0909103
:1008E000F20080E4891B2FBF089580915405811187
:1008F0000DC082E08093500584E0809351051092F2
:1009000053051092520581E08093540580E595E0EF
:10091000089540914201509143012091400130914E
:10092000410142175307B4F49091E8009570E1F348
:100930009091E80092FD19C08093F10080914201EE
:100940009091430101968F739927892B19F48EEFAB
:100950008093E80080914201909143010196909329
:1009600043018093420181E0089580E00895EF9271
:10097000FF920F931F93CF93DF93F82E192FE62E3C
:10098000042F81E0860F880F0E94890483E00E9473
:100990008904CF2DD12FEC0EFD2EF11CCE15DF05D5
:1009A000B9F007FF13C0FE0184910E948904182F3B
:1009B00080E00E948904812321968111EFCFDF918D
:1009C000CF911F910F91FF90EF9008958881EDCF07
:1009D00081E0F5CFDF92EF92FF920F931F93CF93B9
:1009E000DF93D82E8A01EB017B01E40EF51ECE15B4
:1009F000DF0559F0D7FE12C0FE0184910E948904E0
:100A000021968111F4CF0FEF1FEFC801DF91CF9135
:100A10001F910F91FF90EF90DF9008958881EECFA6
:100A20000F931F93CF93DF931F92CDB7DEB782E072
:100A3000898342E450E062EB77E080E80E94EA04B8
:100A40000E947504DC0112960D911C91011511058F
:100A500089F0D801ED91FC910280F381E02DBE0177
:100A60006F5F7F4FC801099597FD04C0F8010085AD
:100A70001185ECCF89810F90DF91CF911F910F915C
:100A80000895615030F02091F100FC01208301961F
:100A9000F8CF289884E680935C050895CF93DF9380
:100AA0001F92CDB7DEB76983DC01ED91FC91028026
:100AB000F381E02D41E050E0BE016F5F7F4F09956B
:100AC0000F90DF91CF9108950F931F93CF93DF93F2
:100AD0008C01D0E0C0E0F801EC0FFD1F64916623AB
:100AE00041F08EE595E00E944E05892B11F021968C
:100AF000F2CFCE01DF91CF911F910F91089583E046
:100B00008093E9008091F200882319F08AE38093B2
:100B1000E80008950E94640490E00895CF93DF9365
:100B20001F92CDB7DEB7FC018485958597FD08C07F
:100B30002FEF3FEF358724870F90DF91CF910895F6
:100B4000CE0101960E943A04019719F4898190E040
:100B5000F3CF8FEF9FEFF0CF0F931F93CF93DF93E0
:100B60001F92CDB7DEB78C01FC018485958597FF78
:100B70000BC0CE0101960E943A04019771F489815D
:100B800090E0F80195878487F801848595850F901A
:100B9000DF91CF911F910F9108958FEF9FEFF1CFCC
:100BA000FC018485958597FD0BC09FB7F89482E082
:100BB0008093E9008091F2009FBF90E00196089534
:100BC0009FB7F89482E08093E9008091F2009FBF84
:100BD00090E008950DB407FEFDCF8EB5599A0895A3
:100BE0000E94F505982F0C94EA050DB407FEFDCF81
:100BF0008EB51EBC08950E94F505982F0C94F5053E
:100C000059980E941607862F0E941607852F0E946A
:100C10001607842F0C941607462F50913E01570F4C
:100C200060913F01681F83E00E9400061EBC08958A
:100C30004F925F926F927F928F92AF92BF92CF92BC
:100C4000DF92EF92FF920F931F93CF93DF93EC010C
:100C50006B013901842E842FB9010E940C060E9479
:100C6000FB05182FA82EB92E0E94F0052C01950126
:100C70002C0F3D1F121613060CF0C8C0C038D1054A
:100C80000CF0C4C08C0D9D1D181619060CF0BEC0CA
:100C9000D7FF0AC0EE27FF27EC1BFD0B1E1B2038D9
:100CA00031054CF010E807C02138310514F010E888
:100CB0001C1BF0E0E0E08134910514F4F42C03C037
:100CC00080E4F82EFC18A201495F5F4F56954795C6
:100CD0005695479556954795049F9001059F300D71
:100CE000112440E0B5010B2C000C880B0E94E12977
:100CF000A82FCB018E0F9F1FA11DF7FDAA95EE20F7
:100D000029F0880F991FAA1FAA0CBB1C24E0620EB1
:100D1000711C811C680E791E8A1E41E0C1FC44E0F2
:100D2000C0FC440FC2FC4295EC0FFD1FE05BFE4F80
:100D30002F2D30E0599883E08EBD80913E01909137
:100D40003F01870D981D0DB407FEFDCF9EBD0DB46C
:100D500007FEFDCF8EBD0DB407FEFDCF6EBC6A0C45
:100D60007B1C811C0DB407FEFDCF1EBCEE0C373082
:100D700014F4089440FD8894E79452E021FD58E073
:100D800022FD529520FF56955A9511F028300CF00F
:100D90005FEF912F0EB41EBCE3FC0526852FE0FC0F
:100DA000802DE2FC0024049EB001E4FA36F4C895DC
:100DB000C89511240EB41EBCE0FC082E049E3030F1
:100DC00034F08081E1FE6827602168276083E05865
:100DD000FF4FE7FE06C08081E1FE7827712178276A
:100DE00070831124E5FCE158E5FEEF57F1099A956F
:100DF00089F6812FE5FE81958058E80FF11D285076
:100E000033950DB4599A12160CF494CFDF91CF910B
:100E10001F910F91FF90EF90DF90CF90BF90AF9018
:100E20008F907F906F905F904F9008958EBD0000DF
:100E30008EB50DB407FEFCCF0895FC010E94B807E3
:100E4000319728F068517C4F8F4F9F4FF9CFAB01FE
:100E5000FC010E94B807641775078E079F07C8F347
:100E6000089585E090E00C941D078F929F92AF92B9
:100E7000BF92CF92DF92EF92FF920F931F93CF9387
:100E8000DF936C017B018A0180910B01882309F4B7
:100E90005AC080915D05882309F455C080914601B0
:100EA00080FF05C08091E00082608093E000E8014F
:100EB000B12C8AEFA82E93E0892E2AE3922E209758
:100EC00011F4BB20C9F10E946404811108C0AA94E6
:100ED000AA20C9F181E090E00E941D07F0CF8C1795
:100EE0001D0611F00CF08C2F9FB7F8948092E9004A
:100EF0002091E80025FD02C09FBFE1CF282F30E000
:100F0000C21BD30BF701815020F041914093F100B7
:100F1000FACFE20EF31EBB2021F09092E800B12C34
:100F2000EBCF8091E80085FDE7CF9092E800BB24ED
:100F3000B394209709F3F3CF5D9884E6809345013D
:100F4000101611063CF081E090E0F6019383828355
:100F500010E000E0C801DF91CF911F910F91FF9049
:100F6000EF90DF90CF90BF90AF909F908F900895BB
:100F7000AAE3B1E02FB7F8947D918D919C9166B56D
:100F80002FBFA89B05C06F3F18F47F5F8F4F9F4F07
:100F900022E0660F771F881F991F2A95D1F70895C1
:100FA0002F923F924F925F926F927F928F929F9279
:100FB000AF92BF92CF92DF92EF92FF920F931F9367
:100FC000CF93DF9300D000D000D0CDB7DEB7DC01E7
:100FD000A00FB11D1A161B060CF0CFC0803891056A
:100FE0000CF0CBC0FB01EE0DF11DEF2B09F4C5C0D9
:100FF0004115510509F4C1C0262EEE27FF27E81B35
:10100000F90B97FD02C0F0E0E0E010E8D12ED81A0D
:10101000A038B1050CF4D02EDE1AB1E0AE2DA770C9
:1010200009F4B0E0E694E694E6943B2E3E0CB8E07A
:10103000B31510F4A8E03A2E8E0F9F1F73E0972E81
:10104000A1E0C91001C0A2E0A9830D19B9810B9FCD
:10105000002D1124AB2EB12CAE9ED001AF9EB00D51
:10106000BE9EB00D11247A01EA0EFB1E211531053A
:1010700009F49A01F5013197AE0FBF1F2A0F3B1FEC
:1010800066246A94712C062E02C0660C771C0A94A2
:10109000E2F760947094402F50E0DA01E981DE9E1F
:1010A000A00DB11D1124BC83AB83512C531409F442
:1010B00064C0AC01405B5E4F5E834D8310E000E096
:1010C000412C4D1409F44FC0F701E00FF11FA4911A
:1010D000B0E0AD01062E02C0440F551F0A94E2F79E
:1010E0005A83498352E0F301C51649F0ABEFCA12A7
:1010F0002CC0E981FA81E095F0951A82198257FC9B
:1011000009C0AD81BE819C909E22B9819B2AAD8190
:10111000BE819C92222079F0B6E0B51564F08D80F6
:101120009E8040E8840E911CD401EC91EF23BA819B
:10113000EB2BD401EC9343940A0D1B1D4D815E8172
:101140004F5F5F4F5E834D83BCCFF901E00FF11F0E
:10115000E491F0E0062E02C0EE0FFF1F0A94E2F7C2
:10116000E095F095CCCF5394AB81BC81EA0EFB1E89
:101170002A0F3B1F80589F4F99CF26960FB6F894A1
:10118000DEBF0FBECDBFDF91CF911F910F91FF90BA
:10119000EF90DF90CF90BF90AF909F908F907F9017
:1011A0006F905F904F903F902F900895CF92EF9265
:1011B0000F934115510529F1FA0104913196E490FC
:1011C0004E5F5F4F2223B9F0A1E0B0E02E2D2770D3
:1011D00011F4B0E0A0E0EE2DE695E695E695EA0F75
:1011E000FB2FF11D0E9F90010F9F300D1124220F38
:1011F000331F420F531F23E0C22E30E020E00E9435
:10120000D0070F91EF90CF900895CF92EF920F9368
:101210004115510519F1FA0104913196E4904E5FA0
:101220005F4F2223A9F0E1E0F0E03E2D377011F48A
:10123000F0E0E0E02E2D2695269526952E0F3F2FE7
:10124000311D029FF001039FF00D11244E0F5F1F0F
:1012500022E0C22E30E020E00E94D0070F91EF90F4
:10126000CF9008956F927F928F929F92AF92BF928C
:10127000CF92DF92EF92FF920F931F93CF93DF9362
:10128000D9012C2DC02FD0E06E01C80ED91E1C1420
:101290001D040CF07DC1803891050CF079C1FB0173
:1012A000EE0DF11DEF2B09F473C14115510509F441
:1012B0006FC1162FEE27FF27E81BF90B97FD02C021
:1012C000F0E0E0E030E8C316D10414F000E8081BB9
:1012D0000E1BDD24D3943E2D377009F4D12CE694F7
:1012E000E694E6943D2D3E0D393008F038E08E0F3F
:1012F0009F1F4E0F5F1F233009F4FEC008F057C137
:10130000213009F4AFC0223009F042C1AFEFB0E0A4
:10131000062E02C0AA0FBB1F0A94E2F7A095B09553
:101320009B2E20E0321709F433C1FC01E05BFE4F35
:101330007F01D12CC12CC01650F5FA01EC0DFD1D1A
:10134000E491F0E03F01062E02C0660C771C0A947F
:10135000E2F727FD05C0F701B080BA22B628B082B7
:10136000112371F0273064F45701F0E8AF0EB11C7F
:10137000F5018080E82DE9218E2E8728F5018082F5
:10138000FFEFCF1ADF0AEFEFEE1AFE0AD4CF2F5F7E
:101390004C0F5D1F80589F4FC5CF2F5F4C0F5D1FB7
:1013A00080589F4F231709F4F3C0DC01A05BBE4FA8
:1013B000F12CE12CE01688F7FA01EE0DFF1DE49107
:1013C000F0E05F01062E02C0AA0CBB1C0A94E2F7F3
:1013D00027FD03C0DC90DA28DC92112351F027307E
:1013E00044F46D01F0E8CF0ED11CF601A080BA28BC
:1013F000B082FFEFEF1AFF0A1196DCCF2F5F4C0F80
:101400005D1F80589F4F231709F4C2C0DC01A05B09
:10141000BE4FF12CE12CE01688F7FA01EE0DFF1D0E
:10142000E491F0E05F01062E02C0AA0CBB1C0A94F6
:10143000E2F727FD05C0DC90CA2CC094DC20DC92CA
:10144000112359F027304CF46D01E0E8CE0ED11C89
:10145000B094F601A080BA20B082FFEFEF1AFF0A25
:101460001196D9CFAE0FBF1F20E0231709F490C00B
:10147000FC01E05BFE4F7F01D12CC12CC016A0F512
:10148000FD01EC0DFD1DA490B12C062E02C0AA0C8E
:10149000BB1C0A94E2F7A094B094FA01EC0DFD1D78
:1014A0008490912C062E02C0880C991C0A94E2F7B5
:1014B00027FD08C0F7017080E72DEA217E2E7828ED
:1014C000F7017082112349F027303CF4F701E0580E
:1014D000FF4FA080BA20B928B082FFEFCF1ADF0AF1
:1014E000EFEFEE1AFE0ACACF2F5F4C0F5D1FAC0F55
:1014F000BD1F80589F4FB9CFE02EF12CE40FF51F90
:10150000805B9E4F40E850E04E195F09CE19DF091D
:10151000CC0FDD1FA1E0B0E06D01062E01C0CC0CA8
:101520000A94EAF7132F70E0702EDC019E01E62E7C
:10153000CF93DF93ED01EF96EF9622968590A590DD
:10154000EE2059F08C9C4001AC9C500177302CF47B
:10155000F880B094FB20F928F99277233AF0FC90B8
:10156000A094FA20F828FD920C94B70A11960A95D7
:1015700029F71A9551F0072D73951124E20FF11DEB
:10158000A40FB11DC40FD11DD9CFDF91CF9111246C
:10159000DF91CF911F910F91FF90EF90DF90CF904F
:1015A000BF90AF909F908F907F906F9008952A3F4B
:1015B00021F02B3F69F720E026CF20E0F3CECF9239
:1015C000EF920F934115510529F1FA0104913196DB
:1015D000E4904E5F5F4F2223B9F0A1E0B0E02E2DE2
:1015E000277011F4B0E0A0E0EE2DE695E695E695C3
:1015F000EA0FFB2FF11D0E9F90010F9F300D11245C
:10160000220F331F420F531F23E0C22E30E020E091
:101610000E9432090F91EF90CF900895CF92EF92F0
:101620000F934115510519F1FA0104913196E49097
:101630004E5F5F4F2223A9F0E1E0F0E03E2D3770CE
:1016400011F4F0E0E0E02E2D2695269526952E0F3C
:101650003F2F311D029FF001039FF00D11244E0F0B
:101660005F1F22E0C22E30E020E00E9432090F917D
:10167000EF90CF900895EF920F93CF9310926F0059
:10168000109280001092710010929000C4E0C093FC
:101690008100C1E0C0939100CFB7F894109285000B
:1016A000109284001092950010929400FC01228107
:1016B000F4E02F9F90011124032E000C440B2058BE
:1016C0003F4F4F4F50E1E52E00E070E060E0FC013D
:1016D000808191810E94180600908400A09185006D
:1016E0008091940090919500109281001092910049
:1016F000CFBF0597A109BC018A2F90E0CF910F9130
:10170000EF900895EF920F93CF9310926F00109285
:1017100080001092710010929000C4E0C09381008C
:10172000C1E0C0939100CFB7F89410928500109259
:1017300084001092950010929400FC012081F4E046
:101740002F9F90011124032E000C440B20583F4F73
:101750004F4F80E1E82E00E064E070E090E080E030
:101760000E94180600908400A0918500809194004A
:10177000909195001092810010929100CFBF059733
:10178000A109BC018A2F90E0CF910F91EF900895AD
:10179000EF920F93CF9310926F00109280001092EF
:1017A000710010929000C4E0C0938100C1E0C0932A
:1017B0009100CFB7F8941092850010928400109297
:1017C000950010929400FC012081F4E02F9F90017D
:1017D0001124032E000C440B20583F4F4F4F80E143
:1017E000E82E01E070E060E090E080E00E941806E2
:1017F00000908400A09185008091940090919500C4
:101800001092810010929100CFBF0597A109BC01F1
:101810008A2F90E0CF910F91EF900895EF920F9360
:10182000CF9310926F00109280001092710010926E
:101830009000C4E0C0938100C1E0C0939100CFB795
:10184000F8941092850010928400109295001092E6
:101850009400FC012081F4E02F9F90011124032EBD
:10186000000C440B20583F4F4F4F80E1E82E00E022
:1018700070E060E090E080E00E9418060090840034
:10188000A091850080919400909195001092810024
:1018900010929100CFBF0597A109BC018A2F90E05B
:1018A000CF910F91EF900895CF9310926F00109207
:1018B00080001092710010929000C4E0C0938100EB
:1018C000C1E0C0939100CFB7F894109285001092B8
:1018D00084001092950010929400FC01428150E027
:1018E000440F551F4A555C4F20E070E060E0808156
:1018F00091810E94D60800908400A091850080917B
:101900009400909195001092810010929100CFBFA9
:101910000597A109BC018A2F90E0CF910895CF933C
:1019200010926F001092800010927100109290003F
:10193000C4E0C0938100C1E0C0939100CFB7F89498
:1019400010928500109284001092950010929400DD
:10195000FC01408150E0440F551F4A555C4F20E088
:1019600064E070E090E080E00E94D608009084007F
:10197000A091850080919400909195001092810033
:1019800010929100CFBF0597A109BC018A2F90E06A
:10199000CF910895CF9310926F0010928000109213
:1019A000710010929000C4E0C0938100C1E0C09328
:1019B0009100CFB7F8941092850010928400109295
:1019C000950010929400FC01408150E0440F551F97
:1019D0004A555C4F21E070E060E090E080E00E94BA
:1019E000D60800908400A091850080919400909189
:1019F00095001092810010929100CFBF0597A10928
:101A0000BC018A2F90E0CF910895CF9310926F0080
:101A1000109280001092710010929000C4E0C09368
:101A20008100C1E0C0939100CFB7F8941092850077
:101A3000109284001092950010929400FC01408155
:101A400050E0440F551F4A555C4F20E070E060E0C5
:101A500090E080E00E94D60800908400A09185006C
:101A600080919400909195001092810010929100C5
:101A7000CFBF0597A109BC018A2F90E0CF910895AF
:101A8000CF9310926F00109280001092710010920C
:101A90009000C4E0C0938100C1E0C0939100CFB733
:101AA000F894109285001092840010929500109284
:101AB0009400FC01428150E0440F551F4A555C4F91
:101AC00020E070E060E0808191810E94DF0A009058
:101AD0008400A091850080919400909195001092CF
:101AE000810010929100CFBF0597A109BC018A2FF8
:101AF00090E0CF910895CF9310926F0010928000E4
:101B00001092710010929000C4E0C0938100C1E077
:101B1000C0939100CFB7F894109285001092840082
:101B20001092950010929400FC01408150E0440F07
:101B3000551F4A555C4F20E064E070E090E080E083
:101B40000E94DF0A00908400A0918500809194009B
:101B5000909195001092810010929100CFBF05974F
:101B6000A109BC018A2F90E0CF910895CF931092E4
:101B70006F00109280001092710010929000C4E0EB
:101B8000C0938100C1E0C0939100CFB7F894109248
:101B90008500109284001092950010929400FC0130
:101BA000408150E0440F551F4A555C4F21E070E0E2
:101BB00060E090E080E00E94DF0A00908400A09145
:101BC0008500809194009091950010928100109270
:101BD0009100CFBF0597A109BC018A2F90E0CF915A
:101BE0000895CF9310926F001092800010927100B0
:101BF00010929000C4E0C0938100C1E0C0939100B6
:101C0000CFB7F8941092850010928400109295003E
:101C100010929400FC01408150E0440F551F4A553A
:101C20005C4F20E070E060E090E080E00E94DF0A1E
:101C300000908400A091850080919400909195007F
:101C40001092810010929100CFBF0597A109BC01AD
:101C50008A2F90E0CF910895EF920F93CF93109237
:101C60006F00109280001092710010929000C4E0FA
:101C7000C0938100C1E0C0939100CFB7F894109257
:101C80008500109284001092950010929400FC013F
:101C90002281F4E02F9F90011124032E000C440BAD
:101CA00020583F4F4F4FE12C00E070E060E0FC0116
:101CB000808191810E94180600908400A091850087
:101CC0008091940090919500109281001092910063
:101CD000CFBF0597A109BC018A2F90E0CF910F914A
:101CE000EF900895EF920F93CF9310926F001092A0
:101CF00080001092710010929000C4E0C0938100A7
:101D0000C1E0C0939100CFB7F89410928500109273
:101D100084001092950010929400FC012081F4E060
:101D20002F9F90011124032E000C440B20583F4F8D
:101D30004F4FE12C00E064E070E090E080E00E9412
:101D4000180600908400A0918500809194009091E5
:101D500095001092810010929100CFBF0597A109C4
:101D6000BC018A2F90E0CF910F91EF900895EF92F0
:101D70000F93CF9310926F00109280001092710019
:101D800010929000C4E0C0938100C1E0C093910024
:101D9000CFB7F894109285001092840010929500AD
:101DA00010929400FC012081F4E02F9F90011124F7
:101DB000032E000C440B20583F4F4F4FE12C01E005
:101DC00070E060E090E080E00E94180600908400DF
:101DD000A0918500809194009091950010928100CF
:101DE00010929100CFBF0597A109BC018A2F90E006
:101DF000CF910F91EF900895EF920F93CF931092A0
:101E00006F00109280001092710010929000C4E058
:101E1000C0938100C1E0C0939100CFB7F8941092B5
:101E20008500109284001092950010929400FC019D
:101E30002081F4E02F9F90011124032E000C440B0D
:101E400020583F4F4F4FE12C00E070E060E090E001
:101E500080E00E94180600908400A0918500809187
:101E60009400909195001092810010929100CFBF44
:101E70000597A109BC018A2F90E0CF910F91EF90B7
:101E80000895CF9310926F0010928000109271000D
:101E900010929000C4E0C0938100C1E0C093910013
:101EA000CFB7F8941092850010928400109295009C
:101EB00010929400FC01428150E0440F551F4A5596
:101EC0005C4F20E070E060E0808191810E94050914
:101ED00000908400A09185008091940090919500DD
:101EE0001092810010929100CFBF0597A109BC010B
:101EF0008A2F90E0CF910895CF9310926F001092A7
:101F000080001092710010929000C4E0C093810094
:101F1000C1E0C0939100CFB7F89410928500109261
:101F200084001092950010929400FC01408150E0D2
:101F3000440F551F4A555C4F20E064E070E090E08C
:101F400080E00E94050900908400A09185008091A6
:101F50009400909195001092810010929100CFBF53
:101F60000597A109BC018A2F90E0CF910895CF93E6
:101F700010926F00109280001092710010929000E9
:101F8000C4E0C0938100C1E0C0939100CFB7F89442
:101F90001092850010928400109295001092940087
:101FA000FC01408150E0440F551F4A555C4F21E031
:101FB00070E060E090E080E00E94050900908400FD
:101FC000A0918500809194009091950010928100DD
:101FD00010929100CFBF0597A109BC018A2F90E014
:101FE000CF910895CF9310926F00109280001092BD
:101FF000710010929000C4E0C0938100C1E0C093D2
:102000009100CFB7F894109285001092840010923E
:10201000950010929400FC01408150E0440F551F40
:102020004A555C4F20E070E060E090E080E00E9464
:10203000050900908400A091850080919400909102
:1020400095001092810010929100CFBF0597A109D1
:10205000BC018A2F90E0CF910895CF9310926F002A
:10206000109280001092710010929000C4E0C09312
:102070008100C1E0C0939100CFB7F8941092850021
:10208000109284001092950010929400FC014281FD
:1020900050E0440F551F4A555C4F20E070E060E06F
:1020A000808191810E940E0B00908400A091850098
:1020B000809194009091950010928100109291006F
:1020C000CFBF0597A109BC018A2F90E0CF91089559
:1020D000CF9310926F0010928000109271001092B6
:1020E0009000C4E0C0938100C1E0C0939100CFB7DD
:1020F000F89410928500109284001092950010922E
:102100009400FC01408150E0440F551F4A555C4F3C
:1021100020E064E070E090E080E00E940E0B009010
:102120008400A09185008091940090919500109278
:10213000810010929100CFBF0597A109BC018A2FA1
:1021400090E0CF910895CF9310926F00109280008D
:102150001092710010929000C4E0C0938100C1E021
:10216000C0939100CFB7F89410928500109284002C
:102170001092950010929400FC01408150E0440FB1
:10218000551F4A555C4F21E070E060E090E080E030
:102190000E940E0B00908400A09185008091940015
:1021A000909195001092810010929100CFBF0597F9
:1021B000A109BC018A2F90E0CF910895CF9310928E
:1021C0006F00109280001092710010929000C4E095
:1021D000C0938100C1E0C0939100CFB7F8941092F2
:1021E0008500109284001092950010929400FC01DA
:1021F000408150E0440F551F4A555C4F20E070E08D
:1022000060E090E080E00E940E0B00908400A091BE
:102210008500809194009091950010928100109219
:102220009100CFBF0597A109BC018A2F90E0CF9103
:1022300008958093F100082E000C990B08954F9299
:102240005F926F927F928F929F92AF92BF92CF9246
:10225000DF92EF92FF920F931F93CF93DF9337019B
:10226000802E803891050CF0C6C0A42FB0E0FD018F
:10227000E80FF91F1E161F060CF0BDC0022F10E05C
:10228000F801E60FF71FEF2B09F4B5C0C114D10414
:10229000A1F0269526952695A0FC220F249FF001FB
:1022A000ED9D700C811CFC9D700C811CFD9D800CB3
:1022B000EC9D600C711C1124811C102F002728013B
:1022C000442A5B2AD52DA0E5B1E0E82FCC24942C3C
:1022D000D695D695D695F1E061FDF4E060FDFF0F4F
:1022E00062FDF29544274095542FA2FC05C01FEFD4
:1022F0001F9FA001409550957595679575956795B9
:1023000075956795062F0F3F4CF40095D01BA0FCE8
:10231000000F049D600C711C8C1C0FEF97FF0BC00D
:10232000980EA0FE02C0880F991F681A790A8C08BF
:1023300097FD8394EE2710E801030E0EA00DB11D4A
:102340001E1B911608F0912E17E0101B1D1714F498
:10235000D12FC39410E81919242D3327A1FC02C0F2
:102360002919330BA0FE02C0220F331F1124F12EB6
:10237000B02EDF2EA11050C0F3018D2F01158CF46B
:10238000A058BF4F992D65916D9D1C911523112962
:102390001D939A95C1F711248A95A919B109E20FE5
:1023A000F31F8823E9F0CF93DF93ED01C058DF4F8F
:1023B000992D65916D9D1C91142310291D931881F1
:1023C0001523112919939A95A1F71124AF0DB11D69
:1023D000CF0DD11DE20FF31F8A9551F7DF91CF91F9
:1023E000CC2041F065916D9D1C91142310291D9303
:1023F0009A94C1F71124DF91CF911F910F91FF9013
:10240000EF90DF90CF90BF90AF909F908F907F9094
:102410006F905F904F90089501E0A01250C0F301BB
:102420008D2FB114B4F4A058BF4F992D45916591EB
:102430004D9DA0016D9DB0011C9170951723152B2A
:102440001D939A9599F711248A95A919B109E20F5C
:10245000F11D882319F1CF93DF93ED01C058DF4FB1
:10246000992D459165914D9DA0016D9DB0011C91E7
:1024700060951623142B1D93188170951723152B27
:1024800019939A9571F71124AF0DB11DCF0DD11D80
:10249000E20FF11D8A9521F7DF91CF91CC2069F0F1
:1024A000459165914D9DA0016D9DB0011C91609578
:1024B0001623142B1D939A9499F711249CCF63E053
:1024C00000903E01700C00903F01801C18C059988C
:1024D0006EBD620E731E811CEE24491409F0E39454
:1024E0000CD08EBC07D07EBC05D06EBC03D01EBC09
:1024F00003D00895C8950000C895C8950895621A3C
:10250000730A8108E4DFB1141CF0DD2371F564C0A7
:10251000A058BF4F792DA0FC0CC08EB51EBC8D9D60
:102520001C91152311291D93C89500C07A95A9F710
:1025300011C08EB51EBC8D9DC001DEDF4EB51EBC28
:102540004D9DA0011C9150951523192B1D93C895E5
:102550007A9579F71124A919B109DA9509F45CC0C3
:10256000EE2019F00DB4599AB2DFFD01E058FF4F8B
:10257000792DA0FC0EC08EB51EBC8D9D1C91142320
:1025800010291D9310811523112911937A9599F71C
:1025900016C08EB51EBC8D9DC0011C915081AEDF52
:1025A00000C04EB51EBC4D9D00941021182B1D93EC
:1025B00010945121592B519300007A9551F7112411
:1025C000AF0DB11DDA9561F6CC2031F1EE2021F08E
:1025D0000DB4599A7CDFC895A0FC0CC08EB51EBC0A
:1025E0008D9D1C91142310291D93C89500C09A94A9
:1025F000A9F712C08EB51EBC8D9DC0017DDFDEB572
:102600001EBCDD9DD02D1C91D0951D23182B1D9334
:10261000C8959A9479F7C8951124599A0DB4EBCEC0
:102620007F928F929F92AF92CF92DF92EF92FF9222
:102630000F931F93CF93DF93EC014B016901E42EBD
:10264000842FB9010E940C060E94F505782E0E9485
:10265000EA054E2D96012E5F3F4F4F4F93E0A92E76
:1026600068017901042F282F472DB401CE010E9463
:102670001F11DF91CF911F910F91FF90EF90DF908D
:10268000CF90AF909F908F907F9008950F931F935E
:10269000CF9310926F0010928000109271001092F0
:1026A0009000C4E0C0938100C1E0C0939100CFB717
:1026B000F894109285001092840010929500109268
:1026C0009400FC01228130E0220F331F032E000C06
:1026D000440B10E000E070E060E0808191810E9496
:1026E000101300908400A091850080919400909137
:1026F00095001092810010929100CFBF0597A1091B
:10270000BC018A2F90E0CF911F910F9108950F93F4
:102710001F93CF9310926F0010928000109271005F
:1027200010929000C4E0C0938100C1E0C09391007A
:10273000CFB7F89410928500109284001092950003
:1027400010929400FC01208130E0220F331F032EF1
:10275000000C440B10E000E064E070E090E080E0EA
:102760000E94101300908400A09185008091940035
:10277000909195001092810010929100CFBF059723
:10278000A109BC018A2F90E0CF911F910F9108956C
:102790000F931F93CF9310926F00109280001092AE
:1027A000710010929000C4E0C0938100C1E0C0931A
:1027B0009100CFB7F8941092850010928400109287
:1027C000950010929400FC01208130E0220F331F0D
:1027D000032E000C440B01E010E070E060E090E09C
:1027E00080E00E94101300908400A09185008091E9
:1027F0009400909195001092810010929100CFBFAB
:102800000597A109BC018A2F90E0CF911F910F91EC
:1028100008950F931F93CF9310926F001092800032
:102820001092710010929000C4E0C0938100C1E04A
:10283000C0939100CFB7F894109285001092840055
:102840001092950010929400FC01208130E0220F3C
:10285000331F032E000C440B10E000E070E060E03A
:1028600090E080E00E94101300908400A091850009
:1028700080919400909195001092810010929100A7
:10288000CFBF0597A109BC018A2F90E0CF911F917E
:102890000F9108957F928F929F92AF92CF92DF9285
:1028A000EF92FF920F931F93CF93DF93EC014B01B5
:1028B0006901E42E842FB9010E940C060E94F505DF
:1028C000782E0E94EA054E2D96012E5F3F4F4F4F06
:1028D00092E0A92E68017901042F282F472DB40119
:1028E000CE010E941F11DF91CF911F910F91FF9098
:1028F000EF90DF90CF90AF909F908F907F90089552
:102900000F931F93CF9310926F001092800010923C
:10291000710010929000C4E0C0938100C1E0C093A8
:102920009100CFB7F8941092850010928400109215
:10293000950010929400FC01228130E0220F331F99
:10294000032E000C440B10E000E070E060E080819A
:1029500091810E944A1400908400A091850080918A
:102960009400909195001092810010929100CFBF39
:102970000597A109BC018A2F90E0CF911F910F917B
:1029800008950F931F93CF9310926F0010928000C1
:102990001092710010929000C4E0C0938100C1E0D9
:1029A000C0939100CFB7F8941092850010928400E4
:1029B0001092950010929400FC01208130E0220FCB
:1029C000331F032E000C440B10E000E064E070E0C5
:1029D00090E080E00E944A1400908400A09185005D
:1029E0008091940090919500109281001092910036
:1029F000CFBF0597A109BC018A2F90E0CF911F910D
:102A00000F9108950F931F93CF9310926F00109220
:102A100080001092710010929000C4E0C093810079
:102A2000C1E0C0939100CFB7F89410928500109246
:102A300084001092950010929400FC01208130E0F7
:102A4000220F331F032E000C440B01E010E070E056
:102A500060E090E080E00E944A1400908400A09121
:102A600085008091940090919500109281001092C1
:102A70009100CFBF0597A109BC018A2F90E0CF91AB
:102A80001F910F9108950F931F93CF9310926F0092
:102A9000109280001092710010929000C4E0C093D8
:102AA0008100C1E0C0939100CFB7F89410928500E7
:102AB000109284001092950010929400FC012081E5
:102AC00030E0220F331F032E000C440B10E000E017
:102AD00070E060E090E080E00E944A140090840082
:102AE000A0918500809194009091950010928100B2
:102AF00010929100CFBF0597A109BC018A2F90E0E9
:102B0000CF911F910F910895AF92CF92DF92EF92E4
:102B1000FF920F936901FA01459125917F01FF0F03
:102B2000000BAA24A3940E941F110F91FF90EF9015
:102B3000DF90CF90AF900895CF9310926F001092D6
:102B400080001092710010929000C4E0C093810048
:102B5000C1E0C0939100CFB7F89410928500109215
:102B600084001092950010929400FC01428150E084
:102B7000440F551F4A555C4F30E020E070E060E0A4
:102B8000808191810E94841500908400A09185002D
:102B90008091940090919500109281001092910084
:102BA000CFBF0597A109BC018A2F90E0CF9108956E
:102BB000CF9310926F0010928000109271001092CB
:102BC0009000C4E0C0938100C1E0C0939100CFB7F2
:102BD000F894109285001092840010929500109243
:102BE0009400FC01408150E0440F551F4A555C4F52
:102BF00030E020E064E070E090E080E00E94841526
:102C000000908400A091850080919400909195009F
:102C10001092810010929100CFBF0597A109BC01CD
:102C20008A2F90E0CF910895CF9310926F00109269
:102C300080001092710010929000C4E0C093810057
:102C4000C1E0C0939100CFB7F89410928500109224
:102C500084001092950010929400FC01408150E095
:102C6000440F551F4A555C4F21E030E070E060E0B2
:102C700090E080E00E94841500908400A09185007F
:102C80008091940090919500109281001092910093
:102C9000CFBF0597A109BC018A2F90E0CF9108957D
:102CA000CF9310926F0010928000109271001092DA
:102CB0009000C4E0C0938100C1E0C0939100CFB701
:102CC000F894109285001092840010929500109252
:102CD0009400FC01408150E0440F551F4A555C4F61
:102CE00030E020E070E060E090E080E00E94841539
:102CF00000908400A09185008091940090919500AF
:102D00001092810010929100CFBF0597A109BC01DC
:102D10008A2F90E0CF910895AF92CF92DF92EF92F9
:102D2000FF920F936901FA01459125917F01FF0FF1
:102D3000000BA12C0E941F110F91FF90EF90DF90CC
:102D4000CF90AF900895CF9310926F0010928000B3
:102D50001092710010929000C4E0C0938100C1E015
:102D6000C0939100CFB7F894109285001092840020
:102D70001092950010929400FC01428150E0440FA3
:102D8000551F4A555C4F30E020E070E060E08081E4
:102D900091810E948C1600908400A0918500809102
:102DA0009400909195001092810010929100CFBFF5
:102DB0000597A109BC018A2F90E0CF910895CF9388
:102DC00010926F001092800010927100109290008B
:102DD000C4E0C0938100C1E0C0939100CFB7F894E4
:102DE0001092850010928400109295001092940029
:102DF000FC01408150E0440F551F4A555C4F30E0C4
:102E000020E064E070E090E080E00E948C1600908A
:102E10008400A0918500809194009091950010927B
:102E2000810010929100CFBF0597A109BC018A2FA4
:102E300090E0CF910895CF9310926F001092800090
:102E40001092710010929000C4E0C0938100C1E024
:102E5000C0939100CFB7F89410928500109284002F
:102E60001092950010929400FC01408150E0440FB4
:102E7000551F4A555C4F21E030E070E060E090E083
:102E800080E00E948C1600908400A09185008091C3
:102E90009400909195001092810010929100CFBF04
:102EA0000597A109BC018A2F90E0CF910895CF9397
:102EB00010926F001092800010927100109290009A
:102EC000C4E0C0938100C1E0C0939100CFB7F894F3
:102ED0001092850010928400109295001092940038
:102EE000FC01408150E0440F551F4A555C4F30E0D3
:102EF00020E070E060E090E080E00E948C1600909E
:102F00008400A0918500809194009091950010928A
:102F1000810010929100CFBF0597A109BC018A2FB3
:102F200090E0CF910895803891057CF4603471056C
:102F300064F4DC01A40FB11D1A161B0634F4DB0186
:102F4000A20FB11D1A161B060CF00895599853E0F4
:102F50005EBD6F927F928F92EF92FF920F931F93BD
:102F60006624322F369536953695162F759517951A
:102F7000159515951F3F4CF41095311BC0FC110F92
:102F8000149FE00CF11C061D1FEF00903E01F00C99
:102F900000903F01001D842E97FF0BC0880EC0FEDD
:102FA00002C0880F991FE81AF90A060997FD0395D0
:102FB00088270EBDA0E5B1E050E81503080EA00D6E
:102FC000B11D581B851608F0852E7727E7E0E11B19
:102FD00017FB71F9FEBCE31714F43E2F716090E803
:102FE000981911E061FD14E060FD110F62FD12956A
:102FF000EFEFE19F30016094EEBC7094112460D13A
:103000001EBCE894481168946FB7C1FCEAC0C2FCCA
:10301000A1C071FD03C0332381F577C0A058BF4F15
:10302000582DC0FC0DC0F8941EBC8EB56FBF819F9B
:103030002C91272121292D9300C05A95A1F714C066
:10304000F8941EBC0EB46FBF019E812D3BD1F89445
:103050001EBC0EB46FBF019E712C2C917094272161
:10306000282B2D935A9561F71124A819B1093A9587
:1030700009F402C116F4599A09D1FD01E058FF4F35
:10308000582DC0FC1FC0569518F453952C910CC0B8
:103090008EB51EBC819F2C91262120292D93208145
:1030A0002721212921932C918EB51EBC819F262199
:1030B00020292D93208127212129219300005A9531
:1030C00039F716C0F8941EBC0EB46FBF019E3001D4
:1030D0002C918081F8D00EB41EBC019E009420215A
:1030E00026292D9310948121872981935A9551F790
:1030F0001124A90FB11D3A9509F0BCCF70FFBCC0D7
:1031000026F4599AC3D000C0C895C0FC0DC0F894ED
:103110001EBC8EB56FBF819F2C91262120292D9337
:1031200000C08A94A1F7A8C0F8941EBC8EB56FBFEA
:10313000819FC001C7D0F8941EBC3EB56FBF319FC0
:10314000302D2C9130952323282B2D938A9461F7D1
:10315000000092C071FD03C03323D1F436C0A058E3
:10316000BF4F582DF8941EBC8EB56FBF819F2C9118
:1031700021292D93C8955A95A9F71124A819B109A9
:103180003A9509F479C026F4599A80D000C000C05D
:10319000FD01E058FF4F582D8EB51EBC819F2C912C
:1031A00020292D9320812129219300005A95A1F7F0
:1031B0001124A90FB11D3A9531F770FF5DC02EF4AF
:1031C000599A64D000C000C0C895F8941EBC8EB552
:1031D0006FBF819F2C9120292D93C8958A94A9F7C0
:1031E0004BC071FD03C03323E9F439C0A058BF4F71
:1031F000582D00C0F8941EBC8EB56FBF819F0094FF
:1032000010942C9121212D9300005A9599F71124A7
:10321000A819B1093A9509F42FC026F4599A36D065
:1032200000C000C0FD01E058FF4F582D8EB51EBCF8
:10323000819F009410942C9120212D932081212195
:1032400021935A9599F71124A90FB11D3A9529F7A1
:1032500070FF12C01EF4599A19D000C000C0F89433
:103260001EBC8EB56FBF819F009410942C912021BD
:103270002D9300008A9499F71124599A1F910F9168
:10328000FF90EF908F907F906F9008955998E3E0B2
:10329000EEBD1124E40EF11C011DC0FCE40EC0FCC7
:1032A000F11CC0FC011D0FD00EBD08D0FEBC06D025
:1032B000EEBC05D01EBC00C000C00895000000C0D8
:1032C0000000C895C89508950895CF92EF92FF9297
:1032D0000F93CF9310926F001092800010927100A4
:1032E00010929000C4E0C0938100C1E0C0939100AF
:1032F000CFB7F89410928500109284001092950038
:1033000010929400DC011896EC911897E80FF92FB1
:10331000F11DCC24C39402E0E02EF12C00E02185C5
:10332000428170E060E08D919C910E949317009023
:103330008400A09185008091940090919500109256
:10334000810010929100CFBF0597A109BC018A2F7F
:1033500090E0CF910F91FF90EF90CF900895CF9292
:10336000EF92FF920F93CF9310926F001092800014
:103370001092710010929000C4E0C0938100C1E0EF
:10338000C0939100CFB7F8941092850010928400FA
:103390001092950010929400DC011696EC91E80FC3
:1033A000F92FF11DCC24C39402E0E02EF12C00E0B3
:1033B0002781408164E070E090E080E00E949317F4
:1033C00000908400A09185008091940090919500D8
:1033D0001092810010929100CFBF0597A109BC0106
:1033E0008A2F90E0CF910F91FF90EF90CF900895AA
:1033F000CF92EF92FF920F93CF9310926F001092A3
:1034000080001092710010929000C4E0C09381007F
:10341000C1E0C0939100CFB7F8941092850010924C
:1034200084001092950010929400DC011696EC91A5
:10343000E80FF92FF11DCC24C39402E0E02EF12C0B
:1034400000E02781408170E060E090E080E00E9431
:10345000931700908400A091850080919400909132
:1034600095001092810010929100CFBF0597A1099D
:10347000BC018A2F90E0CF910F91FF90EF90CF90F9
:103480000895CF92EF92FF920F93CF9310926F0017
:10349000109280001092710010929000C4E0C093CE
:1034A0008100C1E0C0939100CFB7F89410928500DD
:1034B000109284001092950010929400DC011896EE
:1034C000EC911897E80FF92FF11DC12C02E0E02EC6
:1034D000F12C00E02185428170E060E08D919C91AB
:1034E0000E94931700908400A09185008091940021
:1034F000909195001092810010929100CFBF059796
:10350000A109BC018A2F90E0CF910F91FF90EF901D
:10351000CF900895CF92EF92FF920F93CF93109296
:103520006F00109280001092710010929000C4E021
:10353000C0938100C1E0C0939100CFB7F89410927E
:103540008500109284001092950010929400DC0186
:103550001696EC91E80FF92FF11DC12C02E0E02E38
:10356000F12C00E02781408164E070E090E080E091
:103570000E94931700908400A09185008091940090
:10358000909195001092810010929100CFBF059705
:10359000A109BC018A2F90E0CF910F91FF90EF908D
:1035A000CF900895CF92EF92FF920F93CF93109206
:1035B0006F00109280001092710010929000C4E091
:1035C000C0938100C1E0C0939100CFB7F8941092EE
:1035D0008500109284001092950010929400DC01F6
:1035E0001696EC91E80FF92FF11DC12C02E0E02EA8
:1035F000F12C00E02781408170E060E090E080E005
:103600000E94931700908400A091850080919400FF
:10361000909195001092810010929100CFBF059774
:10362000A109BC018A2F90E0CF910F91FF90EF90FC
:10363000CF900895EF92FF920F93022E0694069476
:103640000694C0FC000C049EF001EA9DE00CF11C05
:10365000FA9DF00C011DEB9DF00C011DFB9D000D72
:1036600011240E9493170F91FF90EF900895AF924D
:10367000BF92CF92EF92FF920F93CF9310926F0071
:10368000109280001092710010929000C4E0C093DC
:103690008100C1E0C0939100CFB7F89410928500EB
:1036A000109284001092950010929400DC011896FC
:1036B000EC911897E80FF92FF11DB12CA12CCC2417
:1036C000C39402E0E02EF12C00E02185428170E0FD
:1036D00060E08D919C910E941A1B00908400A09143
:1036E0008500809194009091950010928100109235
:1036F0009100CFBF0597A109BC018A2F90E0CF911F
:103700000F91FF90EF90CF90BF90AF900895AF9240
:10371000BF92CF92EF92FF920F93CF9310926F00D0
:10372000109280001092710010929000C4E0C0933B
:103730008100C1E0C0939100CFB7F894109285004A
:10374000109284001092950010929400DC0116965D
:10375000EC91E80FF92FF11DB12CA12CCC24C394CE
:1037600002E0E02EF12C00E02781408164E070E06F
:1037700090E080E00E941A1B00908400A0918500D8
:103780008091940090919500109281001092910088
:10379000CFBF0597A109BC018A2F90E0CF910F916F
:1037A000FF90EF90CF90BF90AF900895AF92BF92EF
:1037B000CF92EF92FF920F93CF9310926F001092DF
:1037C00080001092710010929000C4E0C0938100BC
:1037D000C1E0C0939100CFB7F89410928500109289
:1037E00084001092950010929400DC011696EC91E2
:1037F000E80FF92FF11DAA24A394B12CCC24C39473
:1038000002E0E02EF12C00E02781408170E060E0D2
:1038100090E080E00E941A1B00908400A091850037
:1038200080919400909195001092810010929100E7
:10383000CFBF0597A109BC018A2F90E0CF910F91CE
:10384000FF90EF90CF90BF90AF900895AF92BF924E
:10385000CF92EF92FF920F93CF9310926F0010923E
:1038600080001092710010929000C4E0C09381001B
:10387000C1E0C0939100CFB7F894109285001092E8
:1038800084001092950010929400DC011696EC9141
:10389000E80FF92FF11DB12CA12CCC24C39402E028
:1038A000E02EF12C00E02781408170E060E090E0A4
:1038B00080E00E941A1B00908400A09185008091F6
:1038C0009400909195001092810010929100CFBFCA
:1038D0000597A109BC018A2F90E0CF910F91FF902D
:1038E000EF90CF90BF90AF900895AF92BF92CF92DC
:1038F000EF92FF920F93CF9310926F00109280007F
:103900001092710010929000C4E0C0938100C1E059
:10391000C0939100CFB7F894109285001092840064
:103920001092950010929400DC011896EC91189773
:10393000E80FF92FF11DB12CA12CC12C02E0E02ED3
:10394000F12C00E02185428170E060E08D919C9136
:103950000E941A1B00908400A09185008091940021
:10396000909195001092810010929100CFBF059721
:10397000A109BC018A2F90E0CF910F91FF90EF90A9
:10398000CF90BF90AF900895AF92BF92CF92EF9239
:10399000FF920F93CF9310926F00109280001092BD
:1039A000710010929000C4E0C0938100C1E0C09308
:1039B0009100CFB7F8941092850010928400109275
:1039C000950010929400DC011696EC91E80FF92F07
:1039D000F11DB12CA12CC12C02E0E02EF12C00E055
:1039E0002781408164E070E090E080E00E941A1B33
:1039F00000908400A09185008091940090919500A2
:103A00001092810010929100CFBF0597A109BC01CF
:103A10008A2F90E0CF910F91FF90EF90CF90BF90C1
:103A2000AF900895AF92BF92CF92EF92FF920F9313
:103A3000CF9310926F00109280001092710010923C
:103A40009000C4E0C0938100C1E0C0939100CFB763
:103A5000F8941092850010928400109295001092B4
:103A60009400DC011696EC91E80FF92FF11DAA24C1
:103A7000A394B12CC12C02E0E02EF12C00E02781B0
:103A8000408170E060E090E080E00E941A1B0090AE
:103A90008400A091850080919400909195001092EF
:103AA000810010929100CFBF0597A109BC018A2F18
:103AB00090E0CF910F91FF90EF90CF90BF90AF909B
:103AC0000895AF92BF92CF92EF92FF920F93CF9350
:103AD00010926F001092800010927100109290006E
:103AE000C4E0C0938100C1E0C0939100CFB7F894C7
:103AF000109285001092840010929500109294000C
:103B0000DC011696EC91E80FF92FF11DB12CA12CD8
:103B1000C12C02E0E02EF12C00E02781408170E012
:103B200060E090E080E00E941A1B00908400A09169
:103B300085008091940090919500109281001092E0
:103B40009100CFBF0597A109BC018A2F90E0CF91CA
:103B50000F91FF90EF90CF90BF90AF900895AF92EC
:103B6000BF92CF92EF925998E3E0EEBDFF920F9390
:103B70005701C02E7901042FE2E0EE0EF11C011D69
:103B800000903E01300D00903F01401D4EBD14D00D
:103B90003EBD12D02EBD11D01EBC0FD04EB51EBCE6
:103BA0000CD02EB5599A0E941A1B0F91FF90EF90DE
:103BB000CF90BF90AF9008950000C89500C0C89501
:103BC000000008950895EF92FF920F93CF93109203
:103BD0006F00109280001092710010929000C4E06B
:103BE000C0938100C1E0C0939100CFB7F8941092C8
:103BF0008500109284001092950010929400FC01B0
:103C0000228130E0220F331F032E000C440BF12CD5
:103C1000E12C01E070E060E0808191810E94AF1DA5
:103C200000908400A091850080919400909195006F
:103C30001092810010929100CFBF0597A109BC019D
:103C40008A2F90E0CF910F91FF90EF900895EF921F
:103C5000FF920F93CF9310926F00109280001092FA
:103C6000710010929000C4E0C0938100C1E0C09345
:103C70009100CFB7F89410928500109284001092B2
:103C8000950010929400FC01208130E0220F331F38
:103C9000032E000C440BF12CE12C01E064E070E0F9
:103CA00090E080E00E94AF1D00908400A09185000C
:103CB0008091940090919500109281001092910053
:103CC000CFBF0597A109BC018A2F90E0CF910F913A
:103CD000FF90EF900895EF92FF920F93CF93109281
:103CE0006F00109280001092710010929000C4E05A
:103CF000C0938100C1E0C0939100CFB7F8941092B7
:103D00008500109284001092950010929400FC019E
:103D1000208130E0220F331F032E000C440BEE24D1
:103D2000E394F12C01E070E060E090E080E00E941C
:103D3000AF1D00908400A091850080919400909127
:103D400095001092810010929100CFBF0597A109B4
:103D5000BC018A2F90E0CF910F91FF90EF900895D2
:103D6000EF92FF920F93CF9310926F00109280000A
:103D70001092710010929000C4E0C0938100C1E0E5
:103D8000C0939100CFB7F8941092850010928400F0
:103D90001092950010929400FC01208130E0220FD7
:103DA000331F032E000C440BF12CE12C01E070E0DA
:103DB00060E090E080E00E94AF1D00908400A09140
:103DC000850080919400909195001092810010924E
:103DD0009100CFBF0597A109BC018A2F90E0CF9138
:103DE0000F91FF90EF900895EF92FF920F93CF9372
:103DF00010926F001092800010927100109290004B
:103E0000C4E0C0938100C1E0C0939100CFB7F894A3
:103E100010928500109284001092950010929400E8
:103E2000FC01228130E0220F331F032E000C440BD3
:103E3000F12CE12C00E070E060E0808191810E9433
:103E4000AF1D00908400A091850080919400909116
:103E500095001092810010929100CFBF0597A109A3
:103E6000BC018A2F90E0CF910F91FF90EF900895C1
:103E7000EF92FF920F93CF9310926F0010928000F9
:103E80001092710010929000C4E0C0938100C1E0D4
:103E9000C0939100CFB7F8941092850010928400DF
:103EA0001092950010929400FC01208130E0220FC6
:103EB000331F032E000C440BF12CE12C00E064E0D6
:103EC00070E090E080E00E94AF1D00908400A0911F
:103ED000850080919400909195001092810010923D
:103EE0009100CFBF0597A109BC018A2F90E0CF9127
:103EF0000F91FF90EF900895EF92FF920F93CF9361
:103F000010926F0010928000109271001092900039
:103F1000C4E0C0938100C1E0C0939100CFB7F89492
:103F200010928500109284001092950010929400D7
:103F3000FC01208130E0220F331F032E000C440BC4
:103F4000EE24E394F12C00E070E060E090E080E08B
:103F50000E94AF1D00908400A09185008091940084
:103F6000909195001092810010929100CFBF05971B
:103F7000A109BC018A2F90E0CF910F91FF90EF90A3
:103F80000895EF92FF920F93CF9310926F001092CB
:103F900080001092710010929000C4E0C0938100E4
:103FA000C1E0C0939100CFB7F894109285001092B1
:103FB00084001092950010929400FC01208130E062
:103FC000220F331F032E000C440BF12CE12C00E0D8
:103FD00070E060E090E080E00E94AF1D00908400FF
:103FE000A09185008091940090919500109281009D
:103FF00010929100CFBF0597A109BC018A2F90E0D4
:10400000CF910F91FF90EF9008958F929F92AF9272
:10401000BF920F931F93CF93DF93CDB7DEB7A197D6
:104020000FB6F894DEBF0FBECDBF19A2423008F420
:104030004AE08E010F5D1F4F842E912CB12CA12CD4
:10404000A50194010E94B029E62FB901CA01EA3006
:1040500044F5E05DD801EE938D01232B242B252B15
:1040600079F790E080E0109769F0FD010190002061
:10407000E9F73197AF014A1B5B0BBD018EE595E077
:104080000E943507A1960FB6F894DEBF0FBECDBFD4
:10409000DF91CF911F910F91BF90AF909F908F9024
:1040A0000895E95CD7CFCF92DF92EF92FF92CF9342
:1040B000DF936C01092E000CEE08FF0897FF19C072
:1040C0006DE28EE595E00E944E05EC0166277727AC
:1040D000CB016C197D098E099F094AE00E940520D9
:1040E0008C0F9D1FDF91CF91FF90EF90DF90CF90CD
:1040F00008954AE0C701B601DF91CF91FF90EF909C
:10410000DF90CF900C940520CF92DF92EF92FF9238
:104110006B017C018FEA90E00E9464054AE0C701D0
:10412000B6010E9405208CEA90E0FF90EF90DF90AE
:10413000CF900C9464055F926F927F928F929F92C2
:10414000AF92BF92CF92DF92EF92FF920F931F93A5
:10415000CF93DF93CDB7DEB76B970FB6F894DEBF82
:104160000FBECDBF81EC80937C0081EF85B987EED7
:1041700084B982E38BB982EF8AB9769A6E9880EF20
:1041800081BB10BA80E58CBD81E08DBD0E943107F6
:104190005F9A0E9431075C98E1EBF0E085918EBD5B
:1041A00000000DB407FEFDCFEE3BC1F75C9A81E83D
:1041B0008093640081E0809365005E9AE4E1F0E022
:1041C0008CEF9FEF259135915591459128513549B7
:1041D00009F4CA0180933E0190933F0159988BEAFC
:1041E0000E941607599A8FEF9FEF90936B0580936B
:1041F0006A0570E060E089E191E10E941D2886E097
:10420000E2E1F1E0DE01509601900D928A95E1F72E
:1042100086E0E8E1F1E0DE01569601900D928A9584
:10422000E1F74E0180E1880E911C6E01E6E1CE0EB1
:10423000D11C10E0582C692C7C2C0D2DF401A19080
:104240004F01B12C7501F594E794F194E194F108D4
:1042500083E993E00E946405C5010E94532068E74A
:104260008EE595E00E944E05F60181916F0190E088
:104270000E94532080E693E00E946405C7010E94DB
:10428000532086E593E00E9464058FE393E00E944B
:1042900064058CE193E00E94640580E093E00E9455
:1042A00064051983CE0101960E94DE100E948420CD
:1042B0001983CE0101960E94A3100E9484201983C5
:1042C000CE0101960E9468100E948420FA82E98241
:1042D0001B83CE0101960E942D100E94842083EE44
:1042E00092E00E9464051983CE0101960E94F20FAC
:1042F0000E9484201983CE0101960E94B70F0E946C
:1043000084201983CE0101960E947C0F0E94842094
:10431000FA82E9821B83CE0101960E94410F0E941E
:10432000842086EC92E00E9464051983CE010196F8
:104330000E9457170E9484201983CE0101960E9483
:104340001B170E9484201983CE0101960E94DF165C
:104350000E948420FA82E9821B83CE0101960E948A
:10436000A3160E94842083EA92E00E9464051983C8
:10437000CE0101960E94FC0E0E9484201983CE017A
:1043800001960E94B70E0E9484201983CE010196E7
:104390000E94720E0E948420FA82E9821B83CE0161
:1043A00001960E942C0E0E94842084E892E00E94D4
:1043B00064051983CE0101960E9443150E94842052
:1043C0001983CE0101960E9402150E948420198350
:1043D000CE0101960E94C1140E948420FA82E982D3
:1043E0001B83CE0101960E9480140E9484208BE5DD
:1043F00092E00E9464051983CE0101960E94C11FBC
:104400000E9484201983CE0101960E947C1F0E9485
:1044100084201983CE0101960E94381F0E948420B7
:10442000FA82E9821B83CE0101960E94F41E0E944B
:1044300084208DE292E00E94640586E0E52DF62D51
:10444000DE01119601900D928A95E1F71F8386E0B7
:10445000E72DF02FDE01189601900D928A95E1F775
:10446000CE0101960E94611D0E94842086E0E52D08
:10447000F62DDE01119601900D928A95E1F71F83CA
:1044800086E0E72DF02FDE01189601900D928A95B7
:10449000E1F7CE0101960E94121D0E94842086E061
:1044A000E52DF62DDE01119601900D928A95E1F72A
:1044B0001F8386E0E72DF02FDE01189601900D9204
:1044C0008A95E1F7CE0101960E94C41C0E948420C7
:1044D000FA82E98286E0E52DF62DDE011396019041
:1044E0000D928A95E1F7198786E0E72DF02FDE011E
:1044F0001A9601900D928A95E1F7CE0101960E94DD
:10450000751C0E9484208FEF91E00E94640586E074
:10451000E52DF62DDE01119601900D928A95E1F7B9
:104520001F8386E0E72DF02FDE01189601900D9293
:104530008A95E1F7CE0101960E94D21A0E9484204A
:104540008AEF91E00E94640586E0E52DF62DDE01FC
:10455000119601900D928A95E1F71F8386E0E72D71
:10456000F02FDE01189601900D928A95E1F7CE01A9
:1045700001960E948A1A0E948420FA82E98286E0CB
:10458000E52DF62DDE01139601900D928A95E1F747
:10459000198786E0E72DF02FDE011A9601900D9223
:1045A0008A95E1F7CE0101960E94411A0E9484206B
:1045B00089ED91E00E9464058EEB91E00E94640514
:1045C0001983CE0101960E94F10D0E948420198367
:1045D000CE0101960E94B60D0E9484201983CE015F
:1045E00001960E947B0D0E948420FA82E9821B833F
:1045F000CE0101960E94400D0E94842082EA91E043
:104600000E9464051983CE0101960E94050D0E9447
:1046100084201983CE0101960E94CA0C0E94842036
:104620001983CE0101960E948F0C0E948420FA8289
:10463000E9821B83CE0101960E94540C0E948420C3
:1046400086E891E00E9464051983CE0101960E94DC
:1046500050160E9484201983CE0101960E941416E0
:104660000E9484201983CE0101960E94D8150E94D1
:104670008420FA82E9821B83CE0101960E949C1558
:104680000E94842086E691E00E9464051983CE0191
:1046900001960E940E0C0E9484201983CE0101967F
:1046A0000E94C80B0E9484201983CE0101960E94AB
:1046B000820B0E948420FA82E9821B83CE0101963C
:1046C0000E943B0B0E94842088E491E00E946405D4
:1046D0001983CE0101960E9409140E948420198337
:1046E000CE0101960E94C8130E9484201983CE0136
:1046F00001960E9487130E948420FA82E9821B831C
:10470000CE0101960E9446130E94842080E291E02F
:104710000E9464051983CE0101960E94B01E0E947A
:1047200084201983CE0101960E946B1E0E94842072
:104730001983CE0101960E94271E0E948420FA82CE
:10474000E9821B83CE0101960E94E31D0E94842012
:1047500083EF90E00E94640586E0E52DF62DDE01F2
:10476000119601900D928A95E1F71F8386E0E72D5F
:10477000F02FDE01189601900D928A95E1F7CE0197
:1047800001960E94261C0E94842086E0E52DF62DCD
:10479000DE01119601900D928A95E1F71F8386E064
:1047A000E72DF02FDE01189601900D928A95E1F722
:1047B000CE0101960E94D61B0E94842086E0E52D42
:1047C000F62DDE01119601900D928A95E1F71F8377
:1047D00086E0E72DF02FDE01189601900D928A9564
:1047E000E1F7CE0101960E94871B0E948420FA8285
:1047F000E98286E0E52DF62DDE01139601900D92FB
:104800008A95E1F7198786E0E72DF02FDE011A96E9
:1048100001900D928A95E1F7CE0101960E94371B17
:104820000E94842086EC90E00E94640586E0E52DDD
:10483000F62DDE01119601900D928A95E1F71F8306
:1048400086E0E72DF02FDE01189601900D928A95F3
:10485000E1F7CE0101960E94F8190E94842081ECB4
:1048600090E00E94640586E0E52DF62DDE011196AC
:1048700001900D928A95E1F71F8386E0E72DF02FD6
:10488000DE01189601900D928A95E1F7CE0101960E
:104890000E94AF190E948420FA82E98286E0E52D09
:1048A000F62DDE01139601900D928A95E1F7198796
:1048B00086E0E72DF02FDE011A9601900D928A9581
:1048C000E1F7CE0101960E9465190E9484201F5FC6
:1048D000163009F0B3CC8EEB90E00E9464056B9625
:1048E0000FB6F894DEBF0FBECDBFDF91CF911F9101
:1048F0000F91FF90EF90DF90CF90BF90AF909F907F
:104900008F907F906F905F9008951F920F920FB6D7
:104910000F9211248F939F938091E1009091E10079
:10492000937F9093E10083FF0FC01092E90091E024
:104930009093EB001092EC0092E39093ED001092B4
:104940005D0598E09093F00082FF22C093E0909381
:10495000E9009091F200992319F09AE39093E8000E
:1049600090914501992341F0909145019150909388
:104970004501911101C05D9A90915C05992341F028
:1049800090915C05915090935C05911101C0289A1B
:1049900084FF18C08091E2008E7E81608093E200E7
:1049A0008091E1008F7E8093E100809146018E7EB0
:1049B0008061809346019F918F910F900FBE0F9061
:1049C0001F90189580FFF7CF8091E2008E7E806166
:1049D0008093E2008091E1008E7E8093E1008091DF
:1049E00046018E7E8160E5CF1F920F920FB60F9227
:1049F0001124CF92DF92EF92FF920F931F932F9388
:104A00003F934F935F936F937F938F939F93AF9356
:104A1000BF93EF93FF93CF93DF93CDB7DEB76C9740
:104A2000DEBFCDBF1092E9008091E80083FF25C072
:104A300068E0CE0145960E94410582EF8093E80030
:104A40008D8987FF39C09091E80090FFFCCF982FA7
:104A5000907609F034C19E894F89588D2F89F88C42
:104A6000911131C0803861F5809147018093F10048
:104A70001092F1008EEF8093E8006C960FB6F894D8
:104A8000DEBF0FBECDBFDF91CF91FF91EF91BF9100
:104A9000AF919F918F917F916F915F914F913F91D6
:104AA0002F911F910F91FF90EF90DF90CF900F907B
:104AB0000FBE0F901F9018959EEF9093E800C7CF00
:104AC0001092F100D5CF913059F48111D3CF4130FC
:104AD000510581F6809147018D7F80934701CACFB0
:104AE000933049F48111C6CF4130510519F68091B8
:104AF00047018260F2CF953041F48091E80080FF59
:104B0000FCCF20682093E300B5CF963009F0A9C010
:104B10000B8D1C8D22E01092E9001092430110923F
:104B20004201F2122EC010924101109240010E94E7
:104B300010051F8299E09983FA8291E09E8390EAA2
:104B400098879AEF99872091420130914301275F1E
:104B50003F4F3C832B838D831092E90010924301D9
:104B600010924201109341010093400149E050E04E
:104B7000BE016F5F7F4F80E00E94EA040E94100533
:104B800079CF10934101009340010E947504DC012C
:104B900012960D911C910115110509F451C1D8010E
:104BA000ED91FC910480F581E02DBE016B5E7F4F9D
:104BB000C8010995009709F03EC1F80100851185EB
:104BC000EACFF3E0FF120EC08F89882309F440C0BA
:104BD000823061F440E867E086E198E00E94B70423
:104BE000811148CF81E28093EB0047CF813029F4D7
:104BF00040E86BE08AE098E0F1CF833099F70E94BB
:104C00007504DC011296ED90FC908E010F5F1F4F32
:104C10006801E114F10479F0D701ED91FC9106806F
:104C2000F781E02DB801C7010995080F111DF701A3
:104C3000E084F184EECFD8011C92F60101900020AF
:104C4000E9F73197BF016C197D0940E0C601C6CF75
:104C500064EF77E0FB01449150E080E80E94EA04B1
:104C600009CF973009F4BECF983021F481E08093CA
:104C7000F10000CF993009F0FDCE837009F0B2CF7A
:104C8000E1E3F1E081E031E096E32191222371F04C
:104C90008093E9003093EB00DF0111972C91209372
:104CA000EC009093ED008F5F873079F78EE780936B
:104CB000EA001092EA008F8980935D05DBCE8B8D30
:104CC0009C8D1092E9001092430110924201909342
:104CD000410180934001898D811192C08E899D8907
:104CE000913A49F4813209F07DCF47E050E064E029
:104CF00071E080E0B3CF913209F074CF833269F470
:104D00008F89988DB0E0A0E080930001909301011D
:104D1000A0930201B0930301ADCE803269F480917B
:104D2000E80082FFFCCF67E084E091E00E9441054B
:104D30008BEF8093E8009ECE823209F09BCE8F8964
:104D400080930B01EEEFFFE7859194918B3F9C4D93
:104D500051F1E0E0F8E08091040190910501A0910B
:104D60000601B0910701803B9440A105B105F1F423
:104D700080910B0180FD1AC0EE3F8AE0F80789F5AB
:104D800087E797E791838083809160008093440157
:104D900088E19BE00FB6F894A895809360000FBE61
:104DA0009093600067CEEEEFFAE0D5CF80819181DD
:104DB0008737974709F05ECEA8958091600088619B
:104DC000809360008091440180936000EE3F2AE070
:104DD000F20789F08091FE0A9091FF0A9183808307
:104DE00049CE808191818737980751F29093FF0ACD
:104DF0008093FE0AC5CF1092FF0A1092FE0A3ACEA7
:104E00000E947504DC0112960D911C91011511058B
:104E100009F4E8CED801ED91FC910190F081E02DEC
:104E2000BE016B5E7F4FC8010995811123CEF80149
:104E300000851185EBCF181619060CF41BCED2CEC7
:104E4000F1E0FF12BECE68EF77E004CF0F920FB60D
:104E50008F939F93EF93FF93809139018D5F8D37EF
:104E600008F08D5780933901ECE4F1E080818E4F9A
:104E7000808391819F4F918382818F4F8283838131
:104E80008F4F8383EAE3F1E080818F5F80838181AC
:104E90008F4F818382818F4F828383818F4F838362
:104EA0008FB18F6066991C9B88278F3681F4809123
:104EB0003801981B963068F0E0E0F8E087E78083DF
:104EC000818388E180936000F0936000FFCF90932E
:104ED0003801FF91EF919F918F910FBE0F90189520
:104EE000789483E084BD83E085BD81E080936E008B
:104EF000E1E8F0E083E08083E0E881E08083E1E9BD
:104F000083E08083E0E981E08083E1EC87E08083D7
:104F1000E3EC81E08083E0EC82E08083E2EC81E0FE
:104F20008083EAE787E080838068808310925D0554
:104F300010924701109246018091D70081608093C2
:104F4000D70080EA8093D80089B5806189BD89B592
:104F5000826089BD09B400FEFDCF81E090E00E942F
:104F60001D078091D8008F7C80618093D80080914C
:104F7000E000807F8093E0008091E1008E7E80934E
:104F8000E1008DE08093E200559A209A0E949B20D8
:104F9000C1E088E4E82E81E0F82E90E5C92E91E08A
:104FA000D92E00E010E0D1E080914A01882341F041
:104FB00010924A0101151105B9F30E940000F4CFC7
:104FC00080914C0190914B01282F291B203130F406
:104FD0002F3081F3C3BF889513BEECCFD0934A0125
:104FE00080934B01F70180819181019680839183A9
:104FF0005E98F60180E098E000800EBCC111012CA3
:10500000019780FDFDCF0192B9F70DB45E9AD2CF22
:10501000EEE5F5E01382128288EE93E0A0E0B0E0C6
:1050200084839583A683B78382E291E09183808312
:105030008FEF9FEF9587848708950F931F93CF93EA
:10504000DF93009759F46115710541F4F0E0E0E059
:10505000CF01DF91CF911F910F9108958B01EC014A
:105060006EE070E081E090E00E946828FC01892BEE
:1050700069F380E883830115110571F013870287B6
:1050800081E883838091AE059091AF05892B21F44F
:10509000F093AF05E093AE052097D1F2D187C0879A
:1050A0008381826083838091B0059091B105892BC3
:1050B00079F6F093B105E093B0058091B205909137
:1050C000B305892B29F6F093B305E093B205C0CF61
:1050D0000F931F93CF93DF93869F8001879F100DBF
:1050E000969F100D1124C8010E948428EC0100979E
:1050F00029F0A80170E060E00E94A929CE01DF91AB
:10510000CF911F910F9108950F931F93CF93DF932A
:105110008230910510F482E090E0E091B605F091C4
:10512000B70530E020E0B0E0A0E0309799F4211519
:10513000310509F44AC0281B390B24303105D8F554
:105140008A819B816115710589F1FB0193838283BB
:10515000FE0111C040815181028113814817590716
:10516000E0F04817590799F4109761F012960C93E4
:10517000129713961C933296CF01DF91CF911F9116
:105180000F9108950093B6051093B705F4CF21153C
:10519000310551F04217530738F0A901DB019A019C
:1051A000BD01DF01F801C1CFEF01F9CF9093B70541
:1051B0008093B605CDCFFE01E20FF31F819391934B
:1051C0002250310939832883D7CF2091B4053091FB
:1051D000B505232B41F420910E0130910F0130933E
:1051E000B5052093B40520910C0130910D012115D6
:1051F000310541F42DB73EB7409110015091110196
:10520000241B350BE091B405F091B505E217F307C7
:10521000A0F42E1B3F0B2817390778F0AC014E5F26
:105220005F4F2417350748F04E0F5F1F5093B505A9
:105230004093B405819391939FCFF0E0E0E09CCF41
:10524000CF93DF930097E9F0FC013297138212822B
:10525000A091B605B091B705ED0130E020E01097C0
:10526000A1F420813181820F931F2091B4053091E8
:10527000B5052817390709F061C0F093B505E0932B
:10528000B405DF91CF910895EA01CE17DF07E8F565
:105290004A815B819E0141155105B1F7E901FB830C
:1052A000EA8349915991C40FD51FEC17FD0761F4AA
:1052B000808191810296840F951FE90199838883EB
:1052C000828193819B838A83F0E0E0E012968D9146
:1052D0009C9113970097B9F52D913C911197CD01B1
:1052E0000296820F931F2091B4053091B5052817BF
:1052F000390739F6309751F51092B7051092B60577
:10530000B093B505A093B405BCCFD383C2834081CD
:105310005181840F951FC817D90761F44E5F5F4F05
:1053200088819981480F591F518340838A819B81CD
:10533000938382832115310509F0B0CFF093B7052F
:10534000E093B6059ECFFD01DC01C0CF138212822F
:10535000D7CFDC0101C06D9341505040E0F7089574
:10536000A1E21A2EAA1BBB1BFD010DC0AA1FBB1F69
:10537000EE1FFF1FA217B307E407F50720F0A21BDB
:10538000B30BE40BF50B661F771F881F991F1A9448
:1053900069F760957095809590959B01AC01BD0172
:1053A000CF010895A29FB001B39FC001A39F700DCC
:1053B000811D1124911DB29F700D811D1124911D1D
:1053C0000895DB01582F0E94D229529F800DA49F7F
:1053D000800D11240895EE0FFF1F0590F491E02D2C
:0653E0000994F894FFCFD0
:1053E600FFFFFFFF00E10000000000000000B8051D
:1053F600800002081020408008081020404000006D
:1054060000004E0535078A057F05D0058E05AC05DB
:0854160000C1808100000000CC
:00000001FF
